{"contracts/Strategies/StrategyFactory.sol":{"StrategyFactory":{"abi":[{"inputs":[{"internalType":"address","name":"_token","type":"address"},{"internalType":"address","name":"_strategy","type":"address"}],"name":"addStrategy","outputs":[],"stateMutability":"nonpayable","type":"function"},{"inputs":[{"internalType":"address","name":"_token","type":"address"}],"name":"getBestStrategy","outputs":[{"internalType":"address","name":"","type":"address"}],"stateMutability":"view","type":"function"},{"inputs":[{"internalType":"address","name":"","type":"address"}],"name":"isSupportedToken","outputs":[{"internalType":"bool","name":"","type":"bool"}],"stateMutability":"view","type":"function"},{"inputs":[{"internalType":"address","name":"_strategy","type":"address"}],"name":"isValidStrategy","outputs":[{"internalType":"bool","name":"","type":"bool"}],"stateMutability":"view","type":"function"},{"inputs":[{"internalType":"address","name":"_token","type":"address"},{"internalType":"address","name":"_strategy","type":"address"}],"name":"removeStrategy","outputs":[],"stateMutability":"nonpayable","type":"function"},{"inputs":[{"internalType":"address","name":"","type":"address"},{"internalType":"uint256","name":"","type":"uint256"}],"name":"tokenStrategies","outputs":[{"internalType":"address","name":"strategy","type":"address"},{"internalType":"bool","name":"isActive","type":"bool"}],"stateMutability":"view","type":"function"}],"evm":{"bytecode":{"linkReferences":{},"object":"60808060405234610016576105eb908161001c8239f35b600080fdfe6040608081526004908136101561001557600080fd5b600091823560e01c9081631560468e146103eb5781631806694314610274578163240028e8146102365781638e67d7b31461019c578163a9afd13e14610096575063c02d17271461006557600080fd5b346100925760203660031901126100925760209061008961008461044f565b610527565b90519015158152f35b5080fd5b919050346101985760209081600319360112610194576100b792919261044f565b84936001600160a01b03918216938592909190835b8689528883528589208054821015610189576100e9828492610480565b505460ff8160a01c16610107575b505061010290610502565b6100cc565b16865163c4f9870b60e01b815288868201528481602481855afa90811561017f578b9161014e575b50868111610140575b8391506100f7565b909850945061010238610138565b90508481813d8311610178575b61016581836104e0565b8101031261017457513861012f565b8a80fd5b503d61015b565b88513d8d823e3d90fd5b838984895191168152f35b8380fd5b8280fd5b5050346100925780600319360112610092576101b661044f565b906101bf61046a565b6001600160a01b03908116928116845b818652856020818152858220805484101561022b57856101f0858a93610480565b5054161461020857505061020390610502565b6101cf565b919493509161021c95508252528320610480565b50805460ff60a01b1916905580f35b505050505050505080f35b5050346100925760203660031901126100925760209160ff9082906001600160a01b0361026161044f565b1681526001855220541690519015158152f35b9190503461019857806003193601126101985761028f61044f565b61029761046a565b8251906102a3826104ae565b600b82526020906a616464537472617465677960a81b82840152845192878385016307e763af60e51b81526060602487015282519586608482015282935b868886106103d25750508280945060a4888301015261032d60a48260018060a01b0380809c169889604484015216998a6064830152601f801991011681010360848101845201826104e0565b51906a636f6e736f6c652e6c6f675afa508652858152838620935191610352836104ae565b825281019260018452805490680100000000000000008210156103bf579061037f91600182018155610480565b9490946103ad575051835492516001600160a81b031990931691161790151560a01b60ff60a01b1617905580f35b634e487b7160e01b8652859052602485fd5b634e487b7160e01b875260418652602487fd5b85820181015160a48488010152909401938b93506102e1565b82843461044c578160031936011261044c5761040561044f565b6001600160a01b0390811682526020829052828220805491926024359283101561044c575060ff9161043691610480565b50548351928116835260a01c1615156020820152f35b80fd5b600435906001600160a01b038216820361046557565b600080fd5b602435906001600160a01b038216820361046557565b80548210156104985760005260206000200190600090565b634e487b7160e01b600052603260045260246000fd5b6040810190811067ffffffffffffffff8211176104ca57604052565b634e487b7160e01b600052604160045260246000fd5b90601f8019910116810190811067ffffffffffffffff8211176104ca57604052565b60001981146105115760010190565b634e487b7160e01b600052601160045260246000fd5b60005b60018060a01b03808316806000526020916000835260408060002080548610156105a957859261055b848693610480565b505416149283610584575b505050905061057d5761057890610502565b61052a565b5050600190565b61059a935060ff94600091825252600020610480565b505460a01c1680823880610566565b5050505050505060009056fea26469706673582212205e1bb3180e6bbce2f490dd4c11895161fa0dd4149d4905bd08c8fe91057682d864736f6c63430008140033","opcodes":"PUSH1 0x80 DUP1 PUSH1 0x40 MSTORE CALLVALUE PUSH2 0x16 JUMPI PUSH2 0x5EB SWAP1 DUP2 PUSH2 0x1C DUP3 CODECOPY RETURN JUMPDEST PUSH1 0x0 DUP1 REVERT INVALID PUSH1 0x40 PUSH1 0x80 DUP2 MSTORE PUSH1 0x4 SWAP1 DUP2 CALLDATASIZE LT ISZERO PUSH2 0x15 JUMPI PUSH1 0x0 DUP1 REVERT JUMPDEST PUSH1 0x0 SWAP2 DUP3 CALLDATALOAD PUSH1 0xE0 SHR SWAP1 DUP2 PUSH4 0x1560468E EQ PUSH2 0x3EB JUMPI DUP2 PUSH4 0x18066943 EQ PUSH2 0x274 JUMPI DUP2 PUSH4 0x240028E8 EQ PUSH2 0x236 JUMPI DUP2 PUSH4 0x8E67D7B3 EQ PUSH2 0x19C JUMPI DUP2 PUSH4 0xA9AFD13E EQ PUSH2 0x96 JUMPI POP PUSH4 0xC02D1727 EQ PUSH2 0x65 JUMPI PUSH1 0x0 DUP1 REVERT JUMPDEST CALLVALUE PUSH2 0x92 JUMPI PUSH1 0x20 CALLDATASIZE PUSH1 0x3 NOT ADD SLT PUSH2 0x92 JUMPI PUSH1 0x20 SWAP1 PUSH2 0x89 PUSH2 0x84 PUSH2 0x44F JUMP JUMPDEST PUSH2 0x527 JUMP JUMPDEST SWAP1 MLOAD SWAP1 ISZERO ISZERO DUP2 MSTORE RETURN JUMPDEST POP DUP1 REVERT JUMPDEST SWAP2 SWAP1 POP CALLVALUE PUSH2 0x198 JUMPI PUSH1 0x20 SWAP1 DUP2 PUSH1 0x3 NOT CALLDATASIZE ADD SLT PUSH2 0x194 JUMPI PUSH2 0xB7 SWAP3 SWAP2 SWAP3 PUSH2 0x44F JUMP JUMPDEST DUP5 SWAP4 PUSH1 0x1 PUSH1 0x1 PUSH1 0xA0 SHL SUB SWAP2 DUP3 AND SWAP4 DUP6 SWAP3 SWAP1 SWAP2 SWAP1 DUP4 JUMPDEST DUP7 DUP10 MSTORE DUP9 DUP4 MSTORE DUP6 DUP10 KECCAK256 DUP1 SLOAD DUP3 LT ISZERO PUSH2 0x189 JUMPI PUSH2 0xE9 DUP3 DUP5 SWAP3 PUSH2 0x480 JUMP JUMPDEST POP SLOAD PUSH1 0xFF DUP2 PUSH1 0xA0 SHR AND PUSH2 0x107 JUMPI JUMPDEST POP POP PUSH2 0x102 SWAP1 PUSH2 0x502 JUMP JUMPDEST PUSH2 0xCC JUMP JUMPDEST AND DUP7 MLOAD PUSH4 0xC4F9870B PUSH1 0xE0 SHL DUP2 MSTORE DUP9 DUP7 DUP3 ADD MSTORE DUP5 DUP2 PUSH1 0x24 DUP2 DUP6 GAS STATICCALL SWAP1 DUP2 ISZERO PUSH2 0x17F JUMPI DUP12 SWAP2 PUSH2 0x14E JUMPI JUMPDEST POP DUP7 DUP2 GT PUSH2 0x140 JUMPI JUMPDEST DUP4 SWAP2 POP PUSH2 0xF7 JUMP JUMPDEST SWAP1 SWAP9 POP SWAP5 POP PUSH2 0x102 CODESIZE PUSH2 0x138 JUMP JUMPDEST SWAP1 POP DUP5 DUP2 DUP2 RETURNDATASIZE DUP4 GT PUSH2 0x178 JUMPI JUMPDEST PUSH2 0x165 DUP2 DUP4 PUSH2 0x4E0 JUMP JUMPDEST DUP2 ADD SUB SLT PUSH2 0x174 JUMPI MLOAD CODESIZE PUSH2 0x12F JUMP JUMPDEST DUP11 DUP1 REVERT JUMPDEST POP RETURNDATASIZE PUSH2 0x15B JUMP JUMPDEST DUP9 MLOAD RETURNDATASIZE DUP14 DUP3 RETURNDATACOPY RETURNDATASIZE SWAP1 REVERT JUMPDEST DUP4 DUP10 DUP5 DUP10 MLOAD SWAP2 AND DUP2 MSTORE RETURN JUMPDEST DUP4 DUP1 REVERT JUMPDEST DUP3 DUP1 REVERT JUMPDEST POP POP CALLVALUE PUSH2 0x92 JUMPI DUP1 PUSH1 0x3 NOT CALLDATASIZE ADD SLT PUSH2 0x92 JUMPI PUSH2 0x1B6 PUSH2 0x44F JUMP JUMPDEST SWAP1 PUSH2 0x1BF PUSH2 0x46A JUMP JUMPDEST PUSH1 0x1 PUSH1 0x1 PUSH1 0xA0 SHL SUB SWAP1 DUP2 AND SWAP3 DUP2 AND DUP5 JUMPDEST DUP2 DUP7 MSTORE DUP6 PUSH1 0x20 DUP2 DUP2 MSTORE DUP6 DUP3 KECCAK256 DUP1 SLOAD DUP5 LT ISZERO PUSH2 0x22B JUMPI DUP6 PUSH2 0x1F0 DUP6 DUP11 SWAP4 PUSH2 0x480 JUMP JUMPDEST POP SLOAD AND EQ PUSH2 0x208 JUMPI POP POP PUSH2 0x203 SWAP1 PUSH2 0x502 JUMP JUMPDEST PUSH2 0x1CF JUMP JUMPDEST SWAP2 SWAP5 SWAP4 POP SWAP2 PUSH2 0x21C SWAP6 POP DUP3 MSTORE MSTORE DUP4 KECCAK256 PUSH2 0x480 JUMP JUMPDEST POP DUP1 SLOAD PUSH1 0xFF PUSH1 0xA0 SHL NOT AND SWAP1 SSTORE DUP1 RETURN JUMPDEST POP POP POP POP POP POP POP POP DUP1 RETURN JUMPDEST POP POP CALLVALUE PUSH2 0x92 JUMPI PUSH1 0x20 CALLDATASIZE PUSH1 0x3 NOT ADD SLT PUSH2 0x92 JUMPI PUSH1 0x20 SWAP2 PUSH1 0xFF SWAP1 DUP3 SWAP1 PUSH1 0x1 PUSH1 0x1 PUSH1 0xA0 SHL SUB PUSH2 0x261 PUSH2 0x44F JUMP JUMPDEST AND DUP2 MSTORE PUSH1 0x1 DUP6 MSTORE KECCAK256 SLOAD AND SWAP1 MLOAD SWAP1 ISZERO ISZERO DUP2 MSTORE RETURN JUMPDEST SWAP2 SWAP1 POP CALLVALUE PUSH2 0x198 JUMPI DUP1 PUSH1 0x3 NOT CALLDATASIZE ADD SLT PUSH2 0x198 JUMPI PUSH2 0x28F PUSH2 0x44F JUMP JUMPDEST PUSH2 0x297 PUSH2 0x46A JUMP JUMPDEST DUP3 MLOAD SWAP1 PUSH2 0x2A3 DUP3 PUSH2 0x4AE JUMP JUMPDEST PUSH1 0xB DUP3 MSTORE PUSH1 0x20 SWAP1 PUSH11 0x6164645374726174656779 PUSH1 0xA8 SHL DUP3 DUP5 ADD MSTORE DUP5 MLOAD SWAP3 DUP8 DUP4 DUP6 ADD PUSH4 0x7E763AF PUSH1 0xE5 SHL DUP2 MSTORE PUSH1 0x60 PUSH1 0x24 DUP8 ADD MSTORE DUP3 MLOAD SWAP6 DUP7 PUSH1 0x84 DUP3 ADD MSTORE DUP3 SWAP4 JUMPDEST DUP7 DUP9 DUP7 LT PUSH2 0x3D2 JUMPI POP POP DUP3 DUP1 SWAP5 POP PUSH1 0xA4 DUP9 DUP4 ADD ADD MSTORE PUSH2 0x32D PUSH1 0xA4 DUP3 PUSH1 0x1 DUP1 PUSH1 0xA0 SHL SUB DUP1 DUP1 SWAP13 AND SWAP9 DUP10 PUSH1 0x44 DUP5 ADD MSTORE AND SWAP10 DUP11 PUSH1 0x64 DUP4 ADD MSTORE PUSH1 0x1F DUP1 NOT SWAP2 ADD AND DUP2 ADD SUB PUSH1 0x84 DUP2 ADD DUP5 MSTORE ADD DUP3 PUSH2 0x4E0 JUMP JUMPDEST MLOAD SWAP1 PUSH11 0x636F6E736F6C652E6C6F67 GAS STATICCALL POP DUP7 MSTORE DUP6 DUP2 MSTORE DUP4 DUP7 KECCAK256 SWAP4 MLOAD SWAP2 PUSH2 0x352 DUP4 PUSH2 0x4AE JUMP JUMPDEST DUP3 MSTORE DUP2 ADD SWAP3 PUSH1 0x1 DUP5 MSTORE DUP1 SLOAD SWAP1 PUSH9 0x10000000000000000 DUP3 LT ISZERO PUSH2 0x3BF JUMPI SWAP1 PUSH2 0x37F SWAP2 PUSH1 0x1 DUP3 ADD DUP2 SSTORE PUSH2 0x480 JUMP JUMPDEST SWAP5 SWAP1 SWAP5 PUSH2 0x3AD JUMPI POP MLOAD DUP4 SLOAD SWAP3 MLOAD PUSH1 0x1 PUSH1 0x1 PUSH1 0xA8 SHL SUB NOT SWAP1 SWAP4 AND SWAP2 AND OR SWAP1 ISZERO ISZERO PUSH1 0xA0 SHL PUSH1 0xFF PUSH1 0xA0 SHL AND OR SWAP1 SSTORE DUP1 RETURN JUMPDEST PUSH4 0x4E487B71 PUSH1 0xE0 SHL DUP7 MSTORE DUP6 SWAP1 MSTORE PUSH1 0x24 DUP6 REVERT JUMPDEST PUSH4 0x4E487B71 PUSH1 0xE0 SHL DUP8 MSTORE PUSH1 0x41 DUP7 MSTORE PUSH1 0x24 DUP8 REVERT JUMPDEST DUP6 DUP3 ADD DUP2 ADD MLOAD PUSH1 0xA4 DUP5 DUP9 ADD ADD MSTORE SWAP1 SWAP5 ADD SWAP4 DUP12 SWAP4 POP PUSH2 0x2E1 JUMP JUMPDEST DUP3 DUP5 CALLVALUE PUSH2 0x44C JUMPI DUP2 PUSH1 0x3 NOT CALLDATASIZE ADD SLT PUSH2 0x44C JUMPI PUSH2 0x405 PUSH2 0x44F JUMP JUMPDEST PUSH1 0x1 PUSH1 0x1 PUSH1 0xA0 SHL SUB SWAP1 DUP2 AND DUP3 MSTORE PUSH1 0x20 DUP3 SWAP1 MSTORE DUP3 DUP3 KECCAK256 DUP1 SLOAD SWAP2 SWAP3 PUSH1 0x24 CALLDATALOAD SWAP3 DUP4 LT ISZERO PUSH2 0x44C JUMPI POP PUSH1 0xFF SWAP2 PUSH2 0x436 SWAP2 PUSH2 0x480 JUMP JUMPDEST POP SLOAD DUP4 MLOAD SWAP3 DUP2 AND DUP4 MSTORE PUSH1 0xA0 SHR AND ISZERO ISZERO PUSH1 0x20 DUP3 ADD MSTORE RETURN JUMPDEST DUP1 REVERT JUMPDEST PUSH1 0x4 CALLDATALOAD SWAP1 PUSH1 0x1 PUSH1 0x1 PUSH1 0xA0 SHL SUB DUP3 AND DUP3 SUB PUSH2 0x465 JUMPI JUMP JUMPDEST PUSH1 0x0 DUP1 REVERT JUMPDEST PUSH1 0x24 CALLDATALOAD SWAP1 PUSH1 0x1 PUSH1 0x1 PUSH1 0xA0 SHL SUB DUP3 AND DUP3 SUB PUSH2 0x465 JUMPI JUMP JUMPDEST DUP1 SLOAD DUP3 LT ISZERO PUSH2 0x498 JUMPI PUSH1 0x0 MSTORE PUSH1 0x20 PUSH1 0x0 KECCAK256 ADD SWAP1 PUSH1 0x0 SWAP1 JUMP JUMPDEST PUSH4 0x4E487B71 PUSH1 0xE0 SHL PUSH1 0x0 MSTORE PUSH1 0x32 PUSH1 0x4 MSTORE PUSH1 0x24 PUSH1 0x0 REVERT JUMPDEST PUSH1 0x40 DUP2 ADD SWAP1 DUP2 LT PUSH8 0xFFFFFFFFFFFFFFFF DUP3 GT OR PUSH2 0x4CA JUMPI PUSH1 0x40 MSTORE JUMP JUMPDEST PUSH4 0x4E487B71 PUSH1 0xE0 SHL PUSH1 0x0 MSTORE PUSH1 0x41 PUSH1 0x4 MSTORE PUSH1 0x24 PUSH1 0x0 REVERT JUMPDEST SWAP1 PUSH1 0x1F DUP1 NOT SWAP2 ADD AND DUP2 ADD SWAP1 DUP2 LT PUSH8 0xFFFFFFFFFFFFFFFF DUP3 GT OR PUSH2 0x4CA JUMPI PUSH1 0x40 MSTORE JUMP JUMPDEST PUSH1 0x0 NOT DUP2 EQ PUSH2 0x511 JUMPI PUSH1 0x1 ADD SWAP1 JUMP JUMPDEST PUSH4 0x4E487B71 PUSH1 0xE0 SHL PUSH1 0x0 MSTORE PUSH1 0x11 PUSH1 0x4 MSTORE PUSH1 0x24 PUSH1 0x0 REVERT JUMPDEST PUSH1 0x0 JUMPDEST PUSH1 0x1 DUP1 PUSH1 0xA0 SHL SUB DUP1 DUP4 AND DUP1 PUSH1 0x0 MSTORE PUSH1 0x20 SWAP2 PUSH1 0x0 DUP4 MSTORE PUSH1 0x40 DUP1 PUSH1 0x0 KECCAK256 DUP1 SLOAD DUP7 LT ISZERO PUSH2 0x5A9 JUMPI DUP6 SWAP3 PUSH2 0x55B DUP5 DUP7 SWAP4 PUSH2 0x480 JUMP JUMPDEST POP SLOAD AND EQ SWAP3 DUP4 PUSH2 0x584 JUMPI JUMPDEST POP POP POP SWAP1 POP PUSH2 0x57D JUMPI PUSH2 0x578 SWAP1 PUSH2 0x502 JUMP JUMPDEST PUSH2 0x52A JUMP JUMPDEST POP POP PUSH1 0x1 SWAP1 JUMP JUMPDEST PUSH2 0x59A SWAP4 POP PUSH1 0xFF SWAP5 PUSH1 0x0 SWAP2 DUP3 MSTORE MSTORE PUSH1 0x0 KECCAK256 PUSH2 0x480 JUMP JUMPDEST POP SLOAD PUSH1 0xA0 SHR AND DUP1 DUP3 CODESIZE DUP1 PUSH2 0x566 JUMP JUMPDEST POP POP POP POP POP POP POP PUSH1 0x0 SWAP1 JUMP INVALID LOG2 PUSH5 0x6970667358 0x22 SLT KECCAK256 0x5E SHL 0xB3 XOR 0xE PUSH12 0xBCE2F490DD4C11895161FA0D 0xD4 EQ SWAP14 0x49 SDIV 0xBD ADDMOD 0xC8 INVALID SWAP2 SDIV PUSH23 0x82D864736F6C6343000814003300000000000000000000 "},"methodIdentifiers":{"addStrategy(address,address)":"18066943","getBestStrategy(address)":"a9afd13e","isSupportedToken(address)":"240028e8","isValidStrategy(address)":"c02d1727","removeStrategy(address,address)":"8e67d7b3","tokenStrategies(address,uint256)":"1560468e"}}}}}