{"contracts/core/FeeManager.sol":{"FeeManager":{"abi":[{"inputs":[{"internalType":"address","name":"_feeReceiver","type":"address"}],"stateMutability":"nonpayable","type":"constructor"},{"anonymous":false,"inputs":[{"indexed":false,"internalType":"uint256","name":"newFee","type":"uint256"}],"name":"ManagementFeeUpdated","type":"event"},{"anonymous":false,"inputs":[{"indexed":false,"internalType":"uint256","name":"newFee","type":"uint256"}],"name":"WithdrawalFeeUpdated","type":"event"},{"inputs":[{"internalType":"address","name":"token","type":"address"},{"internalType":"uint256","name":"amount","type":"uint256"}],"name":"chargeManagementFee","outputs":[],"stateMutability":"nonpayable","type":"function"},{"inputs":[{"internalType":"address","name":"token","type":"address"},{"internalType":"uint256","name":"amount","type":"uint256"}],"name":"chargeWithdrawalFee","outputs":[],"stateMutability":"nonpayable","type":"function"},{"inputs":[],"name":"feeReceiver","outputs":[{"internalType":"address","name":"","type":"address"}],"stateMutability":"view","type":"function"},{"inputs":[],"name":"managementFee","outputs":[{"internalType":"uint256","name":"","type":"uint256"}],"stateMutability":"view","type":"function"},{"inputs":[],"name":"owner","outputs":[{"internalType":"address","name":"","type":"address"}],"stateMutability":"view","type":"function"},{"inputs":[{"internalType":"uint256","name":"_fee","type":"uint256"}],"name":"setManagementFee","outputs":[],"stateMutability":"nonpayable","type":"function"},{"inputs":[{"internalType":"uint256","name":"_fee","type":"uint256"}],"name":"setWithdrawalFee","outputs":[],"stateMutability":"nonpayable","type":"function"},{"inputs":[],"name":"withdrawalFee","outputs":[{"internalType":"uint256","name":"","type":"uint256"}],"stateMutability":"view","type":"function"}],"evm":{"bytecode":{"linkReferences":{},"object":"60803461007a57601f6104d838819003918201601f19168301916001600160401b0383118484101761007f5780849260209460405283398101031261007a57516001600160a01b0381169081900361007a5760018060a01b031933816000541617600055600154161760015560405161044290816100968239f35b600080fd5b634e487b7160e01b600052604160045260246000fdfe604060808152600436101561001357600080fd5b600090813560e01c8063044eaffd1461028b5780638bc7e8c41461026d5780638da5cb5b14610246578063a6f7f5d614610228578063ac1e5025146101c0578063b3f0067414610198578063c266e2d2146100e25763fe56e2321461007757600080fd5b346100de5760203660031901126100de5760207f2147e2bc8c39e67f74b1a9e08896ea1485442096765942206af1f4bc8bcde91791600435906100c460018060a01b0386541633146102dd565b6100d2612710831115610319565b8160025551908152a180f35b5080fd5b50346100de5761014f9060206101096127106100fd366102b2565b60039391935490610354565b049061011682151561037d565b600154845163a9059cbb60e01b81526001600160a01b039182166004820152602481019390935291948592839188919083906044820190565b0393165af190811561018f5750610164575080f35b6101849060203d8111610188575b61017c81836103bc565b8101906103f4565b5080f35b503d610172565b513d84823e3d90fd5b50346100de57816003193601126100de5760015490516001600160a01b039091168152602090f35b50346100de5760203660031901126100de5760207fe94edcc114da5287ecb30ee8aacf12e6c16b11b8583d7f9e477ab1616e33d53d916004359061020e60018060a01b0386541633146102dd565b61021c612710831115610319565b8160035551908152a180f35b50346100de57816003193601126100de576020906002549051908152f35b50346100de57816003193601126100de57905490516001600160a01b039091168152602090f35b50346100de57816003193601126100de576020906003549051908152f35b50346100de5761014f9060206101096127106102a6366102b2565b60029391935490610354565b60409060031901126102d8576004356001600160a01b03811681036102d8579060243590565b600080fd5b156102e457565b60405162461bcd60e51b815260206004820152600d60248201526c2737ba103a34329037bbb732b960991b6044820152606490fd5b1561032057565b60405162461bcd60e51b815260206004820152600c60248201526b08ccaca40e8dede40d0d2ced60a31b6044820152606490fd5b8181029291811591840414171561036757565b634e487b7160e01b600052601160045260246000fd5b1561038457565b60405162461bcd60e51b815260206004820152601060248201526f4e6f2066656520746f2063686172676560801b6044820152606490fd5b90601f8019910116810190811067ffffffffffffffff8211176103de57604052565b634e487b7160e01b600052604160045260246000fd5b908160209103126102d8575180151581036102d8579056fea2646970667358221220a7d9361726234c97c5c12b07d07dfdac3dfffcb9013ca222aedde7719e32f2c064736f6c63430008140033","opcodes":"PUSH1 0x80 CALLVALUE PUSH2 0x7A JUMPI PUSH1 0x1F PUSH2 0x4D8 CODESIZE DUP2 SWAP1 SUB SWAP2 DUP3 ADD PUSH1 0x1F NOT AND DUP4 ADD SWAP2 PUSH1 0x1 PUSH1 0x1 PUSH1 0x40 SHL SUB DUP4 GT DUP5 DUP5 LT OR PUSH2 0x7F JUMPI DUP1 DUP5 SWAP3 PUSH1 0x20 SWAP5 PUSH1 0x40 MSTORE DUP4 CODECOPY DUP2 ADD SUB SLT PUSH2 0x7A JUMPI MLOAD PUSH1 0x1 PUSH1 0x1 PUSH1 0xA0 SHL SUB DUP2 AND SWAP1 DUP2 SWAP1 SUB PUSH2 0x7A JUMPI PUSH1 0x1 DUP1 PUSH1 0xA0 SHL SUB NOT CALLER DUP2 PUSH1 0x0 SLOAD AND OR PUSH1 0x0 SSTORE PUSH1 0x1 SLOAD AND OR PUSH1 0x1 SSTORE PUSH1 0x40 MLOAD PUSH2 0x442 SWAP1 DUP2 PUSH2 0x96 DUP3 CODECOPY RETURN JUMPDEST PUSH1 0x0 DUP1 REVERT JUMPDEST PUSH4 0x4E487B71 PUSH1 0xE0 SHL PUSH1 0x0 MSTORE PUSH1 0x41 PUSH1 0x4 MSTORE PUSH1 0x24 PUSH1 0x0 REVERT INVALID PUSH1 0x40 PUSH1 0x80 DUP2 MSTORE PUSH1 0x4 CALLDATASIZE LT ISZERO PUSH2 0x13 JUMPI PUSH1 0x0 DUP1 REVERT JUMPDEST PUSH1 0x0 SWAP1 DUP2 CALLDATALOAD PUSH1 0xE0 SHR DUP1 PUSH4 0x44EAFFD EQ PUSH2 0x28B JUMPI DUP1 PUSH4 0x8BC7E8C4 EQ PUSH2 0x26D JUMPI DUP1 PUSH4 0x8DA5CB5B EQ PUSH2 0x246 JUMPI DUP1 PUSH4 0xA6F7F5D6 EQ PUSH2 0x228 JUMPI DUP1 PUSH4 0xAC1E5025 EQ PUSH2 0x1C0 JUMPI DUP1 PUSH4 0xB3F00674 EQ PUSH2 0x198 JUMPI DUP1 PUSH4 0xC266E2D2 EQ PUSH2 0xE2 JUMPI PUSH4 0xFE56E232 EQ PUSH2 0x77 JUMPI PUSH1 0x0 DUP1 REVERT JUMPDEST CALLVALUE PUSH2 0xDE JUMPI PUSH1 0x20 CALLDATASIZE PUSH1 0x3 NOT ADD SLT PUSH2 0xDE JUMPI PUSH1 0x20 PUSH32 0x2147E2BC8C39E67F74B1A9E08896EA1485442096765942206AF1F4BC8BCDE917 SWAP2 PUSH1 0x4 CALLDATALOAD SWAP1 PUSH2 0xC4 PUSH1 0x1 DUP1 PUSH1 0xA0 SHL SUB DUP7 SLOAD AND CALLER EQ PUSH2 0x2DD JUMP JUMPDEST PUSH2 0xD2 PUSH2 0x2710 DUP4 GT ISZERO PUSH2 0x319 JUMP JUMPDEST DUP2 PUSH1 0x2 SSTORE MLOAD SWAP1 DUP2 MSTORE LOG1 DUP1 RETURN JUMPDEST POP DUP1 REVERT JUMPDEST POP CALLVALUE PUSH2 0xDE JUMPI PUSH2 0x14F SWAP1 PUSH1 0x20 PUSH2 0x109 PUSH2 0x2710 PUSH2 0xFD CALLDATASIZE PUSH2 0x2B2 JUMP JUMPDEST PUSH1 0x3 SWAP4 SWAP2 SWAP4 SLOAD SWAP1 PUSH2 0x354 JUMP JUMPDEST DIV SWAP1 PUSH2 0x116 DUP3 ISZERO ISZERO PUSH2 0x37D JUMP JUMPDEST PUSH1 0x1 SLOAD DUP5 MLOAD PUSH4 0xA9059CBB PUSH1 0xE0 SHL DUP2 MSTORE PUSH1 0x1 PUSH1 0x1 PUSH1 0xA0 SHL SUB SWAP2 DUP3 AND PUSH1 0x4 DUP3 ADD MSTORE PUSH1 0x24 DUP2 ADD SWAP4 SWAP1 SWAP4 MSTORE SWAP2 SWAP5 DUP6 SWAP3 DUP4 SWAP2 DUP9 SWAP2 SWAP1 DUP4 SWAP1 PUSH1 0x44 DUP3 ADD SWAP1 JUMP JUMPDEST SUB SWAP4 AND GAS CALL SWAP1 DUP2 ISZERO PUSH2 0x18F JUMPI POP PUSH2 0x164 JUMPI POP DUP1 RETURN JUMPDEST PUSH2 0x184 SWAP1 PUSH1 0x20 RETURNDATASIZE DUP2 GT PUSH2 0x188 JUMPI JUMPDEST PUSH2 0x17C DUP2 DUP4 PUSH2 0x3BC JUMP JUMPDEST DUP2 ADD SWAP1 PUSH2 0x3F4 JUMP JUMPDEST POP DUP1 RETURN JUMPDEST POP RETURNDATASIZE PUSH2 0x172 JUMP JUMPDEST MLOAD RETURNDATASIZE DUP5 DUP3 RETURNDATACOPY RETURNDATASIZE SWAP1 REVERT JUMPDEST POP CALLVALUE PUSH2 0xDE JUMPI DUP2 PUSH1 0x3 NOT CALLDATASIZE ADD SLT PUSH2 0xDE JUMPI PUSH1 0x1 SLOAD SWAP1 MLOAD PUSH1 0x1 PUSH1 0x1 PUSH1 0xA0 SHL SUB SWAP1 SWAP2 AND DUP2 MSTORE PUSH1 0x20 SWAP1 RETURN JUMPDEST POP CALLVALUE PUSH2 0xDE JUMPI PUSH1 0x20 CALLDATASIZE PUSH1 0x3 NOT ADD SLT PUSH2 0xDE JUMPI PUSH1 0x20 PUSH32 0xE94EDCC114DA5287ECB30EE8AACF12E6C16B11B8583D7F9E477AB1616E33D53D SWAP2 PUSH1 0x4 CALLDATALOAD SWAP1 PUSH2 0x20E PUSH1 0x1 DUP1 PUSH1 0xA0 SHL SUB DUP7 SLOAD AND CALLER EQ PUSH2 0x2DD JUMP JUMPDEST PUSH2 0x21C PUSH2 0x2710 DUP4 GT ISZERO PUSH2 0x319 JUMP JUMPDEST DUP2 PUSH1 0x3 SSTORE MLOAD SWAP1 DUP2 MSTORE LOG1 DUP1 RETURN JUMPDEST POP CALLVALUE PUSH2 0xDE JUMPI DUP2 PUSH1 0x3 NOT CALLDATASIZE ADD SLT PUSH2 0xDE JUMPI PUSH1 0x20 SWAP1 PUSH1 0x2 SLOAD SWAP1 MLOAD SWAP1 DUP2 MSTORE RETURN JUMPDEST POP CALLVALUE PUSH2 0xDE JUMPI DUP2 PUSH1 0x3 NOT CALLDATASIZE ADD SLT PUSH2 0xDE JUMPI SWAP1 SLOAD SWAP1 MLOAD PUSH1 0x1 PUSH1 0x1 PUSH1 0xA0 SHL SUB SWAP1 SWAP2 AND DUP2 MSTORE PUSH1 0x20 SWAP1 RETURN JUMPDEST POP CALLVALUE PUSH2 0xDE JUMPI DUP2 PUSH1 0x3 NOT CALLDATASIZE ADD SLT PUSH2 0xDE JUMPI PUSH1 0x20 SWAP1 PUSH1 0x3 SLOAD SWAP1 MLOAD SWAP1 DUP2 MSTORE RETURN JUMPDEST POP CALLVALUE PUSH2 0xDE JUMPI PUSH2 0x14F SWAP1 PUSH1 0x20 PUSH2 0x109 PUSH2 0x2710 PUSH2 0x2A6 CALLDATASIZE PUSH2 0x2B2 JUMP JUMPDEST PUSH1 0x2 SWAP4 SWAP2 SWAP4 SLOAD SWAP1 PUSH2 0x354 JUMP JUMPDEST PUSH1 0x40 SWAP1 PUSH1 0x3 NOT ADD SLT PUSH2 0x2D8 JUMPI PUSH1 0x4 CALLDATALOAD PUSH1 0x1 PUSH1 0x1 PUSH1 0xA0 SHL SUB DUP2 AND DUP2 SUB PUSH2 0x2D8 JUMPI SWAP1 PUSH1 0x24 CALLDATALOAD SWAP1 JUMP JUMPDEST PUSH1 0x0 DUP1 REVERT JUMPDEST ISZERO PUSH2 0x2E4 JUMPI JUMP JUMPDEST PUSH1 0x40 MLOAD PUSH3 0x461BCD PUSH1 0xE5 SHL DUP2 MSTORE PUSH1 0x20 PUSH1 0x4 DUP3 ADD MSTORE PUSH1 0xD PUSH1 0x24 DUP3 ADD MSTORE PUSH13 0x2737BA103A34329037BBB732B9 PUSH1 0x99 SHL PUSH1 0x44 DUP3 ADD MSTORE PUSH1 0x64 SWAP1 REVERT JUMPDEST ISZERO PUSH2 0x320 JUMPI JUMP JUMPDEST PUSH1 0x40 MLOAD PUSH3 0x461BCD PUSH1 0xE5 SHL DUP2 MSTORE PUSH1 0x20 PUSH1 0x4 DUP3 ADD MSTORE PUSH1 0xC PUSH1 0x24 DUP3 ADD MSTORE PUSH12 0x8CCACA40E8DEDE40D0D2CED PUSH1 0xA3 SHL PUSH1 0x44 DUP3 ADD MSTORE PUSH1 0x64 SWAP1 REVERT JUMPDEST DUP2 DUP2 MUL SWAP3 SWAP2 DUP2 ISZERO SWAP2 DUP5 DIV EQ OR ISZERO PUSH2 0x367 JUMPI JUMP JUMPDEST PUSH4 0x4E487B71 PUSH1 0xE0 SHL PUSH1 0x0 MSTORE PUSH1 0x11 PUSH1 0x4 MSTORE PUSH1 0x24 PUSH1 0x0 REVERT JUMPDEST ISZERO PUSH2 0x384 JUMPI JUMP JUMPDEST PUSH1 0x40 MLOAD PUSH3 0x461BCD PUSH1 0xE5 SHL DUP2 MSTORE PUSH1 0x20 PUSH1 0x4 DUP3 ADD MSTORE PUSH1 0x10 PUSH1 0x24 DUP3 ADD MSTORE PUSH16 0x4E6F2066656520746F20636861726765 PUSH1 0x80 SHL PUSH1 0x44 DUP3 ADD MSTORE PUSH1 0x64 SWAP1 REVERT JUMPDEST SWAP1 PUSH1 0x1F DUP1 NOT SWAP2 ADD AND DUP2 ADD SWAP1 DUP2 LT PUSH8 0xFFFFFFFFFFFFFFFF DUP3 GT OR PUSH2 0x3DE JUMPI PUSH1 0x40 MSTORE JUMP JUMPDEST PUSH4 0x4E487B71 PUSH1 0xE0 SHL PUSH1 0x0 MSTORE PUSH1 0x41 PUSH1 0x4 MSTORE PUSH1 0x24 PUSH1 0x0 REVERT JUMPDEST SWAP1 DUP2 PUSH1 0x20 SWAP2 SUB SLT PUSH2 0x2D8 JUMPI MLOAD DUP1 ISZERO ISZERO DUP2 SUB PUSH2 0x2D8 JUMPI SWAP1 JUMP INVALID LOG2 PUSH5 0x6970667358 0x22 SLT KECCAK256 0xA7 0xD9 CALLDATASIZE OR 0x26 0x23 0x4C SWAP8 0xC5 0xC1 0x2B SMOD 0xD0 PUSH30 0xFDAC3DFFFCB9013CA222AEDDE7719E32F2C064736F6C6343000814003300 "},"methodIdentifiers":{"chargeManagementFee(address,uint256)":"044eaffd","chargeWithdrawalFee(address,uint256)":"c266e2d2","feeReceiver()":"b3f00674","managementFee()":"a6f7f5d6","owner()":"8da5cb5b","setManagementFee(uint256)":"fe56e232","setWithdrawalFee(uint256)":"ac1e5025","withdrawalFee()":"8bc7e8c4"}}}}}