{"contracts/Strategies/SimpleStrategy.sol":{"SimpleStrategy":{"abi":[{"inputs":[{"internalType":"address","name":"_token","type":"address"},{"internalType":"uint256","name":"_amount","type":"uint256"}],"name":"deposit","outputs":[],"stateMutability":"nonpayable","type":"function"},{"inputs":[{"internalType":"address","name":"_token","type":"address"}],"name":"getAPY","outputs":[{"internalType":"uint256","name":"","type":"uint256"}],"stateMutability":"view","type":"function"},{"inputs":[{"internalType":"address","name":"_token","type":"address"}],"name":"getATokenAddress","outputs":[{"internalType":"address","name":"","type":"address"}],"stateMutability":"view","type":"function"},{"inputs":[{"internalType":"address","name":"_token","type":"address"}],"name":"getTotalBalance","outputs":[{"internalType":"uint256","name":"","type":"uint256"}],"stateMutability":"view","type":"function"},{"inputs":[{"internalType":"address","name":"_token","type":"address"},{"internalType":"uint256","name":"_amount","type":"uint256"}],"name":"withdraw","outputs":[],"stateMutability":"nonpayable","type":"function"}],"evm":{"bytecode":{"linkReferences":{},"object":"6080806040523461001a576001805561020b90816100208239f35b600080fdfe604060808152600436101561001357600080fd5b600090813560e01c806347e7ef241461017d578063711cc00514610158578063c4f9870b14610130578063d3d38193146100fa5763f3fef3a31461005657600080fd5b346100f657806003193601126100f65761006e6101ba565b6001600160a01b031680835260208390528183205460243592919083116100bb57835282602052822080549182039182116100a7575580f35b634e487b7160e01b83526011600452602483fd5b815162461bcd60e51b8152602060048201526014602482015273496e73756666696369656e742062616c616e636560601b6044820152606490fd5b5080fd5b50346100f65760203660031901126100f65760209181906001600160a01b036101216101ba565b16815280845220549051908152f35b50346100f65760203660031901126100f65760209061014d6101ba565b506001549051908152f35b50346100f65760203660031901126100f657906020916101766101ba565b5051908152f35b50346100f657806003193601126100f6576001600160a01b0361019e6101ba565b16825281602052812080549060243582018092116100a7575580f35b600435906001600160a01b03821682036101d057565b600080fdfea2646970667358221220dfb28b09a18328bf10a0ddf98ae757baf825c0f38b35785a4f99d37eb390dec864736f6c63430008140033","opcodes":"PUSH1 0x80 DUP1 PUSH1 0x40 MSTORE CALLVALUE PUSH2 0x1A JUMPI PUSH1 0x1 DUP1 SSTORE PUSH2 0x20B SWAP1 DUP2 PUSH2 0x20 DUP3 CODECOPY RETURN JUMPDEST PUSH1 0x0 DUP1 REVERT INVALID PUSH1 0x40 PUSH1 0x80 DUP2 MSTORE PUSH1 0x4 CALLDATASIZE LT ISZERO PUSH2 0x13 JUMPI PUSH1 0x0 DUP1 REVERT JUMPDEST PUSH1 0x0 SWAP1 DUP2 CALLDATALOAD PUSH1 0xE0 SHR DUP1 PUSH4 0x47E7EF24 EQ PUSH2 0x17D JUMPI DUP1 PUSH4 0x711CC005 EQ PUSH2 0x158 JUMPI DUP1 PUSH4 0xC4F9870B EQ PUSH2 0x130 JUMPI DUP1 PUSH4 0xD3D38193 EQ PUSH2 0xFA JUMPI PUSH4 0xF3FEF3A3 EQ PUSH2 0x56 JUMPI PUSH1 0x0 DUP1 REVERT JUMPDEST CALLVALUE PUSH2 0xF6 JUMPI DUP1 PUSH1 0x3 NOT CALLDATASIZE ADD SLT PUSH2 0xF6 JUMPI PUSH2 0x6E PUSH2 0x1BA JUMP JUMPDEST PUSH1 0x1 PUSH1 0x1 PUSH1 0xA0 SHL SUB AND DUP1 DUP4 MSTORE PUSH1 0x20 DUP4 SWAP1 MSTORE DUP2 DUP4 KECCAK256 SLOAD PUSH1 0x24 CALLDATALOAD SWAP3 SWAP2 SWAP1 DUP4 GT PUSH2 0xBB JUMPI DUP4 MSTORE DUP3 PUSH1 0x20 MSTORE DUP3 KECCAK256 DUP1 SLOAD SWAP2 DUP3 SUB SWAP2 DUP3 GT PUSH2 0xA7 JUMPI SSTORE DUP1 RETURN JUMPDEST PUSH4 0x4E487B71 PUSH1 0xE0 SHL DUP4 MSTORE PUSH1 0x11 PUSH1 0x4 MSTORE PUSH1 0x24 DUP4 REVERT JUMPDEST DUP2 MLOAD PUSH3 0x461BCD PUSH1 0xE5 SHL DUP2 MSTORE PUSH1 0x20 PUSH1 0x4 DUP3 ADD MSTORE PUSH1 0x14 PUSH1 0x24 DUP3 ADD MSTORE PUSH20 0x496E73756666696369656E742062616C616E6365 PUSH1 0x60 SHL PUSH1 0x44 DUP3 ADD MSTORE PUSH1 0x64 SWAP1 REVERT JUMPDEST POP DUP1 REVERT JUMPDEST POP CALLVALUE PUSH2 0xF6 JUMPI PUSH1 0x20 CALLDATASIZE PUSH1 0x3 NOT ADD SLT PUSH2 0xF6 JUMPI PUSH1 0x20 SWAP2 DUP2 SWAP1 PUSH1 0x1 PUSH1 0x1 PUSH1 0xA0 SHL SUB PUSH2 0x121 PUSH2 0x1BA JUMP JUMPDEST AND DUP2 MSTORE DUP1 DUP5 MSTORE KECCAK256 SLOAD SWAP1 MLOAD SWAP1 DUP2 MSTORE RETURN JUMPDEST POP CALLVALUE PUSH2 0xF6 JUMPI PUSH1 0x20 CALLDATASIZE PUSH1 0x3 NOT ADD SLT PUSH2 0xF6 JUMPI PUSH1 0x20 SWAP1 PUSH2 0x14D PUSH2 0x1BA JUMP JUMPDEST POP PUSH1 0x1 SLOAD SWAP1 MLOAD SWAP1 DUP2 MSTORE RETURN JUMPDEST POP CALLVALUE PUSH2 0xF6 JUMPI PUSH1 0x20 CALLDATASIZE PUSH1 0x3 NOT ADD SLT PUSH2 0xF6 JUMPI SWAP1 PUSH1 0x20 SWAP2 PUSH2 0x176 PUSH2 0x1BA JUMP JUMPDEST POP MLOAD SWAP1 DUP2 MSTORE RETURN JUMPDEST POP CALLVALUE PUSH2 0xF6 JUMPI DUP1 PUSH1 0x3 NOT CALLDATASIZE ADD SLT PUSH2 0xF6 JUMPI PUSH1 0x1 PUSH1 0x1 PUSH1 0xA0 SHL SUB PUSH2 0x19E PUSH2 0x1BA JUMP JUMPDEST AND DUP3 MSTORE DUP2 PUSH1 0x20 MSTORE DUP2 KECCAK256 DUP1 SLOAD SWAP1 PUSH1 0x24 CALLDATALOAD DUP3 ADD DUP1 SWAP3 GT PUSH2 0xA7 JUMPI SSTORE DUP1 RETURN JUMPDEST PUSH1 0x4 CALLDATALOAD SWAP1 PUSH1 0x1 PUSH1 0x1 PUSH1 0xA0 SHL SUB DUP3 AND DUP3 SUB PUSH2 0x1D0 JUMPI JUMP JUMPDEST PUSH1 0x0 DUP1 REVERT INVALID LOG2 PUSH5 0x6970667358 0x22 SLT KECCAK256 0xDF 0xB2 DUP12 MULMOD LOG1 DUP4 0x28 0xBF LT LOG0 0xDD 0xF9 DUP11 0xE7 JUMPI 0xBA 0xF8 0x25 0xC0 RETURN DUP12 CALLDATALOAD PUSH25 0x5A4F99D37EB390DEC864736F6C634300081400330000000000 "},"methodIdentifiers":{"deposit(address,uint256)":"47e7ef24","getAPY(address)":"c4f9870b","getATokenAddress(address)":"711cc005","getTotalBalance(address)":"d3d38193","withdraw(address,uint256)":"f3fef3a3"}}}}}