{"contracts/Strategies/StrategyManager.sol":{"StrategyManager":{"abi":[{"inputs":[{"internalType":"address","name":"_strategyFactory","type":"address"},{"internalType":"address","name":"_vipUser","type":"address"},{"internalType":"uint256","name":"_feeRate","type":"uint256"}],"stateMutability":"nonpayable","type":"constructor"},{"inputs":[{"internalType":"address","name":"owner","type":"address"}],"name":"OwnableInvalidOwner","type":"error"},{"inputs":[{"internalType":"address","name":"account","type":"address"}],"name":"OwnableUnauthorizedAccount","type":"error"},{"anonymous":false,"inputs":[{"indexed":true,"internalType":"address","name":"previousOwner","type":"address"},{"indexed":true,"internalType":"address","name":"newOwner","type":"address"}],"name":"OwnershipTransferred","type":"event"},{"anonymous":false,"inputs":[{"indexed":true,"internalType":"address","name":"user","type":"address"},{"indexed":false,"internalType":"address","name":"strategy","type":"address"},{"indexed":false,"internalType":"uint256","name":"allocation","type":"uint256"}],"name":"StrategyAssigned","type":"event"},{"anonymous":false,"inputs":[{"indexed":true,"internalType":"address","name":"user","type":"address"},{"indexed":false,"internalType":"address[]","name":"strategies","type":"address[]"},{"indexed":false,"internalType":"uint256[]","name":"allocations","type":"uint256[]"}],"name":"StrategyRebalanced","type":"event"},{"inputs":[{"internalType":"address","name":"_token","type":"address"},{"internalType":"address","name":"_strategy","type":"address"},{"internalType":"uint256","name":"_allocation","type":"uint256"}],"name":"assignStrategy","outputs":[],"stateMutability":"nonpayable","type":"function"},{"inputs":[],"name":"feeRate","outputs":[{"internalType":"uint256","name":"","type":"uint256"}],"stateMutability":"view","type":"function"},{"inputs":[],"name":"owner","outputs":[{"internalType":"address","name":"","type":"address"}],"stateMutability":"view","type":"function"},{"inputs":[{"internalType":"address","name":"_token","type":"address"},{"internalType":"address[]","name":"_strategies","type":"address[]"},{"internalType":"uint256[]","name":"_allocations","type":"uint256[]"}],"name":"rebalance","outputs":[],"stateMutability":"nonpayable","type":"function"},{"inputs":[],"name":"renounceOwnership","outputs":[],"stateMutability":"nonpayable","type":"function"},{"inputs":[],"name":"strategyFactory","outputs":[{"internalType":"contract IStrategyFactory","name":"","type":"address"}],"stateMutability":"view","type":"function"},{"inputs":[{"internalType":"address","name":"newOwner","type":"address"}],"name":"transferOwnership","outputs":[],"stateMutability":"nonpayable","type":"function"},{"inputs":[],"name":"vipUser","outputs":[{"internalType":"address","name":"","type":"address"}],"stateMutability":"view","type":"function"}],"evm":{"bytecode":{"linkReferences":{},"object":"6080346100ed57601f61091938819003918201601f19168301916001600160401b038311848410176100f2578084926060946040528339810103126100ed5761004781610108565b90604061005660208301610108565b9101519033156100d45760008054336001600160a01b0319808316821784556040519690946001600160a01b03949093859391908416907f8be0079c531659141344cd1fd0a4f28419497f9722a3daafe3b4186f6b6457e09080a316836004541617600455169060015416176001556002556107fc908161011d8239f35b604051631e4fbdf760e01b815260006004820152602490fd5b600080fd5b634e487b7160e01b600052604160045260246000fd5b51906001600160a01b03821682036100ed5756fe6080604052600436101561001257600080fd5b60003560e01c8063715018a6146105c05780638da5cb5b14610597578063978bbdb9146105795780639ef3571014610550578063d83c69a014610453578063e6d508ea14610130578063eac4715e146101075763f2fde38b1461007457600080fd5b346101025760203660031901126101025761008d610619565b610095610660565b6001600160a01b039081169081156100e957600054826bffffffffffffffffffffffff60a01b821617600055167f8be0079c531659141344cd1fd0a4f28419497f9722a3daafe3b4186f6b6457e0600080a3005b604051631e4fbdf760e01b815260006004820152602490fd5b600080fd5b34610102576000366003190112610102576001546040516001600160a01b039091168152602090f35b3461010257606036600319011261010257610149610619565b67ffffffffffffffff90602480358381116101025761016c90369060040161062f565b9190936044359081116101025761018790369060040161062f565b93909184840361041b576000805b8682106103e157606491500361039d5750336000526003602052604060002080546000825580610376575b5060005b84811061026b5750505060405191806040840160408552526060830194906000905b8082106102415750505081840360208301528284526001600160fb1b03831161010257816020917fd4002324d21846d33b761514fb8bfafe2c20d6ebbd07048d7e870836e89350149460051b809184880137339501030190a2005b90919586359060018060a01b038216809203610102576020816001938293520197019201906101e6565b6004546102c691906020906001600160a01b031661029261028d848a8d6107a2565b6107b2565b6040516321294ccb60e01b81526001600160a01b038089166004830152909116602482015293849190829081906044820190565b03915afa91821561036a57610336926102e79160009161033b575b506106dc565b6102fe6102f861028d83898c6107a2565b8461071b565b6103098188876107a2565b356001600160a01b0361032061028d848a8d6107a2565b166000526001840160205260406000205561077d565b6101c4565b61035d915060203d602011610363575b610355818361068c565b8101906106c4565b8a6102e1565b503d61034b565b6040513d6000823e3d90fd5b816000526020600020908101905b81811061039157506101c0565b60008155600101610384565b606490601b6040519162461bcd60e51b8352602060048401528201527f416c6c6f636174696f6e73206d7573742073756d20746f2031303000000000006044820152fd5b6103ec8288876107a2565b35810180911161040657610400909161077d565b90610195565b82634e487b7160e01b60005260116004526000fd5b60649060116040519162461bcd60e51b835260206004840152820152704d69736d6174636865642061727261797360781b6044820152fd5b346101025760603660031901126101025761046c610619565b6001600160a01b036024358181169283820361010257600480546040516321294ccb60e01b81526001600160a01b03938416928101929092529183166024820152604480359460209492938592859290918391165afa91821561036a576001926104dd9160009161053357506106dc565b33600052600383526104f46040600020918261071b565b84600052018152816040600020556040519283528201527f387c32f2ad33ea5dc4e645053fe55d55c37f37d2c5d5ecab2778d370be3ea21e60403392a2005b61054a9150853d871161036357610355818361068c565b876102e1565b34610102576000366003190112610102576004546040516001600160a01b039091168152602090f35b34610102576000366003190112610102576020600254604051908152f35b34610102576000366003190112610102576000546040516001600160a01b039091168152602090f35b34610102576000366003190112610102576105d9610660565b600080546001600160a01b0319811682556001600160a01b03167f8be0079c531659141344cd1fd0a4f28419497f9722a3daafe3b4186f6b6457e08280a3005b600435906001600160a01b038216820361010257565b9181601f840112156101025782359167ffffffffffffffff8311610102576020808501948460051b01011161010257565b6000546001600160a01b0316330361067457565b60405163118cdaa760e01b8152336004820152602490fd5b90601f8019910116810190811067ffffffffffffffff8211176106ae57604052565b634e487b7160e01b600052604160045260246000fd5b90816020910312610102575180151581036101025790565b156106e357565b60405162461bcd60e51b815260206004820152601060248201526f496e76616c696420737472617465677960801b6044820152606490fd5b805490680100000000000000008210156106ae5760018201808255821015610767576000526020600020019060018060a01b03166bffffffffffffffffffffffff60a01b825416179055565b634e487b7160e01b600052603260045260246000fd5b600019811461078c5760010190565b634e487b7160e01b600052601160045260246000fd5b91908110156107675760051b0190565b356001600160a01b0381168103610102579056fea26469706673582212206e78ecc50e3524bb9b763ce27427437142ef4aa3c43877ef32353a4d6f1b8c0f64736f6c63430008140033","opcodes":"PUSH1 0x80 CALLVALUE PUSH2 0xED JUMPI PUSH1 0x1F PUSH2 0x919 CODESIZE DUP2 SWAP1 SUB SWAP2 DUP3 ADD PUSH1 0x1F NOT AND DUP4 ADD SWAP2 PUSH1 0x1 PUSH1 0x1 PUSH1 0x40 SHL SUB DUP4 GT DUP5 DUP5 LT OR PUSH2 0xF2 JUMPI DUP1 DUP5 SWAP3 PUSH1 0x60 SWAP5 PUSH1 0x40 MSTORE DUP4 CODECOPY DUP2 ADD SUB SLT PUSH2 0xED JUMPI PUSH2 0x47 DUP2 PUSH2 0x108 JUMP JUMPDEST SWAP1 PUSH1 0x40 PUSH2 0x56 PUSH1 0x20 DUP4 ADD PUSH2 0x108 JUMP JUMPDEST SWAP2 ADD MLOAD SWAP1 CALLER ISZERO PUSH2 0xD4 JUMPI PUSH1 0x0 DUP1 SLOAD CALLER PUSH1 0x1 PUSH1 0x1 PUSH1 0xA0 SHL SUB NOT DUP1 DUP4 AND DUP3 OR DUP5 SSTORE PUSH1 0x40 MLOAD SWAP7 SWAP1 SWAP5 PUSH1 0x1 PUSH1 0x1 PUSH1 0xA0 SHL SUB SWAP5 SWAP1 SWAP4 DUP6 SWAP4 SWAP2 SWAP1 DUP5 AND SWAP1 PUSH32 0x8BE0079C531659141344CD1FD0A4F28419497F9722A3DAAFE3B4186F6B6457E0 SWAP1 DUP1 LOG3 AND DUP4 PUSH1 0x4 SLOAD AND OR PUSH1 0x4 SSTORE AND SWAP1 PUSH1 0x1 SLOAD AND OR PUSH1 0x1 SSTORE PUSH1 0x2 SSTORE PUSH2 0x7FC SWAP1 DUP2 PUSH2 0x11D DUP3 CODECOPY RETURN JUMPDEST PUSH1 0x40 MLOAD PUSH4 0x1E4FBDF7 PUSH1 0xE0 SHL DUP2 MSTORE PUSH1 0x0 PUSH1 0x4 DUP3 ADD MSTORE PUSH1 0x24 SWAP1 REVERT JUMPDEST PUSH1 0x0 DUP1 REVERT JUMPDEST PUSH4 0x4E487B71 PUSH1 0xE0 SHL PUSH1 0x0 MSTORE PUSH1 0x41 PUSH1 0x4 MSTORE PUSH1 0x24 PUSH1 0x0 REVERT JUMPDEST MLOAD SWAP1 PUSH1 0x1 PUSH1 0x1 PUSH1 0xA0 SHL SUB DUP3 AND DUP3 SUB PUSH2 0xED JUMPI JUMP INVALID PUSH1 0x80 PUSH1 0x40 MSTORE PUSH1 0x4 CALLDATASIZE LT ISZERO PUSH2 0x12 JUMPI PUSH1 0x0 DUP1 REVERT JUMPDEST PUSH1 0x0 CALLDATALOAD PUSH1 0xE0 SHR DUP1 PUSH4 0x715018A6 EQ PUSH2 0x5C0 JUMPI DUP1 PUSH4 0x8DA5CB5B EQ PUSH2 0x597 JUMPI DUP1 PUSH4 0x978BBDB9 EQ PUSH2 0x579 JUMPI DUP1 PUSH4 0x9EF35710 EQ PUSH2 0x550 JUMPI DUP1 PUSH4 0xD83C69A0 EQ PUSH2 0x453 JUMPI DUP1 PUSH4 0xE6D508EA EQ PUSH2 0x130 JUMPI DUP1 PUSH4 0xEAC4715E EQ PUSH2 0x107 JUMPI PUSH4 0xF2FDE38B EQ PUSH2 0x74 JUMPI PUSH1 0x0 DUP1 REVERT JUMPDEST CALLVALUE PUSH2 0x102 JUMPI PUSH1 0x20 CALLDATASIZE PUSH1 0x3 NOT ADD SLT PUSH2 0x102 JUMPI PUSH2 0x8D PUSH2 0x619 JUMP JUMPDEST PUSH2 0x95 PUSH2 0x660 JUMP JUMPDEST PUSH1 0x1 PUSH1 0x1 PUSH1 0xA0 SHL SUB SWAP1 DUP2 AND SWAP1 DUP2 ISZERO PUSH2 0xE9 JUMPI PUSH1 0x0 SLOAD DUP3 PUSH12 0xFFFFFFFFFFFFFFFFFFFFFFFF PUSH1 0xA0 SHL DUP3 AND OR PUSH1 0x0 SSTORE AND PUSH32 0x8BE0079C531659141344CD1FD0A4F28419497F9722A3DAAFE3B4186F6B6457E0 PUSH1 0x0 DUP1 LOG3 STOP JUMPDEST PUSH1 0x40 MLOAD PUSH4 0x1E4FBDF7 PUSH1 0xE0 SHL DUP2 MSTORE PUSH1 0x0 PUSH1 0x4 DUP3 ADD MSTORE PUSH1 0x24 SWAP1 REVERT JUMPDEST PUSH1 0x0 DUP1 REVERT JUMPDEST CALLVALUE PUSH2 0x102 JUMPI PUSH1 0x0 CALLDATASIZE PUSH1 0x3 NOT ADD SLT PUSH2 0x102 JUMPI PUSH1 0x1 SLOAD PUSH1 0x40 MLOAD PUSH1 0x1 PUSH1 0x1 PUSH1 0xA0 SHL SUB SWAP1 SWAP2 AND DUP2 MSTORE PUSH1 0x20 SWAP1 RETURN JUMPDEST CALLVALUE PUSH2 0x102 JUMPI PUSH1 0x60 CALLDATASIZE PUSH1 0x3 NOT ADD SLT PUSH2 0x102 JUMPI PUSH2 0x149 PUSH2 0x619 JUMP JUMPDEST PUSH8 0xFFFFFFFFFFFFFFFF SWAP1 PUSH1 0x24 DUP1 CALLDATALOAD DUP4 DUP2 GT PUSH2 0x102 JUMPI PUSH2 0x16C SWAP1 CALLDATASIZE SWAP1 PUSH1 0x4 ADD PUSH2 0x62F JUMP JUMPDEST SWAP2 SWAP1 SWAP4 PUSH1 0x44 CALLDATALOAD SWAP1 DUP2 GT PUSH2 0x102 JUMPI PUSH2 0x187 SWAP1 CALLDATASIZE SWAP1 PUSH1 0x4 ADD PUSH2 0x62F JUMP JUMPDEST SWAP4 SWAP1 SWAP2 DUP5 DUP5 SUB PUSH2 0x41B JUMPI PUSH1 0x0 DUP1 JUMPDEST DUP7 DUP3 LT PUSH2 0x3E1 JUMPI PUSH1 0x64 SWAP2 POP SUB PUSH2 0x39D JUMPI POP CALLER PUSH1 0x0 MSTORE PUSH1 0x3 PUSH1 0x20 MSTORE PUSH1 0x40 PUSH1 0x0 KECCAK256 DUP1 SLOAD PUSH1 0x0 DUP3 SSTORE DUP1 PUSH2 0x376 JUMPI JUMPDEST POP PUSH1 0x0 JUMPDEST DUP5 DUP2 LT PUSH2 0x26B JUMPI POP POP POP PUSH1 0x40 MLOAD SWAP2 DUP1 PUSH1 0x40 DUP5 ADD PUSH1 0x40 DUP6 MSTORE MSTORE PUSH1 0x60 DUP4 ADD SWAP5 SWAP1 PUSH1 0x0 SWAP1 JUMPDEST DUP1 DUP3 LT PUSH2 0x241 JUMPI POP POP POP DUP2 DUP5 SUB PUSH1 0x20 DUP4 ADD MSTORE DUP3 DUP5 MSTORE PUSH1 0x1 PUSH1 0x1 PUSH1 0xFB SHL SUB DUP4 GT PUSH2 0x102 JUMPI DUP2 PUSH1 0x20 SWAP2 PUSH32 0xD4002324D21846D33B761514FB8BFAFE2C20D6EBBD07048D7E870836E8935014 SWAP5 PUSH1 0x5 SHL DUP1 SWAP2 DUP5 DUP9 ADD CALLDATACOPY CALLER SWAP6 ADD SUB ADD SWAP1 LOG2 STOP JUMPDEST SWAP1 SWAP2 SWAP6 DUP7 CALLDATALOAD SWAP1 PUSH1 0x1 DUP1 PUSH1 0xA0 SHL SUB DUP3 AND DUP1 SWAP3 SUB PUSH2 0x102 JUMPI PUSH1 0x20 DUP2 PUSH1 0x1 SWAP4 DUP3 SWAP4 MSTORE ADD SWAP8 ADD SWAP3 ADD SWAP1 PUSH2 0x1E6 JUMP JUMPDEST PUSH1 0x4 SLOAD PUSH2 0x2C6 SWAP2 SWAP1 PUSH1 0x20 SWAP1 PUSH1 0x1 PUSH1 0x1 PUSH1 0xA0 SHL SUB AND PUSH2 0x292 PUSH2 0x28D DUP5 DUP11 DUP14 PUSH2 0x7A2 JUMP JUMPDEST PUSH2 0x7B2 JUMP JUMPDEST PUSH1 0x40 MLOAD PUSH4 0x21294CCB PUSH1 0xE0 SHL DUP2 MSTORE PUSH1 0x1 PUSH1 0x1 PUSH1 0xA0 SHL SUB DUP1 DUP10 AND PUSH1 0x4 DUP4 ADD MSTORE SWAP1 SWAP2 AND PUSH1 0x24 DUP3 ADD MSTORE SWAP4 DUP5 SWAP2 SWAP1 DUP3 SWAP1 DUP2 SWAP1 PUSH1 0x44 DUP3 ADD SWAP1 JUMP JUMPDEST SUB SWAP2 GAS STATICCALL SWAP2 DUP3 ISZERO PUSH2 0x36A JUMPI PUSH2 0x336 SWAP3 PUSH2 0x2E7 SWAP2 PUSH1 0x0 SWAP2 PUSH2 0x33B JUMPI JUMPDEST POP PUSH2 0x6DC JUMP JUMPDEST PUSH2 0x2FE PUSH2 0x2F8 PUSH2 0x28D DUP4 DUP10 DUP13 PUSH2 0x7A2 JUMP JUMPDEST DUP5 PUSH2 0x71B JUMP JUMPDEST PUSH2 0x309 DUP2 DUP9 DUP8 PUSH2 0x7A2 JUMP JUMPDEST CALLDATALOAD PUSH1 0x1 PUSH1 0x1 PUSH1 0xA0 SHL SUB PUSH2 0x320 PUSH2 0x28D DUP5 DUP11 DUP14 PUSH2 0x7A2 JUMP JUMPDEST AND PUSH1 0x0 MSTORE PUSH1 0x1 DUP5 ADD PUSH1 0x20 MSTORE PUSH1 0x40 PUSH1 0x0 KECCAK256 SSTORE PUSH2 0x77D JUMP JUMPDEST PUSH2 0x1C4 JUMP JUMPDEST PUSH2 0x35D SWAP2 POP PUSH1 0x20 RETURNDATASIZE PUSH1 0x20 GT PUSH2 0x363 JUMPI JUMPDEST PUSH2 0x355 DUP2 DUP4 PUSH2 0x68C JUMP JUMPDEST DUP2 ADD SWAP1 PUSH2 0x6C4 JUMP JUMPDEST DUP11 PUSH2 0x2E1 JUMP JUMPDEST POP RETURNDATASIZE PUSH2 0x34B JUMP JUMPDEST PUSH1 0x40 MLOAD RETURNDATASIZE PUSH1 0x0 DUP3 RETURNDATACOPY RETURNDATASIZE SWAP1 REVERT JUMPDEST DUP2 PUSH1 0x0 MSTORE PUSH1 0x20 PUSH1 0x0 KECCAK256 SWAP1 DUP2 ADD SWAP1 JUMPDEST DUP2 DUP2 LT PUSH2 0x391 JUMPI POP PUSH2 0x1C0 JUMP JUMPDEST PUSH1 0x0 DUP2 SSTORE PUSH1 0x1 ADD PUSH2 0x384 JUMP JUMPDEST PUSH1 0x64 SWAP1 PUSH1 0x1B PUSH1 0x40 MLOAD SWAP2 PUSH3 0x461BCD PUSH1 0xE5 SHL DUP4 MSTORE PUSH1 0x20 PUSH1 0x4 DUP5 ADD MSTORE DUP3 ADD MSTORE PUSH32 0x416C6C6F636174696F6E73206D7573742073756D20746F203130300000000000 PUSH1 0x44 DUP3 ADD MSTORE REVERT JUMPDEST PUSH2 0x3EC DUP3 DUP9 DUP8 PUSH2 0x7A2 JUMP JUMPDEST CALLDATALOAD DUP2 ADD DUP1 SWAP2 GT PUSH2 0x406 JUMPI PUSH2 0x400 SWAP1 SWAP2 PUSH2 0x77D JUMP JUMPDEST SWAP1 PUSH2 0x195 JUMP JUMPDEST DUP3 PUSH4 0x4E487B71 PUSH1 0xE0 SHL PUSH1 0x0 MSTORE PUSH1 0x11 PUSH1 0x4 MSTORE PUSH1 0x0 REVERT JUMPDEST PUSH1 0x64 SWAP1 PUSH1 0x11 PUSH1 0x40 MLOAD SWAP2 PUSH3 0x461BCD PUSH1 0xE5 SHL DUP4 MSTORE PUSH1 0x20 PUSH1 0x4 DUP5 ADD MSTORE DUP3 ADD MSTORE PUSH17 0x4D69736D61746368656420617272617973 PUSH1 0x78 SHL PUSH1 0x44 DUP3 ADD MSTORE REVERT JUMPDEST CALLVALUE PUSH2 0x102 JUMPI PUSH1 0x60 CALLDATASIZE PUSH1 0x3 NOT ADD SLT PUSH2 0x102 JUMPI PUSH2 0x46C PUSH2 0x619 JUMP JUMPDEST PUSH1 0x1 PUSH1 0x1 PUSH1 0xA0 SHL SUB PUSH1 0x24 CALLDATALOAD DUP2 DUP2 AND SWAP3 DUP4 DUP3 SUB PUSH2 0x102 JUMPI PUSH1 0x4 DUP1 SLOAD PUSH1 0x40 MLOAD PUSH4 0x21294CCB PUSH1 0xE0 SHL DUP2 MSTORE PUSH1 0x1 PUSH1 0x1 PUSH1 0xA0 SHL SUB SWAP4 DUP5 AND SWAP3 DUP2 ADD SWAP3 SWAP1 SWAP3 MSTORE SWAP2 DUP4 AND PUSH1 0x24 DUP3 ADD MSTORE PUSH1 0x44 DUP1 CALLDATALOAD SWAP5 PUSH1 0x20 SWAP5 SWAP3 SWAP4 DUP6 SWAP3 DUP6 SWAP3 SWAP1 SWAP2 DUP4 SWAP2 AND GAS STATICCALL SWAP2 DUP3 ISZERO PUSH2 0x36A JUMPI PUSH1 0x1 SWAP3 PUSH2 0x4DD SWAP2 PUSH1 0x0 SWAP2 PUSH2 0x533 JUMPI POP PUSH2 0x6DC JUMP JUMPDEST CALLER PUSH1 0x0 MSTORE PUSH1 0x3 DUP4 MSTORE PUSH2 0x4F4 PUSH1 0x40 PUSH1 0x0 KECCAK256 SWAP2 DUP3 PUSH2 0x71B JUMP JUMPDEST DUP5 PUSH1 0x0 MSTORE ADD DUP2 MSTORE DUP2 PUSH1 0x40 PUSH1 0x0 KECCAK256 SSTORE PUSH1 0x40 MLOAD SWAP3 DUP4 MSTORE DUP3 ADD MSTORE PUSH32 0x387C32F2AD33EA5DC4E645053FE55D55C37F37D2C5D5ECAB2778D370BE3EA21E PUSH1 0x40 CALLER SWAP3 LOG2 STOP JUMPDEST PUSH2 0x54A SWAP2 POP DUP6 RETURNDATASIZE DUP8 GT PUSH2 0x363 JUMPI PUSH2 0x355 DUP2 DUP4 PUSH2 0x68C JUMP JUMPDEST DUP8 PUSH2 0x2E1 JUMP JUMPDEST CALLVALUE PUSH2 0x102 JUMPI PUSH1 0x0 CALLDATASIZE PUSH1 0x3 NOT ADD SLT PUSH2 0x102 JUMPI PUSH1 0x4 SLOAD PUSH1 0x40 MLOAD PUSH1 0x1 PUSH1 0x1 PUSH1 0xA0 SHL SUB SWAP1 SWAP2 AND DUP2 MSTORE PUSH1 0x20 SWAP1 RETURN JUMPDEST CALLVALUE PUSH2 0x102 JUMPI PUSH1 0x0 CALLDATASIZE PUSH1 0x3 NOT ADD SLT PUSH2 0x102 JUMPI PUSH1 0x20 PUSH1 0x2 SLOAD PUSH1 0x40 MLOAD SWAP1 DUP2 MSTORE RETURN JUMPDEST CALLVALUE PUSH2 0x102 JUMPI PUSH1 0x0 CALLDATASIZE PUSH1 0x3 NOT ADD SLT PUSH2 0x102 JUMPI PUSH1 0x0 SLOAD PUSH1 0x40 MLOAD PUSH1 0x1 PUSH1 0x1 PUSH1 0xA0 SHL SUB SWAP1 SWAP2 AND DUP2 MSTORE PUSH1 0x20 SWAP1 RETURN JUMPDEST CALLVALUE PUSH2 0x102 JUMPI PUSH1 0x0 CALLDATASIZE PUSH1 0x3 NOT ADD SLT PUSH2 0x102 JUMPI PUSH2 0x5D9 PUSH2 0x660 JUMP JUMPDEST PUSH1 0x0 DUP1 SLOAD PUSH1 0x1 PUSH1 0x1 PUSH1 0xA0 SHL SUB NOT DUP2 AND DUP3 SSTORE PUSH1 0x1 PUSH1 0x1 PUSH1 0xA0 SHL SUB AND PUSH32 0x8BE0079C531659141344CD1FD0A4F28419497F9722A3DAAFE3B4186F6B6457E0 DUP3 DUP1 LOG3 STOP JUMPDEST PUSH1 0x4 CALLDATALOAD SWAP1 PUSH1 0x1 PUSH1 0x1 PUSH1 0xA0 SHL SUB DUP3 AND DUP3 SUB PUSH2 0x102 JUMPI JUMP JUMPDEST SWAP2 DUP2 PUSH1 0x1F DUP5 ADD SLT ISZERO PUSH2 0x102 JUMPI DUP3 CALLDATALOAD SWAP2 PUSH8 0xFFFFFFFFFFFFFFFF DUP4 GT PUSH2 0x102 JUMPI PUSH1 0x20 DUP1 DUP6 ADD SWAP5 DUP5 PUSH1 0x5 SHL ADD ADD GT PUSH2 0x102 JUMPI JUMP JUMPDEST PUSH1 0x0 SLOAD PUSH1 0x1 PUSH1 0x1 PUSH1 0xA0 SHL SUB AND CALLER SUB PUSH2 0x674 JUMPI JUMP JUMPDEST PUSH1 0x40 MLOAD PUSH4 0x118CDAA7 PUSH1 0xE0 SHL DUP2 MSTORE CALLER PUSH1 0x4 DUP3 ADD MSTORE PUSH1 0x24 SWAP1 REVERT JUMPDEST SWAP1 PUSH1 0x1F DUP1 NOT SWAP2 ADD AND DUP2 ADD SWAP1 DUP2 LT PUSH8 0xFFFFFFFFFFFFFFFF DUP3 GT OR PUSH2 0x6AE JUMPI PUSH1 0x40 MSTORE JUMP JUMPDEST PUSH4 0x4E487B71 PUSH1 0xE0 SHL PUSH1 0x0 MSTORE PUSH1 0x41 PUSH1 0x4 MSTORE PUSH1 0x24 PUSH1 0x0 REVERT JUMPDEST SWAP1 DUP2 PUSH1 0x20 SWAP2 SUB SLT PUSH2 0x102 JUMPI MLOAD DUP1 ISZERO ISZERO DUP2 SUB PUSH2 0x102 JUMPI SWAP1 JUMP JUMPDEST ISZERO PUSH2 0x6E3 JUMPI JUMP JUMPDEST PUSH1 0x40 MLOAD PUSH3 0x461BCD PUSH1 0xE5 SHL DUP2 MSTORE PUSH1 0x20 PUSH1 0x4 DUP3 ADD MSTORE PUSH1 0x10 PUSH1 0x24 DUP3 ADD MSTORE PUSH16 0x496E76616C6964207374726174656779 PUSH1 0x80 SHL PUSH1 0x44 DUP3 ADD MSTORE PUSH1 0x64 SWAP1 REVERT JUMPDEST DUP1 SLOAD SWAP1 PUSH9 0x10000000000000000 DUP3 LT ISZERO PUSH2 0x6AE JUMPI PUSH1 0x1 DUP3 ADD DUP1 DUP3 SSTORE DUP3 LT ISZERO PUSH2 0x767 JUMPI PUSH1 0x0 MSTORE PUSH1 0x20 PUSH1 0x0 KECCAK256 ADD SWAP1 PUSH1 0x1 DUP1 PUSH1 0xA0 SHL SUB AND PUSH12 0xFFFFFFFFFFFFFFFFFFFFFFFF PUSH1 0xA0 SHL DUP3 SLOAD AND OR SWAP1 SSTORE JUMP JUMPDEST PUSH4 0x4E487B71 PUSH1 0xE0 SHL PUSH1 0x0 MSTORE PUSH1 0x32 PUSH1 0x4 MSTORE PUSH1 0x24 PUSH1 0x0 REVERT JUMPDEST PUSH1 0x0 NOT DUP2 EQ PUSH2 0x78C JUMPI PUSH1 0x1 ADD SWAP1 JUMP JUMPDEST PUSH4 0x4E487B71 PUSH1 0xE0 SHL PUSH1 0x0 MSTORE PUSH1 0x11 PUSH1 0x4 MSTORE PUSH1 0x24 PUSH1 0x0 REVERT JUMPDEST SWAP2 SWAP1 DUP2 LT ISZERO PUSH2 0x767 JUMPI PUSH1 0x5 SHL ADD SWAP1 JUMP JUMPDEST CALLDATALOAD PUSH1 0x1 PUSH1 0x1 PUSH1 0xA0 SHL SUB DUP2 AND DUP2 SUB PUSH2 0x102 JUMPI SWAP1 JUMP INVALID LOG2 PUSH5 0x6970667358 0x22 SLT KECCAK256 PUSH15 0x78ECC50E3524BB9B763CE274274371 TIMESTAMP 0xEF 0x4A LOG3 0xC4 CODESIZE PUSH24 0xEF32353A4D6F1B8C0F64736F6C6343000814003300000000 "},"methodIdentifiers":{"assignStrategy(address,address,uint256)":"d83c69a0","feeRate()":"978bbdb9","owner()":"8da5cb5b","rebalance(address,address[],uint256[])":"e6d508ea","renounceOwnership()":"715018a6","strategyFactory()":"9ef35710","transferOwnership(address)":"f2fde38b","vipUser()":"eac4715e"}}}}}