{"contracts/core/YieldAggregatorV1.sol":{"YieldAggregatorV1":{"abi":[{"inputs":[{"internalType":"address","name":"_timelock","type":"address"},{"internalType":"address","name":"_strategyFactory","type":"address"},{"internalType":"address","name":"_feeManager","type":"address"}],"stateMutability":"nonpayable","type":"constructor"},{"anonymous":false,"inputs":[{"indexed":true,"internalType":"address","name":"user","type":"address"},{"indexed":true,"internalType":"address","name":"token","type":"address"},{"indexed":false,"internalType":"uint256","name":"amount","type":"uint256"}],"name":"Deposited","type":"event"},{"anonymous":false,"inputs":[{"indexed":true,"internalType":"address","name":"token","type":"address"},{"indexed":true,"internalType":"address","name":"strategy","type":"address"}],"name":"StrategyUpdated","type":"event"},{"anonymous":false,"inputs":[{"indexed":true,"internalType":"address","name":"user","type":"address"},{"indexed":true,"internalType":"address","name":"token","type":"address"},{"indexed":false,"internalType":"uint256","name":"amount","type":"uint256"}],"name":"Withdrawn","type":"event"},{"inputs":[{"internalType":"address","name":"","type":"address"},{"internalType":"address","name":"","type":"address"}],"name":"balances","outputs":[{"internalType":"uint256","name":"","type":"uint256"}],"stateMutability":"view","type":"function"},{"inputs":[{"internalType":"address","name":"token","type":"address"},{"internalType":"uint256","name":"amount","type":"uint256"}],"name":"deposit","outputs":[],"stateMutability":"nonpayable","type":"function"},{"inputs":[],"name":"feeManager","outputs":[{"internalType":"contract FeeManager","name":"","type":"address"}],"stateMutability":"view","type":"function"},{"inputs":[{"internalType":"address","name":"","type":"address"}],"name":"isSupportedToken","outputs":[{"internalType":"bool","name":"","type":"bool"}],"stateMutability":"view","type":"function"},{"inputs":[],"name":"owner","outputs":[{"internalType":"address","name":"","type":"address"}],"stateMutability":"view","type":"function"},{"inputs":[],"name":"strategyFactory","outputs":[{"internalType":"contract StrategyFactory","name":"","type":"address"}],"stateMutability":"view","type":"function"},{"inputs":[],"name":"timelock","outputs":[{"internalType":"address","name":"","type":"address"}],"stateMutability":"view","type":"function"},{"inputs":[{"internalType":"address","name":"token","type":"address"},{"internalType":"uint256","name":"amount","type":"uint256"}],"name":"withdraw","outputs":[],"stateMutability":"nonpayable","type":"function"}],"evm":{"bytecode":{"linkReferences":{},"object":"6080346100ab57601f61085338819003918201601f19168301916001600160401b038311848410176100b0578084926060946040528339810103126100ab57610047816100c6565b906100606040610059602084016100c6565b92016100c6565b60018060a01b0319923384600054161760005560018060a01b039283809216856001541617600155168360025416176002551690600354161760035560405161077890816100db8239f35b600080fd5b634e487b7160e01b600052604160045260246000fd5b51906001600160a01b03821682036100ab5756fe60806040908082526004918236101561001757600080fd5b600091823560e01c908163240028e81461062a5750806347e7ef24146103a35780638da5cb5b1461037c5780639ef3571014610354578063c23f001f146102fc578063d0fb0203146102d4578063d33219b4146102ac5763f3fef3a31461007d57600080fd5b346102a857806003193601126102a857610095610665565b90602435903384526020908582528085209360018060a01b03808216958660005284528483600020541061026e578060025416848760248b875194859384926354d7e89f60e11b84528301525afa908115610264578891610237575b5016906100ff8215156106fe565b813b1561023357825163f3fef3a360e01b81526001600160a01b03909116818901908152602081018690529091879183919082908490829060400103925af180156102115790869161021b575b5050805163a9059cbb60e01b81523387820190815260208101859052839082908190604001038189895af18015610211576101e4575b50338552858252808520846000528252806000208054908482039182116101d157555191825233917fd1c19fbcd4551a5edfb66d43d2e337c04837afda3482b42bdf569a8fccdae5fb9190a380f35b634e487b7160e01b875260118852602487fd5b61020390833d851161020a575b6101fb81836106a5565b8101906106c7565b5038610182565b503d6101f1565b82513d88823e3d90fd5b6102249061067b565b61022f57843861014c565b8480fd5b8680fd5b6102579150853d871161025d575b61024f81836106a5565b8101906106df565b386100f1565b503d610245565b84513d8a823e3d90fd5b825162461bcd60e51b81528089018590526014602482015273496e73756666696369656e742062616c616e636560601b6044820152606490fd5b5080fd5b50346102a857816003193601126102a85760015490516001600160a01b039091168152602090f35b50346102a857816003193601126102a85760035490516001600160a01b039091168152602090f35b509034610351578160031936011261035157610316610665565b6001600160a01b039360243585811693919084900361034c57602095859316825285522090600052825280600020549051908152f35b600080fd5b80fd5b50346102a857816003193601126102a85760025490516001600160a01b039091168152602090f35b50346102a857816003193601126102a857905490516001600160a01b039091168152602090f35b508290346105625780600319360112610562576103be610665565b6024359182156105e85780516323b872dd60e01b81523381860152306024820152604481018490526001600160a01b03838116956020949290919085816064818c8c5af180156105de576105c1575b5033885281855283882087895285528388208054908782018092116105ae5790899392915560248682600254168751928380926354d7e89f60e11b82528d888301525afa90811561058357888891869361058d575b5082936104a89316936104768515156106fe565b885163095ea7b360e01b81526001600160a01b0390911686820190815260208101929092529283918291604090910190565b0381878d5af1801561058357610566575b50803b156105625784516311f9fbc960e21b81526001600160a01b0390941691840191825260208201879052839182908490829060400103925af180156102115761052d575b50907f8752a472e571a816aea92eec8dae9baf628e840f4929fbcc2d155e6233ff68a791519283523392a380f35b9461055a7f8752a472e571a816aea92eec8dae9baf628e840f4929fbcc2d155e6233ff68a793929661067b565b9490916104ff565b8280fd5b61057c90873d891161020a576101fb81836106a5565b50896104b9565b86513d86823e3d90fd5b6104a893506105a890833d851161025d5761024f81836106a5565b92610462565b634e487b7160e01b8a526011845260248afd5b6105d790863d881161020a576101fb81836106a5565b508861040d565b85513d8b823e3d90fd5b5162461bcd60e51b8152602081850152601d60248201527f416d6f756e74206d7573742062652067726561746572207468616e20300000006044820152606490fd5b919050346105625760203660031901126105625760209260ff91906001600160a01b03610655610665565b1681526005855220541615158152f35b600435906001600160a01b038216820361034c57565b67ffffffffffffffff811161068f57604052565b634e487b7160e01b600052604160045260246000fd5b90601f8019910116810190811067ffffffffffffffff82111761068f57604052565b9081602091031261034c5751801515810361034c5790565b9081602091031261034c57516001600160a01b038116810361034c5790565b1561070557565b60405162461bcd60e51b81526020600482015260156024820152744e6f20737472617465677920617661696c61626c6560581b6044820152606490fdfea26469706673582212200f5b30ff9b22a3587d38aad550c6a57439e5ceb215604f9d2f9c911f72248d4f64736f6c63430008140033","opcodes":"PUSH1 0x80 CALLVALUE PUSH2 0xAB JUMPI PUSH1 0x1F PUSH2 0x853 CODESIZE DUP2 SWAP1 SUB SWAP2 DUP3 ADD PUSH1 0x1F NOT AND DUP4 ADD SWAP2 PUSH1 0x1 PUSH1 0x1 PUSH1 0x40 SHL SUB DUP4 GT DUP5 DUP5 LT OR PUSH2 0xB0 JUMPI DUP1 DUP5 SWAP3 PUSH1 0x60 SWAP5 PUSH1 0x40 MSTORE DUP4 CODECOPY DUP2 ADD SUB SLT PUSH2 0xAB JUMPI PUSH2 0x47 DUP2 PUSH2 0xC6 JUMP JUMPDEST SWAP1 PUSH2 0x60 PUSH1 0x40 PUSH2 0x59 PUSH1 0x20 DUP5 ADD PUSH2 0xC6 JUMP JUMPDEST SWAP3 ADD PUSH2 0xC6 JUMP JUMPDEST PUSH1 0x1 DUP1 PUSH1 0xA0 SHL SUB NOT SWAP3 CALLER DUP5 PUSH1 0x0 SLOAD AND OR PUSH1 0x0 SSTORE PUSH1 0x1 DUP1 PUSH1 0xA0 SHL SUB SWAP3 DUP4 DUP1 SWAP3 AND DUP6 PUSH1 0x1 SLOAD AND OR PUSH1 0x1 SSTORE AND DUP4 PUSH1 0x2 SLOAD AND OR PUSH1 0x2 SSTORE AND SWAP1 PUSH1 0x3 SLOAD AND OR PUSH1 0x3 SSTORE PUSH1 0x40 MLOAD PUSH2 0x778 SWAP1 DUP2 PUSH2 0xDB DUP3 CODECOPY RETURN JUMPDEST PUSH1 0x0 DUP1 REVERT JUMPDEST PUSH4 0x4E487B71 PUSH1 0xE0 SHL PUSH1 0x0 MSTORE PUSH1 0x41 PUSH1 0x4 MSTORE PUSH1 0x24 PUSH1 0x0 REVERT JUMPDEST MLOAD SWAP1 PUSH1 0x1 PUSH1 0x1 PUSH1 0xA0 SHL SUB DUP3 AND DUP3 SUB PUSH2 0xAB JUMPI JUMP INVALID PUSH1 0x80 PUSH1 0x40 SWAP1 DUP1 DUP3 MSTORE PUSH1 0x4 SWAP2 DUP3 CALLDATASIZE LT ISZERO PUSH2 0x17 JUMPI PUSH1 0x0 DUP1 REVERT JUMPDEST PUSH1 0x0 SWAP2 DUP3 CALLDATALOAD PUSH1 0xE0 SHR SWAP1 DUP2 PUSH4 0x240028E8 EQ PUSH2 0x62A JUMPI POP DUP1 PUSH4 0x47E7EF24 EQ PUSH2 0x3A3 JUMPI DUP1 PUSH4 0x8DA5CB5B EQ PUSH2 0x37C JUMPI DUP1 PUSH4 0x9EF35710 EQ PUSH2 0x354 JUMPI DUP1 PUSH4 0xC23F001F EQ PUSH2 0x2FC JUMPI DUP1 PUSH4 0xD0FB0203 EQ PUSH2 0x2D4 JUMPI DUP1 PUSH4 0xD33219B4 EQ PUSH2 0x2AC JUMPI PUSH4 0xF3FEF3A3 EQ PUSH2 0x7D JUMPI PUSH1 0x0 DUP1 REVERT JUMPDEST CALLVALUE PUSH2 0x2A8 JUMPI DUP1 PUSH1 0x3 NOT CALLDATASIZE ADD SLT PUSH2 0x2A8 JUMPI PUSH2 0x95 PUSH2 0x665 JUMP JUMPDEST SWAP1 PUSH1 0x24 CALLDATALOAD SWAP1 CALLER DUP5 MSTORE PUSH1 0x20 SWAP1 DUP6 DUP3 MSTORE DUP1 DUP6 KECCAK256 SWAP4 PUSH1 0x1 DUP1 PUSH1 0xA0 SHL SUB DUP1 DUP3 AND SWAP6 DUP7 PUSH1 0x0 MSTORE DUP5 MSTORE DUP5 DUP4 PUSH1 0x0 KECCAK256 SLOAD LT PUSH2 0x26E JUMPI DUP1 PUSH1 0x2 SLOAD AND DUP5 DUP8 PUSH1 0x24 DUP12 DUP8 MLOAD SWAP5 DUP6 SWAP4 DUP5 SWAP3 PUSH4 0x54D7E89F PUSH1 0xE1 SHL DUP5 MSTORE DUP4 ADD MSTORE GAS STATICCALL SWAP1 DUP2 ISZERO PUSH2 0x264 JUMPI DUP9 SWAP2 PUSH2 0x237 JUMPI JUMPDEST POP AND SWAP1 PUSH2 0xFF DUP3 ISZERO ISZERO PUSH2 0x6FE JUMP JUMPDEST DUP2 EXTCODESIZE ISZERO PUSH2 0x233 JUMPI DUP3 MLOAD PUSH4 0xF3FEF3A3 PUSH1 0xE0 SHL DUP2 MSTORE PUSH1 0x1 PUSH1 0x1 PUSH1 0xA0 SHL SUB SWAP1 SWAP2 AND DUP2 DUP10 ADD SWAP1 DUP2 MSTORE PUSH1 0x20 DUP2 ADD DUP7 SWAP1 MSTORE SWAP1 SWAP2 DUP8 SWAP2 DUP4 SWAP2 SWAP1 DUP3 SWAP1 DUP5 SWAP1 DUP3 SWAP1 PUSH1 0x40 ADD SUB SWAP3 GAS CALL DUP1 ISZERO PUSH2 0x211 JUMPI SWAP1 DUP7 SWAP2 PUSH2 0x21B JUMPI JUMPDEST POP POP DUP1 MLOAD PUSH4 0xA9059CBB PUSH1 0xE0 SHL DUP2 MSTORE CALLER DUP8 DUP3 ADD SWAP1 DUP2 MSTORE PUSH1 0x20 DUP2 ADD DUP6 SWAP1 MSTORE DUP4 SWAP1 DUP3 SWAP1 DUP2 SWAP1 PUSH1 0x40 ADD SUB DUP2 DUP10 DUP10 GAS CALL DUP1 ISZERO PUSH2 0x211 JUMPI PUSH2 0x1E4 JUMPI JUMPDEST POP CALLER DUP6 MSTORE DUP6 DUP3 MSTORE DUP1 DUP6 KECCAK256 DUP5 PUSH1 0x0 MSTORE DUP3 MSTORE DUP1 PUSH1 0x0 KECCAK256 DUP1 SLOAD SWAP1 DUP5 DUP3 SUB SWAP2 DUP3 GT PUSH2 0x1D1 JUMPI SSTORE MLOAD SWAP2 DUP3 MSTORE CALLER SWAP2 PUSH32 0xD1C19FBCD4551A5EDFB66D43D2E337C04837AFDA3482B42BDF569A8FCCDAE5FB SWAP2 SWAP1 LOG3 DUP1 RETURN JUMPDEST PUSH4 0x4E487B71 PUSH1 0xE0 SHL DUP8 MSTORE PUSH1 0x11 DUP9 MSTORE PUSH1 0x24 DUP8 REVERT JUMPDEST PUSH2 0x203 SWAP1 DUP4 RETURNDATASIZE DUP6 GT PUSH2 0x20A JUMPI JUMPDEST PUSH2 0x1FB DUP2 DUP4 PUSH2 0x6A5 JUMP JUMPDEST DUP2 ADD SWAP1 PUSH2 0x6C7 JUMP JUMPDEST POP CODESIZE PUSH2 0x182 JUMP JUMPDEST POP RETURNDATASIZE PUSH2 0x1F1 JUMP JUMPDEST DUP3 MLOAD RETURNDATASIZE DUP9 DUP3 RETURNDATACOPY RETURNDATASIZE SWAP1 REVERT JUMPDEST PUSH2 0x224 SWAP1 PUSH2 0x67B JUMP JUMPDEST PUSH2 0x22F JUMPI DUP5 CODESIZE PUSH2 0x14C JUMP JUMPDEST DUP5 DUP1 REVERT JUMPDEST DUP7 DUP1 REVERT JUMPDEST PUSH2 0x257 SWAP2 POP DUP6 RETURNDATASIZE DUP8 GT PUSH2 0x25D JUMPI JUMPDEST PUSH2 0x24F DUP2 DUP4 PUSH2 0x6A5 JUMP JUMPDEST DUP2 ADD SWAP1 PUSH2 0x6DF JUMP JUMPDEST CODESIZE PUSH2 0xF1 JUMP JUMPDEST POP RETURNDATASIZE PUSH2 0x245 JUMP JUMPDEST DUP5 MLOAD RETURNDATASIZE DUP11 DUP3 RETURNDATACOPY RETURNDATASIZE SWAP1 REVERT JUMPDEST DUP3 MLOAD PUSH3 0x461BCD PUSH1 0xE5 SHL DUP2 MSTORE DUP1 DUP10 ADD DUP6 SWAP1 MSTORE PUSH1 0x14 PUSH1 0x24 DUP3 ADD MSTORE PUSH20 0x496E73756666696369656E742062616C616E6365 PUSH1 0x60 SHL PUSH1 0x44 DUP3 ADD MSTORE PUSH1 0x64 SWAP1 REVERT JUMPDEST POP DUP1 REVERT JUMPDEST POP CALLVALUE PUSH2 0x2A8 JUMPI DUP2 PUSH1 0x3 NOT CALLDATASIZE ADD SLT PUSH2 0x2A8 JUMPI PUSH1 0x1 SLOAD SWAP1 MLOAD PUSH1 0x1 PUSH1 0x1 PUSH1 0xA0 SHL SUB SWAP1 SWAP2 AND DUP2 MSTORE PUSH1 0x20 SWAP1 RETURN JUMPDEST POP CALLVALUE PUSH2 0x2A8 JUMPI DUP2 PUSH1 0x3 NOT CALLDATASIZE ADD SLT PUSH2 0x2A8 JUMPI PUSH1 0x3 SLOAD SWAP1 MLOAD PUSH1 0x1 PUSH1 0x1 PUSH1 0xA0 SHL SUB SWAP1 SWAP2 AND DUP2 MSTORE PUSH1 0x20 SWAP1 RETURN JUMPDEST POP SWAP1 CALLVALUE PUSH2 0x351 JUMPI DUP2 PUSH1 0x3 NOT CALLDATASIZE ADD SLT PUSH2 0x351 JUMPI PUSH2 0x316 PUSH2 0x665 JUMP JUMPDEST PUSH1 0x1 PUSH1 0x1 PUSH1 0xA0 SHL SUB SWAP4 PUSH1 0x24 CALLDATALOAD DUP6 DUP2 AND SWAP4 SWAP2 SWAP1 DUP5 SWAP1 SUB PUSH2 0x34C JUMPI PUSH1 0x20 SWAP6 DUP6 SWAP4 AND DUP3 MSTORE DUP6 MSTORE KECCAK256 SWAP1 PUSH1 0x0 MSTORE DUP3 MSTORE DUP1 PUSH1 0x0 KECCAK256 SLOAD SWAP1 MLOAD SWAP1 DUP2 MSTORE RETURN JUMPDEST PUSH1 0x0 DUP1 REVERT JUMPDEST DUP1 REVERT JUMPDEST POP CALLVALUE PUSH2 0x2A8 JUMPI DUP2 PUSH1 0x3 NOT CALLDATASIZE ADD SLT PUSH2 0x2A8 JUMPI PUSH1 0x2 SLOAD SWAP1 MLOAD PUSH1 0x1 PUSH1 0x1 PUSH1 0xA0 SHL SUB SWAP1 SWAP2 AND DUP2 MSTORE PUSH1 0x20 SWAP1 RETURN JUMPDEST POP CALLVALUE PUSH2 0x2A8 JUMPI DUP2 PUSH1 0x3 NOT CALLDATASIZE ADD SLT PUSH2 0x2A8 JUMPI SWAP1 SLOAD SWAP1 MLOAD PUSH1 0x1 PUSH1 0x1 PUSH1 0xA0 SHL SUB SWAP1 SWAP2 AND DUP2 MSTORE PUSH1 0x20 SWAP1 RETURN JUMPDEST POP DUP3 SWAP1 CALLVALUE PUSH2 0x562 JUMPI DUP1 PUSH1 0x3 NOT CALLDATASIZE ADD SLT PUSH2 0x562 JUMPI PUSH2 0x3BE PUSH2 0x665 JUMP JUMPDEST PUSH1 0x24 CALLDATALOAD SWAP2 DUP3 ISZERO PUSH2 0x5E8 JUMPI DUP1 MLOAD PUSH4 0x23B872DD PUSH1 0xE0 SHL DUP2 MSTORE CALLER DUP2 DUP7 ADD MSTORE ADDRESS PUSH1 0x24 DUP3 ADD MSTORE PUSH1 0x44 DUP2 ADD DUP5 SWAP1 MSTORE PUSH1 0x1 PUSH1 0x1 PUSH1 0xA0 SHL SUB DUP4 DUP2 AND SWAP6 PUSH1 0x20 SWAP5 SWAP3 SWAP1 SWAP2 SWAP1 DUP6 DUP2 PUSH1 0x64 DUP2 DUP13 DUP13 GAS CALL DUP1 ISZERO PUSH2 0x5DE JUMPI PUSH2 0x5C1 JUMPI JUMPDEST POP CALLER DUP9 MSTORE DUP2 DUP6 MSTORE DUP4 DUP9 KECCAK256 DUP8 DUP10 MSTORE DUP6 MSTORE DUP4 DUP9 KECCAK256 DUP1 SLOAD SWAP1 DUP8 DUP3 ADD DUP1 SWAP3 GT PUSH2 0x5AE JUMPI SWAP1 DUP10 SWAP4 SWAP3 SWAP2 SSTORE PUSH1 0x24 DUP7 DUP3 PUSH1 0x2 SLOAD AND DUP8 MLOAD SWAP3 DUP4 DUP1 SWAP3 PUSH4 0x54D7E89F PUSH1 0xE1 SHL DUP3 MSTORE DUP14 DUP9 DUP4 ADD MSTORE GAS STATICCALL SWAP1 DUP2 ISZERO PUSH2 0x583 JUMPI DUP9 DUP9 SWAP2 DUP7 SWAP4 PUSH2 0x58D JUMPI JUMPDEST POP DUP3 SWAP4 PUSH2 0x4A8 SWAP4 AND SWAP4 PUSH2 0x476 DUP6 ISZERO ISZERO PUSH2 0x6FE JUMP JUMPDEST DUP9 MLOAD PUSH4 0x95EA7B3 PUSH1 0xE0 SHL DUP2 MSTORE PUSH1 0x1 PUSH1 0x1 PUSH1 0xA0 SHL SUB SWAP1 SWAP2 AND DUP7 DUP3 ADD SWAP1 DUP2 MSTORE PUSH1 0x20 DUP2 ADD SWAP3 SWAP1 SWAP3 MSTORE SWAP3 DUP4 SWAP2 DUP3 SWAP2 PUSH1 0x40 SWAP1 SWAP2 ADD SWAP1 JUMP JUMPDEST SUB DUP2 DUP8 DUP14 GAS CALL DUP1 ISZERO PUSH2 0x583 JUMPI PUSH2 0x566 JUMPI JUMPDEST POP DUP1 EXTCODESIZE ISZERO PUSH2 0x562 JUMPI DUP5 MLOAD PUSH4 0x11F9FBC9 PUSH1 0xE2 SHL DUP2 MSTORE PUSH1 0x1 PUSH1 0x1 PUSH1 0xA0 SHL SUB SWAP1 SWAP5 AND SWAP2 DUP5 ADD SWAP2 DUP3 MSTORE PUSH1 0x20 DUP3 ADD DUP8 SWAP1 MSTORE DUP4 SWAP2 DUP3 SWAP1 DUP5 SWAP1 DUP3 SWAP1 PUSH1 0x40 ADD SUB SWAP3 GAS CALL DUP1 ISZERO PUSH2 0x211 JUMPI PUSH2 0x52D JUMPI JUMPDEST POP SWAP1 PUSH32 0x8752A472E571A816AEA92EEC8DAE9BAF628E840F4929FBCC2D155E6233FF68A7 SWAP2 MLOAD SWAP3 DUP4 MSTORE CALLER SWAP3 LOG3 DUP1 RETURN JUMPDEST SWAP5 PUSH2 0x55A PUSH32 0x8752A472E571A816AEA92EEC8DAE9BAF628E840F4929FBCC2D155E6233FF68A7 SWAP4 SWAP3 SWAP7 PUSH2 0x67B JUMP JUMPDEST SWAP5 SWAP1 SWAP2 PUSH2 0x4FF JUMP JUMPDEST DUP3 DUP1 REVERT JUMPDEST PUSH2 0x57C SWAP1 DUP8 RETURNDATASIZE DUP10 GT PUSH2 0x20A JUMPI PUSH2 0x1FB DUP2 DUP4 PUSH2 0x6A5 JUMP JUMPDEST POP DUP10 PUSH2 0x4B9 JUMP JUMPDEST DUP7 MLOAD RETURNDATASIZE DUP7 DUP3 RETURNDATACOPY RETURNDATASIZE SWAP1 REVERT JUMPDEST PUSH2 0x4A8 SWAP4 POP PUSH2 0x5A8 SWAP1 DUP4 RETURNDATASIZE DUP6 GT PUSH2 0x25D JUMPI PUSH2 0x24F DUP2 DUP4 PUSH2 0x6A5 JUMP JUMPDEST SWAP3 PUSH2 0x462 JUMP JUMPDEST PUSH4 0x4E487B71 PUSH1 0xE0 SHL DUP11 MSTORE PUSH1 0x11 DUP5 MSTORE PUSH1 0x24 DUP11 REVERT JUMPDEST PUSH2 0x5D7 SWAP1 DUP7 RETURNDATASIZE DUP9 GT PUSH2 0x20A JUMPI PUSH2 0x1FB DUP2 DUP4 PUSH2 0x6A5 JUMP JUMPDEST POP DUP9 PUSH2 0x40D JUMP JUMPDEST DUP6 MLOAD RETURNDATASIZE DUP12 DUP3 RETURNDATACOPY RETURNDATASIZE SWAP1 REVERT JUMPDEST MLOAD PUSH3 0x461BCD PUSH1 0xE5 SHL DUP2 MSTORE PUSH1 0x20 DUP2 DUP6 ADD MSTORE PUSH1 0x1D PUSH1 0x24 DUP3 ADD MSTORE PUSH32 0x416D6F756E74206D7573742062652067726561746572207468616E2030000000 PUSH1 0x44 DUP3 ADD MSTORE PUSH1 0x64 SWAP1 REVERT JUMPDEST SWAP2 SWAP1 POP CALLVALUE PUSH2 0x562 JUMPI PUSH1 0x20 CALLDATASIZE PUSH1 0x3 NOT ADD SLT PUSH2 0x562 JUMPI PUSH1 0x20 SWAP3 PUSH1 0xFF SWAP2 SWAP1 PUSH1 0x1 PUSH1 0x1 PUSH1 0xA0 SHL SUB PUSH2 0x655 PUSH2 0x665 JUMP JUMPDEST AND DUP2 MSTORE PUSH1 0x5 DUP6 MSTORE KECCAK256 SLOAD AND ISZERO ISZERO DUP2 MSTORE RETURN JUMPDEST PUSH1 0x4 CALLDATALOAD SWAP1 PUSH1 0x1 PUSH1 0x1 PUSH1 0xA0 SHL SUB DUP3 AND DUP3 SUB PUSH2 0x34C JUMPI JUMP JUMPDEST PUSH8 0xFFFFFFFFFFFFFFFF DUP2 GT PUSH2 0x68F JUMPI PUSH1 0x40 MSTORE JUMP JUMPDEST PUSH4 0x4E487B71 PUSH1 0xE0 SHL PUSH1 0x0 MSTORE PUSH1 0x41 PUSH1 0x4 MSTORE PUSH1 0x24 PUSH1 0x0 REVERT JUMPDEST SWAP1 PUSH1 0x1F DUP1 NOT SWAP2 ADD AND DUP2 ADD SWAP1 DUP2 LT PUSH8 0xFFFFFFFFFFFFFFFF DUP3 GT OR PUSH2 0x68F JUMPI PUSH1 0x40 MSTORE JUMP JUMPDEST SWAP1 DUP2 PUSH1 0x20 SWAP2 SUB SLT PUSH2 0x34C JUMPI MLOAD DUP1 ISZERO ISZERO DUP2 SUB PUSH2 0x34C JUMPI SWAP1 JUMP JUMPDEST SWAP1 DUP2 PUSH1 0x20 SWAP2 SUB SLT PUSH2 0x34C JUMPI MLOAD PUSH1 0x1 PUSH1 0x1 PUSH1 0xA0 SHL SUB DUP2 AND DUP2 SUB PUSH2 0x34C JUMPI SWAP1 JUMP JUMPDEST ISZERO PUSH2 0x705 JUMPI JUMP JUMPDEST PUSH1 0x40 MLOAD PUSH3 0x461BCD PUSH1 0xE5 SHL DUP2 MSTORE PUSH1 0x20 PUSH1 0x4 DUP3 ADD MSTORE PUSH1 0x15 PUSH1 0x24 DUP3 ADD MSTORE PUSH21 0x4E6F20737472617465677920617661696C61626C65 PUSH1 0x58 SHL PUSH1 0x44 DUP3 ADD MSTORE PUSH1 0x64 SWAP1 REVERT INVALID LOG2 PUSH5 0x6970667358 0x22 SLT KECCAK256 0xF JUMPDEST ADDRESS SELFDESTRUCT SWAP12 0x22 LOG3 PC PUSH30 0x38AAD550C6A57439E5CEB215604F9D2F9C911F72248D4F64736F6C634300 ADDMOD EQ STOP CALLER "},"methodIdentifiers":{"balances(address,address)":"c23f001f","deposit(address,uint256)":"47e7ef24","feeManager()":"d0fb0203","isSupportedToken(address)":"240028e8","owner()":"8da5cb5b","strategyFactory()":"9ef35710","timelock()":"d33219b4","withdraw(address,uint256)":"f3fef3a3"}}}}}