{"contracts/Strategies/StrategyFactory.sol":{"StrategyFactory":{"abi":[{"inputs":[{"internalType":"address","name":"_token","type":"address"},{"internalType":"address","name":"_strategy","type":"address"}],"name":"addStrategy","outputs":[],"stateMutability":"nonpayable","type":"function"},{"inputs":[{"internalType":"address","name":"_token","type":"address"}],"name":"getBestStrategy","outputs":[{"internalType":"address","name":"","type":"address"}],"stateMutability":"view","type":"function"},{"inputs":[{"internalType":"address","name":"","type":"address"}],"name":"isSupportedToken","outputs":[{"internalType":"bool","name":"","type":"bool"}],"stateMutability":"view","type":"function"},{"inputs":[{"internalType":"address","name":"_token","type":"address"},{"internalType":"address","name":"_strategy","type":"address"}],"name":"isValidStrategy","outputs":[{"internalType":"bool","name":"","type":"bool"}],"stateMutability":"view","type":"function"},{"inputs":[{"internalType":"address","name":"_token","type":"address"},{"internalType":"address","name":"_strategy","type":"address"}],"name":"removeStrategy","outputs":[],"stateMutability":"nonpayable","type":"function"},{"inputs":[{"internalType":"address","name":"","type":"address"},{"internalType":"uint256","name":"","type":"uint256"}],"name":"tokenStrategies","outputs":[{"internalType":"address","name":"strategy","type":"address"},{"internalType":"bool","name":"isActive","type":"bool"}],"stateMutability":"view","type":"function"}],"evm":{"bytecode":{"linkReferences":{},"object":"608080604052346100165761058b908161001c8239f35b600080fdfe6040608081526004908136101561001557600080fd5b600091823560e01c80631560468e146103d957806318066943146102a557806321294ccb1461026e578063240028e8146102305780638e67d7b3146101925763a9afd13e1461006357600080fd5b3461018e576020918260031936011261018a5761007e61043d565b849384916001600160a01b039081169190835b838952888352858920805482101561017f576100ae82849261046e565b505460ff8160a01c166100cc575b50506100c79061049c565b610091565b16865163c4f9870b60e01b8152858982015260249085818381865afa918215610175578c92610116575b5050868111610108575b8391506100bc565b90985094506100c738610100565b90915085903d871161016d575b601f8201601f191683019067ffffffffffffffff82118483101761015c5750869183918b5281010312610158575138806100f6565b8a80fd5b634e487b7160e01b8e5260418c528dfd5b3d9150610123565b89513d8e823e3d90fd5b838984895191168152f35b8380fd5b8280fd5b50503461022c578060031936011261022c576101ac61043d565b906101b5610458565b6001600160a01b03908116928116845b818652856020818152858220805484101561022157856101e6858a9361046e565b505416146101fe5750506101f99061049c565b6101c5565b91949350916102129550825252832061046e565b50805460ff60a01b1916905580f35b505050505050505080f35b5080fd5b50503461022c57602036600319011261022c5760209160ff9082906001600160a01b0361025b61043d565b1681526001855220541690519015158152f35b50503461022c578060031936011261022c5760209061029c61028e61043d565b610296610458565b906104c1565b90519015158152f35b50903461018e578060031936011261018e576102bf61043d565b906001600160a01b0390816102d2610458565b16928315610396578216855284602052808520928151918083019083821067ffffffffffffffff831117610383575281526020810192600184528054906801000000000000000082101561037057906103309160018201815561046e565b94909461035e575051835492516001600160a81b031990931691161790151560a01b60ff60a01b1617905580f35b634e487b7160e01b8652859052602485fd5b634e487b7160e01b875260418652602487fd5b634e487b7160e01b885260418752602488fd5b815162461bcd60e51b8152602081870152601860248201527f496e76616c6964207374726174656779206164647265737300000000000000006044820152606490fd5b82843461043a578160031936011261043a576103f361043d565b6001600160a01b0390811682526020829052828220805491926024359283101561043a575060ff916104249161046e565b50548351928116835260a01c1615156020820152f35b80fd5b600435906001600160a01b038216820361045357565b600080fd5b602435906001600160a01b038216820361045357565b80548210156104865760005260206000200190600090565b634e487b7160e01b600052603260045260246000fd5b60001981146104ab5760010190565b634e487b7160e01b600052601160045260246000fd5b9060005b60018060a01b03808416806000526020916000835260408060002091825486101561054857806104f687809561046e565b505416908716149283610523575b505050905061051b576105169061049c565b6104c5565b505050600190565b610539935060ff9460009182525260002061046e565b505460a01c1680823880610504565b505050505050505060009056fea2646970667358221220ed20871fbbb4ce0490559ee460233f5c966f10d5695b19edfa4a2e6c7bdc62e064736f6c63430008140033","opcodes":"PUSH1 0x80 DUP1 PUSH1 0x40 MSTORE CALLVALUE PUSH2 0x16 JUMPI PUSH2 0x58B SWAP1 DUP2 PUSH2 0x1C DUP3 CODECOPY RETURN JUMPDEST PUSH1 0x0 DUP1 REVERT INVALID PUSH1 0x40 PUSH1 0x80 DUP2 MSTORE PUSH1 0x4 SWAP1 DUP2 CALLDATASIZE LT ISZERO PUSH2 0x15 JUMPI PUSH1 0x0 DUP1 REVERT JUMPDEST PUSH1 0x0 SWAP2 DUP3 CALLDATALOAD PUSH1 0xE0 SHR DUP1 PUSH4 0x1560468E EQ PUSH2 0x3D9 JUMPI DUP1 PUSH4 0x18066943 EQ PUSH2 0x2A5 JUMPI DUP1 PUSH4 0x21294CCB EQ PUSH2 0x26E JUMPI DUP1 PUSH4 0x240028E8 EQ PUSH2 0x230 JUMPI DUP1 PUSH4 0x8E67D7B3 EQ PUSH2 0x192 JUMPI PUSH4 0xA9AFD13E EQ PUSH2 0x63 JUMPI PUSH1 0x0 DUP1 REVERT JUMPDEST CALLVALUE PUSH2 0x18E JUMPI PUSH1 0x20 SWAP2 DUP3 PUSH1 0x3 NOT CALLDATASIZE ADD SLT PUSH2 0x18A JUMPI PUSH2 0x7E PUSH2 0x43D JUMP JUMPDEST DUP5 SWAP4 DUP5 SWAP2 PUSH1 0x1 PUSH1 0x1 PUSH1 0xA0 SHL SUB SWAP1 DUP2 AND SWAP2 SWAP1 DUP4 JUMPDEST DUP4 DUP10 MSTORE DUP9 DUP4 MSTORE DUP6 DUP10 KECCAK256 DUP1 SLOAD DUP3 LT ISZERO PUSH2 0x17F JUMPI PUSH2 0xAE DUP3 DUP5 SWAP3 PUSH2 0x46E JUMP JUMPDEST POP SLOAD PUSH1 0xFF DUP2 PUSH1 0xA0 SHR AND PUSH2 0xCC JUMPI JUMPDEST POP POP PUSH2 0xC7 SWAP1 PUSH2 0x49C JUMP JUMPDEST PUSH2 0x91 JUMP JUMPDEST AND DUP7 MLOAD PUSH4 0xC4F9870B PUSH1 0xE0 SHL DUP2 MSTORE DUP6 DUP10 DUP3 ADD MSTORE PUSH1 0x24 SWAP1 DUP6 DUP2 DUP4 DUP2 DUP7 GAS STATICCALL SWAP2 DUP3 ISZERO PUSH2 0x175 JUMPI DUP13 SWAP3 PUSH2 0x116 JUMPI JUMPDEST POP POP DUP7 DUP2 GT PUSH2 0x108 JUMPI JUMPDEST DUP4 SWAP2 POP PUSH2 0xBC JUMP JUMPDEST SWAP1 SWAP9 POP SWAP5 POP PUSH2 0xC7 CODESIZE PUSH2 0x100 JUMP JUMPDEST SWAP1 SWAP2 POP DUP6 SWAP1 RETURNDATASIZE DUP8 GT PUSH2 0x16D JUMPI JUMPDEST PUSH1 0x1F DUP3 ADD PUSH1 0x1F NOT AND DUP4 ADD SWAP1 PUSH8 0xFFFFFFFFFFFFFFFF DUP3 GT DUP5 DUP4 LT OR PUSH2 0x15C JUMPI POP DUP7 SWAP2 DUP4 SWAP2 DUP12 MSTORE DUP2 ADD SUB SLT PUSH2 0x158 JUMPI MLOAD CODESIZE DUP1 PUSH2 0xF6 JUMP JUMPDEST DUP11 DUP1 REVERT JUMPDEST PUSH4 0x4E487B71 PUSH1 0xE0 SHL DUP15 MSTORE PUSH1 0x41 DUP13 MSTORE DUP14 REVERT JUMPDEST RETURNDATASIZE SWAP2 POP PUSH2 0x123 JUMP JUMPDEST DUP10 MLOAD RETURNDATASIZE DUP15 DUP3 RETURNDATACOPY RETURNDATASIZE SWAP1 REVERT JUMPDEST DUP4 DUP10 DUP5 DUP10 MLOAD SWAP2 AND DUP2 MSTORE RETURN JUMPDEST DUP4 DUP1 REVERT JUMPDEST DUP3 DUP1 REVERT JUMPDEST POP POP CALLVALUE PUSH2 0x22C JUMPI DUP1 PUSH1 0x3 NOT CALLDATASIZE ADD SLT PUSH2 0x22C JUMPI PUSH2 0x1AC PUSH2 0x43D JUMP JUMPDEST SWAP1 PUSH2 0x1B5 PUSH2 0x458 JUMP JUMPDEST PUSH1 0x1 PUSH1 0x1 PUSH1 0xA0 SHL SUB SWAP1 DUP2 AND SWAP3 DUP2 AND DUP5 JUMPDEST DUP2 DUP7 MSTORE DUP6 PUSH1 0x20 DUP2 DUP2 MSTORE DUP6 DUP3 KECCAK256 DUP1 SLOAD DUP5 LT ISZERO PUSH2 0x221 JUMPI DUP6 PUSH2 0x1E6 DUP6 DUP11 SWAP4 PUSH2 0x46E JUMP JUMPDEST POP SLOAD AND EQ PUSH2 0x1FE JUMPI POP POP PUSH2 0x1F9 SWAP1 PUSH2 0x49C JUMP JUMPDEST PUSH2 0x1C5 JUMP JUMPDEST SWAP2 SWAP5 SWAP4 POP SWAP2 PUSH2 0x212 SWAP6 POP DUP3 MSTORE MSTORE DUP4 KECCAK256 PUSH2 0x46E JUMP JUMPDEST POP DUP1 SLOAD PUSH1 0xFF PUSH1 0xA0 SHL NOT AND SWAP1 SSTORE DUP1 RETURN JUMPDEST POP POP POP POP POP POP POP POP DUP1 RETURN JUMPDEST POP DUP1 REVERT JUMPDEST POP POP CALLVALUE PUSH2 0x22C JUMPI PUSH1 0x20 CALLDATASIZE PUSH1 0x3 NOT ADD SLT PUSH2 0x22C JUMPI PUSH1 0x20 SWAP2 PUSH1 0xFF SWAP1 DUP3 SWAP1 PUSH1 0x1 PUSH1 0x1 PUSH1 0xA0 SHL SUB PUSH2 0x25B PUSH2 0x43D JUMP JUMPDEST AND DUP2 MSTORE PUSH1 0x1 DUP6 MSTORE KECCAK256 SLOAD AND SWAP1 MLOAD SWAP1 ISZERO ISZERO DUP2 MSTORE RETURN JUMPDEST POP POP CALLVALUE PUSH2 0x22C JUMPI DUP1 PUSH1 0x3 NOT CALLDATASIZE ADD SLT PUSH2 0x22C JUMPI PUSH1 0x20 SWAP1 PUSH2 0x29C PUSH2 0x28E PUSH2 0x43D JUMP JUMPDEST PUSH2 0x296 PUSH2 0x458 JUMP JUMPDEST SWAP1 PUSH2 0x4C1 JUMP JUMPDEST SWAP1 MLOAD SWAP1 ISZERO ISZERO DUP2 MSTORE RETURN JUMPDEST POP SWAP1 CALLVALUE PUSH2 0x18E JUMPI DUP1 PUSH1 0x3 NOT CALLDATASIZE ADD SLT PUSH2 0x18E JUMPI PUSH2 0x2BF PUSH2 0x43D JUMP JUMPDEST SWAP1 PUSH1 0x1 PUSH1 0x1 PUSH1 0xA0 SHL SUB SWAP1 DUP2 PUSH2 0x2D2 PUSH2 0x458 JUMP JUMPDEST AND SWAP3 DUP4 ISZERO PUSH2 0x396 JUMPI DUP3 AND DUP6 MSTORE DUP5 PUSH1 0x20 MSTORE DUP1 DUP6 KECCAK256 SWAP3 DUP2 MLOAD SWAP2 DUP1 DUP4 ADD SWAP1 DUP4 DUP3 LT PUSH8 0xFFFFFFFFFFFFFFFF DUP4 GT OR PUSH2 0x383 JUMPI MSTORE DUP2 MSTORE PUSH1 0x20 DUP2 ADD SWAP3 PUSH1 0x1 DUP5 MSTORE DUP1 SLOAD SWAP1 PUSH9 0x10000000000000000 DUP3 LT ISZERO PUSH2 0x370 JUMPI SWAP1 PUSH2 0x330 SWAP2 PUSH1 0x1 DUP3 ADD DUP2 SSTORE PUSH2 0x46E JUMP JUMPDEST SWAP5 SWAP1 SWAP5 PUSH2 0x35E JUMPI POP MLOAD DUP4 SLOAD SWAP3 MLOAD PUSH1 0x1 PUSH1 0x1 PUSH1 0xA8 SHL SUB NOT SWAP1 SWAP4 AND SWAP2 AND OR SWAP1 ISZERO ISZERO PUSH1 0xA0 SHL PUSH1 0xFF PUSH1 0xA0 SHL AND OR SWAP1 SSTORE DUP1 RETURN JUMPDEST PUSH4 0x4E487B71 PUSH1 0xE0 SHL DUP7 MSTORE DUP6 SWAP1 MSTORE PUSH1 0x24 DUP6 REVERT JUMPDEST PUSH4 0x4E487B71 PUSH1 0xE0 SHL DUP8 MSTORE PUSH1 0x41 DUP7 MSTORE PUSH1 0x24 DUP8 REVERT JUMPDEST PUSH4 0x4E487B71 PUSH1 0xE0 SHL DUP9 MSTORE PUSH1 0x41 DUP8 MSTORE PUSH1 0x24 DUP9 REVERT JUMPDEST DUP2 MLOAD PUSH3 0x461BCD PUSH1 0xE5 SHL DUP2 MSTORE PUSH1 0x20 DUP2 DUP8 ADD MSTORE PUSH1 0x18 PUSH1 0x24 DUP3 ADD MSTORE PUSH32 0x496E76616C696420737472617465677920616464726573730000000000000000 PUSH1 0x44 DUP3 ADD MSTORE PUSH1 0x64 SWAP1 REVERT JUMPDEST DUP3 DUP5 CALLVALUE PUSH2 0x43A JUMPI DUP2 PUSH1 0x3 NOT CALLDATASIZE ADD SLT PUSH2 0x43A JUMPI PUSH2 0x3F3 PUSH2 0x43D JUMP JUMPDEST PUSH1 0x1 PUSH1 0x1 PUSH1 0xA0 SHL SUB SWAP1 DUP2 AND DUP3 MSTORE PUSH1 0x20 DUP3 SWAP1 MSTORE DUP3 DUP3 KECCAK256 DUP1 SLOAD SWAP2 SWAP3 PUSH1 0x24 CALLDATALOAD SWAP3 DUP4 LT ISZERO PUSH2 0x43A JUMPI POP PUSH1 0xFF SWAP2 PUSH2 0x424 SWAP2 PUSH2 0x46E JUMP JUMPDEST POP SLOAD DUP4 MLOAD SWAP3 DUP2 AND DUP4 MSTORE PUSH1 0xA0 SHR AND ISZERO ISZERO PUSH1 0x20 DUP3 ADD MSTORE RETURN JUMPDEST DUP1 REVERT JUMPDEST PUSH1 0x4 CALLDATALOAD SWAP1 PUSH1 0x1 PUSH1 0x1 PUSH1 0xA0 SHL SUB DUP3 AND DUP3 SUB PUSH2 0x453 JUMPI JUMP JUMPDEST PUSH1 0x0 DUP1 REVERT JUMPDEST PUSH1 0x24 CALLDATALOAD SWAP1 PUSH1 0x1 PUSH1 0x1 PUSH1 0xA0 SHL SUB DUP3 AND DUP3 SUB PUSH2 0x453 JUMPI JUMP JUMPDEST DUP1 SLOAD DUP3 LT ISZERO PUSH2 0x486 JUMPI PUSH1 0x0 MSTORE PUSH1 0x20 PUSH1 0x0 KECCAK256 ADD SWAP1 PUSH1 0x0 SWAP1 JUMP JUMPDEST PUSH4 0x4E487B71 PUSH1 0xE0 SHL PUSH1 0x0 MSTORE PUSH1 0x32 PUSH1 0x4 MSTORE PUSH1 0x24 PUSH1 0x0 REVERT JUMPDEST PUSH1 0x0 NOT DUP2 EQ PUSH2 0x4AB JUMPI PUSH1 0x1 ADD SWAP1 JUMP JUMPDEST PUSH4 0x4E487B71 PUSH1 0xE0 SHL PUSH1 0x0 MSTORE PUSH1 0x11 PUSH1 0x4 MSTORE PUSH1 0x24 PUSH1 0x0 REVERT JUMPDEST SWAP1 PUSH1 0x0 JUMPDEST PUSH1 0x1 DUP1 PUSH1 0xA0 SHL SUB DUP1 DUP5 AND DUP1 PUSH1 0x0 MSTORE PUSH1 0x20 SWAP2 PUSH1 0x0 DUP4 MSTORE PUSH1 0x40 DUP1 PUSH1 0x0 KECCAK256 SWAP2 DUP3 SLOAD DUP7 LT ISZERO PUSH2 0x548 JUMPI DUP1 PUSH2 0x4F6 DUP8 DUP1 SWAP6 PUSH2 0x46E JUMP JUMPDEST POP SLOAD AND SWAP1 DUP8 AND EQ SWAP3 DUP4 PUSH2 0x523 JUMPI JUMPDEST POP POP POP SWAP1 POP PUSH2 0x51B JUMPI PUSH2 0x516 SWAP1 PUSH2 0x49C JUMP JUMPDEST PUSH2 0x4C5 JUMP JUMPDEST POP POP POP PUSH1 0x1 SWAP1 JUMP JUMPDEST PUSH2 0x539 SWAP4 POP PUSH1 0xFF SWAP5 PUSH1 0x0 SWAP2 DUP3 MSTORE MSTORE PUSH1 0x0 KECCAK256 PUSH2 0x46E JUMP JUMPDEST POP SLOAD PUSH1 0xA0 SHR AND DUP1 DUP3 CODESIZE DUP1 PUSH2 0x504 JUMP JUMPDEST POP POP POP POP POP POP POP POP PUSH1 0x0 SWAP1 JUMP INVALID LOG2 PUSH5 0x6970667358 0x22 SLT KECCAK256 0xED KECCAK256 DUP8 0x1F 0xBB 0xB4 0xCE DIV SWAP1 SSTORE SWAP15 0xE4 PUSH1 0x23 EXTCODEHASH 0x5C SWAP7 PUSH16 0x10D5695B19EDFA4A2E6C7BDC62E06473 PUSH16 0x6C634300081400330000000000000000 "},"methodIdentifiers":{"addStrategy(address,address)":"18066943","getBestStrategy(address)":"a9afd13e","isSupportedToken(address)":"240028e8","isValidStrategy(address,address)":"21294ccb","removeStrategy(address,address)":"8e67d7b3","tokenStrategies(address,uint256)":"1560468e"}}}}}