{"contracts/Strategies/StrategyManagerFactory.sol":{"StrategyManagerFactory":{"abi":[{"inputs":[],"stateMutability":"nonpayable","type":"constructor"},{"anonymous":false,"inputs":[{"indexed":true,"internalType":"address","name":"vip","type":"address"},{"indexed":false,"internalType":"address","name":"strategyManager","type":"address"}],"name":"StrategyManagerDeployed","type":"event"},{"inputs":[{"internalType":"address","name":"_strategyFactory","type":"address"},{"internalType":"address","name":"_vipUser","type":"address"},{"internalType":"uint256","name":"_feeRate","type":"uint256"}],"name":"deployStrategyManager","outputs":[{"internalType":"address","name":"","type":"address"}],"stateMutability":"nonpayable","type":"function"},{"inputs":[{"internalType":"address","name":"_vipUser","type":"address"}],"name":"getVIPStrategyManager","outputs":[{"internalType":"address","name":"","type":"address"}],"stateMutability":"view","type":"function"},{"inputs":[],"name":"owner","outputs":[{"internalType":"address","name":"","type":"address"}],"stateMutability":"view","type":"function"},{"inputs":[{"internalType":"address","name":"","type":"address"}],"name":"vipStrategyManager","outputs":[{"internalType":"address","name":"","type":"address"}],"stateMutability":"view","type":"function"}],"evm":{"bytecode":{"linkReferences":{},"object":"6080806040523461002857600080546001600160a01b03191633179055610b78908161002e8239f35b600080fdfe60806040818152600436101561001457600080fd5b600091823560e01c90816302343d3014610227575080632c4ac8e0146101ed578063769768a41461007857638da5cb5b1461004e57600080fd5b34610074578160031936011261007457905490516001600160a01b039091168152602090f35b5080fd5b5090346101ea5760603660031901126101ea57610093610263565b916024356001600160a01b03818116918290036101e6578084541633036101b6578184526020946001865281848620541661017f578351906108c4908183019183831067ffffffffffffffff84111761016b579184849260609461027f853916815285898201526044358782015203019085f0801561015e5790839116938281526001865220836bffffffffffffffffffffffff60a01b8254161790557f6c1cd0084719b5b43ce061e437c35a7e711992299b11850ddc3fb25615822535848351858152a251908152f35b50505051903d90823e3d90fd5b634e487b7160e01b88526041600452602488fd5b835162461bcd60e51b815260048101879052601060248201526f105b1c9958591e4819195c1b1bde595960821b6044820152606490fd5b825162461bcd60e51b81526020600482015260096024820152682737ba1037bbb732b960b91b6044820152606490fd5b8380fd5b80fd5b5034610074576020366003190112610074576020916001600160a01b0390829082610216610263565b168152600185522054169051908152f35b9190503461025f57602036600319011261025f576020926001600160a01b03919082610251610263565b168152600185522054168152f35b8280fd5b600435906001600160a01b038216820361027957565b600080fdfe6080346100ed57601f6108c438819003918201601f19168301916001600160401b038311848410176100f2578084926060946040528339810103126100ed5761004781610108565b90604061005660208301610108565b9101519033156100d45760008054336001600160a01b0319808316821784556040519690946001600160a01b03949093859391908416907f8be0079c531659141344cd1fd0a4f28419497f9722a3daafe3b4186f6b6457e09080a316836004541617600455169060015416176001556002556107a7908161011d8239f35b604051631e4fbdf760e01b815260006004820152602490fd5b600080fd5b634e487b7160e01b600052604160045260246000fd5b51906001600160a01b03821682036100ed5756fe608080604052600436101561001357600080fd5b60003560e01c9081632be01190146102f757508063715018a61461029e57806373d1571e146101a35780638da5cb5b1461017a578063978bbdb91461015c5780639ef3571014610133578063eac4715e1461010a5763f2fde38b1461007757600080fd5b346101055760203660031901126101055761009061060b565b610098610621565b6001600160a01b039081169081156100ec57600054826bffffffffffffffffffffffff60a01b821617600055167f8be0079c531659141344cd1fd0a4f28419497f9722a3daafe3b4186f6b6457e0600080a3005b604051631e4fbdf760e01b815260006004820152602490fd5b600080fd5b34610105576000366003190112610105576001546040516001600160a01b039091168152602090f35b34610105576000366003190112610105576004546040516001600160a01b039091168152602090f35b34610105576000366003190112610105576020600254604051908152f35b34610105576000366003190112610105576000546040516001600160a01b039091168152602090f35b34610105576040366003190112610105576101bc61060b565b6004805460405163c02d172760e01b81526001600160a01b03848116938201849052929360248035946020948592859290918391165afa9182156102925760019261020f91600091610265575b5061069d565b3360005260038352610226604060002091826106dc565b84600052018152816040600020556040519283528201527f387c32f2ad33ea5dc4e645053fe55d55c37f37d2c5d5ecab2778d370be3ea21e60403392a2005b6102859150853d871161028b575b61027d818361064d565b810190610685565b87610209565b503d610273565b6040513d6000823e3d90fd5b34610105576000366003190112610105576102b7610621565b600080546001600160a01b0319811682556001600160a01b03167f8be0079c531659141344cd1fd0a4f28419497f9722a3daafe3b4186f6b6457e08280a3005b346101055760403660031901126101055767ffffffffffffffff906004358281116101055761032a9036906004016105da565b9092602435908111610105576103449036906004016105da565b928383036105a457506000805b848210610569576064915003610524573360005260036020526040600020805460008255806104fd575b5060005b83811061042557505060405191806040840160408552526060830194906000905b8082106103fb5750505081840360208301528284526001600160fb1b03831161010557816020917fd4002324d21846d33b761514fb8bfafe2c20d6ebbd07048d7e870836e89350149460051b809184880137339501030190a2005b90919586359060018060a01b038216809203610105576020816001938293520197019201906103a0565b6004546001600160a01b031690602061044761044283888b61074d565b61075d565b60405163c02d172760e01b81526001600160a01b03909116600482015292839060249082905afa918215610292576104d99261048a916000916104de575061069d565b6104a161049b61044283888b61074d565b846106dc565b6104ac81878661074d565b356001600160a01b036104c361044284898c61074d565b166000526001840160205260406000205561073e565b61037f565b6104f7915060203d60201161028b5761027d818361064d565b89610209565b816000526020600020908101905b818110610518575061037b565b6000815560010161050b565b60405162461bcd60e51b815260206004820152601b60248201527f416c6c6f636174696f6e73206d7573742073756d20746f2031303000000000006044820152606490fd5b61057482868561074d565b35810180911161058e57610588909161073e565b90610351565b634e487b7160e01b600052601160045260246000fd5b62461bcd60e51b81526020600482015260116024820152704d69736d6174636865642061727261797360781b6044820152606490fd5b9181601f840112156101055782359167ffffffffffffffff8311610105576020808501948460051b01011161010557565b600435906001600160a01b038216820361010557565b6000546001600160a01b0316330361063557565b60405163118cdaa760e01b8152336004820152602490fd5b90601f8019910116810190811067ffffffffffffffff82111761066f57604052565b634e487b7160e01b600052604160045260246000fd5b90816020910312610105575180151581036101055790565b156106a457565b60405162461bcd60e51b815260206004820152601060248201526f496e76616c696420737472617465677960801b6044820152606490fd5b8054906801000000000000000082101561066f5760018201808255821015610728576000526020600020019060018060a01b03166bffffffffffffffffffffffff60a01b825416179055565b634e487b7160e01b600052603260045260246000fd5b600019811461058e5760010190565b91908110156107285760051b0190565b356001600160a01b0381168103610105579056fea264697066735822122077ec429a16c0fdcb92907448f64357ed38c901d5b51770232bab9c0caef9afb264736f6c63430008140033a2646970667358221220ca9f7c34c6319b20307c74838638cd1993f46cf47d4882f426bfb8782959ab2164736f6c63430008140033","opcodes":"PUSH1 0x80 DUP1 PUSH1 0x40 MSTORE CALLVALUE PUSH2 0x28 JUMPI PUSH1 0x0 DUP1 SLOAD PUSH1 0x1 PUSH1 0x1 PUSH1 0xA0 SHL SUB NOT AND CALLER OR SWAP1 SSTORE PUSH2 0xB78 SWAP1 DUP2 PUSH2 0x2E DUP3 CODECOPY RETURN JUMPDEST PUSH1 0x0 DUP1 REVERT INVALID PUSH1 0x80 PUSH1 0x40 DUP2 DUP2 MSTORE PUSH1 0x4 CALLDATASIZE LT ISZERO PUSH2 0x14 JUMPI PUSH1 0x0 DUP1 REVERT JUMPDEST PUSH1 0x0 SWAP2 DUP3 CALLDATALOAD PUSH1 0xE0 SHR SWAP1 DUP2 PUSH4 0x2343D30 EQ PUSH2 0x227 JUMPI POP DUP1 PUSH4 0x2C4AC8E0 EQ PUSH2 0x1ED JUMPI DUP1 PUSH4 0x769768A4 EQ PUSH2 0x78 JUMPI PUSH4 0x8DA5CB5B EQ PUSH2 0x4E JUMPI PUSH1 0x0 DUP1 REVERT JUMPDEST CALLVALUE PUSH2 0x74 JUMPI DUP2 PUSH1 0x3 NOT CALLDATASIZE ADD SLT PUSH2 0x74 JUMPI SWAP1 SLOAD SWAP1 MLOAD PUSH1 0x1 PUSH1 0x1 PUSH1 0xA0 SHL SUB SWAP1 SWAP2 AND DUP2 MSTORE PUSH1 0x20 SWAP1 RETURN JUMPDEST POP DUP1 REVERT JUMPDEST POP SWAP1 CALLVALUE PUSH2 0x1EA JUMPI PUSH1 0x60 CALLDATASIZE PUSH1 0x3 NOT ADD SLT PUSH2 0x1EA JUMPI PUSH2 0x93 PUSH2 0x263 JUMP JUMPDEST SWAP2 PUSH1 0x24 CALLDATALOAD PUSH1 0x1 PUSH1 0x1 PUSH1 0xA0 SHL SUB DUP2 DUP2 AND SWAP2 DUP3 SWAP1 SUB PUSH2 0x1E6 JUMPI DUP1 DUP5 SLOAD AND CALLER SUB PUSH2 0x1B6 JUMPI DUP2 DUP5 MSTORE PUSH1 0x20 SWAP5 PUSH1 0x1 DUP7 MSTORE DUP2 DUP5 DUP7 KECCAK256 SLOAD AND PUSH2 0x17F JUMPI DUP4 MLOAD SWAP1 PUSH2 0x8C4 SWAP1 DUP2 DUP4 ADD SWAP2 DUP4 DUP4 LT PUSH8 0xFFFFFFFFFFFFFFFF DUP5 GT OR PUSH2 0x16B JUMPI SWAP2 DUP5 DUP5 SWAP3 PUSH1 0x60 SWAP5 PUSH2 0x27F DUP6 CODECOPY AND DUP2 MSTORE DUP6 DUP10 DUP3 ADD MSTORE PUSH1 0x44 CALLDATALOAD DUP8 DUP3 ADD MSTORE SUB ADD SWAP1 DUP6 CREATE DUP1 ISZERO PUSH2 0x15E JUMPI SWAP1 DUP4 SWAP2 AND SWAP4 DUP3 DUP2 MSTORE PUSH1 0x1 DUP7 MSTORE KECCAK256 DUP4 PUSH12 0xFFFFFFFFFFFFFFFFFFFFFFFF PUSH1 0xA0 SHL DUP3 SLOAD AND OR SWAP1 SSTORE PUSH32 0x6C1CD0084719B5B43CE061E437C35A7E711992299B11850DDC3FB25615822535 DUP5 DUP4 MLOAD DUP6 DUP2 MSTORE LOG2 MLOAD SWAP1 DUP2 MSTORE RETURN JUMPDEST POP POP POP MLOAD SWAP1 RETURNDATASIZE SWAP1 DUP3 RETURNDATACOPY RETURNDATASIZE SWAP1 REVERT JUMPDEST PUSH4 0x4E487B71 PUSH1 0xE0 SHL DUP9 MSTORE PUSH1 0x41 PUSH1 0x4 MSTORE PUSH1 0x24 DUP9 REVERT JUMPDEST DUP4 MLOAD PUSH3 0x461BCD PUSH1 0xE5 SHL DUP2 MSTORE PUSH1 0x4 DUP2 ADD DUP8 SWAP1 MSTORE PUSH1 0x10 PUSH1 0x24 DUP3 ADD MSTORE PUSH16 0x105B1C9958591E4819195C1B1BDE5959 PUSH1 0x82 SHL PUSH1 0x44 DUP3 ADD MSTORE PUSH1 0x64 SWAP1 REVERT JUMPDEST DUP3 MLOAD PUSH3 0x461BCD PUSH1 0xE5 SHL DUP2 MSTORE PUSH1 0x20 PUSH1 0x4 DUP3 ADD MSTORE PUSH1 0x9 PUSH1 0x24 DUP3 ADD MSTORE PUSH9 0x2737BA1037BBB732B9 PUSH1 0xB9 SHL PUSH1 0x44 DUP3 ADD MSTORE PUSH1 0x64 SWAP1 REVERT JUMPDEST DUP4 DUP1 REVERT JUMPDEST DUP1 REVERT JUMPDEST POP CALLVALUE PUSH2 0x74 JUMPI PUSH1 0x20 CALLDATASIZE PUSH1 0x3 NOT ADD SLT PUSH2 0x74 JUMPI PUSH1 0x20 SWAP2 PUSH1 0x1 PUSH1 0x1 PUSH1 0xA0 SHL SUB SWAP1 DUP3 SWAP1 DUP3 PUSH2 0x216 PUSH2 0x263 JUMP JUMPDEST AND DUP2 MSTORE PUSH1 0x1 DUP6 MSTORE KECCAK256 SLOAD AND SWAP1 MLOAD SWAP1 DUP2 MSTORE RETURN JUMPDEST SWAP2 SWAP1 POP CALLVALUE PUSH2 0x25F JUMPI PUSH1 0x20 CALLDATASIZE PUSH1 0x3 NOT ADD SLT PUSH2 0x25F JUMPI PUSH1 0x20 SWAP3 PUSH1 0x1 PUSH1 0x1 PUSH1 0xA0 SHL SUB SWAP2 SWAP1 DUP3 PUSH2 0x251 PUSH2 0x263 JUMP JUMPDEST AND DUP2 MSTORE PUSH1 0x1 DUP6 MSTORE KECCAK256 SLOAD AND DUP2 MSTORE RETURN JUMPDEST DUP3 DUP1 REVERT JUMPDEST PUSH1 0x4 CALLDATALOAD SWAP1 PUSH1 0x1 PUSH1 0x1 PUSH1 0xA0 SHL SUB DUP3 AND DUP3 SUB PUSH2 0x279 JUMPI JUMP JUMPDEST PUSH1 0x0 DUP1 REVERT INVALID PUSH1 0x80 CALLVALUE PUSH2 0xED JUMPI PUSH1 0x1F PUSH2 0x8C4 CODESIZE DUP2 SWAP1 SUB SWAP2 DUP3 ADD PUSH1 0x1F NOT AND DUP4 ADD SWAP2 PUSH1 0x1 PUSH1 0x1 PUSH1 0x40 SHL SUB DUP4 GT DUP5 DUP5 LT OR PUSH2 0xF2 JUMPI DUP1 DUP5 SWAP3 PUSH1 0x60 SWAP5 PUSH1 0x40 MSTORE DUP4 CODECOPY DUP2 ADD SUB SLT PUSH2 0xED JUMPI PUSH2 0x47 DUP2 PUSH2 0x108 JUMP JUMPDEST SWAP1 PUSH1 0x40 PUSH2 0x56 PUSH1 0x20 DUP4 ADD PUSH2 0x108 JUMP JUMPDEST SWAP2 ADD MLOAD SWAP1 CALLER ISZERO PUSH2 0xD4 JUMPI PUSH1 0x0 DUP1 SLOAD CALLER PUSH1 0x1 PUSH1 0x1 PUSH1 0xA0 SHL SUB NOT DUP1 DUP4 AND DUP3 OR DUP5 SSTORE PUSH1 0x40 MLOAD SWAP7 SWAP1 SWAP5 PUSH1 0x1 PUSH1 0x1 PUSH1 0xA0 SHL SUB SWAP5 SWAP1 SWAP4 DUP6 SWAP4 SWAP2 SWAP1 DUP5 AND SWAP1 PUSH32 0x8BE0079C531659141344CD1FD0A4F28419497F9722A3DAAFE3B4186F6B6457E0 SWAP1 DUP1 LOG3 AND DUP4 PUSH1 0x4 SLOAD AND OR PUSH1 0x4 SSTORE AND SWAP1 PUSH1 0x1 SLOAD AND OR PUSH1 0x1 SSTORE PUSH1 0x2 SSTORE PUSH2 0x7A7 SWAP1 DUP2 PUSH2 0x11D DUP3 CODECOPY RETURN JUMPDEST PUSH1 0x40 MLOAD PUSH4 0x1E4FBDF7 PUSH1 0xE0 SHL DUP2 MSTORE PUSH1 0x0 PUSH1 0x4 DUP3 ADD MSTORE PUSH1 0x24 SWAP1 REVERT JUMPDEST PUSH1 0x0 DUP1 REVERT JUMPDEST PUSH4 0x4E487B71 PUSH1 0xE0 SHL PUSH1 0x0 MSTORE PUSH1 0x41 PUSH1 0x4 MSTORE PUSH1 0x24 PUSH1 0x0 REVERT JUMPDEST MLOAD SWAP1 PUSH1 0x1 PUSH1 0x1 PUSH1 0xA0 SHL SUB DUP3 AND DUP3 SUB PUSH2 0xED JUMPI JUMP INVALID PUSH1 0x80 DUP1 PUSH1 0x40 MSTORE PUSH1 0x4 CALLDATASIZE LT ISZERO PUSH2 0x13 JUMPI PUSH1 0x0 DUP1 REVERT JUMPDEST PUSH1 0x0 CALLDATALOAD PUSH1 0xE0 SHR SWAP1 DUP2 PUSH4 0x2BE01190 EQ PUSH2 0x2F7 JUMPI POP DUP1 PUSH4 0x715018A6 EQ PUSH2 0x29E JUMPI DUP1 PUSH4 0x73D1571E EQ PUSH2 0x1A3 JUMPI DUP1 PUSH4 0x8DA5CB5B EQ PUSH2 0x17A JUMPI DUP1 PUSH4 0x978BBDB9 EQ PUSH2 0x15C JUMPI DUP1 PUSH4 0x9EF35710 EQ PUSH2 0x133 JUMPI DUP1 PUSH4 0xEAC4715E EQ PUSH2 0x10A JUMPI PUSH4 0xF2FDE38B EQ PUSH2 0x77 JUMPI PUSH1 0x0 DUP1 REVERT JUMPDEST CALLVALUE PUSH2 0x105 JUMPI PUSH1 0x20 CALLDATASIZE PUSH1 0x3 NOT ADD SLT PUSH2 0x105 JUMPI PUSH2 0x90 PUSH2 0x60B JUMP JUMPDEST PUSH2 0x98 PUSH2 0x621 JUMP JUMPDEST PUSH1 0x1 PUSH1 0x1 PUSH1 0xA0 SHL SUB SWAP1 DUP2 AND SWAP1 DUP2 ISZERO PUSH2 0xEC JUMPI PUSH1 0x0 SLOAD DUP3 PUSH12 0xFFFFFFFFFFFFFFFFFFFFFFFF PUSH1 0xA0 SHL DUP3 AND OR PUSH1 0x0 SSTORE AND PUSH32 0x8BE0079C531659141344CD1FD0A4F28419497F9722A3DAAFE3B4186F6B6457E0 PUSH1 0x0 DUP1 LOG3 STOP JUMPDEST PUSH1 0x40 MLOAD PUSH4 0x1E4FBDF7 PUSH1 0xE0 SHL DUP2 MSTORE PUSH1 0x0 PUSH1 0x4 DUP3 ADD MSTORE PUSH1 0x24 SWAP1 REVERT JUMPDEST PUSH1 0x0 DUP1 REVERT JUMPDEST CALLVALUE PUSH2 0x105 JUMPI PUSH1 0x0 CALLDATASIZE PUSH1 0x3 NOT ADD SLT PUSH2 0x105 JUMPI PUSH1 0x1 SLOAD PUSH1 0x40 MLOAD PUSH1 0x1 PUSH1 0x1 PUSH1 0xA0 SHL SUB SWAP1 SWAP2 AND DUP2 MSTORE PUSH1 0x20 SWAP1 RETURN JUMPDEST CALLVALUE PUSH2 0x105 JUMPI PUSH1 0x0 CALLDATASIZE PUSH1 0x3 NOT ADD SLT PUSH2 0x105 JUMPI PUSH1 0x4 SLOAD PUSH1 0x40 MLOAD PUSH1 0x1 PUSH1 0x1 PUSH1 0xA0 SHL SUB SWAP1 SWAP2 AND DUP2 MSTORE PUSH1 0x20 SWAP1 RETURN JUMPDEST CALLVALUE PUSH2 0x105 JUMPI PUSH1 0x0 CALLDATASIZE PUSH1 0x3 NOT ADD SLT PUSH2 0x105 JUMPI PUSH1 0x20 PUSH1 0x2 SLOAD PUSH1 0x40 MLOAD SWAP1 DUP2 MSTORE RETURN JUMPDEST CALLVALUE PUSH2 0x105 JUMPI PUSH1 0x0 CALLDATASIZE PUSH1 0x3 NOT ADD SLT PUSH2 0x105 JUMPI PUSH1 0x0 SLOAD PUSH1 0x40 MLOAD PUSH1 0x1 PUSH1 0x1 PUSH1 0xA0 SHL SUB SWAP1 SWAP2 AND DUP2 MSTORE PUSH1 0x20 SWAP1 RETURN JUMPDEST CALLVALUE PUSH2 0x105 JUMPI PUSH1 0x40 CALLDATASIZE PUSH1 0x3 NOT ADD SLT PUSH2 0x105 JUMPI PUSH2 0x1BC PUSH2 0x60B JUMP JUMPDEST PUSH1 0x4 DUP1 SLOAD PUSH1 0x40 MLOAD PUSH4 0xC02D1727 PUSH1 0xE0 SHL DUP2 MSTORE PUSH1 0x1 PUSH1 0x1 PUSH1 0xA0 SHL SUB DUP5 DUP2 AND SWAP4 DUP3 ADD DUP5 SWAP1 MSTORE SWAP3 SWAP4 PUSH1 0x24 DUP1 CALLDATALOAD SWAP5 PUSH1 0x20 SWAP5 DUP6 SWAP3 DUP6 SWAP3 SWAP1 SWAP2 DUP4 SWAP2 AND GAS STATICCALL SWAP2 DUP3 ISZERO PUSH2 0x292 JUMPI PUSH1 0x1 SWAP3 PUSH2 0x20F SWAP2 PUSH1 0x0 SWAP2 PUSH2 0x265 JUMPI JUMPDEST POP PUSH2 0x69D JUMP JUMPDEST CALLER PUSH1 0x0 MSTORE PUSH1 0x3 DUP4 MSTORE PUSH2 0x226 PUSH1 0x40 PUSH1 0x0 KECCAK256 SWAP2 DUP3 PUSH2 0x6DC JUMP JUMPDEST DUP5 PUSH1 0x0 MSTORE ADD DUP2 MSTORE DUP2 PUSH1 0x40 PUSH1 0x0 KECCAK256 SSTORE PUSH1 0x40 MLOAD SWAP3 DUP4 MSTORE DUP3 ADD MSTORE PUSH32 0x387C32F2AD33EA5DC4E645053FE55D55C37F37D2C5D5ECAB2778D370BE3EA21E PUSH1 0x40 CALLER SWAP3 LOG2 STOP JUMPDEST PUSH2 0x285 SWAP2 POP DUP6 RETURNDATASIZE DUP8 GT PUSH2 0x28B JUMPI JUMPDEST PUSH2 0x27D DUP2 DUP4 PUSH2 0x64D JUMP JUMPDEST DUP2 ADD SWAP1 PUSH2 0x685 JUMP JUMPDEST DUP8 PUSH2 0x209 JUMP JUMPDEST POP RETURNDATASIZE PUSH2 0x273 JUMP JUMPDEST PUSH1 0x40 MLOAD RETURNDATASIZE PUSH1 0x0 DUP3 RETURNDATACOPY RETURNDATASIZE SWAP1 REVERT JUMPDEST CALLVALUE PUSH2 0x105 JUMPI PUSH1 0x0 CALLDATASIZE PUSH1 0x3 NOT ADD SLT PUSH2 0x105 JUMPI PUSH2 0x2B7 PUSH2 0x621 JUMP JUMPDEST PUSH1 0x0 DUP1 SLOAD PUSH1 0x1 PUSH1 0x1 PUSH1 0xA0 SHL SUB NOT DUP2 AND DUP3 SSTORE PUSH1 0x1 PUSH1 0x1 PUSH1 0xA0 SHL SUB AND PUSH32 0x8BE0079C531659141344CD1FD0A4F28419497F9722A3DAAFE3B4186F6B6457E0 DUP3 DUP1 LOG3 STOP JUMPDEST CALLVALUE PUSH2 0x105 JUMPI PUSH1 0x40 CALLDATASIZE PUSH1 0x3 NOT ADD SLT PUSH2 0x105 JUMPI PUSH8 0xFFFFFFFFFFFFFFFF SWAP1 PUSH1 0x4 CALLDATALOAD DUP3 DUP2 GT PUSH2 0x105 JUMPI PUSH2 0x32A SWAP1 CALLDATASIZE SWAP1 PUSH1 0x4 ADD PUSH2 0x5DA JUMP JUMPDEST SWAP1 SWAP3 PUSH1 0x24 CALLDATALOAD SWAP1 DUP2 GT PUSH2 0x105 JUMPI PUSH2 0x344 SWAP1 CALLDATASIZE SWAP1 PUSH1 0x4 ADD PUSH2 0x5DA JUMP JUMPDEST SWAP3 DUP4 DUP4 SUB PUSH2 0x5A4 JUMPI POP PUSH1 0x0 DUP1 JUMPDEST DUP5 DUP3 LT PUSH2 0x569 JUMPI PUSH1 0x64 SWAP2 POP SUB PUSH2 0x524 JUMPI CALLER PUSH1 0x0 MSTORE PUSH1 0x3 PUSH1 0x20 MSTORE PUSH1 0x40 PUSH1 0x0 KECCAK256 DUP1 SLOAD PUSH1 0x0 DUP3 SSTORE DUP1 PUSH2 0x4FD JUMPI JUMPDEST POP PUSH1 0x0 JUMPDEST DUP4 DUP2 LT PUSH2 0x425 JUMPI POP POP PUSH1 0x40 MLOAD SWAP2 DUP1 PUSH1 0x40 DUP5 ADD PUSH1 0x40 DUP6 MSTORE MSTORE PUSH1 0x60 DUP4 ADD SWAP5 SWAP1 PUSH1 0x0 SWAP1 JUMPDEST DUP1 DUP3 LT PUSH2 0x3FB JUMPI POP POP POP DUP2 DUP5 SUB PUSH1 0x20 DUP4 ADD MSTORE DUP3 DUP5 MSTORE PUSH1 0x1 PUSH1 0x1 PUSH1 0xFB SHL SUB DUP4 GT PUSH2 0x105 JUMPI DUP2 PUSH1 0x20 SWAP2 PUSH32 0xD4002324D21846D33B761514FB8BFAFE2C20D6EBBD07048D7E870836E8935014 SWAP5 PUSH1 0x5 SHL DUP1 SWAP2 DUP5 DUP9 ADD CALLDATACOPY CALLER SWAP6 ADD SUB ADD SWAP1 LOG2 STOP JUMPDEST SWAP1 SWAP2 SWAP6 DUP7 CALLDATALOAD SWAP1 PUSH1 0x1 DUP1 PUSH1 0xA0 SHL SUB DUP3 AND DUP1 SWAP3 SUB PUSH2 0x105 JUMPI PUSH1 0x20 DUP2 PUSH1 0x1 SWAP4 DUP3 SWAP4 MSTORE ADD SWAP8 ADD SWAP3 ADD SWAP1 PUSH2 0x3A0 JUMP JUMPDEST PUSH1 0x4 SLOAD PUSH1 0x1 PUSH1 0x1 PUSH1 0xA0 SHL SUB AND SWAP1 PUSH1 0x20 PUSH2 0x447 PUSH2 0x442 DUP4 DUP9 DUP12 PUSH2 0x74D JUMP JUMPDEST PUSH2 0x75D JUMP JUMPDEST PUSH1 0x40 MLOAD PUSH4 0xC02D1727 PUSH1 0xE0 SHL DUP2 MSTORE PUSH1 0x1 PUSH1 0x1 PUSH1 0xA0 SHL SUB SWAP1 SWAP2 AND PUSH1 0x4 DUP3 ADD MSTORE SWAP3 DUP4 SWAP1 PUSH1 0x24 SWAP1 DUP3 SWAP1 GAS STATICCALL SWAP2 DUP3 ISZERO PUSH2 0x292 JUMPI PUSH2 0x4D9 SWAP3 PUSH2 0x48A SWAP2 PUSH1 0x0 SWAP2 PUSH2 0x4DE JUMPI POP PUSH2 0x69D JUMP JUMPDEST PUSH2 0x4A1 PUSH2 0x49B PUSH2 0x442 DUP4 DUP9 DUP12 PUSH2 0x74D JUMP JUMPDEST DUP5 PUSH2 0x6DC JUMP JUMPDEST PUSH2 0x4AC DUP2 DUP8 DUP7 PUSH2 0x74D JUMP JUMPDEST CALLDATALOAD PUSH1 0x1 PUSH1 0x1 PUSH1 0xA0 SHL SUB PUSH2 0x4C3 PUSH2 0x442 DUP5 DUP10 DUP13 PUSH2 0x74D JUMP JUMPDEST AND PUSH1 0x0 MSTORE PUSH1 0x1 DUP5 ADD PUSH1 0x20 MSTORE PUSH1 0x40 PUSH1 0x0 KECCAK256 SSTORE PUSH2 0x73E JUMP JUMPDEST PUSH2 0x37F JUMP JUMPDEST PUSH2 0x4F7 SWAP2 POP PUSH1 0x20 RETURNDATASIZE PUSH1 0x20 GT PUSH2 0x28B JUMPI PUSH2 0x27D DUP2 DUP4 PUSH2 0x64D JUMP JUMPDEST DUP10 PUSH2 0x209 JUMP JUMPDEST DUP2 PUSH1 0x0 MSTORE PUSH1 0x20 PUSH1 0x0 KECCAK256 SWAP1 DUP2 ADD SWAP1 JUMPDEST DUP2 DUP2 LT PUSH2 0x518 JUMPI POP PUSH2 0x37B JUMP JUMPDEST PUSH1 0x0 DUP2 SSTORE PUSH1 0x1 ADD PUSH2 0x50B JUMP JUMPDEST PUSH1 0x40 MLOAD PUSH3 0x461BCD PUSH1 0xE5 SHL DUP2 MSTORE PUSH1 0x20 PUSH1 0x4 DUP3 ADD MSTORE PUSH1 0x1B PUSH1 0x24 DUP3 ADD MSTORE PUSH32 0x416C6C6F636174696F6E73206D7573742073756D20746F203130300000000000 PUSH1 0x44 DUP3 ADD MSTORE PUSH1 0x64 SWAP1 REVERT JUMPDEST PUSH2 0x574 DUP3 DUP7 DUP6 PUSH2 0x74D JUMP JUMPDEST CALLDATALOAD DUP2 ADD DUP1 SWAP2 GT PUSH2 0x58E JUMPI PUSH2 0x588 SWAP1 SWAP2 PUSH2 0x73E JUMP JUMPDEST SWAP1 PUSH2 0x351 JUMP JUMPDEST PUSH4 0x4E487B71 PUSH1 0xE0 SHL PUSH1 0x0 MSTORE PUSH1 0x11 PUSH1 0x4 MSTORE PUSH1 0x24 PUSH1 0x0 REVERT JUMPDEST PUSH3 0x461BCD PUSH1 0xE5 SHL DUP2 MSTORE PUSH1 0x20 PUSH1 0x4 DUP3 ADD MSTORE PUSH1 0x11 PUSH1 0x24 DUP3 ADD MSTORE PUSH17 0x4D69736D61746368656420617272617973 PUSH1 0x78 SHL PUSH1 0x44 DUP3 ADD MSTORE PUSH1 0x64 SWAP1 REVERT JUMPDEST SWAP2 DUP2 PUSH1 0x1F DUP5 ADD SLT ISZERO PUSH2 0x105 JUMPI DUP3 CALLDATALOAD SWAP2 PUSH8 0xFFFFFFFFFFFFFFFF DUP4 GT PUSH2 0x105 JUMPI PUSH1 0x20 DUP1 DUP6 ADD SWAP5 DUP5 PUSH1 0x5 SHL ADD ADD GT PUSH2 0x105 JUMPI JUMP JUMPDEST PUSH1 0x4 CALLDATALOAD SWAP1 PUSH1 0x1 PUSH1 0x1 PUSH1 0xA0 SHL SUB DUP3 AND DUP3 SUB PUSH2 0x105 JUMPI JUMP JUMPDEST PUSH1 0x0 SLOAD PUSH1 0x1 PUSH1 0x1 PUSH1 0xA0 SHL SUB AND CALLER SUB PUSH2 0x635 JUMPI JUMP JUMPDEST PUSH1 0x40 MLOAD PUSH4 0x118CDAA7 PUSH1 0xE0 SHL DUP2 MSTORE CALLER PUSH1 0x4 DUP3 ADD MSTORE PUSH1 0x24 SWAP1 REVERT JUMPDEST SWAP1 PUSH1 0x1F DUP1 NOT SWAP2 ADD AND DUP2 ADD SWAP1 DUP2 LT PUSH8 0xFFFFFFFFFFFFFFFF DUP3 GT OR PUSH2 0x66F JUMPI PUSH1 0x40 MSTORE JUMP JUMPDEST PUSH4 0x4E487B71 PUSH1 0xE0 SHL PUSH1 0x0 MSTORE PUSH1 0x41 PUSH1 0x4 MSTORE PUSH1 0x24 PUSH1 0x0 REVERT JUMPDEST SWAP1 DUP2 PUSH1 0x20 SWAP2 SUB SLT PUSH2 0x105 JUMPI MLOAD DUP1 ISZERO ISZERO DUP2 SUB PUSH2 0x105 JUMPI SWAP1 JUMP JUMPDEST ISZERO PUSH2 0x6A4 JUMPI JUMP JUMPDEST PUSH1 0x40 MLOAD PUSH3 0x461BCD PUSH1 0xE5 SHL DUP2 MSTORE PUSH1 0x20 PUSH1 0x4 DUP3 ADD MSTORE PUSH1 0x10 PUSH1 0x24 DUP3 ADD MSTORE PUSH16 0x496E76616C6964207374726174656779 PUSH1 0x80 SHL PUSH1 0x44 DUP3 ADD MSTORE PUSH1 0x64 SWAP1 REVERT JUMPDEST DUP1 SLOAD SWAP1 PUSH9 0x10000000000000000 DUP3 LT ISZERO PUSH2 0x66F JUMPI PUSH1 0x1 DUP3 ADD DUP1 DUP3 SSTORE DUP3 LT ISZERO PUSH2 0x728 JUMPI PUSH1 0x0 MSTORE PUSH1 0x20 PUSH1 0x0 KECCAK256 ADD SWAP1 PUSH1 0x1 DUP1 PUSH1 0xA0 SHL SUB AND PUSH12 0xFFFFFFFFFFFFFFFFFFFFFFFF PUSH1 0xA0 SHL DUP3 SLOAD AND OR SWAP1 SSTORE JUMP JUMPDEST PUSH4 0x4E487B71 PUSH1 0xE0 SHL PUSH1 0x0 MSTORE PUSH1 0x32 PUSH1 0x4 MSTORE PUSH1 0x24 PUSH1 0x0 REVERT JUMPDEST PUSH1 0x0 NOT DUP2 EQ PUSH2 0x58E JUMPI PUSH1 0x1 ADD SWAP1 JUMP JUMPDEST SWAP2 SWAP1 DUP2 LT ISZERO PUSH2 0x728 JUMPI PUSH1 0x5 SHL ADD SWAP1 JUMP JUMPDEST CALLDATALOAD PUSH1 0x1 PUSH1 0x1 PUSH1 0xA0 SHL SUB DUP2 AND DUP2 SUB PUSH2 0x105 JUMPI SWAP1 JUMP INVALID LOG2 PUSH5 0x6970667358 0x22 SLT KECCAK256 PUSH24 0xEC429A16C0FDCB92907448F64357ED38C901D5B51770232B 0xAB SWAP13 0xC 0xAE 0xF9 0xAF 0xB2 PUSH5 0x736F6C6343 STOP ADDMOD EQ STOP CALLER LOG2 PUSH5 0x6970667358 0x22 SLT KECCAK256 0xCA SWAP16 PUSH29 0x34C6319B20307C74838638CD1993F46CF47D4882F426BFB8782959AB21 PUSH5 0x736F6C6343 STOP ADDMOD EQ STOP CALLER "},"methodIdentifiers":{"deployStrategyManager(address,address,uint256)":"769768a4","getVIPStrategyManager(address)":"02343d30","owner()":"8da5cb5b","vipStrategyManager(address)":"2c4ac8e0"}}}}}