{"contracts/Strategies/SimpleStrategy.sol":{"SimpleStrategy":{"abi":[{"inputs":[{"internalType":"address","name":"_token","type":"address"},{"internalType":"uint256","name":"_amount","type":"uint256"}],"name":"deposit","outputs":[],"stateMutability":"nonpayable","type":"function"},{"inputs":[{"internalType":"address","name":"_token","type":"address"}],"name":"getAPY","outputs":[{"internalType":"uint256","name":"","type":"uint256"}],"stateMutability":"view","type":"function"},{"inputs":[{"internalType":"address","name":"_token","type":"address"}],"name":"getTotalBalance","outputs":[{"internalType":"uint256","name":"","type":"uint256"}],"stateMutability":"view","type":"function"},{"inputs":[{"internalType":"address","name":"_token","type":"address"},{"internalType":"uint256","name":"_amount","type":"uint256"}],"name":"invest","outputs":[],"stateMutability":"nonpayable","type":"function"},{"inputs":[{"internalType":"address","name":"_token","type":"address"},{"internalType":"uint256","name":"_amount","type":"uint256"}],"name":"withdraw","outputs":[],"stateMutability":"nonpayable","type":"function"}],"evm":{"bytecode":{"linkReferences":{},"object":"6080806040523461001b5760056001556101f090816100218239f35b600080fdfe604060808152600436101561001357600080fd5b600090813560e01c806347e7ef2414610158578063b9b8c24614610158578063c4f9870b14610130578063d3d38193146100fa5763f3fef3a31461005657600080fd5b346100f657806003193601126100f65761006e61015d565b6001600160a01b031680835260208390528183205460243592919083116100bb57835282602052822080549182039182116100a7575580f35b634e487b7160e01b83526011600452602483fd5b815162461bcd60e51b8152602060048201526014602482015273496e73756666696369656e742062616c616e636560601b6044820152606490fd5b5080fd5b50346100f65760203660031901126100f65760209181906001600160a01b0361012161015d565b16815280845220549051908152f35b50346100f65760203660031901126100f65760209061014d61015d565b506001549051908152f35b610178565b600435906001600160a01b038216820361017357565b600080fd5b34610173576040366003190112610173576001600160a01b0361019961015d565b166000908152806020526040812080549060243582018092116100a7575580f3fea264697066735822122088e30adb2f030e1694ac14d4d44032fd1005cbc1cd7d62e3b8f144bd2ae015b164736f6c63430008140033","opcodes":"PUSH1 0x80 DUP1 PUSH1 0x40 MSTORE CALLVALUE PUSH2 0x1B JUMPI PUSH1 0x5 PUSH1 0x1 SSTORE PUSH2 0x1F0 SWAP1 DUP2 PUSH2 0x21 DUP3 CODECOPY RETURN JUMPDEST PUSH1 0x0 DUP1 REVERT INVALID PUSH1 0x40 PUSH1 0x80 DUP2 MSTORE PUSH1 0x4 CALLDATASIZE LT ISZERO PUSH2 0x13 JUMPI PUSH1 0x0 DUP1 REVERT JUMPDEST PUSH1 0x0 SWAP1 DUP2 CALLDATALOAD PUSH1 0xE0 SHR DUP1 PUSH4 0x47E7EF24 EQ PUSH2 0x158 JUMPI DUP1 PUSH4 0xB9B8C246 EQ PUSH2 0x158 JUMPI DUP1 PUSH4 0xC4F9870B EQ PUSH2 0x130 JUMPI DUP1 PUSH4 0xD3D38193 EQ PUSH2 0xFA JUMPI PUSH4 0xF3FEF3A3 EQ PUSH2 0x56 JUMPI PUSH1 0x0 DUP1 REVERT JUMPDEST CALLVALUE PUSH2 0xF6 JUMPI DUP1 PUSH1 0x3 NOT CALLDATASIZE ADD SLT PUSH2 0xF6 JUMPI PUSH2 0x6E PUSH2 0x15D JUMP JUMPDEST PUSH1 0x1 PUSH1 0x1 PUSH1 0xA0 SHL SUB AND DUP1 DUP4 MSTORE PUSH1 0x20 DUP4 SWAP1 MSTORE DUP2 DUP4 KECCAK256 SLOAD PUSH1 0x24 CALLDATALOAD SWAP3 SWAP2 SWAP1 DUP4 GT PUSH2 0xBB JUMPI DUP4 MSTORE DUP3 PUSH1 0x20 MSTORE DUP3 KECCAK256 DUP1 SLOAD SWAP2 DUP3 SUB SWAP2 DUP3 GT PUSH2 0xA7 JUMPI SSTORE DUP1 RETURN JUMPDEST PUSH4 0x4E487B71 PUSH1 0xE0 SHL DUP4 MSTORE PUSH1 0x11 PUSH1 0x4 MSTORE PUSH1 0x24 DUP4 REVERT JUMPDEST DUP2 MLOAD PUSH3 0x461BCD PUSH1 0xE5 SHL DUP2 MSTORE PUSH1 0x20 PUSH1 0x4 DUP3 ADD MSTORE PUSH1 0x14 PUSH1 0x24 DUP3 ADD MSTORE PUSH20 0x496E73756666696369656E742062616C616E6365 PUSH1 0x60 SHL PUSH1 0x44 DUP3 ADD MSTORE PUSH1 0x64 SWAP1 REVERT JUMPDEST POP DUP1 REVERT JUMPDEST POP CALLVALUE PUSH2 0xF6 JUMPI PUSH1 0x20 CALLDATASIZE PUSH1 0x3 NOT ADD SLT PUSH2 0xF6 JUMPI PUSH1 0x20 SWAP2 DUP2 SWAP1 PUSH1 0x1 PUSH1 0x1 PUSH1 0xA0 SHL SUB PUSH2 0x121 PUSH2 0x15D JUMP JUMPDEST AND DUP2 MSTORE DUP1 DUP5 MSTORE KECCAK256 SLOAD SWAP1 MLOAD SWAP1 DUP2 MSTORE RETURN JUMPDEST POP CALLVALUE PUSH2 0xF6 JUMPI PUSH1 0x20 CALLDATASIZE PUSH1 0x3 NOT ADD SLT PUSH2 0xF6 JUMPI PUSH1 0x20 SWAP1 PUSH2 0x14D PUSH2 0x15D JUMP JUMPDEST POP PUSH1 0x1 SLOAD SWAP1 MLOAD SWAP1 DUP2 MSTORE RETURN JUMPDEST PUSH2 0x178 JUMP JUMPDEST PUSH1 0x4 CALLDATALOAD SWAP1 PUSH1 0x1 PUSH1 0x1 PUSH1 0xA0 SHL SUB DUP3 AND DUP3 SUB PUSH2 0x173 JUMPI JUMP JUMPDEST PUSH1 0x0 DUP1 REVERT JUMPDEST CALLVALUE PUSH2 0x173 JUMPI PUSH1 0x40 CALLDATASIZE PUSH1 0x3 NOT ADD SLT PUSH2 0x173 JUMPI PUSH1 0x1 PUSH1 0x1 PUSH1 0xA0 SHL SUB PUSH2 0x199 PUSH2 0x15D JUMP JUMPDEST AND PUSH1 0x0 SWAP1 DUP2 MSTORE DUP1 PUSH1 0x20 MSTORE PUSH1 0x40 DUP2 KECCAK256 DUP1 SLOAD SWAP1 PUSH1 0x24 CALLDATALOAD DUP3 ADD DUP1 SWAP3 GT PUSH2 0xA7 JUMPI SSTORE DUP1 RETURN INVALID LOG2 PUSH5 0x6970667358 0x22 SLT KECCAK256 DUP9 0xE3 EXP 0xDB 0x2F SUB 0xE AND SWAP5 0xAC EQ 0xD4 0xD4 BLOCKHASH ORIGIN REVERT LT SDIV 0xCB 0xC1 0xCD PUSH30 0x62E3B8F144BD2AE015B164736F6C63430008140033000000000000000000 "},"methodIdentifiers":{"deposit(address,uint256)":"47e7ef24","getAPY(address)":"c4f9870b","getTotalBalance(address)":"d3d38193","invest(address,uint256)":"b9b8c246","withdraw(address,uint256)":"f3fef3a3"}}}}}