{"contracts/mocks/MockStrategy.sol":{"MockStrategy":{"abi":[{"inputs":[{"internalType":"address","name":"","type":"address"}],"name":"balances","outputs":[{"internalType":"uint256","name":"","type":"uint256"}],"stateMutability":"view","type":"function"},{"inputs":[{"internalType":"address","name":"token","type":"address"},{"internalType":"uint256","name":"amount","type":"uint256"}],"name":"deposit","outputs":[],"stateMutability":"nonpayable","type":"function"},{"inputs":[{"internalType":"address","name":"token","type":"address"}],"name":"getAPY","outputs":[{"internalType":"uint256","name":"","type":"uint256"}],"stateMutability":"view","type":"function"},{"inputs":[{"internalType":"address","name":"token","type":"address"}],"name":"getTotalBalance","outputs":[{"internalType":"uint256","name":"","type":"uint256"}],"stateMutability":"view","type":"function"},{"inputs":[{"internalType":"address","name":"token","type":"address"},{"internalType":"uint256","name":"amount","type":"uint256"}],"name":"invest","outputs":[],"stateMutability":"nonpayable","type":"function"},{"inputs":[{"internalType":"address","name":"token","type":"address"},{"internalType":"uint256","name":"amount","type":"uint256"}],"name":"withdraw","outputs":[],"stateMutability":"nonpayable","type":"function"}],"evm":{"bytecode":{"linkReferences":{},"object":"608080604052346100165761037c908161001c8239f35b600080fdfe608060408181526004908136101561001657600080fd5b600092833560e01c90816327e235e3146102a85750806347e7ef2414610288578063b9b8c246146101d4578063c4f9870b146101ae578063d3d38193146101735763f3fef3a31461006657600080fd5b3461016f578060031936011261016f5761007e6102db565b6001600160a01b0316808452602084815282852054909391929160243591821161013757838652858552828620805490838203918211610124579160449187949355878551968794859363a9059cbb60e01b8552339085015260248401525af190811561011b57506100ee578280f35b8161010d92903d10610114575b61010581836102f6565b81019061032e565b5038808280f35b503d6100fb565b513d85823e3d90fd5b634e487b7160e01b885260118352602488fd5b825162461bcd60e51b815290810185905260126024820152714e6f7420656e6f7567682062616c616e636560701b6044820152606490fd5b8280fd5b8382346101aa5760203660031901126101aa5760209181906001600160a01b0361019b6102db565b16815280845220549051908152f35b5080fd5b8382346101aa5760203660031901126101aa57906020916101cd6102db565b5051908152f35b50903461016f578160031936011261016f576101ee6102db565b82516323b872dd60e01b8152338382015230602482810191909152356044820181905293916001600160a01b03169060208160648189865af1801561027e57610260575b50845283602052832090815492830180931161024d57505580f35b634e487b7160e01b845260119052602483fd5b6102779060203d81116101145761010581836102f6565b5038610232565b83513d88823e3d90fd5b8382346101aa573660031901126102a5576102a16102db565b5080f35b80fd5b9250503461016f57602036600319011261016f576020926001600160a01b036102cf6102db565b16815280845220548152f35b600435906001600160a01b03821682036102f157565b600080fd5b90601f8019910116810190811067ffffffffffffffff82111761031857604052565b634e487b7160e01b600052604160045260246000fd5b908160209103126102f1575180151581036102f1579056fea26469706673582212200b85630d6dcf5782640bd965cd5873a76fe3047b80e08b617d72106fe9f99bd164736f6c63430008140033","opcodes":"PUSH1 0x80 DUP1 PUSH1 0x40 MSTORE CALLVALUE PUSH2 0x16 JUMPI PUSH2 0x37C SWAP1 DUP2 PUSH2 0x1C DUP3 CODECOPY RETURN JUMPDEST PUSH1 0x0 DUP1 REVERT INVALID PUSH1 0x80 PUSH1 0x40 DUP2 DUP2 MSTORE PUSH1 0x4 SWAP1 DUP2 CALLDATASIZE LT ISZERO PUSH2 0x16 JUMPI PUSH1 0x0 DUP1 REVERT JUMPDEST PUSH1 0x0 SWAP3 DUP4 CALLDATALOAD PUSH1 0xE0 SHR SWAP1 DUP2 PUSH4 0x27E235E3 EQ PUSH2 0x2A8 JUMPI POP DUP1 PUSH4 0x47E7EF24 EQ PUSH2 0x288 JUMPI DUP1 PUSH4 0xB9B8C246 EQ PUSH2 0x1D4 JUMPI DUP1 PUSH4 0xC4F9870B EQ PUSH2 0x1AE JUMPI DUP1 PUSH4 0xD3D38193 EQ PUSH2 0x173 JUMPI PUSH4 0xF3FEF3A3 EQ PUSH2 0x66 JUMPI PUSH1 0x0 DUP1 REVERT JUMPDEST CALLVALUE PUSH2 0x16F JUMPI DUP1 PUSH1 0x3 NOT CALLDATASIZE ADD SLT PUSH2 0x16F JUMPI PUSH2 0x7E PUSH2 0x2DB JUMP JUMPDEST PUSH1 0x1 PUSH1 0x1 PUSH1 0xA0 SHL SUB AND DUP1 DUP5 MSTORE PUSH1 0x20 DUP5 DUP2 MSTORE DUP3 DUP6 KECCAK256 SLOAD SWAP1 SWAP4 SWAP2 SWAP3 SWAP2 PUSH1 0x24 CALLDATALOAD SWAP2 DUP3 GT PUSH2 0x137 JUMPI DUP4 DUP7 MSTORE DUP6 DUP6 MSTORE DUP3 DUP7 KECCAK256 DUP1 SLOAD SWAP1 DUP4 DUP3 SUB SWAP2 DUP3 GT PUSH2 0x124 JUMPI SWAP2 PUSH1 0x44 SWAP2 DUP8 SWAP5 SWAP4 SSTORE DUP8 DUP6 MLOAD SWAP7 DUP8 SWAP5 DUP6 SWAP4 PUSH4 0xA9059CBB PUSH1 0xE0 SHL DUP6 MSTORE CALLER SWAP1 DUP6 ADD MSTORE PUSH1 0x24 DUP5 ADD MSTORE GAS CALL SWAP1 DUP2 ISZERO PUSH2 0x11B JUMPI POP PUSH2 0xEE JUMPI DUP3 DUP1 RETURN JUMPDEST DUP2 PUSH2 0x10D SWAP3 SWAP1 RETURNDATASIZE LT PUSH2 0x114 JUMPI JUMPDEST PUSH2 0x105 DUP2 DUP4 PUSH2 0x2F6 JUMP JUMPDEST DUP2 ADD SWAP1 PUSH2 0x32E JUMP JUMPDEST POP CODESIZE DUP1 DUP3 DUP1 RETURN JUMPDEST POP RETURNDATASIZE PUSH2 0xFB JUMP JUMPDEST MLOAD RETURNDATASIZE DUP6 DUP3 RETURNDATACOPY RETURNDATASIZE SWAP1 REVERT JUMPDEST PUSH4 0x4E487B71 PUSH1 0xE0 SHL DUP9 MSTORE PUSH1 0x11 DUP4 MSTORE PUSH1 0x24 DUP9 REVERT JUMPDEST DUP3 MLOAD PUSH3 0x461BCD PUSH1 0xE5 SHL DUP2 MSTORE SWAP1 DUP2 ADD DUP6 SWAP1 MSTORE PUSH1 0x12 PUSH1 0x24 DUP3 ADD MSTORE PUSH18 0x4E6F7420656E6F7567682062616C616E6365 PUSH1 0x70 SHL PUSH1 0x44 DUP3 ADD MSTORE PUSH1 0x64 SWAP1 REVERT JUMPDEST DUP3 DUP1 REVERT JUMPDEST DUP4 DUP3 CALLVALUE PUSH2 0x1AA JUMPI PUSH1 0x20 CALLDATASIZE PUSH1 0x3 NOT ADD SLT PUSH2 0x1AA JUMPI PUSH1 0x20 SWAP2 DUP2 SWAP1 PUSH1 0x1 PUSH1 0x1 PUSH1 0xA0 SHL SUB PUSH2 0x19B PUSH2 0x2DB JUMP JUMPDEST AND DUP2 MSTORE DUP1 DUP5 MSTORE KECCAK256 SLOAD SWAP1 MLOAD SWAP1 DUP2 MSTORE RETURN JUMPDEST POP DUP1 REVERT JUMPDEST DUP4 DUP3 CALLVALUE PUSH2 0x1AA JUMPI PUSH1 0x20 CALLDATASIZE PUSH1 0x3 NOT ADD SLT PUSH2 0x1AA JUMPI SWAP1 PUSH1 0x20 SWAP2 PUSH2 0x1CD PUSH2 0x2DB JUMP JUMPDEST POP MLOAD SWAP1 DUP2 MSTORE RETURN JUMPDEST POP SWAP1 CALLVALUE PUSH2 0x16F JUMPI DUP2 PUSH1 0x3 NOT CALLDATASIZE ADD SLT PUSH2 0x16F JUMPI PUSH2 0x1EE PUSH2 0x2DB JUMP JUMPDEST DUP3 MLOAD PUSH4 0x23B872DD PUSH1 0xE0 SHL DUP2 MSTORE CALLER DUP4 DUP3 ADD MSTORE ADDRESS PUSH1 0x24 DUP3 DUP2 ADD SWAP2 SWAP1 SWAP2 MSTORE CALLDATALOAD PUSH1 0x44 DUP3 ADD DUP2 SWAP1 MSTORE SWAP4 SWAP2 PUSH1 0x1 PUSH1 0x1 PUSH1 0xA0 SHL SUB AND SWAP1 PUSH1 0x20 DUP2 PUSH1 0x64 DUP2 DUP10 DUP7 GAS CALL DUP1 ISZERO PUSH2 0x27E JUMPI PUSH2 0x260 JUMPI JUMPDEST POP DUP5 MSTORE DUP4 PUSH1 0x20 MSTORE DUP4 KECCAK256 SWAP1 DUP2 SLOAD SWAP3 DUP4 ADD DUP1 SWAP4 GT PUSH2 0x24D JUMPI POP SSTORE DUP1 RETURN JUMPDEST PUSH4 0x4E487B71 PUSH1 0xE0 SHL DUP5 MSTORE PUSH1 0x11 SWAP1 MSTORE PUSH1 0x24 DUP4 REVERT JUMPDEST PUSH2 0x277 SWAP1 PUSH1 0x20 RETURNDATASIZE DUP2 GT PUSH2 0x114 JUMPI PUSH2 0x105 DUP2 DUP4 PUSH2 0x2F6 JUMP JUMPDEST POP CODESIZE PUSH2 0x232 JUMP JUMPDEST DUP4 MLOAD RETURNDATASIZE DUP9 DUP3 RETURNDATACOPY RETURNDATASIZE SWAP1 REVERT JUMPDEST DUP4 DUP3 CALLVALUE PUSH2 0x1AA JUMPI CALLDATASIZE PUSH1 0x3 NOT ADD SLT PUSH2 0x2A5 JUMPI PUSH2 0x2A1 PUSH2 0x2DB JUMP JUMPDEST POP DUP1 RETURN JUMPDEST DUP1 REVERT JUMPDEST SWAP3 POP POP CALLVALUE PUSH2 0x16F JUMPI PUSH1 0x20 CALLDATASIZE PUSH1 0x3 NOT ADD SLT PUSH2 0x16F JUMPI PUSH1 0x20 SWAP3 PUSH1 0x1 PUSH1 0x1 PUSH1 0xA0 SHL SUB PUSH2 0x2CF PUSH2 0x2DB JUMP JUMPDEST AND DUP2 MSTORE DUP1 DUP5 MSTORE KECCAK256 SLOAD DUP2 MSTORE RETURN JUMPDEST PUSH1 0x4 CALLDATALOAD SWAP1 PUSH1 0x1 PUSH1 0x1 PUSH1 0xA0 SHL SUB DUP3 AND DUP3 SUB PUSH2 0x2F1 JUMPI JUMP JUMPDEST PUSH1 0x0 DUP1 REVERT JUMPDEST SWAP1 PUSH1 0x1F DUP1 NOT SWAP2 ADD AND DUP2 ADD SWAP1 DUP2 LT PUSH8 0xFFFFFFFFFFFFFFFF DUP3 GT OR PUSH2 0x318 JUMPI PUSH1 0x40 MSTORE JUMP JUMPDEST PUSH4 0x4E487B71 PUSH1 0xE0 SHL PUSH1 0x0 MSTORE PUSH1 0x41 PUSH1 0x4 MSTORE PUSH1 0x24 PUSH1 0x0 REVERT JUMPDEST SWAP1 DUP2 PUSH1 0x20 SWAP2 SUB SLT PUSH2 0x2F1 JUMPI MLOAD DUP1 ISZERO ISZERO DUP2 SUB PUSH2 0x2F1 JUMPI SWAP1 JUMP INVALID LOG2 PUSH5 0x6970667358 0x22 SLT KECCAK256 SIGNEXTEND DUP6 PUSH4 0xD6DCF57 DUP3 PUSH5 0xBD965CD58 PUSH20 0xA76FE3047B80E08B617D72106FE9F99BD164736F PUSH13 0x63430008140033000000000000 "},"methodIdentifiers":{"balances(address)":"27e235e3","deposit(address,uint256)":"47e7ef24","getAPY(address)":"c4f9870b","getTotalBalance(address)":"d3d38193","invest(address,uint256)":"b9b8c246","withdraw(address,uint256)":"f3fef3a3"}}}}}