{"contracts/Strategies/StrategyFactory.sol":{"StrategyFactory":{"abi":[{"inputs":[{"internalType":"address","name":"_token","type":"address"},{"internalType":"address","name":"_strategy","type":"address"}],"name":"addStrategy","outputs":[],"stateMutability":"nonpayable","type":"function"},{"inputs":[{"internalType":"address","name":"_token","type":"address"}],"name":"getBestStrategy","outputs":[{"internalType":"address","name":"","type":"address"}],"stateMutability":"view","type":"function"},{"inputs":[{"internalType":"address","name":"","type":"address"}],"name":"isSupportedToken","outputs":[{"internalType":"bool","name":"","type":"bool"}],"stateMutability":"view","type":"function"},{"inputs":[{"internalType":"address","name":"_strategy","type":"address"}],"name":"isValidStrategy","outputs":[{"internalType":"bool","name":"","type":"bool"}],"stateMutability":"view","type":"function"},{"inputs":[{"internalType":"address","name":"_token","type":"address"},{"internalType":"address","name":"_strategy","type":"address"}],"name":"removeStrategy","outputs":[],"stateMutability":"nonpayable","type":"function"},{"inputs":[{"internalType":"address","name":"","type":"address"},{"internalType":"uint256","name":"","type":"uint256"}],"name":"tokenStrategies","outputs":[{"internalType":"address","name":"strategy","type":"address"},{"internalType":"bool","name":"isActive","type":"bool"}],"stateMutability":"view","type":"function"}],"evm":{"bytecode":{"linkReferences":{},"object":"608080604052346100165761053a908161001c8239f35b600080fdfe6040608081526004908136101561001557600080fd5b600091823560e01c9081631560468e1461038e578163180669431461029f578163240028e8146102615781638e67d7b3146101c7578163a9afd13e14610096575063c02d17271461006557600080fd5b34610092576020366003190112610092576020906100896100846103f2565b610476565b90519015158152f35b5080fd5b9050346101c357602091826003193601126101bf576100b36103f2565b849384916001600160a01b039081169190835b83895288835285892080548210156101b4576100e3828492610423565b505460ff8160a01c16610101575b50506100fc90610451565b6100c6565b16865163c4f9870b60e01b8152858982015260249085818381865afa9182156101aa578c9261014b575b505086811161013d575b8391506100f1565b90985094506100fc38610135565b90915085903d87116101a2575b601f8201601f191683019067ffffffffffffffff8211848310176101915750869183918b528101031261018d5751388061012b565b8a80fd5b634e487b7160e01b8e5260418c528dfd5b3d9150610158565b89513d8e823e3d90fd5b838984895191168152f35b8380fd5b8280fd5b5050346100925780600319360112610092576101e16103f2565b906101ea61040d565b6001600160a01b03908116928116845b8186528560208181528582208054841015610256578561021b858a93610423565b5054161461023357505061022e90610451565b6101fa565b919493509161024795508252528320610423565b50805460ff60a01b1916905580f35b505050505050505080f35b5050346100925760203660031901126100925760209160ff9082906001600160a01b0361028c6103f2565b1681526001855220541690519015158152f35b919050346101c357806003193601126101c3576102ba6103f2565b6102c261040d565b6001600160a01b0391821685526020859052828520835190939091908281019067ffffffffffffffff82118483101761037b5752821681526001602082019081528354909368010000000000000000821015610368579061032891600182018155610423565b949094610356575051835492516001600160a81b031990931691161790151560a01b60ff60a01b1617905580f35b634e487b7160e01b8652859052602485fd5b634e487b7160e01b875260418652602487fd5b634e487b7160e01b885260418752602488fd5b8284346103ef57816003193601126103ef576103a86103f2565b6001600160a01b039081168252602082905282822080549192602435928310156103ef575060ff916103d991610423565b50548351928116835260a01c1615156020820152f35b80fd5b600435906001600160a01b038216820361040857565b600080fd5b602435906001600160a01b038216820361040857565b805482101561043b5760005260206000200190600090565b634e487b7160e01b600052603260045260246000fd5b60001981146104605760010190565b634e487b7160e01b600052601160045260246000fd5b60005b60018060a01b03808316806000526020916000835260408060002080548610156104f85785926104aa848693610423565b5054161492836104d3575b50505090506104cc576104c790610451565b610479565b5050600190565b6104e9935060ff94600091825252600020610423565b505460a01c16808238806104b5565b5050505050505060009056fea26469706673582212205e2bc790e590e4c2fcc93a22c93a6e2389845561c2339a923074a1ddf694f14964736f6c63430008140033","opcodes":"PUSH1 0x80 DUP1 PUSH1 0x40 MSTORE CALLVALUE PUSH2 0x16 JUMPI PUSH2 0x53A SWAP1 DUP2 PUSH2 0x1C DUP3 CODECOPY RETURN JUMPDEST PUSH1 0x0 DUP1 REVERT INVALID PUSH1 0x40 PUSH1 0x80 DUP2 MSTORE PUSH1 0x4 SWAP1 DUP2 CALLDATASIZE LT ISZERO PUSH2 0x15 JUMPI PUSH1 0x0 DUP1 REVERT JUMPDEST PUSH1 0x0 SWAP2 DUP3 CALLDATALOAD PUSH1 0xE0 SHR SWAP1 DUP2 PUSH4 0x1560468E EQ PUSH2 0x38E JUMPI DUP2 PUSH4 0x18066943 EQ PUSH2 0x29F JUMPI DUP2 PUSH4 0x240028E8 EQ PUSH2 0x261 JUMPI DUP2 PUSH4 0x8E67D7B3 EQ PUSH2 0x1C7 JUMPI DUP2 PUSH4 0xA9AFD13E EQ PUSH2 0x96 JUMPI POP PUSH4 0xC02D1727 EQ PUSH2 0x65 JUMPI PUSH1 0x0 DUP1 REVERT JUMPDEST CALLVALUE PUSH2 0x92 JUMPI PUSH1 0x20 CALLDATASIZE PUSH1 0x3 NOT ADD SLT PUSH2 0x92 JUMPI PUSH1 0x20 SWAP1 PUSH2 0x89 PUSH2 0x84 PUSH2 0x3F2 JUMP JUMPDEST PUSH2 0x476 JUMP JUMPDEST SWAP1 MLOAD SWAP1 ISZERO ISZERO DUP2 MSTORE RETURN JUMPDEST POP DUP1 REVERT JUMPDEST SWAP1 POP CALLVALUE PUSH2 0x1C3 JUMPI PUSH1 0x20 SWAP2 DUP3 PUSH1 0x3 NOT CALLDATASIZE ADD SLT PUSH2 0x1BF JUMPI PUSH2 0xB3 PUSH2 0x3F2 JUMP JUMPDEST DUP5 SWAP4 DUP5 SWAP2 PUSH1 0x1 PUSH1 0x1 PUSH1 0xA0 SHL SUB SWAP1 DUP2 AND SWAP2 SWAP1 DUP4 JUMPDEST DUP4 DUP10 MSTORE DUP9 DUP4 MSTORE DUP6 DUP10 KECCAK256 DUP1 SLOAD DUP3 LT ISZERO PUSH2 0x1B4 JUMPI PUSH2 0xE3 DUP3 DUP5 SWAP3 PUSH2 0x423 JUMP JUMPDEST POP SLOAD PUSH1 0xFF DUP2 PUSH1 0xA0 SHR AND PUSH2 0x101 JUMPI JUMPDEST POP POP PUSH2 0xFC SWAP1 PUSH2 0x451 JUMP JUMPDEST PUSH2 0xC6 JUMP JUMPDEST AND DUP7 MLOAD PUSH4 0xC4F9870B PUSH1 0xE0 SHL DUP2 MSTORE DUP6 DUP10 DUP3 ADD MSTORE PUSH1 0x24 SWAP1 DUP6 DUP2 DUP4 DUP2 DUP7 GAS STATICCALL SWAP2 DUP3 ISZERO PUSH2 0x1AA JUMPI DUP13 SWAP3 PUSH2 0x14B JUMPI JUMPDEST POP POP DUP7 DUP2 GT PUSH2 0x13D JUMPI JUMPDEST DUP4 SWAP2 POP PUSH2 0xF1 JUMP JUMPDEST SWAP1 SWAP9 POP SWAP5 POP PUSH2 0xFC CODESIZE PUSH2 0x135 JUMP JUMPDEST SWAP1 SWAP2 POP DUP6 SWAP1 RETURNDATASIZE DUP8 GT PUSH2 0x1A2 JUMPI JUMPDEST PUSH1 0x1F DUP3 ADD PUSH1 0x1F NOT AND DUP4 ADD SWAP1 PUSH8 0xFFFFFFFFFFFFFFFF DUP3 GT DUP5 DUP4 LT OR PUSH2 0x191 JUMPI POP DUP7 SWAP2 DUP4 SWAP2 DUP12 MSTORE DUP2 ADD SUB SLT PUSH2 0x18D JUMPI MLOAD CODESIZE DUP1 PUSH2 0x12B JUMP JUMPDEST DUP11 DUP1 REVERT JUMPDEST PUSH4 0x4E487B71 PUSH1 0xE0 SHL DUP15 MSTORE PUSH1 0x41 DUP13 MSTORE DUP14 REVERT JUMPDEST RETURNDATASIZE SWAP2 POP PUSH2 0x158 JUMP JUMPDEST DUP10 MLOAD RETURNDATASIZE DUP15 DUP3 RETURNDATACOPY RETURNDATASIZE SWAP1 REVERT JUMPDEST DUP4 DUP10 DUP5 DUP10 MLOAD SWAP2 AND DUP2 MSTORE RETURN JUMPDEST DUP4 DUP1 REVERT JUMPDEST DUP3 DUP1 REVERT JUMPDEST POP POP CALLVALUE PUSH2 0x92 JUMPI DUP1 PUSH1 0x3 NOT CALLDATASIZE ADD SLT PUSH2 0x92 JUMPI PUSH2 0x1E1 PUSH2 0x3F2 JUMP JUMPDEST SWAP1 PUSH2 0x1EA PUSH2 0x40D JUMP JUMPDEST PUSH1 0x1 PUSH1 0x1 PUSH1 0xA0 SHL SUB SWAP1 DUP2 AND SWAP3 DUP2 AND DUP5 JUMPDEST DUP2 DUP7 MSTORE DUP6 PUSH1 0x20 DUP2 DUP2 MSTORE DUP6 DUP3 KECCAK256 DUP1 SLOAD DUP5 LT ISZERO PUSH2 0x256 JUMPI DUP6 PUSH2 0x21B DUP6 DUP11 SWAP4 PUSH2 0x423 JUMP JUMPDEST POP SLOAD AND EQ PUSH2 0x233 JUMPI POP POP PUSH2 0x22E SWAP1 PUSH2 0x451 JUMP JUMPDEST PUSH2 0x1FA JUMP JUMPDEST SWAP2 SWAP5 SWAP4 POP SWAP2 PUSH2 0x247 SWAP6 POP DUP3 MSTORE MSTORE DUP4 KECCAK256 PUSH2 0x423 JUMP JUMPDEST POP DUP1 SLOAD PUSH1 0xFF PUSH1 0xA0 SHL NOT AND SWAP1 SSTORE DUP1 RETURN JUMPDEST POP POP POP POP POP POP POP POP DUP1 RETURN JUMPDEST POP POP CALLVALUE PUSH2 0x92 JUMPI PUSH1 0x20 CALLDATASIZE PUSH1 0x3 NOT ADD SLT PUSH2 0x92 JUMPI PUSH1 0x20 SWAP2 PUSH1 0xFF SWAP1 DUP3 SWAP1 PUSH1 0x1 PUSH1 0x1 PUSH1 0xA0 SHL SUB PUSH2 0x28C PUSH2 0x3F2 JUMP JUMPDEST AND DUP2 MSTORE PUSH1 0x1 DUP6 MSTORE KECCAK256 SLOAD AND SWAP1 MLOAD SWAP1 ISZERO ISZERO DUP2 MSTORE RETURN JUMPDEST SWAP2 SWAP1 POP CALLVALUE PUSH2 0x1C3 JUMPI DUP1 PUSH1 0x3 NOT CALLDATASIZE ADD SLT PUSH2 0x1C3 JUMPI PUSH2 0x2BA PUSH2 0x3F2 JUMP JUMPDEST PUSH2 0x2C2 PUSH2 0x40D JUMP JUMPDEST PUSH1 0x1 PUSH1 0x1 PUSH1 0xA0 SHL SUB SWAP2 DUP3 AND DUP6 MSTORE PUSH1 0x20 DUP6 SWAP1 MSTORE DUP3 DUP6 KECCAK256 DUP4 MLOAD SWAP1 SWAP4 SWAP1 SWAP2 SWAP1 DUP3 DUP2 ADD SWAP1 PUSH8 0xFFFFFFFFFFFFFFFF DUP3 GT DUP5 DUP4 LT OR PUSH2 0x37B JUMPI MSTORE DUP3 AND DUP2 MSTORE PUSH1 0x1 PUSH1 0x20 DUP3 ADD SWAP1 DUP2 MSTORE DUP4 SLOAD SWAP1 SWAP4 PUSH9 0x10000000000000000 DUP3 LT ISZERO PUSH2 0x368 JUMPI SWAP1 PUSH2 0x328 SWAP2 PUSH1 0x1 DUP3 ADD DUP2 SSTORE PUSH2 0x423 JUMP JUMPDEST SWAP5 SWAP1 SWAP5 PUSH2 0x356 JUMPI POP MLOAD DUP4 SLOAD SWAP3 MLOAD PUSH1 0x1 PUSH1 0x1 PUSH1 0xA8 SHL SUB NOT SWAP1 SWAP4 AND SWAP2 AND OR SWAP1 ISZERO ISZERO PUSH1 0xA0 SHL PUSH1 0xFF PUSH1 0xA0 SHL AND OR SWAP1 SSTORE DUP1 RETURN JUMPDEST PUSH4 0x4E487B71 PUSH1 0xE0 SHL DUP7 MSTORE DUP6 SWAP1 MSTORE PUSH1 0x24 DUP6 REVERT JUMPDEST PUSH4 0x4E487B71 PUSH1 0xE0 SHL DUP8 MSTORE PUSH1 0x41 DUP7 MSTORE PUSH1 0x24 DUP8 REVERT JUMPDEST PUSH4 0x4E487B71 PUSH1 0xE0 SHL DUP9 MSTORE PUSH1 0x41 DUP8 MSTORE PUSH1 0x24 DUP9 REVERT JUMPDEST DUP3 DUP5 CALLVALUE PUSH2 0x3EF JUMPI DUP2 PUSH1 0x3 NOT CALLDATASIZE ADD SLT PUSH2 0x3EF JUMPI PUSH2 0x3A8 PUSH2 0x3F2 JUMP JUMPDEST PUSH1 0x1 PUSH1 0x1 PUSH1 0xA0 SHL SUB SWAP1 DUP2 AND DUP3 MSTORE PUSH1 0x20 DUP3 SWAP1 MSTORE DUP3 DUP3 KECCAK256 DUP1 SLOAD SWAP2 SWAP3 PUSH1 0x24 CALLDATALOAD SWAP3 DUP4 LT ISZERO PUSH2 0x3EF JUMPI POP PUSH1 0xFF SWAP2 PUSH2 0x3D9 SWAP2 PUSH2 0x423 JUMP JUMPDEST POP SLOAD DUP4 MLOAD SWAP3 DUP2 AND DUP4 MSTORE PUSH1 0xA0 SHR AND ISZERO ISZERO PUSH1 0x20 DUP3 ADD MSTORE RETURN JUMPDEST DUP1 REVERT JUMPDEST PUSH1 0x4 CALLDATALOAD SWAP1 PUSH1 0x1 PUSH1 0x1 PUSH1 0xA0 SHL SUB DUP3 AND DUP3 SUB PUSH2 0x408 JUMPI JUMP JUMPDEST PUSH1 0x0 DUP1 REVERT JUMPDEST PUSH1 0x24 CALLDATALOAD SWAP1 PUSH1 0x1 PUSH1 0x1 PUSH1 0xA0 SHL SUB DUP3 AND DUP3 SUB PUSH2 0x408 JUMPI JUMP JUMPDEST DUP1 SLOAD DUP3 LT ISZERO PUSH2 0x43B JUMPI PUSH1 0x0 MSTORE PUSH1 0x20 PUSH1 0x0 KECCAK256 ADD SWAP1 PUSH1 0x0 SWAP1 JUMP JUMPDEST PUSH4 0x4E487B71 PUSH1 0xE0 SHL PUSH1 0x0 MSTORE PUSH1 0x32 PUSH1 0x4 MSTORE PUSH1 0x24 PUSH1 0x0 REVERT JUMPDEST PUSH1 0x0 NOT DUP2 EQ PUSH2 0x460 JUMPI PUSH1 0x1 ADD SWAP1 JUMP JUMPDEST PUSH4 0x4E487B71 PUSH1 0xE0 SHL PUSH1 0x0 MSTORE PUSH1 0x11 PUSH1 0x4 MSTORE PUSH1 0x24 PUSH1 0x0 REVERT JUMPDEST PUSH1 0x0 JUMPDEST PUSH1 0x1 DUP1 PUSH1 0xA0 SHL SUB DUP1 DUP4 AND DUP1 PUSH1 0x0 MSTORE PUSH1 0x20 SWAP2 PUSH1 0x0 DUP4 MSTORE PUSH1 0x40 DUP1 PUSH1 0x0 KECCAK256 DUP1 SLOAD DUP7 LT ISZERO PUSH2 0x4F8 JUMPI DUP6 SWAP3 PUSH2 0x4AA DUP5 DUP7 SWAP4 PUSH2 0x423 JUMP JUMPDEST POP SLOAD AND EQ SWAP3 DUP4 PUSH2 0x4D3 JUMPI JUMPDEST POP POP POP SWAP1 POP PUSH2 0x4CC JUMPI PUSH2 0x4C7 SWAP1 PUSH2 0x451 JUMP JUMPDEST PUSH2 0x479 JUMP JUMPDEST POP POP PUSH1 0x1 SWAP1 JUMP JUMPDEST PUSH2 0x4E9 SWAP4 POP PUSH1 0xFF SWAP5 PUSH1 0x0 SWAP2 DUP3 MSTORE MSTORE PUSH1 0x0 KECCAK256 PUSH2 0x423 JUMP JUMPDEST POP SLOAD PUSH1 0xA0 SHR AND DUP1 DUP3 CODESIZE DUP1 PUSH2 0x4B5 JUMP JUMPDEST POP POP POP POP POP POP POP PUSH1 0x0 SWAP1 JUMP INVALID LOG2 PUSH5 0x6970667358 0x22 SLT KECCAK256 0x5E 0x2B 0xC7 SWAP1 0xE5 SWAP1 0xE4 0xC2 0xFC 0xC9 GASPRICE 0x22 0xC9 GASPRICE PUSH15 0x2389845561C2339A923074A1DDF694 CALL 0x49 PUSH5 0x736F6C6343 STOP ADDMOD EQ STOP CALLER "},"methodIdentifiers":{"addStrategy(address,address)":"18066943","getBestStrategy(address)":"a9afd13e","isSupportedToken(address)":"240028e8","isValidStrategy(address)":"c02d1727","removeStrategy(address,address)":"8e67d7b3","tokenStrategies(address,uint256)":"1560468e"}}}}}