{"contracts/Strategies/AaveStrategy.sol":{"AaveStrategy":{"abi":[{"inputs":[{"internalType":"address","name":"_addressesProvider","type":"address"}],"stateMutability":"nonpayable","type":"constructor"},{"inputs":[{"internalType":"address","name":"","type":"address"}],"name":"aTokens","outputs":[{"internalType":"address","name":"","type":"address"}],"stateMutability":"view","type":"function"},{"inputs":[],"name":"aavePool","outputs":[{"internalType":"contract IPool","name":"","type":"address"}],"stateMutability":"view","type":"function"},{"inputs":[],"name":"addressesProvider","outputs":[{"internalType":"contract IPoolAddressesProvider","name":"","type":"address"}],"stateMutability":"view","type":"function"},{"inputs":[{"internalType":"address","name":"token","type":"address"},{"internalType":"uint256","name":"amount","type":"uint256"}],"name":"deposit","outputs":[],"stateMutability":"nonpayable","type":"function"},{"inputs":[{"internalType":"address","name":"token","type":"address"}],"name":"getAPY","outputs":[{"internalType":"uint256","name":"","type":"uint256"}],"stateMutability":"view","type":"function"},{"inputs":[{"internalType":"address","name":"token","type":"address"}],"name":"getTotalBalance","outputs":[{"internalType":"uint256","name":"","type":"uint256"}],"stateMutability":"view","type":"function"},{"inputs":[{"internalType":"address","name":"token","type":"address"},{"internalType":"uint256","name":"amount","type":"uint256"}],"name":"invest","outputs":[],"stateMutability":"nonpayable","type":"function"},{"inputs":[{"internalType":"address","name":"token","type":"address"},{"internalType":"uint256","name":"amount","type":"uint256"}],"name":"withdraw","outputs":[],"stateMutability":"nonpayable","type":"function"}],"evm":{"bytecode":{"linkReferences":{},"object":"60c0806040523461011457610a31803803809161001c8285610119565b83396001600160a01b039182916100369190810190610152565b1680156100dc576020816004926080526040519283809263026b1d5f60e01b82525afa9081156100d0576000916100a2575b501660a0526040516108bf90816101728239608051816101cf015260a05181818160e80152818161024701528181610349015261055e0152f35b6100c3915060203d81116100c9575b6100bb8183610119565b810190610152565b38610068565b503d6100b1565b6040513d6000823e3d90fd5b60405162461bcd60e51b815260206004820152601060248201526f24b73b30b634b210383937bb34b232b960811b6044820152606490fd5b600080fd5b601f909101601f19168101906001600160401b0382119082101761013c57604052565b634e487b7160e01b600052604160045260246000fd5b9081602091031261011457516001600160a01b0381168103610114579056fe608060408181526004908136101561001657600080fd5b600092833560e01c9081633e108ad9146105ad5750806347e7ef241461058d578063a03e4bc314610549578063b9b8c246146102d1578063c4f9870b146101fe578063c72c4d10146101ba578063d3d381931461018e5763f3fef3a31461007c57600080fd5b3461018a578060031936011261018a576100946105e4565b602435926001600160a01b038281169285906100ba906100b58615156105fa565b6107fb565b1061015057602092918660649286519788958694631a4ca37b60e21b865285015260248401523360448401527f0000000000000000000000000000000000000000000000000000000000000000165af1908115610147575061011a575080f35b602090813d8111610140575b6101308183610636565b8101031261013b5780f35b600080fd5b503d610126565b513d84823e3d90fd5b835162461bcd60e51b81526020818401526014602482015273496e73756666696369656e742062616c616e636560601b6044820152606490fd5b8280fd5b8382346101b65760203660031901126101b6576020906101af6100b56105e4565b9051908152f35b5080fd5b8382346101b657816003193601126101b657517f00000000000000000000000000000000000000000000000000000000000000006001600160a01b03168152602090f35b50903461018a57602036600319011261018a576102196105e4565b82516335ea6a7560e01b81526001600160a01b03918216928101929092526101e091908290829060249082907f0000000000000000000000000000000000000000000000000000000000000000165afa9182156102c457633b9aca00926001600160801b0392859260209792610297575b5050015116049051908152f35b6102b69250803d106102bd575b6102ae8183610636565b8101906106ae565b388061028a565b503d6102a4565b50505051903d90823e3d90fd5b509190346101b657826003193601126101b6576102ec6105e4565b926024918235948515610507576001600160a01b03908116936103108515156105fa565b83516323b872dd60e01b815233848201523082820152604481018890526020939084816064818b8b5af180156104a5576104ea575b50827f000000000000000000000000000000000000000000000000000000000000000016855163095ea7b360e01b81528183820152898482015285816044818c8c5af180156104e0576104b3575b50803b156104af5785519863617ba03760e01b8a5287838b0152838a01523060448a01528760648a0152878960848183855af180156104a557610474575b879850868896979852858552838787205416156103ec578580f35b86516335ea6a7560e01b81529182018890526101e092839183919082905afa91821561046a57906101009291869261044d575b5050015116938252528220906bffffffffffffffffffffffff60a01b82541617905538808281808080808580f35b6104639250803d106102bd576102ae8183610636565b388061041f565b86513d87823e3d90fd5b949596909767ffffffffffffffff811161049457865295949387906103d1565b50634e487b7160e01b815260418852fd5b86513d8a823e3d90fd5b8780fd5b6104d290863d88116104d9575b6104ca8183610636565b81019061066e565b5038610393565b503d6104c0565b87513d8b823e3d90fd5b61050090853d87116104d9576104ca8183610636565b5038610345565b50601d836020606494519362461bcd60e51b85528401528201527f416d6f756e74206d7573742062652067726561746572207468616e20300000006044820152fd5b8382346101b657816003193601126101b657517f00000000000000000000000000000000000000000000000000000000000000006001600160a01b03168152602090f35b8382346101b6573660031901126105aa576105a66105e4565b5080f35b80fd5b9250503461018a57602036600319011261018a576020926001600160a01b039190826105d76105e4565b1681528085522054168152f35b600435906001600160a01b038216820361013b57565b1561060157565b60405162461bcd60e51b815260206004820152600d60248201526c24b73b30b634b2103a37b5b2b760991b6044820152606490fd5b90601f8019910116810190811067ffffffffffffffff82111761065857604052565b634e487b7160e01b600052604160045260246000fd5b9081602091031261013b5751801515810361013b5790565b51906001600160801b038216820361013b57565b51906001600160a01b038216820361013b57565b6101e09181900382811261013b576040519283019067ffffffffffffffff90848310828411176106585760201361013b576102008401908111828210176106585760405281518152825261070460208201610686565b602083015261071560408201610686565b604083015261072660608201610686565b606083015261073760808201610686565b608083015261074860a08201610686565b60a083015260c081015164ffffffffff8116810361013b5760c083015260e081015161ffff8116810361013b5760e083015261010061078881830161069a565b9083015261012061079a81830161069a565b908301526101406107ac81830161069a565b908301526101606107be81830161069a565b908301526101806107d0818301610686565b908301526101a06107e2818301610686565b908301526107f46101c0809201610686565b9082015290565b60018060a01b0380600092168252816020526040822054168015610885576020602491604051928380926370a0823160e01b82523060048301525afa91821561087957809261084957505090565b9091506020823d8211610871575b8161086460209383610636565b810103126105aa57505190565b3d9150610857565b604051903d90823e3d90fd5b509056fea2646970667358221220f9cabd5f72d560b788feb9d16bb1fb6d8e757f7cf17d57a35c6348f283fd708164736f6c63430008140033","opcodes":"PUSH1 0xC0 DUP1 PUSH1 0x40 MSTORE CALLVALUE PUSH2 0x114 JUMPI PUSH2 0xA31 DUP1 CODESIZE SUB DUP1 SWAP2 PUSH2 0x1C DUP3 DUP6 PUSH2 0x119 JUMP JUMPDEST DUP4 CODECOPY PUSH1 0x1 PUSH1 0x1 PUSH1 0xA0 SHL SUB SWAP2 DUP3 SWAP2 PUSH2 0x36 SWAP2 SWAP1 DUP2 ADD SWAP1 PUSH2 0x152 JUMP JUMPDEST AND DUP1 ISZERO PUSH2 0xDC JUMPI PUSH1 0x20 DUP2 PUSH1 0x4 SWAP3 PUSH1 0x80 MSTORE PUSH1 0x40 MLOAD SWAP3 DUP4 DUP1 SWAP3 PUSH4 0x26B1D5F PUSH1 0xE0 SHL DUP3 MSTORE GAS STATICCALL SWAP1 DUP2 ISZERO PUSH2 0xD0 JUMPI PUSH1 0x0 SWAP2 PUSH2 0xA2 JUMPI JUMPDEST POP AND PUSH1 0xA0 MSTORE PUSH1 0x40 MLOAD PUSH2 0x8BF SWAP1 DUP2 PUSH2 0x172 DUP3 CODECOPY PUSH1 0x80 MLOAD DUP2 PUSH2 0x1CF ADD MSTORE PUSH1 0xA0 MLOAD DUP2 DUP2 DUP2 PUSH1 0xE8 ADD MSTORE DUP2 DUP2 PUSH2 0x247 ADD MSTORE DUP2 DUP2 PUSH2 0x349 ADD MSTORE PUSH2 0x55E ADD MSTORE RETURN JUMPDEST PUSH2 0xC3 SWAP2 POP PUSH1 0x20 RETURNDATASIZE DUP2 GT PUSH2 0xC9 JUMPI JUMPDEST PUSH2 0xBB DUP2 DUP4 PUSH2 0x119 JUMP JUMPDEST DUP2 ADD SWAP1 PUSH2 0x152 JUMP JUMPDEST CODESIZE PUSH2 0x68 JUMP JUMPDEST POP RETURNDATASIZE PUSH2 0xB1 JUMP JUMPDEST PUSH1 0x40 MLOAD RETURNDATASIZE PUSH1 0x0 DUP3 RETURNDATACOPY RETURNDATASIZE SWAP1 REVERT JUMPDEST PUSH1 0x40 MLOAD PUSH3 0x461BCD PUSH1 0xE5 SHL DUP2 MSTORE PUSH1 0x20 PUSH1 0x4 DUP3 ADD MSTORE PUSH1 0x10 PUSH1 0x24 DUP3 ADD MSTORE PUSH16 0x24B73B30B634B210383937BB34B232B9 PUSH1 0x81 SHL PUSH1 0x44 DUP3 ADD MSTORE PUSH1 0x64 SWAP1 REVERT JUMPDEST PUSH1 0x0 DUP1 REVERT JUMPDEST PUSH1 0x1F SWAP1 SWAP2 ADD PUSH1 0x1F NOT AND DUP2 ADD SWAP1 PUSH1 0x1 PUSH1 0x1 PUSH1 0x40 SHL SUB DUP3 GT SWAP1 DUP3 LT OR PUSH2 0x13C JUMPI PUSH1 0x40 MSTORE JUMP JUMPDEST PUSH4 0x4E487B71 PUSH1 0xE0 SHL PUSH1 0x0 MSTORE PUSH1 0x41 PUSH1 0x4 MSTORE PUSH1 0x24 PUSH1 0x0 REVERT JUMPDEST SWAP1 DUP2 PUSH1 0x20 SWAP2 SUB SLT PUSH2 0x114 JUMPI MLOAD PUSH1 0x1 PUSH1 0x1 PUSH1 0xA0 SHL SUB DUP2 AND DUP2 SUB PUSH2 0x114 JUMPI SWAP1 JUMP INVALID PUSH1 0x80 PUSH1 0x40 DUP2 DUP2 MSTORE PUSH1 0x4 SWAP1 DUP2 CALLDATASIZE LT ISZERO PUSH2 0x16 JUMPI PUSH1 0x0 DUP1 REVERT JUMPDEST PUSH1 0x0 SWAP3 DUP4 CALLDATALOAD PUSH1 0xE0 SHR SWAP1 DUP2 PUSH4 0x3E108AD9 EQ PUSH2 0x5AD JUMPI POP DUP1 PUSH4 0x47E7EF24 EQ PUSH2 0x58D JUMPI DUP1 PUSH4 0xA03E4BC3 EQ PUSH2 0x549 JUMPI DUP1 PUSH4 0xB9B8C246 EQ PUSH2 0x2D1 JUMPI DUP1 PUSH4 0xC4F9870B EQ PUSH2 0x1FE JUMPI DUP1 PUSH4 0xC72C4D10 EQ PUSH2 0x1BA JUMPI DUP1 PUSH4 0xD3D38193 EQ PUSH2 0x18E JUMPI PUSH4 0xF3FEF3A3 EQ PUSH2 0x7C JUMPI PUSH1 0x0 DUP1 REVERT JUMPDEST CALLVALUE PUSH2 0x18A JUMPI DUP1 PUSH1 0x3 NOT CALLDATASIZE ADD SLT PUSH2 0x18A JUMPI PUSH2 0x94 PUSH2 0x5E4 JUMP JUMPDEST PUSH1 0x24 CALLDATALOAD SWAP3 PUSH1 0x1 PUSH1 0x1 PUSH1 0xA0 SHL SUB DUP3 DUP2 AND SWAP3 DUP6 SWAP1 PUSH2 0xBA SWAP1 PUSH2 0xB5 DUP7 ISZERO ISZERO PUSH2 0x5FA JUMP JUMPDEST PUSH2 0x7FB JUMP JUMPDEST LT PUSH2 0x150 JUMPI PUSH1 0x20 SWAP3 SWAP2 DUP7 PUSH1 0x64 SWAP3 DUP7 MLOAD SWAP8 DUP9 SWAP6 DUP7 SWAP5 PUSH4 0x1A4CA37B PUSH1 0xE2 SHL DUP7 MSTORE DUP6 ADD MSTORE PUSH1 0x24 DUP5 ADD MSTORE CALLER PUSH1 0x44 DUP5 ADD MSTORE PUSH32 0x0 AND GAS CALL SWAP1 DUP2 ISZERO PUSH2 0x147 JUMPI POP PUSH2 0x11A JUMPI POP DUP1 RETURN JUMPDEST PUSH1 0x20 SWAP1 DUP2 RETURNDATASIZE DUP2 GT PUSH2 0x140 JUMPI JUMPDEST PUSH2 0x130 DUP2 DUP4 PUSH2 0x636 JUMP JUMPDEST DUP2 ADD SUB SLT PUSH2 0x13B JUMPI DUP1 RETURN JUMPDEST PUSH1 0x0 DUP1 REVERT JUMPDEST POP RETURNDATASIZE PUSH2 0x126 JUMP JUMPDEST MLOAD RETURNDATASIZE DUP5 DUP3 RETURNDATACOPY RETURNDATASIZE SWAP1 REVERT JUMPDEST DUP4 MLOAD PUSH3 0x461BCD PUSH1 0xE5 SHL DUP2 MSTORE PUSH1 0x20 DUP2 DUP5 ADD MSTORE PUSH1 0x14 PUSH1 0x24 DUP3 ADD MSTORE PUSH20 0x496E73756666696369656E742062616C616E6365 PUSH1 0x60 SHL PUSH1 0x44 DUP3 ADD MSTORE PUSH1 0x64 SWAP1 REVERT JUMPDEST DUP3 DUP1 REVERT JUMPDEST DUP4 DUP3 CALLVALUE PUSH2 0x1B6 JUMPI PUSH1 0x20 CALLDATASIZE PUSH1 0x3 NOT ADD SLT PUSH2 0x1B6 JUMPI PUSH1 0x20 SWAP1 PUSH2 0x1AF PUSH2 0xB5 PUSH2 0x5E4 JUMP JUMPDEST SWAP1 MLOAD SWAP1 DUP2 MSTORE RETURN JUMPDEST POP DUP1 REVERT JUMPDEST DUP4 DUP3 CALLVALUE PUSH2 0x1B6 JUMPI DUP2 PUSH1 0x3 NOT CALLDATASIZE ADD SLT PUSH2 0x1B6 JUMPI MLOAD PUSH32 0x0 PUSH1 0x1 PUSH1 0x1 PUSH1 0xA0 SHL SUB AND DUP2 MSTORE PUSH1 0x20 SWAP1 RETURN JUMPDEST POP SWAP1 CALLVALUE PUSH2 0x18A JUMPI PUSH1 0x20 CALLDATASIZE PUSH1 0x3 NOT ADD SLT PUSH2 0x18A JUMPI PUSH2 0x219 PUSH2 0x5E4 JUMP JUMPDEST DUP3 MLOAD PUSH4 0x35EA6A75 PUSH1 0xE0 SHL DUP2 MSTORE PUSH1 0x1 PUSH1 0x1 PUSH1 0xA0 SHL SUB SWAP2 DUP3 AND SWAP3 DUP2 ADD SWAP3 SWAP1 SWAP3 MSTORE PUSH2 0x1E0 SWAP2 SWAP1 DUP3 SWAP1 DUP3 SWAP1 PUSH1 0x24 SWAP1 DUP3 SWAP1 PUSH32 0x0 AND GAS STATICCALL SWAP2 DUP3 ISZERO PUSH2 0x2C4 JUMPI PUSH4 0x3B9ACA00 SWAP3 PUSH1 0x1 PUSH1 0x1 PUSH1 0x80 SHL SUB SWAP3 DUP6 SWAP3 PUSH1 0x20 SWAP8 SWAP3 PUSH2 0x297 JUMPI JUMPDEST POP POP ADD MLOAD AND DIV SWAP1 MLOAD SWAP1 DUP2 MSTORE RETURN JUMPDEST PUSH2 0x2B6 SWAP3 POP DUP1 RETURNDATASIZE LT PUSH2 0x2BD JUMPI JUMPDEST PUSH2 0x2AE DUP2 DUP4 PUSH2 0x636 JUMP JUMPDEST DUP2 ADD SWAP1 PUSH2 0x6AE JUMP JUMPDEST CODESIZE DUP1 PUSH2 0x28A JUMP JUMPDEST POP RETURNDATASIZE PUSH2 0x2A4 JUMP JUMPDEST POP POP POP MLOAD SWAP1 RETURNDATASIZE SWAP1 DUP3 RETURNDATACOPY RETURNDATASIZE SWAP1 REVERT JUMPDEST POP SWAP2 SWAP1 CALLVALUE PUSH2 0x1B6 JUMPI DUP3 PUSH1 0x3 NOT CALLDATASIZE ADD SLT PUSH2 0x1B6 JUMPI PUSH2 0x2EC PUSH2 0x5E4 JUMP JUMPDEST SWAP3 PUSH1 0x24 SWAP2 DUP3 CALLDATALOAD SWAP5 DUP6 ISZERO PUSH2 0x507 JUMPI PUSH1 0x1 PUSH1 0x1 PUSH1 0xA0 SHL SUB SWAP1 DUP2 AND SWAP4 PUSH2 0x310 DUP6 ISZERO ISZERO PUSH2 0x5FA JUMP JUMPDEST DUP4 MLOAD PUSH4 0x23B872DD PUSH1 0xE0 SHL DUP2 MSTORE CALLER DUP5 DUP3 ADD MSTORE ADDRESS DUP3 DUP3 ADD MSTORE PUSH1 0x44 DUP2 ADD DUP9 SWAP1 MSTORE PUSH1 0x20 SWAP4 SWAP1 DUP5 DUP2 PUSH1 0x64 DUP2 DUP12 DUP12 GAS CALL DUP1 ISZERO PUSH2 0x4A5 JUMPI PUSH2 0x4EA JUMPI JUMPDEST POP DUP3 PUSH32 0x0 AND DUP6 MLOAD PUSH4 0x95EA7B3 PUSH1 0xE0 SHL DUP2 MSTORE DUP2 DUP4 DUP3 ADD MSTORE DUP10 DUP5 DUP3 ADD MSTORE DUP6 DUP2 PUSH1 0x44 DUP2 DUP13 DUP13 GAS CALL DUP1 ISZERO PUSH2 0x4E0 JUMPI PUSH2 0x4B3 JUMPI JUMPDEST POP DUP1 EXTCODESIZE ISZERO PUSH2 0x4AF JUMPI DUP6 MLOAD SWAP9 PUSH4 0x617BA037 PUSH1 0xE0 SHL DUP11 MSTORE DUP8 DUP4 DUP12 ADD MSTORE DUP4 DUP11 ADD MSTORE ADDRESS PUSH1 0x44 DUP11 ADD MSTORE DUP8 PUSH1 0x64 DUP11 ADD MSTORE DUP8 DUP10 PUSH1 0x84 DUP2 DUP4 DUP6 GAS CALL DUP1 ISZERO PUSH2 0x4A5 JUMPI PUSH2 0x474 JUMPI JUMPDEST DUP8 SWAP9 POP DUP7 DUP9 SWAP7 SWAP8 SWAP9 MSTORE DUP6 DUP6 MSTORE DUP4 DUP8 DUP8 KECCAK256 SLOAD AND ISZERO PUSH2 0x3EC JUMPI DUP6 DUP1 RETURN JUMPDEST DUP7 MLOAD PUSH4 0x35EA6A75 PUSH1 0xE0 SHL DUP2 MSTORE SWAP2 DUP3 ADD DUP9 SWAP1 MSTORE PUSH2 0x1E0 SWAP3 DUP4 SWAP2 DUP4 SWAP2 SWAP1 DUP3 SWAP1 GAS STATICCALL SWAP2 DUP3 ISZERO PUSH2 0x46A JUMPI SWAP1 PUSH2 0x100 SWAP3 SWAP2 DUP7 SWAP3 PUSH2 0x44D JUMPI JUMPDEST POP POP ADD MLOAD AND SWAP4 DUP3 MSTORE MSTORE DUP3 KECCAK256 SWAP1 PUSH12 0xFFFFFFFFFFFFFFFFFFFFFFFF PUSH1 0xA0 SHL DUP3 SLOAD AND OR SWAP1 SSTORE CODESIZE DUP1 DUP3 DUP2 DUP1 DUP1 DUP1 DUP1 DUP6 DUP1 RETURN JUMPDEST PUSH2 0x463 SWAP3 POP DUP1 RETURNDATASIZE LT PUSH2 0x2BD JUMPI PUSH2 0x2AE DUP2 DUP4 PUSH2 0x636 JUMP JUMPDEST CODESIZE DUP1 PUSH2 0x41F JUMP JUMPDEST DUP7 MLOAD RETURNDATASIZE DUP8 DUP3 RETURNDATACOPY RETURNDATASIZE SWAP1 REVERT JUMPDEST SWAP5 SWAP6 SWAP7 SWAP1 SWAP8 PUSH8 0xFFFFFFFFFFFFFFFF DUP2 GT PUSH2 0x494 JUMPI DUP7 MSTORE SWAP6 SWAP5 SWAP4 DUP8 SWAP1 PUSH2 0x3D1 JUMP JUMPDEST POP PUSH4 0x4E487B71 PUSH1 0xE0 SHL DUP2 MSTORE PUSH1 0x41 DUP9 MSTORE REVERT JUMPDEST DUP7 MLOAD RETURNDATASIZE DUP11 DUP3 RETURNDATACOPY RETURNDATASIZE SWAP1 REVERT JUMPDEST DUP8 DUP1 REVERT JUMPDEST PUSH2 0x4D2 SWAP1 DUP7 RETURNDATASIZE DUP9 GT PUSH2 0x4D9 JUMPI JUMPDEST PUSH2 0x4CA DUP2 DUP4 PUSH2 0x636 JUMP JUMPDEST DUP2 ADD SWAP1 PUSH2 0x66E JUMP JUMPDEST POP CODESIZE PUSH2 0x393 JUMP JUMPDEST POP RETURNDATASIZE PUSH2 0x4C0 JUMP JUMPDEST DUP8 MLOAD RETURNDATASIZE DUP12 DUP3 RETURNDATACOPY RETURNDATASIZE SWAP1 REVERT JUMPDEST PUSH2 0x500 SWAP1 DUP6 RETURNDATASIZE DUP8 GT PUSH2 0x4D9 JUMPI PUSH2 0x4CA DUP2 DUP4 PUSH2 0x636 JUMP JUMPDEST POP CODESIZE PUSH2 0x345 JUMP JUMPDEST POP PUSH1 0x1D DUP4 PUSH1 0x20 PUSH1 0x64 SWAP5 MLOAD SWAP4 PUSH3 0x461BCD PUSH1 0xE5 SHL DUP6 MSTORE DUP5 ADD MSTORE DUP3 ADD MSTORE PUSH32 0x416D6F756E74206D7573742062652067726561746572207468616E2030000000 PUSH1 0x44 DUP3 ADD MSTORE REVERT JUMPDEST DUP4 DUP3 CALLVALUE PUSH2 0x1B6 JUMPI DUP2 PUSH1 0x3 NOT CALLDATASIZE ADD SLT PUSH2 0x1B6 JUMPI MLOAD PUSH32 0x0 PUSH1 0x1 PUSH1 0x1 PUSH1 0xA0 SHL SUB AND DUP2 MSTORE PUSH1 0x20 SWAP1 RETURN JUMPDEST DUP4 DUP3 CALLVALUE PUSH2 0x1B6 JUMPI CALLDATASIZE PUSH1 0x3 NOT ADD SLT PUSH2 0x5AA JUMPI PUSH2 0x5A6 PUSH2 0x5E4 JUMP JUMPDEST POP DUP1 RETURN JUMPDEST DUP1 REVERT JUMPDEST SWAP3 POP POP CALLVALUE PUSH2 0x18A JUMPI PUSH1 0x20 CALLDATASIZE PUSH1 0x3 NOT ADD SLT PUSH2 0x18A JUMPI PUSH1 0x20 SWAP3 PUSH1 0x1 PUSH1 0x1 PUSH1 0xA0 SHL SUB SWAP2 SWAP1 DUP3 PUSH2 0x5D7 PUSH2 0x5E4 JUMP JUMPDEST AND DUP2 MSTORE DUP1 DUP6 MSTORE KECCAK256 SLOAD AND DUP2 MSTORE RETURN JUMPDEST PUSH1 0x4 CALLDATALOAD SWAP1 PUSH1 0x1 PUSH1 0x1 PUSH1 0xA0 SHL SUB DUP3 AND DUP3 SUB PUSH2 0x13B JUMPI JUMP JUMPDEST ISZERO PUSH2 0x601 JUMPI JUMP JUMPDEST PUSH1 0x40 MLOAD PUSH3 0x461BCD PUSH1 0xE5 SHL DUP2 MSTORE PUSH1 0x20 PUSH1 0x4 DUP3 ADD MSTORE PUSH1 0xD PUSH1 0x24 DUP3 ADD MSTORE PUSH13 0x24B73B30B634B2103A37B5B2B7 PUSH1 0x99 SHL PUSH1 0x44 DUP3 ADD MSTORE PUSH1 0x64 SWAP1 REVERT JUMPDEST SWAP1 PUSH1 0x1F DUP1 NOT SWAP2 ADD AND DUP2 ADD SWAP1 DUP2 LT PUSH8 0xFFFFFFFFFFFFFFFF DUP3 GT OR PUSH2 0x658 JUMPI PUSH1 0x40 MSTORE JUMP JUMPDEST PUSH4 0x4E487B71 PUSH1 0xE0 SHL PUSH1 0x0 MSTORE PUSH1 0x41 PUSH1 0x4 MSTORE PUSH1 0x24 PUSH1 0x0 REVERT JUMPDEST SWAP1 DUP2 PUSH1 0x20 SWAP2 SUB SLT PUSH2 0x13B JUMPI MLOAD DUP1 ISZERO ISZERO DUP2 SUB PUSH2 0x13B JUMPI SWAP1 JUMP JUMPDEST MLOAD SWAP1 PUSH1 0x1 PUSH1 0x1 PUSH1 0x80 SHL SUB DUP3 AND DUP3 SUB PUSH2 0x13B JUMPI JUMP JUMPDEST MLOAD SWAP1 PUSH1 0x1 PUSH1 0x1 PUSH1 0xA0 SHL SUB DUP3 AND DUP3 SUB PUSH2 0x13B JUMPI JUMP JUMPDEST PUSH2 0x1E0 SWAP2 DUP2 SWAP1 SUB DUP3 DUP2 SLT PUSH2 0x13B JUMPI PUSH1 0x40 MLOAD SWAP3 DUP4 ADD SWAP1 PUSH8 0xFFFFFFFFFFFFFFFF SWAP1 DUP5 DUP4 LT DUP3 DUP5 GT OR PUSH2 0x658 JUMPI PUSH1 0x20 SGT PUSH2 0x13B JUMPI PUSH2 0x200 DUP5 ADD SWAP1 DUP2 GT DUP3 DUP3 LT OR PUSH2 0x658 JUMPI PUSH1 0x40 MSTORE DUP2 MLOAD DUP2 MSTORE DUP3 MSTORE PUSH2 0x704 PUSH1 0x20 DUP3 ADD PUSH2 0x686 JUMP JUMPDEST PUSH1 0x20 DUP4 ADD MSTORE PUSH2 0x715 PUSH1 0x40 DUP3 ADD PUSH2 0x686 JUMP JUMPDEST PUSH1 0x40 DUP4 ADD MSTORE PUSH2 0x726 PUSH1 0x60 DUP3 ADD PUSH2 0x686 JUMP JUMPDEST PUSH1 0x60 DUP4 ADD MSTORE PUSH2 0x737 PUSH1 0x80 DUP3 ADD PUSH2 0x686 JUMP JUMPDEST PUSH1 0x80 DUP4 ADD MSTORE PUSH2 0x748 PUSH1 0xA0 DUP3 ADD PUSH2 0x686 JUMP JUMPDEST PUSH1 0xA0 DUP4 ADD MSTORE PUSH1 0xC0 DUP2 ADD MLOAD PUSH5 0xFFFFFFFFFF DUP2 AND DUP2 SUB PUSH2 0x13B JUMPI PUSH1 0xC0 DUP4 ADD MSTORE PUSH1 0xE0 DUP2 ADD MLOAD PUSH2 0xFFFF DUP2 AND DUP2 SUB PUSH2 0x13B JUMPI PUSH1 0xE0 DUP4 ADD MSTORE PUSH2 0x100 PUSH2 0x788 DUP2 DUP4 ADD PUSH2 0x69A JUMP JUMPDEST SWAP1 DUP4 ADD MSTORE PUSH2 0x120 PUSH2 0x79A DUP2 DUP4 ADD PUSH2 0x69A JUMP JUMPDEST SWAP1 DUP4 ADD MSTORE PUSH2 0x140 PUSH2 0x7AC DUP2 DUP4 ADD PUSH2 0x69A JUMP JUMPDEST SWAP1 DUP4 ADD MSTORE PUSH2 0x160 PUSH2 0x7BE DUP2 DUP4 ADD PUSH2 0x69A JUMP JUMPDEST SWAP1 DUP4 ADD MSTORE PUSH2 0x180 PUSH2 0x7D0 DUP2 DUP4 ADD PUSH2 0x686 JUMP JUMPDEST SWAP1 DUP4 ADD MSTORE PUSH2 0x1A0 PUSH2 0x7E2 DUP2 DUP4 ADD PUSH2 0x686 JUMP JUMPDEST SWAP1 DUP4 ADD MSTORE PUSH2 0x7F4 PUSH2 0x1C0 DUP1 SWAP3 ADD PUSH2 0x686 JUMP JUMPDEST SWAP1 DUP3 ADD MSTORE SWAP1 JUMP JUMPDEST PUSH1 0x1 DUP1 PUSH1 0xA0 SHL SUB DUP1 PUSH1 0x0 SWAP3 AND DUP3 MSTORE DUP2 PUSH1 0x20 MSTORE PUSH1 0x40 DUP3 KECCAK256 SLOAD AND DUP1 ISZERO PUSH2 0x885 JUMPI PUSH1 0x20 PUSH1 0x24 SWAP2 PUSH1 0x40 MLOAD SWAP3 DUP4 DUP1 SWAP3 PUSH4 0x70A08231 PUSH1 0xE0 SHL DUP3 MSTORE ADDRESS PUSH1 0x4 DUP4 ADD MSTORE GAS STATICCALL SWAP2 DUP3 ISZERO PUSH2 0x879 JUMPI DUP1 SWAP3 PUSH2 0x849 JUMPI POP POP SWAP1 JUMP JUMPDEST SWAP1 SWAP2 POP PUSH1 0x20 DUP3 RETURNDATASIZE DUP3 GT PUSH2 0x871 JUMPI JUMPDEST DUP2 PUSH2 0x864 PUSH1 0x20 SWAP4 DUP4 PUSH2 0x636 JUMP JUMPDEST DUP2 ADD SUB SLT PUSH2 0x5AA JUMPI POP MLOAD SWAP1 JUMP JUMPDEST RETURNDATASIZE SWAP2 POP PUSH2 0x857 JUMP JUMPDEST PUSH1 0x40 MLOAD SWAP1 RETURNDATASIZE SWAP1 DUP3 RETURNDATACOPY RETURNDATASIZE SWAP1 REVERT JUMPDEST POP SWAP1 JUMP INVALID LOG2 PUSH5 0x6970667358 0x22 SLT KECCAK256 0xF9 0xCA 0xBD PUSH0 PUSH19 0xD560B788FEB9D16BB1FB6D8E757F7CF17D57A3 0x5C PUSH4 0x48F283FD PUSH17 0x8164736F6C634300081400330000000000 "},"methodIdentifiers":{"aTokens(address)":"3e108ad9","aavePool()":"a03e4bc3","addressesProvider()":"c72c4d10","deposit(address,uint256)":"47e7ef24","getAPY(address)":"c4f9870b","getTotalBalance(address)":"d3d38193","invest(address,uint256)":"b9b8c246","withdraw(address,uint256)":"f3fef3a3"}}}}}