{"contracts/Strategies/StrategyFactory.sol":{"StrategyFactory":{"abi":[{"anonymous":false,"inputs":[{"indexed":true,"internalType":"address","name":"token","type":"address"},{"indexed":true,"internalType":"address","name":"strategy","type":"address"}],"name":"StrategyAdded","type":"event"},{"anonymous":false,"inputs":[{"indexed":true,"internalType":"address","name":"token","type":"address"},{"indexed":true,"internalType":"address","name":"strategy","type":"address"}],"name":"StrategyRemoved","type":"event"},{"inputs":[{"internalType":"address","name":"_token","type":"address"},{"internalType":"address","name":"_strategy","type":"address"}],"name":"addStrategy","outputs":[],"stateMutability":"nonpayable","type":"function"},{"inputs":[{"internalType":"address","name":"_token","type":"address"}],"name":"getBestStrategy","outputs":[{"internalType":"address","name":"","type":"address"}],"stateMutability":"view","type":"function"},{"inputs":[{"internalType":"address","name":"","type":"address"}],"name":"isSupportedToken","outputs":[{"internalType":"bool","name":"","type":"bool"}],"stateMutability":"view","type":"function"},{"inputs":[{"internalType":"address","name":"_token","type":"address"},{"internalType":"address","name":"_strategy","type":"address"}],"name":"isValidStrategy","outputs":[{"internalType":"bool","name":"","type":"bool"}],"stateMutability":"view","type":"function"},{"inputs":[{"internalType":"address","name":"_token","type":"address"},{"internalType":"address","name":"_strategy","type":"address"}],"name":"removeStrategy","outputs":[],"stateMutability":"nonpayable","type":"function"},{"inputs":[{"internalType":"address","name":"","type":"address"},{"internalType":"uint256","name":"","type":"uint256"}],"name":"tokenStrategies","outputs":[{"internalType":"address","name":"strategy","type":"address"},{"internalType":"bool","name":"isActive","type":"bool"}],"stateMutability":"view","type":"function"}],"evm":{"bytecode":{"linkReferences":{},"object":"60808060405234610016576107c1908161001c8239f35b600080fdfe60406080815260048036101561001457600080fd5b600091823560e01c80631560468e1461039d578063180669431461036d57806321294ccb14610336578063240028e8146102f85780638e67d7b3146101655763a9afd13e1461006257600080fd5b34610161576020908160031936011261015d576100809291926103fe565b84936001600160a01b03918216938592909190835b8689528883528589208054821015610152576100b282849261042f565b505460ff8160a01c166100d0575b50506100cb9061045d565b610095565b16865163c4f9870b60e01b815288868201528481602481855afa908115610148578b91610117575b50868111610109575b8391506100c0565b90985094506100cb38610101565b90508481813d8311610141575b61012e81836104b4565b8101031261013d5751386100f8565b8a80fd5b503d610124565b88513d8d823e3d90fd5b838984895191168152f35b8380fd5b8280fd5b8382346102f457806003193601126102f45761017f6103fe565b90610188610419565b6001600160a01b03929083169190831690845b82865260208681528683812080548410156102e957876101bc85899361042f565b505416146101d45750506101cf9061045d565b61019b565b92918495965061020c9060ff929585528486526101f38185872061042f565b508360a01b19815416905586855284865283852061042f565b505460a01c169281519361021f85610482565b601085526f14dd1c985d1959de481c995b5bdd995960821b828601528251918083019363c3b5563560e01b855260248401528551606491818386015286975b8289106102d0575050859650908361029893926084938885838501015215156044830152601f8019910116810103908101845201826104b4565b51906a636f6e736f6c652e6c6f675afa507f64a0e13af5f4bc5a68b1b79d9ff6e775f93e814ee8b0c97d620520190d04bae28380a380f35b888101820151868a0160840152978101978b975061025e565b505050505050505080f35b5080fd5b8382346102f45760203660031901126102f45760209160ff9082906001600160a01b036103236103fe565b1681526001855220541690519015158152f35b8382346102f457806003193601126102f4576020906103646103566103fe565b61035e610419565b906106f7565b90519015158152f35b8382346102f45736600319011261039a576103976103896103fe565b610391610419565b906104d6565b80f35b80fd5b50823461039a578160031936011261039a576103b76103fe565b6001600160a01b0390811682526020829052828220805491926024359283101561039a575060ff916103e89161042f565b50548351928116835260a01c1615156020820152f35b600435906001600160a01b038216820361041457565b600080fd5b602435906001600160a01b038216820361041457565b80548210156104475760005260206000200190600090565b634e487b7160e01b600052603260045260246000fd5b600019811461046c5760010190565b634e487b7160e01b600052601160045260246000fd5b6040810190811067ffffffffffffffff82111761049e57604052565b634e487b7160e01b600052604160045260246000fd5b90601f8019910116810190811067ffffffffffffffff82111761049e57604052565b6001600160a01b03918216919082156106b25760005b828216806000526020906000825260409086868360002080548710156105f857866105169161042f565b5054161461052f5750505061052a9061045d565b6104ec565b92919593509350816000526000855260ff61054d828660002061042f565b505460a01c16156105aa57835162461bcd60e51b815260048101869052602560248201527f537472617465677920616c72656164792065786973747320616e642069732061604482015264637469766560d81b6064820152608490fd5b909260006105bf93958582525260002061042f565b50805460ff60a01b1916600160a01b1790557f5f6921933580ca0adbbb669ff049927ba73230114570507fc8e10f0758f1d804600080a3565b5095945050505050169081600052600060205260406000206040519161061d83610482565b84835260208301916001835280546801000000000000000081101561049e5761064b9160018201815561042f565b93909361069c5751835492516001600160a81b031990931691161790151560a01b60ff60a01b161790557f5f6921933580ca0adbbb669ff049927ba73230114570507fc8e10f0758f1d804600080a3565b634e487b7160e01b600052600060045260246000fd5b60405162461bcd60e51b815260206004820152601860248201527f496e76616c6964207374726174656779206164647265737300000000000000006044820152606490fd5b9060005b60018060a01b03808416806000526020916000835260408060002091825486101561077e578061072c87809561042f565b505416908716149283610759575b50505090506107515761074c9061045d565b6106fb565b505050600190565b61076f935060ff9460009182525260002061042f565b505460a01c168082388061073a565b505050505050505060009056fea2646970667358221220d8b3b82fab49bad3742197bebfda172d262dc1f58fad6ac2146c89a85ea5f34664736f6c63430008140033","opcodes":"PUSH1 0x80 DUP1 PUSH1 0x40 MSTORE CALLVALUE PUSH2 0x16 JUMPI PUSH2 0x7C1 SWAP1 DUP2 PUSH2 0x1C DUP3 CODECOPY RETURN JUMPDEST PUSH1 0x0 DUP1 REVERT INVALID PUSH1 0x40 PUSH1 0x80 DUP2 MSTORE PUSH1 0x4 DUP1 CALLDATASIZE LT ISZERO PUSH2 0x14 JUMPI PUSH1 0x0 DUP1 REVERT JUMPDEST PUSH1 0x0 SWAP2 DUP3 CALLDATALOAD PUSH1 0xE0 SHR DUP1 PUSH4 0x1560468E EQ PUSH2 0x39D JUMPI DUP1 PUSH4 0x18066943 EQ PUSH2 0x36D JUMPI DUP1 PUSH4 0x21294CCB EQ PUSH2 0x336 JUMPI DUP1 PUSH4 0x240028E8 EQ PUSH2 0x2F8 JUMPI DUP1 PUSH4 0x8E67D7B3 EQ PUSH2 0x165 JUMPI PUSH4 0xA9AFD13E EQ PUSH2 0x62 JUMPI PUSH1 0x0 DUP1 REVERT JUMPDEST CALLVALUE PUSH2 0x161 JUMPI PUSH1 0x20 SWAP1 DUP2 PUSH1 0x3 NOT CALLDATASIZE ADD SLT PUSH2 0x15D JUMPI PUSH2 0x80 SWAP3 SWAP2 SWAP3 PUSH2 0x3FE JUMP JUMPDEST DUP5 SWAP4 PUSH1 0x1 PUSH1 0x1 PUSH1 0xA0 SHL SUB SWAP2 DUP3 AND SWAP4 DUP6 SWAP3 SWAP1 SWAP2 SWAP1 DUP4 JUMPDEST DUP7 DUP10 MSTORE DUP9 DUP4 MSTORE DUP6 DUP10 KECCAK256 DUP1 SLOAD DUP3 LT ISZERO PUSH2 0x152 JUMPI PUSH2 0xB2 DUP3 DUP5 SWAP3 PUSH2 0x42F JUMP JUMPDEST POP SLOAD PUSH1 0xFF DUP2 PUSH1 0xA0 SHR AND PUSH2 0xD0 JUMPI JUMPDEST POP POP PUSH2 0xCB SWAP1 PUSH2 0x45D JUMP JUMPDEST PUSH2 0x95 JUMP JUMPDEST AND DUP7 MLOAD PUSH4 0xC4F9870B PUSH1 0xE0 SHL DUP2 MSTORE DUP9 DUP7 DUP3 ADD MSTORE DUP5 DUP2 PUSH1 0x24 DUP2 DUP6 GAS STATICCALL SWAP1 DUP2 ISZERO PUSH2 0x148 JUMPI DUP12 SWAP2 PUSH2 0x117 JUMPI JUMPDEST POP DUP7 DUP2 GT PUSH2 0x109 JUMPI JUMPDEST DUP4 SWAP2 POP PUSH2 0xC0 JUMP JUMPDEST SWAP1 SWAP9 POP SWAP5 POP PUSH2 0xCB CODESIZE PUSH2 0x101 JUMP JUMPDEST SWAP1 POP DUP5 DUP2 DUP2 RETURNDATASIZE DUP4 GT PUSH2 0x141 JUMPI JUMPDEST PUSH2 0x12E DUP2 DUP4 PUSH2 0x4B4 JUMP JUMPDEST DUP2 ADD SUB SLT PUSH2 0x13D JUMPI MLOAD CODESIZE PUSH2 0xF8 JUMP JUMPDEST DUP11 DUP1 REVERT JUMPDEST POP RETURNDATASIZE PUSH2 0x124 JUMP JUMPDEST DUP9 MLOAD RETURNDATASIZE DUP14 DUP3 RETURNDATACOPY RETURNDATASIZE SWAP1 REVERT JUMPDEST DUP4 DUP10 DUP5 DUP10 MLOAD SWAP2 AND DUP2 MSTORE RETURN JUMPDEST DUP4 DUP1 REVERT JUMPDEST DUP3 DUP1 REVERT JUMPDEST DUP4 DUP3 CALLVALUE PUSH2 0x2F4 JUMPI DUP1 PUSH1 0x3 NOT CALLDATASIZE ADD SLT PUSH2 0x2F4 JUMPI PUSH2 0x17F PUSH2 0x3FE JUMP JUMPDEST SWAP1 PUSH2 0x188 PUSH2 0x419 JUMP JUMPDEST PUSH1 0x1 PUSH1 0x1 PUSH1 0xA0 SHL SUB SWAP3 SWAP1 DUP4 AND SWAP2 SWAP1 DUP4 AND SWAP1 DUP5 JUMPDEST DUP3 DUP7 MSTORE PUSH1 0x20 DUP7 DUP2 MSTORE DUP7 DUP4 DUP2 KECCAK256 DUP1 SLOAD DUP5 LT ISZERO PUSH2 0x2E9 JUMPI DUP8 PUSH2 0x1BC DUP6 DUP10 SWAP4 PUSH2 0x42F JUMP JUMPDEST POP SLOAD AND EQ PUSH2 0x1D4 JUMPI POP POP PUSH2 0x1CF SWAP1 PUSH2 0x45D JUMP JUMPDEST PUSH2 0x19B JUMP JUMPDEST SWAP3 SWAP2 DUP5 SWAP6 SWAP7 POP PUSH2 0x20C SWAP1 PUSH1 0xFF SWAP3 SWAP6 DUP6 MSTORE DUP5 DUP7 MSTORE PUSH2 0x1F3 DUP2 DUP6 DUP8 KECCAK256 PUSH2 0x42F JUMP JUMPDEST POP DUP4 PUSH1 0xA0 SHL NOT DUP2 SLOAD AND SWAP1 SSTORE DUP7 DUP6 MSTORE DUP5 DUP7 MSTORE DUP4 DUP6 KECCAK256 PUSH2 0x42F JUMP JUMPDEST POP SLOAD PUSH1 0xA0 SHR AND SWAP3 DUP2 MLOAD SWAP4 PUSH2 0x21F DUP6 PUSH2 0x482 JUMP JUMPDEST PUSH1 0x10 DUP6 MSTORE PUSH16 0x14DD1C985D1959DE481C995B5BDD9959 PUSH1 0x82 SHL DUP3 DUP7 ADD MSTORE DUP3 MLOAD SWAP2 DUP1 DUP4 ADD SWAP4 PUSH4 0xC3B55635 PUSH1 0xE0 SHL DUP6 MSTORE PUSH1 0x24 DUP5 ADD MSTORE DUP6 MLOAD PUSH1 0x64 SWAP2 DUP2 DUP4 DUP7 ADD MSTORE DUP7 SWAP8 JUMPDEST DUP3 DUP10 LT PUSH2 0x2D0 JUMPI POP POP DUP6 SWAP7 POP SWAP1 DUP4 PUSH2 0x298 SWAP4 SWAP3 PUSH1 0x84 SWAP4 DUP9 DUP6 DUP4 DUP6 ADD ADD MSTORE ISZERO ISZERO PUSH1 0x44 DUP4 ADD MSTORE PUSH1 0x1F DUP1 NOT SWAP2 ADD AND DUP2 ADD SUB SWAP1 DUP2 ADD DUP5 MSTORE ADD DUP3 PUSH2 0x4B4 JUMP JUMPDEST MLOAD SWAP1 PUSH11 0x636F6E736F6C652E6C6F67 GAS STATICCALL POP PUSH32 0x64A0E13AF5F4BC5A68B1B79D9FF6E775F93E814EE8B0C97D620520190D04BAE2 DUP4 DUP1 LOG3 DUP1 RETURN JUMPDEST DUP9 DUP2 ADD DUP3 ADD MLOAD DUP7 DUP11 ADD PUSH1 0x84 ADD MSTORE SWAP8 DUP2 ADD SWAP8 DUP12 SWAP8 POP PUSH2 0x25E JUMP JUMPDEST POP POP POP POP POP POP POP POP DUP1 RETURN JUMPDEST POP DUP1 REVERT JUMPDEST DUP4 DUP3 CALLVALUE PUSH2 0x2F4 JUMPI PUSH1 0x20 CALLDATASIZE PUSH1 0x3 NOT ADD SLT PUSH2 0x2F4 JUMPI PUSH1 0x20 SWAP2 PUSH1 0xFF SWAP1 DUP3 SWAP1 PUSH1 0x1 PUSH1 0x1 PUSH1 0xA0 SHL SUB PUSH2 0x323 PUSH2 0x3FE JUMP JUMPDEST AND DUP2 MSTORE PUSH1 0x1 DUP6 MSTORE KECCAK256 SLOAD AND SWAP1 MLOAD SWAP1 ISZERO ISZERO DUP2 MSTORE RETURN JUMPDEST DUP4 DUP3 CALLVALUE PUSH2 0x2F4 JUMPI DUP1 PUSH1 0x3 NOT CALLDATASIZE ADD SLT PUSH2 0x2F4 JUMPI PUSH1 0x20 SWAP1 PUSH2 0x364 PUSH2 0x356 PUSH2 0x3FE JUMP JUMPDEST PUSH2 0x35E PUSH2 0x419 JUMP JUMPDEST SWAP1 PUSH2 0x6F7 JUMP JUMPDEST SWAP1 MLOAD SWAP1 ISZERO ISZERO DUP2 MSTORE RETURN JUMPDEST DUP4 DUP3 CALLVALUE PUSH2 0x2F4 JUMPI CALLDATASIZE PUSH1 0x3 NOT ADD SLT PUSH2 0x39A JUMPI PUSH2 0x397 PUSH2 0x389 PUSH2 0x3FE JUMP JUMPDEST PUSH2 0x391 PUSH2 0x419 JUMP JUMPDEST SWAP1 PUSH2 0x4D6 JUMP JUMPDEST DUP1 RETURN JUMPDEST DUP1 REVERT JUMPDEST POP DUP3 CALLVALUE PUSH2 0x39A JUMPI DUP2 PUSH1 0x3 NOT CALLDATASIZE ADD SLT PUSH2 0x39A JUMPI PUSH2 0x3B7 PUSH2 0x3FE JUMP JUMPDEST PUSH1 0x1 PUSH1 0x1 PUSH1 0xA0 SHL SUB SWAP1 DUP2 AND DUP3 MSTORE PUSH1 0x20 DUP3 SWAP1 MSTORE DUP3 DUP3 KECCAK256 DUP1 SLOAD SWAP2 SWAP3 PUSH1 0x24 CALLDATALOAD SWAP3 DUP4 LT ISZERO PUSH2 0x39A JUMPI POP PUSH1 0xFF SWAP2 PUSH2 0x3E8 SWAP2 PUSH2 0x42F JUMP JUMPDEST POP SLOAD DUP4 MLOAD SWAP3 DUP2 AND DUP4 MSTORE PUSH1 0xA0 SHR AND ISZERO ISZERO PUSH1 0x20 DUP3 ADD MSTORE RETURN JUMPDEST PUSH1 0x4 CALLDATALOAD SWAP1 PUSH1 0x1 PUSH1 0x1 PUSH1 0xA0 SHL SUB DUP3 AND DUP3 SUB PUSH2 0x414 JUMPI JUMP JUMPDEST PUSH1 0x0 DUP1 REVERT JUMPDEST PUSH1 0x24 CALLDATALOAD SWAP1 PUSH1 0x1 PUSH1 0x1 PUSH1 0xA0 SHL SUB DUP3 AND DUP3 SUB PUSH2 0x414 JUMPI JUMP JUMPDEST DUP1 SLOAD DUP3 LT ISZERO PUSH2 0x447 JUMPI PUSH1 0x0 MSTORE PUSH1 0x20 PUSH1 0x0 KECCAK256 ADD SWAP1 PUSH1 0x0 SWAP1 JUMP JUMPDEST PUSH4 0x4E487B71 PUSH1 0xE0 SHL PUSH1 0x0 MSTORE PUSH1 0x32 PUSH1 0x4 MSTORE PUSH1 0x24 PUSH1 0x0 REVERT JUMPDEST PUSH1 0x0 NOT DUP2 EQ PUSH2 0x46C JUMPI PUSH1 0x1 ADD SWAP1 JUMP JUMPDEST PUSH4 0x4E487B71 PUSH1 0xE0 SHL PUSH1 0x0 MSTORE PUSH1 0x11 PUSH1 0x4 MSTORE PUSH1 0x24 PUSH1 0x0 REVERT JUMPDEST PUSH1 0x40 DUP2 ADD SWAP1 DUP2 LT PUSH8 0xFFFFFFFFFFFFFFFF DUP3 GT OR PUSH2 0x49E JUMPI PUSH1 0x40 MSTORE JUMP JUMPDEST PUSH4 0x4E487B71 PUSH1 0xE0 SHL PUSH1 0x0 MSTORE PUSH1 0x41 PUSH1 0x4 MSTORE PUSH1 0x24 PUSH1 0x0 REVERT JUMPDEST SWAP1 PUSH1 0x1F DUP1 NOT SWAP2 ADD AND DUP2 ADD SWAP1 DUP2 LT PUSH8 0xFFFFFFFFFFFFFFFF DUP3 GT OR PUSH2 0x49E JUMPI PUSH1 0x40 MSTORE JUMP JUMPDEST PUSH1 0x1 PUSH1 0x1 PUSH1 0xA0 SHL SUB SWAP2 DUP3 AND SWAP2 SWAP1 DUP3 ISZERO PUSH2 0x6B2 JUMPI PUSH1 0x0 JUMPDEST DUP3 DUP3 AND DUP1 PUSH1 0x0 MSTORE PUSH1 0x20 SWAP1 PUSH1 0x0 DUP3 MSTORE PUSH1 0x40 SWAP1 DUP7 DUP7 DUP4 PUSH1 0x0 KECCAK256 DUP1 SLOAD DUP8 LT ISZERO PUSH2 0x5F8 JUMPI DUP7 PUSH2 0x516 SWAP2 PUSH2 0x42F JUMP JUMPDEST POP SLOAD AND EQ PUSH2 0x52F JUMPI POP POP POP PUSH2 0x52A SWAP1 PUSH2 0x45D JUMP JUMPDEST PUSH2 0x4EC JUMP JUMPDEST SWAP3 SWAP2 SWAP6 SWAP4 POP SWAP4 POP DUP2 PUSH1 0x0 MSTORE PUSH1 0x0 DUP6 MSTORE PUSH1 0xFF PUSH2 0x54D DUP3 DUP7 PUSH1 0x0 KECCAK256 PUSH2 0x42F JUMP JUMPDEST POP SLOAD PUSH1 0xA0 SHR AND ISZERO PUSH2 0x5AA JUMPI DUP4 MLOAD PUSH3 0x461BCD PUSH1 0xE5 SHL DUP2 MSTORE PUSH1 0x4 DUP2 ADD DUP7 SWAP1 MSTORE PUSH1 0x25 PUSH1 0x24 DUP3 ADD MSTORE PUSH32 0x537472617465677920616C72656164792065786973747320616E642069732061 PUSH1 0x44 DUP3 ADD MSTORE PUSH5 0x6374697665 PUSH1 0xD8 SHL PUSH1 0x64 DUP3 ADD MSTORE PUSH1 0x84 SWAP1 REVERT JUMPDEST SWAP1 SWAP3 PUSH1 0x0 PUSH2 0x5BF SWAP4 SWAP6 DUP6 DUP3 MSTORE MSTORE PUSH1 0x0 KECCAK256 PUSH2 0x42F JUMP JUMPDEST POP DUP1 SLOAD PUSH1 0xFF PUSH1 0xA0 SHL NOT AND PUSH1 0x1 PUSH1 0xA0 SHL OR SWAP1 SSTORE PUSH32 0x5F6921933580CA0ADBBB669FF049927BA73230114570507FC8E10F0758F1D804 PUSH1 0x0 DUP1 LOG3 JUMP JUMPDEST POP SWAP6 SWAP5 POP POP POP POP POP AND SWAP1 DUP2 PUSH1 0x0 MSTORE PUSH1 0x0 PUSH1 0x20 MSTORE PUSH1 0x40 PUSH1 0x0 KECCAK256 PUSH1 0x40 MLOAD SWAP2 PUSH2 0x61D DUP4 PUSH2 0x482 JUMP JUMPDEST DUP5 DUP4 MSTORE PUSH1 0x20 DUP4 ADD SWAP2 PUSH1 0x1 DUP4 MSTORE DUP1 SLOAD PUSH9 0x10000000000000000 DUP2 LT ISZERO PUSH2 0x49E JUMPI PUSH2 0x64B SWAP2 PUSH1 0x1 DUP3 ADD DUP2 SSTORE PUSH2 0x42F JUMP JUMPDEST SWAP4 SWAP1 SWAP4 PUSH2 0x69C JUMPI MLOAD DUP4 SLOAD SWAP3 MLOAD PUSH1 0x1 PUSH1 0x1 PUSH1 0xA8 SHL SUB NOT SWAP1 SWAP4 AND SWAP2 AND OR SWAP1 ISZERO ISZERO PUSH1 0xA0 SHL PUSH1 0xFF PUSH1 0xA0 SHL AND OR SWAP1 SSTORE PUSH32 0x5F6921933580CA0ADBBB669FF049927BA73230114570507FC8E10F0758F1D804 PUSH1 0x0 DUP1 LOG3 JUMP JUMPDEST PUSH4 0x4E487B71 PUSH1 0xE0 SHL PUSH1 0x0 MSTORE PUSH1 0x0 PUSH1 0x4 MSTORE PUSH1 0x24 PUSH1 0x0 REVERT JUMPDEST PUSH1 0x40 MLOAD PUSH3 0x461BCD PUSH1 0xE5 SHL DUP2 MSTORE PUSH1 0x20 PUSH1 0x4 DUP3 ADD MSTORE PUSH1 0x18 PUSH1 0x24 DUP3 ADD MSTORE PUSH32 0x496E76616C696420737472617465677920616464726573730000000000000000 PUSH1 0x44 DUP3 ADD MSTORE PUSH1 0x64 SWAP1 REVERT JUMPDEST SWAP1 PUSH1 0x0 JUMPDEST PUSH1 0x1 DUP1 PUSH1 0xA0 SHL SUB DUP1 DUP5 AND DUP1 PUSH1 0x0 MSTORE PUSH1 0x20 SWAP2 PUSH1 0x0 DUP4 MSTORE PUSH1 0x40 DUP1 PUSH1 0x0 KECCAK256 SWAP2 DUP3 SLOAD DUP7 LT ISZERO PUSH2 0x77E JUMPI DUP1 PUSH2 0x72C DUP8 DUP1 SWAP6 PUSH2 0x42F JUMP JUMPDEST POP SLOAD AND SWAP1 DUP8 AND EQ SWAP3 DUP4 PUSH2 0x759 JUMPI JUMPDEST POP POP POP SWAP1 POP PUSH2 0x751 JUMPI PUSH2 0x74C SWAP1 PUSH2 0x45D JUMP JUMPDEST PUSH2 0x6FB JUMP JUMPDEST POP POP POP PUSH1 0x1 SWAP1 JUMP JUMPDEST PUSH2 0x76F SWAP4 POP PUSH1 0xFF SWAP5 PUSH1 0x0 SWAP2 DUP3 MSTORE MSTORE PUSH1 0x0 KECCAK256 PUSH2 0x42F JUMP JUMPDEST POP SLOAD PUSH1 0xA0 SHR AND DUP1 DUP3 CODESIZE DUP1 PUSH2 0x73A JUMP JUMPDEST POP POP POP POP POP POP POP POP PUSH1 0x0 SWAP1 JUMP INVALID LOG2 PUSH5 0x6970667358 0x22 SLT KECCAK256 0xD8 0xB3 0xB8 0x2F 0xAB 0x49 0xBA 0xD3 PUSH21 0x2197BEBFDA172D262DC1F58FAD6AC2146C89A85EA5 RETURN CHAINID PUSH5 0x736F6C6343 STOP ADDMOD EQ STOP CALLER "},"methodIdentifiers":{"addStrategy(address,address)":"18066943","getBestStrategy(address)":"a9afd13e","isSupportedToken(address)":"240028e8","isValidStrategy(address,address)":"21294ccb","removeStrategy(address,address)":"8e67d7b3","tokenStrategies(address,uint256)":"1560468e"}}}}}