{"contracts/core/YieldAggregatorV1.sol":{"YieldAggregatorV1":{"abi":[{"inputs":[{"internalType":"address","name":"_timelock","type":"address"},{"internalType":"address","name":"_strategyFactory","type":"address"},{"internalType":"address","name":"_feeManager","type":"address"}],"stateMutability":"nonpayable","type":"constructor"},{"anonymous":false,"inputs":[{"indexed":true,"internalType":"address","name":"user","type":"address"},{"indexed":true,"internalType":"address","name":"token","type":"address"},{"indexed":false,"internalType":"uint256","name":"amount","type":"uint256"}],"name":"Deposited","type":"event"},{"anonymous":false,"inputs":[{"indexed":true,"internalType":"address","name":"token","type":"address"},{"indexed":true,"internalType":"address","name":"strategy","type":"address"}],"name":"StrategyUpdated","type":"event"},{"anonymous":false,"inputs":[{"indexed":true,"internalType":"address","name":"user","type":"address"},{"indexed":true,"internalType":"address","name":"token","type":"address"},{"indexed":false,"internalType":"uint256","name":"amount","type":"uint256"}],"name":"Withdrawn","type":"event"},{"inputs":[{"internalType":"address","name":"","type":"address"},{"internalType":"address","name":"","type":"address"}],"name":"balances","outputs":[{"internalType":"uint256","name":"","type":"uint256"}],"stateMutability":"view","type":"function"},{"inputs":[{"internalType":"address","name":"token","type":"address"},{"internalType":"uint256","name":"amount","type":"uint256"}],"name":"deposit","outputs":[],"stateMutability":"payable","type":"function"},{"inputs":[],"name":"feeManager","outputs":[{"internalType":"contract FeeManager","name":"","type":"address"}],"stateMutability":"view","type":"function"},{"inputs":[{"internalType":"address","name":"","type":"address"}],"name":"isSupportedToken","outputs":[{"internalType":"bool","name":"","type":"bool"}],"stateMutability":"view","type":"function"},{"inputs":[],"name":"owner","outputs":[{"internalType":"address","name":"","type":"address"}],"stateMutability":"view","type":"function"},{"inputs":[],"name":"strategyFactory","outputs":[{"internalType":"contract StrategyFactory","name":"","type":"address"}],"stateMutability":"view","type":"function"},{"inputs":[],"name":"timelock","outputs":[{"internalType":"address","name":"","type":"address"}],"stateMutability":"view","type":"function"},{"inputs":[{"internalType":"address","name":"token","type":"address"},{"internalType":"uint256","name":"amount","type":"uint256"}],"name":"withdraw","outputs":[],"stateMutability":"payable","type":"function"}],"evm":{"bytecode":{"linkReferences":{},"object":"6080346100ab57601f6109b838819003918201601f19168301916001600160401b038311848410176100b0578084926060946040528339810103126100ab57610047816100c6565b906100606040610059602084016100c6565b92016100c6565b60018060a01b0319923384600054161760005560018060a01b03928380921685600154161760015516836002541617600255169060035416176003556040516108dd90816100db8239f35b600080fd5b634e487b7160e01b600052604160045260246000fd5b51906001600160a01b03821682036100ab5756fe60806040908082526004918236101561001757600080fd5b600091823560e01c908163240028e81461078f5750806347e7ef24146104605780638da5cb5b146104395780639ef3571014610411578063c23f001f146103b9578063d0fb020314610391578063d33219b4146103695763f3fef3a31461007d57600080fd5b80600319360112610365576100906107ca565b33835260208481528284206001600160a01b03808416600081815292845291859020549194602435949092851161032b578160025416848760248b875194859384926354d7e89f60e11b84528301525afa9081156102cb57908391899161030e575b501691610100831515610863565b835163711cc00560e01b8152898101889052908582602481875afa91821561030457610165928b8b89948b9482946102d5575b5089516323b872dd60e01b81523393810193845230602085015260408401959095529395869485939091849160600190565b0393165af180156102cb576102ae575b50813b156102aa57825163f3fef3a360e01b81526001600160a01b03909116818901908152602081018690529091879183919082908490829060400103925af1801561028857908691610292575b5050805163a9059cbb60e01b81523387820190815260208101859052839082908190604001038189895af180156102885761025b575b503385528582528085208460005282528060002080549084820391821161024857555191825233917fd1c19fbcd4551a5edfb66d43d2e337c04837afda3482b42bdf569a8fccdae5fb9190a380f35b634e487b7160e01b875260118852602487fd5b61027a90833d8511610281575b610272818361080a565b81019061082c565b50386101f9565b503d610268565b82513d88823e3d90fd5b61029b906107e0565b6102a65784386101c3565b8480fd5b8680fd5b6102c490853d871161028157610272818361080a565b5038610175565b84513d8a823e3d90fd5b6102f6919450863d88116102fd575b6102ee818361080a565b810190610844565b9238610133565b503d6102e4565b85513d8b823e3d90fd5b6103259150863d88116102fd576102ee818361080a565b386100f2565b825162461bcd60e51b81528089018590526014602482015273496e73756666696369656e742062616c616e636560601b6044820152606490fd5b5080fd5b503461036557816003193601126103655760015490516001600160a01b039091168152602090f35b503461036557816003193601126103655760035490516001600160a01b039091168152602090f35b50903461040e578160031936011261040e576103d36107ca565b6001600160a01b039360243585811693919084900361040957602095859316825285522090600052825280600020549051908152f35b600080fd5b80fd5b503461036557816003193601126103655760025490516001600160a01b039091168152602090f35b5034610365578160031936011261036557905490516001600160a01b039091168152602090f35b50828160031936011261078b576104756107ca565b6024359081156107485783516323b872dd60e01b81523381850190815230602082810191909152604082018590526001600160a01b038481169691949193909285908290819060600103818c8b5af180156106c85761072b575b503388528284528688208689528452868820805490868201809211610718579060249291558483600254168951938480926354d7e89f60e11b82528b898301525afa9182156106c85789926106f9575b50610566858785851694610534861515610863565b8b5163095ea7b360e01b81526001600160a01b0390911688820190815260208101929092529283918291604090910190565b03818d8c5af180156106ef576106d2575b5088823b1561040e5788516311f9fbc960e21b81526001600160a01b039092168583019081526020810188905282908190604001038183865af180156106c8576106b0575b506024929184899289519586809263711cc00560e01b82528b888301525afa9384156106a65792826106209995928795899594610687575b50865163a9059cbb60e01b815233938101938452602084019590955293998a9485939091849160400190565b0393165af194851561067d577f8752a472e571a816aea92eec8dae9baf628e840f4929fbcc2d155e6233ff68a7939495610660575b50519283523392a380f35b61067690833d851161028157610272818361080a565b5086610655565b81513d88823e3d90fd5b61069f919450863d88116102fd576102ee818361080a565b928c6105f4565b88513d84823e3d90fd5b9184986106bf602495946107e0565b985091926105bc565b88513d8b823e3d90fd5b6106e890863d881161028157610272818361080a565b5089610577565b89513d8c823e3d90fd5b610711919250853d87116102fd576102ee818361080a565b908961051f565b634e487b7160e01b8a526011855260248afd5b61074190853d871161028157610272818361080a565b50886104cf565b835162461bcd60e51b8152602081850152601d60248201527f416d6f756e74206d7573742062652067726561746572207468616e20300000006044820152606490fd5b8280fd5b9190503461078b57602036600319011261078b5760209260ff91906001600160a01b036107ba6107ca565b1681526005855220541615158152f35b600435906001600160a01b038216820361040957565b67ffffffffffffffff81116107f457604052565b634e487b7160e01b600052604160045260246000fd5b90601f8019910116810190811067ffffffffffffffff8211176107f457604052565b90816020910312610409575180151581036104095790565b9081602091031261040957516001600160a01b03811681036104095790565b1561086a57565b60405162461bcd60e51b81526020600482015260156024820152744e6f20737472617465677920617661696c61626c6560581b6044820152606490fdfea2646970667358221220266d1eac614a3501531c462ec0155d399c63817289b9123ca0726ade4e7ec86864736f6c63430008140033","opcodes":"PUSH1 0x80 CALLVALUE PUSH2 0xAB JUMPI PUSH1 0x1F PUSH2 0x9B8 CODESIZE DUP2 SWAP1 SUB SWAP2 DUP3 ADD PUSH1 0x1F NOT AND DUP4 ADD SWAP2 PUSH1 0x1 PUSH1 0x1 PUSH1 0x40 SHL SUB DUP4 GT DUP5 DUP5 LT OR PUSH2 0xB0 JUMPI DUP1 DUP5 SWAP3 PUSH1 0x60 SWAP5 PUSH1 0x40 MSTORE DUP4 CODECOPY DUP2 ADD SUB SLT PUSH2 0xAB JUMPI PUSH2 0x47 DUP2 PUSH2 0xC6 JUMP JUMPDEST SWAP1 PUSH2 0x60 PUSH1 0x40 PUSH2 0x59 PUSH1 0x20 DUP5 ADD PUSH2 0xC6 JUMP JUMPDEST SWAP3 ADD PUSH2 0xC6 JUMP JUMPDEST PUSH1 0x1 DUP1 PUSH1 0xA0 SHL SUB NOT SWAP3 CALLER DUP5 PUSH1 0x0 SLOAD AND OR PUSH1 0x0 SSTORE PUSH1 0x1 DUP1 PUSH1 0xA0 SHL SUB SWAP3 DUP4 DUP1 SWAP3 AND DUP6 PUSH1 0x1 SLOAD AND OR PUSH1 0x1 SSTORE AND DUP4 PUSH1 0x2 SLOAD AND OR PUSH1 0x2 SSTORE AND SWAP1 PUSH1 0x3 SLOAD AND OR PUSH1 0x3 SSTORE PUSH1 0x40 MLOAD PUSH2 0x8DD SWAP1 DUP2 PUSH2 0xDB DUP3 CODECOPY RETURN JUMPDEST PUSH1 0x0 DUP1 REVERT JUMPDEST PUSH4 0x4E487B71 PUSH1 0xE0 SHL PUSH1 0x0 MSTORE PUSH1 0x41 PUSH1 0x4 MSTORE PUSH1 0x24 PUSH1 0x0 REVERT JUMPDEST MLOAD SWAP1 PUSH1 0x1 PUSH1 0x1 PUSH1 0xA0 SHL SUB DUP3 AND DUP3 SUB PUSH2 0xAB JUMPI JUMP INVALID PUSH1 0x80 PUSH1 0x40 SWAP1 DUP1 DUP3 MSTORE PUSH1 0x4 SWAP2 DUP3 CALLDATASIZE LT ISZERO PUSH2 0x17 JUMPI PUSH1 0x0 DUP1 REVERT JUMPDEST PUSH1 0x0 SWAP2 DUP3 CALLDATALOAD PUSH1 0xE0 SHR SWAP1 DUP2 PUSH4 0x240028E8 EQ PUSH2 0x78F JUMPI POP DUP1 PUSH4 0x47E7EF24 EQ PUSH2 0x460 JUMPI DUP1 PUSH4 0x8DA5CB5B EQ PUSH2 0x439 JUMPI DUP1 PUSH4 0x9EF35710 EQ PUSH2 0x411 JUMPI DUP1 PUSH4 0xC23F001F EQ PUSH2 0x3B9 JUMPI DUP1 PUSH4 0xD0FB0203 EQ PUSH2 0x391 JUMPI DUP1 PUSH4 0xD33219B4 EQ PUSH2 0x369 JUMPI PUSH4 0xF3FEF3A3 EQ PUSH2 0x7D JUMPI PUSH1 0x0 DUP1 REVERT JUMPDEST DUP1 PUSH1 0x3 NOT CALLDATASIZE ADD SLT PUSH2 0x365 JUMPI PUSH2 0x90 PUSH2 0x7CA JUMP JUMPDEST CALLER DUP4 MSTORE PUSH1 0x20 DUP5 DUP2 MSTORE DUP3 DUP5 KECCAK256 PUSH1 0x1 PUSH1 0x1 PUSH1 0xA0 SHL SUB DUP1 DUP5 AND PUSH1 0x0 DUP2 DUP2 MSTORE SWAP3 DUP5 MSTORE SWAP2 DUP6 SWAP1 KECCAK256 SLOAD SWAP2 SWAP5 PUSH1 0x24 CALLDATALOAD SWAP5 SWAP1 SWAP3 DUP6 GT PUSH2 0x32B JUMPI DUP2 PUSH1 0x2 SLOAD AND DUP5 DUP8 PUSH1 0x24 DUP12 DUP8 MLOAD SWAP5 DUP6 SWAP4 DUP5 SWAP3 PUSH4 0x54D7E89F PUSH1 0xE1 SHL DUP5 MSTORE DUP4 ADD MSTORE GAS STATICCALL SWAP1 DUP2 ISZERO PUSH2 0x2CB JUMPI SWAP1 DUP4 SWAP2 DUP10 SWAP2 PUSH2 0x30E JUMPI JUMPDEST POP AND SWAP2 PUSH2 0x100 DUP4 ISZERO ISZERO PUSH2 0x863 JUMP JUMPDEST DUP4 MLOAD PUSH4 0x711CC005 PUSH1 0xE0 SHL DUP2 MSTORE DUP10 DUP2 ADD DUP9 SWAP1 MSTORE SWAP1 DUP6 DUP3 PUSH1 0x24 DUP2 DUP8 GAS STATICCALL SWAP2 DUP3 ISZERO PUSH2 0x304 JUMPI PUSH2 0x165 SWAP3 DUP12 DUP12 DUP10 SWAP5 DUP12 SWAP5 DUP3 SWAP5 PUSH2 0x2D5 JUMPI JUMPDEST POP DUP10 MLOAD PUSH4 0x23B872DD PUSH1 0xE0 SHL DUP2 MSTORE CALLER SWAP4 DUP2 ADD SWAP4 DUP5 MSTORE ADDRESS PUSH1 0x20 DUP6 ADD MSTORE PUSH1 0x40 DUP5 ADD SWAP6 SWAP1 SWAP6 MSTORE SWAP4 SWAP6 DUP7 SWAP5 DUP6 SWAP4 SWAP1 SWAP2 DUP5 SWAP2 PUSH1 0x60 ADD SWAP1 JUMP JUMPDEST SUB SWAP4 AND GAS CALL DUP1 ISZERO PUSH2 0x2CB JUMPI PUSH2 0x2AE JUMPI JUMPDEST POP DUP2 EXTCODESIZE ISZERO PUSH2 0x2AA JUMPI DUP3 MLOAD PUSH4 0xF3FEF3A3 PUSH1 0xE0 SHL DUP2 MSTORE PUSH1 0x1 PUSH1 0x1 PUSH1 0xA0 SHL SUB SWAP1 SWAP2 AND DUP2 DUP10 ADD SWAP1 DUP2 MSTORE PUSH1 0x20 DUP2 ADD DUP7 SWAP1 MSTORE SWAP1 SWAP2 DUP8 SWAP2 DUP4 SWAP2 SWAP1 DUP3 SWAP1 DUP5 SWAP1 DUP3 SWAP1 PUSH1 0x40 ADD SUB SWAP3 GAS CALL DUP1 ISZERO PUSH2 0x288 JUMPI SWAP1 DUP7 SWAP2 PUSH2 0x292 JUMPI JUMPDEST POP POP DUP1 MLOAD PUSH4 0xA9059CBB PUSH1 0xE0 SHL DUP2 MSTORE CALLER DUP8 DUP3 ADD SWAP1 DUP2 MSTORE PUSH1 0x20 DUP2 ADD DUP6 SWAP1 MSTORE DUP4 SWAP1 DUP3 SWAP1 DUP2 SWAP1 PUSH1 0x40 ADD SUB DUP2 DUP10 DUP10 GAS CALL DUP1 ISZERO PUSH2 0x288 JUMPI PUSH2 0x25B JUMPI JUMPDEST POP CALLER DUP6 MSTORE DUP6 DUP3 MSTORE DUP1 DUP6 KECCAK256 DUP5 PUSH1 0x0 MSTORE DUP3 MSTORE DUP1 PUSH1 0x0 KECCAK256 DUP1 SLOAD SWAP1 DUP5 DUP3 SUB SWAP2 DUP3 GT PUSH2 0x248 JUMPI SSTORE MLOAD SWAP2 DUP3 MSTORE CALLER SWAP2 PUSH32 0xD1C19FBCD4551A5EDFB66D43D2E337C04837AFDA3482B42BDF569A8FCCDAE5FB SWAP2 SWAP1 LOG3 DUP1 RETURN JUMPDEST PUSH4 0x4E487B71 PUSH1 0xE0 SHL DUP8 MSTORE PUSH1 0x11 DUP9 MSTORE PUSH1 0x24 DUP8 REVERT JUMPDEST PUSH2 0x27A SWAP1 DUP4 RETURNDATASIZE DUP6 GT PUSH2 0x281 JUMPI JUMPDEST PUSH2 0x272 DUP2 DUP4 PUSH2 0x80A JUMP JUMPDEST DUP2 ADD SWAP1 PUSH2 0x82C JUMP JUMPDEST POP CODESIZE PUSH2 0x1F9 JUMP JUMPDEST POP RETURNDATASIZE PUSH2 0x268 JUMP JUMPDEST DUP3 MLOAD RETURNDATASIZE DUP9 DUP3 RETURNDATACOPY RETURNDATASIZE SWAP1 REVERT JUMPDEST PUSH2 0x29B SWAP1 PUSH2 0x7E0 JUMP JUMPDEST PUSH2 0x2A6 JUMPI DUP5 CODESIZE PUSH2 0x1C3 JUMP JUMPDEST DUP5 DUP1 REVERT JUMPDEST DUP7 DUP1 REVERT JUMPDEST PUSH2 0x2C4 SWAP1 DUP6 RETURNDATASIZE DUP8 GT PUSH2 0x281 JUMPI PUSH2 0x272 DUP2 DUP4 PUSH2 0x80A JUMP JUMPDEST POP CODESIZE PUSH2 0x175 JUMP JUMPDEST DUP5 MLOAD RETURNDATASIZE DUP11 DUP3 RETURNDATACOPY RETURNDATASIZE SWAP1 REVERT JUMPDEST PUSH2 0x2F6 SWAP2 SWAP5 POP DUP7 RETURNDATASIZE DUP9 GT PUSH2 0x2FD JUMPI JUMPDEST PUSH2 0x2EE DUP2 DUP4 PUSH2 0x80A JUMP JUMPDEST DUP2 ADD SWAP1 PUSH2 0x844 JUMP JUMPDEST SWAP3 CODESIZE PUSH2 0x133 JUMP JUMPDEST POP RETURNDATASIZE PUSH2 0x2E4 JUMP JUMPDEST DUP6 MLOAD RETURNDATASIZE DUP12 DUP3 RETURNDATACOPY RETURNDATASIZE SWAP1 REVERT JUMPDEST PUSH2 0x325 SWAP2 POP DUP7 RETURNDATASIZE DUP9 GT PUSH2 0x2FD JUMPI PUSH2 0x2EE DUP2 DUP4 PUSH2 0x80A JUMP JUMPDEST CODESIZE PUSH2 0xF2 JUMP JUMPDEST DUP3 MLOAD PUSH3 0x461BCD PUSH1 0xE5 SHL DUP2 MSTORE DUP1 DUP10 ADD DUP6 SWAP1 MSTORE PUSH1 0x14 PUSH1 0x24 DUP3 ADD MSTORE PUSH20 0x496E73756666696369656E742062616C616E6365 PUSH1 0x60 SHL PUSH1 0x44 DUP3 ADD MSTORE PUSH1 0x64 SWAP1 REVERT JUMPDEST POP DUP1 REVERT JUMPDEST POP CALLVALUE PUSH2 0x365 JUMPI DUP2 PUSH1 0x3 NOT CALLDATASIZE ADD SLT PUSH2 0x365 JUMPI PUSH1 0x1 SLOAD SWAP1 MLOAD PUSH1 0x1 PUSH1 0x1 PUSH1 0xA0 SHL SUB SWAP1 SWAP2 AND DUP2 MSTORE PUSH1 0x20 SWAP1 RETURN JUMPDEST POP CALLVALUE PUSH2 0x365 JUMPI DUP2 PUSH1 0x3 NOT CALLDATASIZE ADD SLT PUSH2 0x365 JUMPI PUSH1 0x3 SLOAD SWAP1 MLOAD PUSH1 0x1 PUSH1 0x1 PUSH1 0xA0 SHL SUB SWAP1 SWAP2 AND DUP2 MSTORE PUSH1 0x20 SWAP1 RETURN JUMPDEST POP SWAP1 CALLVALUE PUSH2 0x40E JUMPI DUP2 PUSH1 0x3 NOT CALLDATASIZE ADD SLT PUSH2 0x40E JUMPI PUSH2 0x3D3 PUSH2 0x7CA JUMP JUMPDEST PUSH1 0x1 PUSH1 0x1 PUSH1 0xA0 SHL SUB SWAP4 PUSH1 0x24 CALLDATALOAD DUP6 DUP2 AND SWAP4 SWAP2 SWAP1 DUP5 SWAP1 SUB PUSH2 0x409 JUMPI PUSH1 0x20 SWAP6 DUP6 SWAP4 AND DUP3 MSTORE DUP6 MSTORE KECCAK256 SWAP1 PUSH1 0x0 MSTORE DUP3 MSTORE DUP1 PUSH1 0x0 KECCAK256 SLOAD SWAP1 MLOAD SWAP1 DUP2 MSTORE RETURN JUMPDEST PUSH1 0x0 DUP1 REVERT JUMPDEST DUP1 REVERT JUMPDEST POP CALLVALUE PUSH2 0x365 JUMPI DUP2 PUSH1 0x3 NOT CALLDATASIZE ADD SLT PUSH2 0x365 JUMPI PUSH1 0x2 SLOAD SWAP1 MLOAD PUSH1 0x1 PUSH1 0x1 PUSH1 0xA0 SHL SUB SWAP1 SWAP2 AND DUP2 MSTORE PUSH1 0x20 SWAP1 RETURN JUMPDEST POP CALLVALUE PUSH2 0x365 JUMPI DUP2 PUSH1 0x3 NOT CALLDATASIZE ADD SLT PUSH2 0x365 JUMPI SWAP1 SLOAD SWAP1 MLOAD PUSH1 0x1 PUSH1 0x1 PUSH1 0xA0 SHL SUB SWAP1 SWAP2 AND DUP2 MSTORE PUSH1 0x20 SWAP1 RETURN JUMPDEST POP DUP3 DUP2 PUSH1 0x3 NOT CALLDATASIZE ADD SLT PUSH2 0x78B JUMPI PUSH2 0x475 PUSH2 0x7CA JUMP JUMPDEST PUSH1 0x24 CALLDATALOAD SWAP1 DUP2 ISZERO PUSH2 0x748 JUMPI DUP4 MLOAD PUSH4 0x23B872DD PUSH1 0xE0 SHL DUP2 MSTORE CALLER DUP2 DUP6 ADD SWAP1 DUP2 MSTORE ADDRESS PUSH1 0x20 DUP3 DUP2 ADD SWAP2 SWAP1 SWAP2 MSTORE PUSH1 0x40 DUP3 ADD DUP6 SWAP1 MSTORE PUSH1 0x1 PUSH1 0x1 PUSH1 0xA0 SHL SUB DUP5 DUP2 AND SWAP7 SWAP2 SWAP5 SWAP2 SWAP4 SWAP1 SWAP3 DUP6 SWAP1 DUP3 SWAP1 DUP2 SWAP1 PUSH1 0x60 ADD SUB DUP2 DUP13 DUP12 GAS CALL DUP1 ISZERO PUSH2 0x6C8 JUMPI PUSH2 0x72B JUMPI JUMPDEST POP CALLER DUP9 MSTORE DUP3 DUP5 MSTORE DUP7 DUP9 KECCAK256 DUP7 DUP10 MSTORE DUP5 MSTORE DUP7 DUP9 KECCAK256 DUP1 SLOAD SWAP1 DUP7 DUP3 ADD DUP1 SWAP3 GT PUSH2 0x718 JUMPI SWAP1 PUSH1 0x24 SWAP3 SWAP2 SSTORE DUP5 DUP4 PUSH1 0x2 SLOAD AND DUP10 MLOAD SWAP4 DUP5 DUP1 SWAP3 PUSH4 0x54D7E89F PUSH1 0xE1 SHL DUP3 MSTORE DUP12 DUP10 DUP4 ADD MSTORE GAS STATICCALL SWAP2 DUP3 ISZERO PUSH2 0x6C8 JUMPI DUP10 SWAP3 PUSH2 0x6F9 JUMPI JUMPDEST POP PUSH2 0x566 DUP6 DUP8 DUP6 DUP6 AND SWAP5 PUSH2 0x534 DUP7 ISZERO ISZERO PUSH2 0x863 JUMP JUMPDEST DUP12 MLOAD PUSH4 0x95EA7B3 PUSH1 0xE0 SHL DUP2 MSTORE PUSH1 0x1 PUSH1 0x1 PUSH1 0xA0 SHL SUB SWAP1 SWAP2 AND DUP9 DUP3 ADD SWAP1 DUP2 MSTORE PUSH1 0x20 DUP2 ADD SWAP3 SWAP1 SWAP3 MSTORE SWAP3 DUP4 SWAP2 DUP3 SWAP2 PUSH1 0x40 SWAP1 SWAP2 ADD SWAP1 JUMP JUMPDEST SUB DUP2 DUP14 DUP13 GAS CALL DUP1 ISZERO PUSH2 0x6EF JUMPI PUSH2 0x6D2 JUMPI JUMPDEST POP DUP9 DUP3 EXTCODESIZE ISZERO PUSH2 0x40E JUMPI DUP9 MLOAD PUSH4 0x11F9FBC9 PUSH1 0xE2 SHL DUP2 MSTORE PUSH1 0x1 PUSH1 0x1 PUSH1 0xA0 SHL SUB SWAP1 SWAP3 AND DUP6 DUP4 ADD SWAP1 DUP2 MSTORE PUSH1 0x20 DUP2 ADD DUP9 SWAP1 MSTORE DUP3 SWAP1 DUP2 SWAP1 PUSH1 0x40 ADD SUB DUP2 DUP4 DUP7 GAS CALL DUP1 ISZERO PUSH2 0x6C8 JUMPI PUSH2 0x6B0 JUMPI JUMPDEST POP PUSH1 0x24 SWAP3 SWAP2 DUP5 DUP10 SWAP3 DUP10 MLOAD SWAP6 DUP7 DUP1 SWAP3 PUSH4 0x711CC005 PUSH1 0xE0 SHL DUP3 MSTORE DUP12 DUP9 DUP4 ADD MSTORE GAS STATICCALL SWAP4 DUP5 ISZERO PUSH2 0x6A6 JUMPI SWAP3 DUP3 PUSH2 0x620 SWAP10 SWAP6 SWAP3 DUP8 SWAP6 DUP10 SWAP6 SWAP5 PUSH2 0x687 JUMPI JUMPDEST POP DUP7 MLOAD PUSH4 0xA9059CBB PUSH1 0xE0 SHL DUP2 MSTORE CALLER SWAP4 DUP2 ADD SWAP4 DUP5 MSTORE PUSH1 0x20 DUP5 ADD SWAP6 SWAP1 SWAP6 MSTORE SWAP4 SWAP10 DUP11 SWAP5 DUP6 SWAP4 SWAP1 SWAP2 DUP5 SWAP2 PUSH1 0x40 ADD SWAP1 JUMP JUMPDEST SUB SWAP4 AND GAS CALL SWAP5 DUP6 ISZERO PUSH2 0x67D JUMPI PUSH32 0x8752A472E571A816AEA92EEC8DAE9BAF628E840F4929FBCC2D155E6233FF68A7 SWAP4 SWAP5 SWAP6 PUSH2 0x660 JUMPI JUMPDEST POP MLOAD SWAP3 DUP4 MSTORE CALLER SWAP3 LOG3 DUP1 RETURN JUMPDEST PUSH2 0x676 SWAP1 DUP4 RETURNDATASIZE DUP6 GT PUSH2 0x281 JUMPI PUSH2 0x272 DUP2 DUP4 PUSH2 0x80A JUMP JUMPDEST POP DUP7 PUSH2 0x655 JUMP JUMPDEST DUP2 MLOAD RETURNDATASIZE DUP9 DUP3 RETURNDATACOPY RETURNDATASIZE SWAP1 REVERT JUMPDEST PUSH2 0x69F SWAP2 SWAP5 POP DUP7 RETURNDATASIZE DUP9 GT PUSH2 0x2FD JUMPI PUSH2 0x2EE DUP2 DUP4 PUSH2 0x80A JUMP JUMPDEST SWAP3 DUP13 PUSH2 0x5F4 JUMP JUMPDEST DUP9 MLOAD RETURNDATASIZE DUP5 DUP3 RETURNDATACOPY RETURNDATASIZE SWAP1 REVERT JUMPDEST SWAP2 DUP5 SWAP9 PUSH2 0x6BF PUSH1 0x24 SWAP6 SWAP5 PUSH2 0x7E0 JUMP JUMPDEST SWAP9 POP SWAP2 SWAP3 PUSH2 0x5BC JUMP JUMPDEST DUP9 MLOAD RETURNDATASIZE DUP12 DUP3 RETURNDATACOPY RETURNDATASIZE SWAP1 REVERT JUMPDEST PUSH2 0x6E8 SWAP1 DUP7 RETURNDATASIZE DUP9 GT PUSH2 0x281 JUMPI PUSH2 0x272 DUP2 DUP4 PUSH2 0x80A JUMP JUMPDEST POP DUP10 PUSH2 0x577 JUMP JUMPDEST DUP10 MLOAD RETURNDATASIZE DUP13 DUP3 RETURNDATACOPY RETURNDATASIZE SWAP1 REVERT JUMPDEST PUSH2 0x711 SWAP2 SWAP3 POP DUP6 RETURNDATASIZE DUP8 GT PUSH2 0x2FD JUMPI PUSH2 0x2EE DUP2 DUP4 PUSH2 0x80A JUMP JUMPDEST SWAP1 DUP10 PUSH2 0x51F JUMP JUMPDEST PUSH4 0x4E487B71 PUSH1 0xE0 SHL DUP11 MSTORE PUSH1 0x11 DUP6 MSTORE PUSH1 0x24 DUP11 REVERT JUMPDEST PUSH2 0x741 SWAP1 DUP6 RETURNDATASIZE DUP8 GT PUSH2 0x281 JUMPI PUSH2 0x272 DUP2 DUP4 PUSH2 0x80A JUMP JUMPDEST POP DUP9 PUSH2 0x4CF JUMP JUMPDEST DUP4 MLOAD PUSH3 0x461BCD PUSH1 0xE5 SHL DUP2 MSTORE PUSH1 0x20 DUP2 DUP6 ADD MSTORE PUSH1 0x1D PUSH1 0x24 DUP3 ADD MSTORE PUSH32 0x416D6F756E74206D7573742062652067726561746572207468616E2030000000 PUSH1 0x44 DUP3 ADD MSTORE PUSH1 0x64 SWAP1 REVERT JUMPDEST DUP3 DUP1 REVERT JUMPDEST SWAP2 SWAP1 POP CALLVALUE PUSH2 0x78B JUMPI PUSH1 0x20 CALLDATASIZE PUSH1 0x3 NOT ADD SLT PUSH2 0x78B JUMPI PUSH1 0x20 SWAP3 PUSH1 0xFF SWAP2 SWAP1 PUSH1 0x1 PUSH1 0x1 PUSH1 0xA0 SHL SUB PUSH2 0x7BA PUSH2 0x7CA JUMP JUMPDEST AND DUP2 MSTORE PUSH1 0x5 DUP6 MSTORE KECCAK256 SLOAD AND ISZERO ISZERO DUP2 MSTORE RETURN JUMPDEST PUSH1 0x4 CALLDATALOAD SWAP1 PUSH1 0x1 PUSH1 0x1 PUSH1 0xA0 SHL SUB DUP3 AND DUP3 SUB PUSH2 0x409 JUMPI JUMP JUMPDEST PUSH8 0xFFFFFFFFFFFFFFFF DUP2 GT PUSH2 0x7F4 JUMPI PUSH1 0x40 MSTORE JUMP JUMPDEST PUSH4 0x4E487B71 PUSH1 0xE0 SHL PUSH1 0x0 MSTORE PUSH1 0x41 PUSH1 0x4 MSTORE PUSH1 0x24 PUSH1 0x0 REVERT JUMPDEST SWAP1 PUSH1 0x1F DUP1 NOT SWAP2 ADD AND DUP2 ADD SWAP1 DUP2 LT PUSH8 0xFFFFFFFFFFFFFFFF DUP3 GT OR PUSH2 0x7F4 JUMPI PUSH1 0x40 MSTORE JUMP JUMPDEST SWAP1 DUP2 PUSH1 0x20 SWAP2 SUB SLT PUSH2 0x409 JUMPI MLOAD DUP1 ISZERO ISZERO DUP2 SUB PUSH2 0x409 JUMPI SWAP1 JUMP JUMPDEST SWAP1 DUP2 PUSH1 0x20 SWAP2 SUB SLT PUSH2 0x409 JUMPI MLOAD PUSH1 0x1 PUSH1 0x1 PUSH1 0xA0 SHL SUB DUP2 AND DUP2 SUB PUSH2 0x409 JUMPI SWAP1 JUMP JUMPDEST ISZERO PUSH2 0x86A JUMPI JUMP JUMPDEST PUSH1 0x40 MLOAD PUSH3 0x461BCD PUSH1 0xE5 SHL DUP2 MSTORE PUSH1 0x20 PUSH1 0x4 DUP3 ADD MSTORE PUSH1 0x15 PUSH1 0x24 DUP3 ADD MSTORE PUSH21 0x4E6F20737472617465677920617661696C61626C65 PUSH1 0x58 SHL PUSH1 0x44 DUP3 ADD MSTORE PUSH1 0x64 SWAP1 REVERT INVALID LOG2 PUSH5 0x6970667358 0x22 SLT KECCAK256 0x26 PUSH14 0x1EAC614A3501531C462EC0155D39 SWAP13 PUSH4 0x817289B9 SLT EXTCODECOPY LOG0 PUSH19 0x6ADE4E7EC86864736F6C634300081400330000 "},"methodIdentifiers":{"balances(address,address)":"c23f001f","deposit(address,uint256)":"47e7ef24","feeManager()":"d0fb0203","isSupportedToken(address)":"240028e8","owner()":"8da5cb5b","strategyFactory()":"9ef35710","timelock()":"d33219b4","withdraw(address,uint256)":"f3fef3a3"}}}}}