{"contracts/Strategies/AaveStrategy.sol":{"AaveStrategy":{"abi":[{"inputs":[{"internalType":"address","name":"_addressesProvider","type":"address"}],"stateMutability":"nonpayable","type":"constructor"},{"anonymous":false,"inputs":[{"indexed":true,"internalType":"address","name":"user","type":"address"},{"indexed":false,"internalType":"address","name":"token","type":"address"},{"indexed":false,"internalType":"uint256","name":"amount","type":"uint256"}],"name":"Deposited","type":"event"},{"anonymous":false,"inputs":[{"indexed":true,"internalType":"address","name":"user","type":"address"},{"indexed":false,"internalType":"address","name":"token","type":"address"},{"indexed":false,"internalType":"uint256","name":"amount","type":"uint256"}],"name":"Withdrawn","type":"event"},{"inputs":[{"internalType":"address","name":"","type":"address"}],"name":"aTokens","outputs":[{"internalType":"address","name":"","type":"address"}],"stateMutability":"view","type":"function"},{"inputs":[],"name":"aavePool","outputs":[{"internalType":"contract IPool","name":"","type":"address"}],"stateMutability":"view","type":"function"},{"inputs":[],"name":"addressesProvider","outputs":[{"internalType":"contract IPoolAddressesProvider","name":"","type":"address"}],"stateMutability":"view","type":"function"},{"inputs":[{"internalType":"address","name":"token","type":"address"},{"internalType":"uint256","name":"amount","type":"uint256"}],"name":"deposit","outputs":[],"stateMutability":"nonpayable","type":"function"},{"inputs":[{"internalType":"address","name":"token","type":"address"}],"name":"getAPY","outputs":[{"internalType":"uint256","name":"","type":"uint256"}],"stateMutability":"view","type":"function"},{"inputs":[{"internalType":"address","name":"token","type":"address"}],"name":"getATokenAddress","outputs":[{"internalType":"address","name":"","type":"address"}],"stateMutability":"view","type":"function"},{"inputs":[{"internalType":"address","name":"token","type":"address"}],"name":"getTotalBalance","outputs":[{"internalType":"uint256","name":"","type":"uint256"}],"stateMutability":"view","type":"function"},{"inputs":[{"internalType":"address","name":"token","type":"address"},{"internalType":"uint256","name":"amount","type":"uint256"}],"name":"withdraw","outputs":[],"stateMutability":"nonpayable","type":"function"}],"evm":{"bytecode":{"linkReferences":{},"object":"60c0806040523461011557610dfa803803809161001c828561011a565b83396001600160a01b039182916100369190810190610153565b1680156100dd576020816004926080526040519283809263026b1d5f60e01b82525afa9081156100d1576000916100a3575b501660a052604051610c879081610173823960805181610393015260a0518181816101470152818161040a015281816104ad01526105a00152f35b6100c4915060203d81116100ca575b6100bc818361011a565b810190610153565b38610068565b503d6100b2565b6040513d6000823e3d90fd5b60405162461bcd60e51b815260206004820152601060248201526f24b73b30b634b210383937bb34b232b960811b6044820152606490fd5b600080fd5b601f909101601f19168101906001600160401b0382119082101761013d57604052565b634e487b7160e01b600052604160045260246000fd5b9081602091031261011557516001600160a01b0381168103610115579056fe6080604081815260048036101561001557600080fd5b600092833560e01c9081633e108ad91461092d5750806347e7ef2414610516578063711cc005146104dc578063a03e4bc314610498578063c4f9870b146103c2578063c72c4d101461037e578063d3d381931461034d5763f3fef3a31461007b57600080fd5b34610349578160031936011261034957610093610964565b91602435916001600160a01b038085166100ae81151561097a565b808752602091878352808589205416801561030c5785516323b872dd60e01b815233868201908152306020820152604081018990529091859183919082908d90829060600103925af19081156103025790610110918a916102e5575b50610b7b565b8561011a88610bc0565b106102a3578288916064875180948193631a4ca37b60e21b8352878a8401528b60248401523060448401527f0000000000000000000000000000000000000000000000000000000000000000165af180156102995790839161026b575b50845163a9059cbb60e01b815233858201908152602081018890529092839182908b90829060400103925af1908115610261578791610234575b50156101fc575050516001600160a01b039092168252602082015233907fd1c19fbcd4551a5edfb66d43d2e337c04837afda3482b42bdf569a8fccdae5fb9080604081015b0390a280f35b606492519162461bcd60e51b83528201526015602482015274151bdad95b881d1c985b9cd9995c8819985a5b1959605a1b6044820152fd5b6102549150823d841161025a575b61024c81836109b6565b8101906109ee565b386101b1565b503d610242565b84513d89823e3d90fd5b813d8311610292575b61027e81836109b6565b8101031261028d578138610177565b600080fd5b503d610274565b85513d8a823e3d90fd5b5050606492519162461bcd60e51b8352820152601b60248201527f496e73756666696369656e742061546f6b656e2062616c616e636500000000006044820152fd5b6102fc9150853d871161025a5761024c81836109b6565b3861010a565b86513d8b823e3d90fd5b5050925162461bcd60e51b8152918201526016602482015275496e76616c69642061546f6b656e206164647265737360501b604482015260649150fd5b8280fd5b50503461037a57602036600319011261037a5760209061037361036e610964565b610bc0565b9051908152f35b5080fd5b50503461037a578160031936011261037a57517f00000000000000000000000000000000000000000000000000000000000000006001600160a01b03168152602090f35b5034610349576020366003190112610349576103dc610964565b82516335ea6a7560e01b81526001600160a01b03918216928101929092526101e091908290829060249082907f0000000000000000000000000000000000000000000000000000000000000000165afa91821561048b5791633b9aca009184936020969261045e575b50506001600160801b0392839101511604169051908152f35b61047d9250803d10610484575b61047581836109b6565b810190610a2e565b3880610445565b503d61046b565b50505051903d90823e3d90fd5b50503461037a578160031936011261037a57517f00000000000000000000000000000000000000000000000000000000000000006001600160a01b03168152602090f35b50503461037a57602036600319011261037a576020916001600160a01b0390829082610506610964565b1681528085522054169051908152f35b503461034957816003193601126103495761052f610964565b91602480359283156108ec576001600160a01b0385811661055181151561097a565b84516323b872dd60e01b815233848201908152306020828101919091526040820189905295919086908290819060600103818d875af1908115610734578a916108cf575b5015610898578890837f0000000000000000000000000000000000000000000000000000000000000000168751636eb1769f60e11b8152308782015281838201528781604481885afa908115610810578491610867575b508981106107c1575b508383528287528488842054161561073e575b803b15610349578290608489518095819363617ba03760e01b8352888b8401528d878401523060448401528160648401525af1801561073457610706575b5050875286835283872054845163a9059cbb60e01b815233938101938452602084018790529284928492169082908a90829060400103925af19182156106fc577f8752a472e571a816aea92eec8dae9baf628e840f4929fbcc2d155e6233ff68a794926101f694926106c09289926106df575b5050610b7b565b516001600160a01b039094168452602084015233929081906040820190565b6106f59250803d1061025a5761024c81836109b6565b38806106b9565b83513d88823e3d90fd5b67ffffffffffffffff829a939a1161072357508552968284610646565b634e487b7160e01b83526041855282fd5b87513d8c823e3d90fd5b87516335ea6a7560e01b81528681018590526101e09081818581865afa9182156107b75791610100918893879261079a575b5050015116848452838852888420906bffffffffffffffffffffffff60a01b825416179055610608565b6107b09250803d106104845761047581836109b6565b3880610770565b8a513d87823e3d90fd5b61081a575b875163095ea7b360e01b815286810182905260001983820152878160448187895af1801561081057156105f55761080990883d8a1161025a5761024c81836109b6565b50386105f5565b89513d86823e3d90fd5b875163095ea7b360e01b815281878201528383820152878160448187895af180156108105761084a575b506107c6565b61086090883d8a1161025a5761024c81836109b6565b5038610844565b90508781813d8311610891575b61087e81836109b6565b8101031261088d5751386105ec565b8380fd5b503d610874565b8360136064928789519362461bcd60e51b855284015282015272151c985b9cd9995c919c9bdb4819985a5b1959606a1b6044820152fd5b6108e69150863d881161025a5761024c81836109b6565b38610595565b601d606492602085519362461bcd60e51b85528401528201527f416d6f756e74206d7573742062652067726561746572207468616e20300000006044820152fd5b84908434610349576020366003190112610349576020926001600160a01b03919082610957610964565b1681528085522054168152f35b600435906001600160a01b038216820361028d57565b1561098157565b60405162461bcd60e51b815260206004820152600d60248201526c24b73b30b634b2103a37b5b2b760991b6044820152606490fd5b90601f8019910116810190811067ffffffffffffffff8211176109d857604052565b634e487b7160e01b600052604160045260246000fd5b9081602091031261028d5751801515810361028d5790565b51906001600160801b038216820361028d57565b51906001600160a01b038216820361028d57565b6101e09181900382811261028d576040519283019067ffffffffffffffff90848310828411176109d85760201361028d576102008401908111828210176109d857604052815181528252610a8460208201610a06565b6020830152610a9560408201610a06565b6040830152610aa660608201610a06565b6060830152610ab760808201610a06565b6080830152610ac860a08201610a06565b60a083015260c081015164ffffffffff8116810361028d5760c083015260e081015161ffff8116810361028d5760e0830152610100610b08818301610a1a565b90830152610120610b1a818301610a1a565b90830152610140610b2c818301610a1a565b90830152610160610b3e818301610a1a565b90830152610180610b50818301610a06565b908301526101a0610b62818301610a06565b90830152610b746101c0809201610a06565b9082015290565b15610b8257565b60405162461bcd60e51b815260206004820152601660248201527518551bdad95b881d1c985b9cd9995c8819985a5b195960521b6044820152606490fd5b60018060a01b0380600092168252816020526040822054168015610c4d576020602491604051928380926370a0823160e01b82523060048301525afa918215610c41578092610c0e57505090565b9091506020823d8211610c39575b81610c29602093836109b6565b81010312610c3657505190565b80fd5b3d9150610c1c565b604051903d90823e3d90fd5b509056fea264697066735822122025fcf2b85155ad70320f819a3ace39ba0d0ce689b65aa79f6ae0fff742443ee964736f6c63430008140033","opcodes":"PUSH1 0xC0 DUP1 PUSH1 0x40 MSTORE CALLVALUE PUSH2 0x115 JUMPI PUSH2 0xDFA DUP1 CODESIZE SUB DUP1 SWAP2 PUSH2 0x1C DUP3 DUP6 PUSH2 0x11A JUMP JUMPDEST DUP4 CODECOPY PUSH1 0x1 PUSH1 0x1 PUSH1 0xA0 SHL SUB SWAP2 DUP3 SWAP2 PUSH2 0x36 SWAP2 SWAP1 DUP2 ADD SWAP1 PUSH2 0x153 JUMP JUMPDEST AND DUP1 ISZERO PUSH2 0xDD JUMPI PUSH1 0x20 DUP2 PUSH1 0x4 SWAP3 PUSH1 0x80 MSTORE PUSH1 0x40 MLOAD SWAP3 DUP4 DUP1 SWAP3 PUSH4 0x26B1D5F PUSH1 0xE0 SHL DUP3 MSTORE GAS STATICCALL SWAP1 DUP2 ISZERO PUSH2 0xD1 JUMPI PUSH1 0x0 SWAP2 PUSH2 0xA3 JUMPI JUMPDEST POP AND PUSH1 0xA0 MSTORE PUSH1 0x40 MLOAD PUSH2 0xC87 SWAP1 DUP2 PUSH2 0x173 DUP3 CODECOPY PUSH1 0x80 MLOAD DUP2 PUSH2 0x393 ADD MSTORE PUSH1 0xA0 MLOAD DUP2 DUP2 DUP2 PUSH2 0x147 ADD MSTORE DUP2 DUP2 PUSH2 0x40A ADD MSTORE DUP2 DUP2 PUSH2 0x4AD ADD MSTORE PUSH2 0x5A0 ADD MSTORE RETURN JUMPDEST PUSH2 0xC4 SWAP2 POP PUSH1 0x20 RETURNDATASIZE DUP2 GT PUSH2 0xCA JUMPI JUMPDEST PUSH2 0xBC DUP2 DUP4 PUSH2 0x11A JUMP JUMPDEST DUP2 ADD SWAP1 PUSH2 0x153 JUMP JUMPDEST CODESIZE PUSH2 0x68 JUMP JUMPDEST POP RETURNDATASIZE PUSH2 0xB2 JUMP JUMPDEST PUSH1 0x40 MLOAD RETURNDATASIZE PUSH1 0x0 DUP3 RETURNDATACOPY RETURNDATASIZE SWAP1 REVERT JUMPDEST PUSH1 0x40 MLOAD PUSH3 0x461BCD PUSH1 0xE5 SHL DUP2 MSTORE PUSH1 0x20 PUSH1 0x4 DUP3 ADD MSTORE PUSH1 0x10 PUSH1 0x24 DUP3 ADD MSTORE PUSH16 0x24B73B30B634B210383937BB34B232B9 PUSH1 0x81 SHL PUSH1 0x44 DUP3 ADD MSTORE PUSH1 0x64 SWAP1 REVERT JUMPDEST PUSH1 0x0 DUP1 REVERT JUMPDEST PUSH1 0x1F SWAP1 SWAP2 ADD PUSH1 0x1F NOT AND DUP2 ADD SWAP1 PUSH1 0x1 PUSH1 0x1 PUSH1 0x40 SHL SUB DUP3 GT SWAP1 DUP3 LT OR PUSH2 0x13D JUMPI PUSH1 0x40 MSTORE JUMP JUMPDEST PUSH4 0x4E487B71 PUSH1 0xE0 SHL PUSH1 0x0 MSTORE PUSH1 0x41 PUSH1 0x4 MSTORE PUSH1 0x24 PUSH1 0x0 REVERT JUMPDEST SWAP1 DUP2 PUSH1 0x20 SWAP2 SUB SLT PUSH2 0x115 JUMPI MLOAD PUSH1 0x1 PUSH1 0x1 PUSH1 0xA0 SHL SUB DUP2 AND DUP2 SUB PUSH2 0x115 JUMPI SWAP1 JUMP INVALID PUSH1 0x80 PUSH1 0x40 DUP2 DUP2 MSTORE PUSH1 0x4 DUP1 CALLDATASIZE LT ISZERO PUSH2 0x15 JUMPI PUSH1 0x0 DUP1 REVERT JUMPDEST PUSH1 0x0 SWAP3 DUP4 CALLDATALOAD PUSH1 0xE0 SHR SWAP1 DUP2 PUSH4 0x3E108AD9 EQ PUSH2 0x92D JUMPI POP DUP1 PUSH4 0x47E7EF24 EQ PUSH2 0x516 JUMPI DUP1 PUSH4 0x711CC005 EQ PUSH2 0x4DC JUMPI DUP1 PUSH4 0xA03E4BC3 EQ PUSH2 0x498 JUMPI DUP1 PUSH4 0xC4F9870B EQ PUSH2 0x3C2 JUMPI DUP1 PUSH4 0xC72C4D10 EQ PUSH2 0x37E JUMPI DUP1 PUSH4 0xD3D38193 EQ PUSH2 0x34D JUMPI PUSH4 0xF3FEF3A3 EQ PUSH2 0x7B JUMPI PUSH1 0x0 DUP1 REVERT JUMPDEST CALLVALUE PUSH2 0x349 JUMPI DUP2 PUSH1 0x3 NOT CALLDATASIZE ADD SLT PUSH2 0x349 JUMPI PUSH2 0x93 PUSH2 0x964 JUMP JUMPDEST SWAP2 PUSH1 0x24 CALLDATALOAD SWAP2 PUSH1 0x1 PUSH1 0x1 PUSH1 0xA0 SHL SUB DUP1 DUP6 AND PUSH2 0xAE DUP2 ISZERO ISZERO PUSH2 0x97A JUMP JUMPDEST DUP1 DUP8 MSTORE PUSH1 0x20 SWAP2 DUP8 DUP4 MSTORE DUP1 DUP6 DUP10 KECCAK256 SLOAD AND DUP1 ISZERO PUSH2 0x30C JUMPI DUP6 MLOAD PUSH4 0x23B872DD PUSH1 0xE0 SHL DUP2 MSTORE CALLER DUP7 DUP3 ADD SWAP1 DUP2 MSTORE ADDRESS PUSH1 0x20 DUP3 ADD MSTORE PUSH1 0x40 DUP2 ADD DUP10 SWAP1 MSTORE SWAP1 SWAP2 DUP6 SWAP2 DUP4 SWAP2 SWAP1 DUP3 SWAP1 DUP14 SWAP1 DUP3 SWAP1 PUSH1 0x60 ADD SUB SWAP3 GAS CALL SWAP1 DUP2 ISZERO PUSH2 0x302 JUMPI SWAP1 PUSH2 0x110 SWAP2 DUP11 SWAP2 PUSH2 0x2E5 JUMPI JUMPDEST POP PUSH2 0xB7B JUMP JUMPDEST DUP6 PUSH2 0x11A DUP9 PUSH2 0xBC0 JUMP JUMPDEST LT PUSH2 0x2A3 JUMPI DUP3 DUP9 SWAP2 PUSH1 0x64 DUP8 MLOAD DUP1 SWAP5 DUP2 SWAP4 PUSH4 0x1A4CA37B PUSH1 0xE2 SHL DUP4 MSTORE DUP8 DUP11 DUP5 ADD MSTORE DUP12 PUSH1 0x24 DUP5 ADD MSTORE ADDRESS PUSH1 0x44 DUP5 ADD MSTORE PUSH32 0x0 AND GAS CALL DUP1 ISZERO PUSH2 0x299 JUMPI SWAP1 DUP4 SWAP2 PUSH2 0x26B JUMPI JUMPDEST POP DUP5 MLOAD PUSH4 0xA9059CBB PUSH1 0xE0 SHL DUP2 MSTORE CALLER DUP6 DUP3 ADD SWAP1 DUP2 MSTORE PUSH1 0x20 DUP2 ADD DUP9 SWAP1 MSTORE SWAP1 SWAP3 DUP4 SWAP2 DUP3 SWAP1 DUP12 SWAP1 DUP3 SWAP1 PUSH1 0x40 ADD SUB SWAP3 GAS CALL SWAP1 DUP2 ISZERO PUSH2 0x261 JUMPI DUP8 SWAP2 PUSH2 0x234 JUMPI JUMPDEST POP ISZERO PUSH2 0x1FC JUMPI POP POP MLOAD PUSH1 0x1 PUSH1 0x1 PUSH1 0xA0 SHL SUB SWAP1 SWAP3 AND DUP3 MSTORE PUSH1 0x20 DUP3 ADD MSTORE CALLER SWAP1 PUSH32 0xD1C19FBCD4551A5EDFB66D43D2E337C04837AFDA3482B42BDF569A8FCCDAE5FB SWAP1 DUP1 PUSH1 0x40 DUP2 ADD JUMPDEST SUB SWAP1 LOG2 DUP1 RETURN JUMPDEST PUSH1 0x64 SWAP3 MLOAD SWAP2 PUSH3 0x461BCD PUSH1 0xE5 SHL DUP4 MSTORE DUP3 ADD MSTORE PUSH1 0x15 PUSH1 0x24 DUP3 ADD MSTORE PUSH21 0x151BDAD95B881D1C985B9CD9995C8819985A5B1959 PUSH1 0x5A SHL PUSH1 0x44 DUP3 ADD MSTORE REVERT JUMPDEST PUSH2 0x254 SWAP2 POP DUP3 RETURNDATASIZE DUP5 GT PUSH2 0x25A JUMPI JUMPDEST PUSH2 0x24C DUP2 DUP4 PUSH2 0x9B6 JUMP JUMPDEST DUP2 ADD SWAP1 PUSH2 0x9EE JUMP JUMPDEST CODESIZE PUSH2 0x1B1 JUMP JUMPDEST POP RETURNDATASIZE PUSH2 0x242 JUMP JUMPDEST DUP5 MLOAD RETURNDATASIZE DUP10 DUP3 RETURNDATACOPY RETURNDATASIZE SWAP1 REVERT JUMPDEST DUP2 RETURNDATASIZE DUP4 GT PUSH2 0x292 JUMPI JUMPDEST PUSH2 0x27E DUP2 DUP4 PUSH2 0x9B6 JUMP JUMPDEST DUP2 ADD SUB SLT PUSH2 0x28D JUMPI DUP2 CODESIZE PUSH2 0x177 JUMP JUMPDEST PUSH1 0x0 DUP1 REVERT JUMPDEST POP RETURNDATASIZE PUSH2 0x274 JUMP JUMPDEST DUP6 MLOAD RETURNDATASIZE DUP11 DUP3 RETURNDATACOPY RETURNDATASIZE SWAP1 REVERT JUMPDEST POP POP PUSH1 0x64 SWAP3 MLOAD SWAP2 PUSH3 0x461BCD PUSH1 0xE5 SHL DUP4 MSTORE DUP3 ADD MSTORE PUSH1 0x1B PUSH1 0x24 DUP3 ADD MSTORE PUSH32 0x496E73756666696369656E742061546F6B656E2062616C616E63650000000000 PUSH1 0x44 DUP3 ADD MSTORE REVERT JUMPDEST PUSH2 0x2FC SWAP2 POP DUP6 RETURNDATASIZE DUP8 GT PUSH2 0x25A JUMPI PUSH2 0x24C DUP2 DUP4 PUSH2 0x9B6 JUMP JUMPDEST CODESIZE PUSH2 0x10A JUMP JUMPDEST DUP7 MLOAD RETURNDATASIZE DUP12 DUP3 RETURNDATACOPY RETURNDATASIZE SWAP1 REVERT JUMPDEST POP POP SWAP3 MLOAD PUSH3 0x461BCD PUSH1 0xE5 SHL DUP2 MSTORE SWAP2 DUP3 ADD MSTORE PUSH1 0x16 PUSH1 0x24 DUP3 ADD MSTORE PUSH22 0x496E76616C69642061546F6B656E2061646472657373 PUSH1 0x50 SHL PUSH1 0x44 DUP3 ADD MSTORE PUSH1 0x64 SWAP2 POP REVERT JUMPDEST DUP3 DUP1 REVERT JUMPDEST POP POP CALLVALUE PUSH2 0x37A JUMPI PUSH1 0x20 CALLDATASIZE PUSH1 0x3 NOT ADD SLT PUSH2 0x37A JUMPI PUSH1 0x20 SWAP1 PUSH2 0x373 PUSH2 0x36E PUSH2 0x964 JUMP JUMPDEST PUSH2 0xBC0 JUMP JUMPDEST SWAP1 MLOAD SWAP1 DUP2 MSTORE RETURN JUMPDEST POP DUP1 REVERT JUMPDEST POP POP CALLVALUE PUSH2 0x37A JUMPI DUP2 PUSH1 0x3 NOT CALLDATASIZE ADD SLT PUSH2 0x37A JUMPI MLOAD PUSH32 0x0 PUSH1 0x1 PUSH1 0x1 PUSH1 0xA0 SHL SUB AND DUP2 MSTORE PUSH1 0x20 SWAP1 RETURN JUMPDEST POP CALLVALUE PUSH2 0x349 JUMPI PUSH1 0x20 CALLDATASIZE PUSH1 0x3 NOT ADD SLT PUSH2 0x349 JUMPI PUSH2 0x3DC PUSH2 0x964 JUMP JUMPDEST DUP3 MLOAD PUSH4 0x35EA6A75 PUSH1 0xE0 SHL DUP2 MSTORE PUSH1 0x1 PUSH1 0x1 PUSH1 0xA0 SHL SUB SWAP2 DUP3 AND SWAP3 DUP2 ADD SWAP3 SWAP1 SWAP3 MSTORE PUSH2 0x1E0 SWAP2 SWAP1 DUP3 SWAP1 DUP3 SWAP1 PUSH1 0x24 SWAP1 DUP3 SWAP1 PUSH32 0x0 AND GAS STATICCALL SWAP2 DUP3 ISZERO PUSH2 0x48B JUMPI SWAP2 PUSH4 0x3B9ACA00 SWAP2 DUP5 SWAP4 PUSH1 0x20 SWAP7 SWAP3 PUSH2 0x45E JUMPI JUMPDEST POP POP PUSH1 0x1 PUSH1 0x1 PUSH1 0x80 SHL SUB SWAP3 DUP4 SWAP2 ADD MLOAD AND DIV AND SWAP1 MLOAD SWAP1 DUP2 MSTORE RETURN JUMPDEST PUSH2 0x47D SWAP3 POP DUP1 RETURNDATASIZE LT PUSH2 0x484 JUMPI JUMPDEST PUSH2 0x475 DUP2 DUP4 PUSH2 0x9B6 JUMP JUMPDEST DUP2 ADD SWAP1 PUSH2 0xA2E JUMP JUMPDEST CODESIZE DUP1 PUSH2 0x445 JUMP JUMPDEST POP RETURNDATASIZE PUSH2 0x46B JUMP JUMPDEST POP POP POP MLOAD SWAP1 RETURNDATASIZE SWAP1 DUP3 RETURNDATACOPY RETURNDATASIZE SWAP1 REVERT JUMPDEST POP POP CALLVALUE PUSH2 0x37A JUMPI DUP2 PUSH1 0x3 NOT CALLDATASIZE ADD SLT PUSH2 0x37A JUMPI MLOAD PUSH32 0x0 PUSH1 0x1 PUSH1 0x1 PUSH1 0xA0 SHL SUB AND DUP2 MSTORE PUSH1 0x20 SWAP1 RETURN JUMPDEST POP POP CALLVALUE PUSH2 0x37A JUMPI PUSH1 0x20 CALLDATASIZE PUSH1 0x3 NOT ADD SLT PUSH2 0x37A JUMPI PUSH1 0x20 SWAP2 PUSH1 0x1 PUSH1 0x1 PUSH1 0xA0 SHL SUB SWAP1 DUP3 SWAP1 DUP3 PUSH2 0x506 PUSH2 0x964 JUMP JUMPDEST AND DUP2 MSTORE DUP1 DUP6 MSTORE KECCAK256 SLOAD AND SWAP1 MLOAD SWAP1 DUP2 MSTORE RETURN JUMPDEST POP CALLVALUE PUSH2 0x349 JUMPI DUP2 PUSH1 0x3 NOT CALLDATASIZE ADD SLT PUSH2 0x349 JUMPI PUSH2 0x52F PUSH2 0x964 JUMP JUMPDEST SWAP2 PUSH1 0x24 DUP1 CALLDATALOAD SWAP3 DUP4 ISZERO PUSH2 0x8EC JUMPI PUSH1 0x1 PUSH1 0x1 PUSH1 0xA0 SHL SUB DUP6 DUP2 AND PUSH2 0x551 DUP2 ISZERO ISZERO PUSH2 0x97A JUMP JUMPDEST DUP5 MLOAD PUSH4 0x23B872DD PUSH1 0xE0 SHL DUP2 MSTORE CALLER DUP5 DUP3 ADD SWAP1 DUP2 MSTORE ADDRESS PUSH1 0x20 DUP3 DUP2 ADD SWAP2 SWAP1 SWAP2 MSTORE PUSH1 0x40 DUP3 ADD DUP10 SWAP1 MSTORE SWAP6 SWAP2 SWAP1 DUP7 SWAP1 DUP3 SWAP1 DUP2 SWAP1 PUSH1 0x60 ADD SUB DUP2 DUP14 DUP8 GAS CALL SWAP1 DUP2 ISZERO PUSH2 0x734 JUMPI DUP11 SWAP2 PUSH2 0x8CF JUMPI JUMPDEST POP ISZERO PUSH2 0x898 JUMPI DUP9 SWAP1 DUP4 PUSH32 0x0 AND DUP8 MLOAD PUSH4 0x6EB1769F PUSH1 0xE1 SHL DUP2 MSTORE ADDRESS DUP8 DUP3 ADD MSTORE DUP2 DUP4 DUP3 ADD MSTORE DUP8 DUP2 PUSH1 0x44 DUP2 DUP9 GAS STATICCALL SWAP1 DUP2 ISZERO PUSH2 0x810 JUMPI DUP5 SWAP2 PUSH2 0x867 JUMPI JUMPDEST POP DUP10 DUP2 LT PUSH2 0x7C1 JUMPI JUMPDEST POP DUP4 DUP4 MSTORE DUP3 DUP8 MSTORE DUP5 DUP9 DUP5 KECCAK256 SLOAD AND ISZERO PUSH2 0x73E JUMPI JUMPDEST DUP1 EXTCODESIZE ISZERO PUSH2 0x349 JUMPI DUP3 SWAP1 PUSH1 0x84 DUP10 MLOAD DUP1 SWAP6 DUP2 SWAP4 PUSH4 0x617BA037 PUSH1 0xE0 SHL DUP4 MSTORE DUP9 DUP12 DUP5 ADD MSTORE DUP14 DUP8 DUP5 ADD MSTORE ADDRESS PUSH1 0x44 DUP5 ADD MSTORE DUP2 PUSH1 0x64 DUP5 ADD MSTORE GAS CALL DUP1 ISZERO PUSH2 0x734 JUMPI PUSH2 0x706 JUMPI JUMPDEST POP POP DUP8 MSTORE DUP7 DUP4 MSTORE DUP4 DUP8 KECCAK256 SLOAD DUP5 MLOAD PUSH4 0xA9059CBB PUSH1 0xE0 SHL DUP2 MSTORE CALLER SWAP4 DUP2 ADD SWAP4 DUP5 MSTORE PUSH1 0x20 DUP5 ADD DUP8 SWAP1 MSTORE SWAP3 DUP5 SWAP3 DUP5 SWAP3 AND SWAP1 DUP3 SWAP1 DUP11 SWAP1 DUP3 SWAP1 PUSH1 0x40 ADD SUB SWAP3 GAS CALL SWAP2 DUP3 ISZERO PUSH2 0x6FC JUMPI PUSH32 0x8752A472E571A816AEA92EEC8DAE9BAF628E840F4929FBCC2D155E6233FF68A7 SWAP5 SWAP3 PUSH2 0x1F6 SWAP5 SWAP3 PUSH2 0x6C0 SWAP3 DUP10 SWAP3 PUSH2 0x6DF JUMPI JUMPDEST POP POP PUSH2 0xB7B JUMP JUMPDEST MLOAD PUSH1 0x1 PUSH1 0x1 PUSH1 0xA0 SHL SUB SWAP1 SWAP5 AND DUP5 MSTORE PUSH1 0x20 DUP5 ADD MSTORE CALLER SWAP3 SWAP1 DUP2 SWAP1 PUSH1 0x40 DUP3 ADD SWAP1 JUMP JUMPDEST PUSH2 0x6F5 SWAP3 POP DUP1 RETURNDATASIZE LT PUSH2 0x25A JUMPI PUSH2 0x24C DUP2 DUP4 PUSH2 0x9B6 JUMP JUMPDEST CODESIZE DUP1 PUSH2 0x6B9 JUMP JUMPDEST DUP4 MLOAD RETURNDATASIZE DUP9 DUP3 RETURNDATACOPY RETURNDATASIZE SWAP1 REVERT JUMPDEST PUSH8 0xFFFFFFFFFFFFFFFF DUP3 SWAP11 SWAP4 SWAP11 GT PUSH2 0x723 JUMPI POP DUP6 MSTORE SWAP7 DUP3 DUP5 PUSH2 0x646 JUMP JUMPDEST PUSH4 0x4E487B71 PUSH1 0xE0 SHL DUP4 MSTORE PUSH1 0x41 DUP6 MSTORE DUP3 REVERT JUMPDEST DUP8 MLOAD RETURNDATASIZE DUP13 DUP3 RETURNDATACOPY RETURNDATASIZE SWAP1 REVERT JUMPDEST DUP8 MLOAD PUSH4 0x35EA6A75 PUSH1 0xE0 SHL DUP2 MSTORE DUP7 DUP2 ADD DUP6 SWAP1 MSTORE PUSH2 0x1E0 SWAP1 DUP2 DUP2 DUP6 DUP2 DUP7 GAS STATICCALL SWAP2 DUP3 ISZERO PUSH2 0x7B7 JUMPI SWAP2 PUSH2 0x100 SWAP2 DUP9 SWAP4 DUP8 SWAP3 PUSH2 0x79A JUMPI JUMPDEST POP POP ADD MLOAD AND DUP5 DUP5 MSTORE DUP4 DUP9 MSTORE DUP9 DUP5 KECCAK256 SWAP1 PUSH12 0xFFFFFFFFFFFFFFFFFFFFFFFF PUSH1 0xA0 SHL DUP3 SLOAD AND OR SWAP1 SSTORE PUSH2 0x608 JUMP JUMPDEST PUSH2 0x7B0 SWAP3 POP DUP1 RETURNDATASIZE LT PUSH2 0x484 JUMPI PUSH2 0x475 DUP2 DUP4 PUSH2 0x9B6 JUMP JUMPDEST CODESIZE DUP1 PUSH2 0x770 JUMP JUMPDEST DUP11 MLOAD RETURNDATASIZE DUP8 DUP3 RETURNDATACOPY RETURNDATASIZE SWAP1 REVERT JUMPDEST PUSH2 0x81A JUMPI JUMPDEST DUP8 MLOAD PUSH4 0x95EA7B3 PUSH1 0xE0 SHL DUP2 MSTORE DUP7 DUP2 ADD DUP3 SWAP1 MSTORE PUSH1 0x0 NOT DUP4 DUP3 ADD MSTORE DUP8 DUP2 PUSH1 0x44 DUP2 DUP8 DUP10 GAS CALL DUP1 ISZERO PUSH2 0x810 JUMPI ISZERO PUSH2 0x5F5 JUMPI PUSH2 0x809 SWAP1 DUP9 RETURNDATASIZE DUP11 GT PUSH2 0x25A JUMPI PUSH2 0x24C DUP2 DUP4 PUSH2 0x9B6 JUMP JUMPDEST POP CODESIZE PUSH2 0x5F5 JUMP JUMPDEST DUP10 MLOAD RETURNDATASIZE DUP7 DUP3 RETURNDATACOPY RETURNDATASIZE SWAP1 REVERT JUMPDEST DUP8 MLOAD PUSH4 0x95EA7B3 PUSH1 0xE0 SHL DUP2 MSTORE DUP2 DUP8 DUP3 ADD MSTORE DUP4 DUP4 DUP3 ADD MSTORE DUP8 DUP2 PUSH1 0x44 DUP2 DUP8 DUP10 GAS CALL DUP1 ISZERO PUSH2 0x810 JUMPI PUSH2 0x84A JUMPI JUMPDEST POP PUSH2 0x7C6 JUMP JUMPDEST PUSH2 0x860 SWAP1 DUP9 RETURNDATASIZE DUP11 GT PUSH2 0x25A JUMPI PUSH2 0x24C DUP2 DUP4 PUSH2 0x9B6 JUMP JUMPDEST POP CODESIZE PUSH2 0x844 JUMP JUMPDEST SWAP1 POP DUP8 DUP2 DUP2 RETURNDATASIZE DUP4 GT PUSH2 0x891 JUMPI JUMPDEST PUSH2 0x87E DUP2 DUP4 PUSH2 0x9B6 JUMP JUMPDEST DUP2 ADD SUB SLT PUSH2 0x88D JUMPI MLOAD CODESIZE PUSH2 0x5EC JUMP JUMPDEST DUP4 DUP1 REVERT JUMPDEST POP RETURNDATASIZE PUSH2 0x874 JUMP JUMPDEST DUP4 PUSH1 0x13 PUSH1 0x64 SWAP3 DUP8 DUP10 MLOAD SWAP4 PUSH3 0x461BCD PUSH1 0xE5 SHL DUP6 MSTORE DUP5 ADD MSTORE DUP3 ADD MSTORE PUSH19 0x151C985B9CD9995C919C9BDB4819985A5B1959 PUSH1 0x6A SHL PUSH1 0x44 DUP3 ADD MSTORE REVERT JUMPDEST PUSH2 0x8E6 SWAP2 POP DUP7 RETURNDATASIZE DUP9 GT PUSH2 0x25A JUMPI PUSH2 0x24C DUP2 DUP4 PUSH2 0x9B6 JUMP JUMPDEST CODESIZE PUSH2 0x595 JUMP JUMPDEST PUSH1 0x1D PUSH1 0x64 SWAP3 PUSH1 0x20 DUP6 MLOAD SWAP4 PUSH3 0x461BCD PUSH1 0xE5 SHL DUP6 MSTORE DUP5 ADD MSTORE DUP3 ADD MSTORE PUSH32 0x416D6F756E74206D7573742062652067726561746572207468616E2030000000 PUSH1 0x44 DUP3 ADD MSTORE REVERT JUMPDEST DUP5 SWAP1 DUP5 CALLVALUE PUSH2 0x349 JUMPI PUSH1 0x20 CALLDATASIZE PUSH1 0x3 NOT ADD SLT PUSH2 0x349 JUMPI PUSH1 0x20 SWAP3 PUSH1 0x1 PUSH1 0x1 PUSH1 0xA0 SHL SUB SWAP2 SWAP1 DUP3 PUSH2 0x957 PUSH2 0x964 JUMP JUMPDEST AND DUP2 MSTORE DUP1 DUP6 MSTORE KECCAK256 SLOAD AND DUP2 MSTORE RETURN JUMPDEST PUSH1 0x4 CALLDATALOAD SWAP1 PUSH1 0x1 PUSH1 0x1 PUSH1 0xA0 SHL SUB DUP3 AND DUP3 SUB PUSH2 0x28D JUMPI JUMP JUMPDEST ISZERO PUSH2 0x981 JUMPI JUMP JUMPDEST PUSH1 0x40 MLOAD PUSH3 0x461BCD PUSH1 0xE5 SHL DUP2 MSTORE PUSH1 0x20 PUSH1 0x4 DUP3 ADD MSTORE PUSH1 0xD PUSH1 0x24 DUP3 ADD MSTORE PUSH13 0x24B73B30B634B2103A37B5B2B7 PUSH1 0x99 SHL PUSH1 0x44 DUP3 ADD MSTORE PUSH1 0x64 SWAP1 REVERT JUMPDEST SWAP1 PUSH1 0x1F DUP1 NOT SWAP2 ADD AND DUP2 ADD SWAP1 DUP2 LT PUSH8 0xFFFFFFFFFFFFFFFF DUP3 GT OR PUSH2 0x9D8 JUMPI PUSH1 0x40 MSTORE JUMP JUMPDEST PUSH4 0x4E487B71 PUSH1 0xE0 SHL PUSH1 0x0 MSTORE PUSH1 0x41 PUSH1 0x4 MSTORE PUSH1 0x24 PUSH1 0x0 REVERT JUMPDEST SWAP1 DUP2 PUSH1 0x20 SWAP2 SUB SLT PUSH2 0x28D JUMPI MLOAD DUP1 ISZERO ISZERO DUP2 SUB PUSH2 0x28D JUMPI SWAP1 JUMP JUMPDEST MLOAD SWAP1 PUSH1 0x1 PUSH1 0x1 PUSH1 0x80 SHL SUB DUP3 AND DUP3 SUB PUSH2 0x28D JUMPI JUMP JUMPDEST MLOAD SWAP1 PUSH1 0x1 PUSH1 0x1 PUSH1 0xA0 SHL SUB DUP3 AND DUP3 SUB PUSH2 0x28D JUMPI JUMP JUMPDEST PUSH2 0x1E0 SWAP2 DUP2 SWAP1 SUB DUP3 DUP2 SLT PUSH2 0x28D JUMPI PUSH1 0x40 MLOAD SWAP3 DUP4 ADD SWAP1 PUSH8 0xFFFFFFFFFFFFFFFF SWAP1 DUP5 DUP4 LT DUP3 DUP5 GT OR PUSH2 0x9D8 JUMPI PUSH1 0x20 SGT PUSH2 0x28D JUMPI PUSH2 0x200 DUP5 ADD SWAP1 DUP2 GT DUP3 DUP3 LT OR PUSH2 0x9D8 JUMPI PUSH1 0x40 MSTORE DUP2 MLOAD DUP2 MSTORE DUP3 MSTORE PUSH2 0xA84 PUSH1 0x20 DUP3 ADD PUSH2 0xA06 JUMP JUMPDEST PUSH1 0x20 DUP4 ADD MSTORE PUSH2 0xA95 PUSH1 0x40 DUP3 ADD PUSH2 0xA06 JUMP JUMPDEST PUSH1 0x40 DUP4 ADD MSTORE PUSH2 0xAA6 PUSH1 0x60 DUP3 ADD PUSH2 0xA06 JUMP JUMPDEST PUSH1 0x60 DUP4 ADD MSTORE PUSH2 0xAB7 PUSH1 0x80 DUP3 ADD PUSH2 0xA06 JUMP JUMPDEST PUSH1 0x80 DUP4 ADD MSTORE PUSH2 0xAC8 PUSH1 0xA0 DUP3 ADD PUSH2 0xA06 JUMP JUMPDEST PUSH1 0xA0 DUP4 ADD MSTORE PUSH1 0xC0 DUP2 ADD MLOAD PUSH5 0xFFFFFFFFFF DUP2 AND DUP2 SUB PUSH2 0x28D JUMPI PUSH1 0xC0 DUP4 ADD MSTORE PUSH1 0xE0 DUP2 ADD MLOAD PUSH2 0xFFFF DUP2 AND DUP2 SUB PUSH2 0x28D JUMPI PUSH1 0xE0 DUP4 ADD MSTORE PUSH2 0x100 PUSH2 0xB08 DUP2 DUP4 ADD PUSH2 0xA1A JUMP JUMPDEST SWAP1 DUP4 ADD MSTORE PUSH2 0x120 PUSH2 0xB1A DUP2 DUP4 ADD PUSH2 0xA1A JUMP JUMPDEST SWAP1 DUP4 ADD MSTORE PUSH2 0x140 PUSH2 0xB2C DUP2 DUP4 ADD PUSH2 0xA1A JUMP JUMPDEST SWAP1 DUP4 ADD MSTORE PUSH2 0x160 PUSH2 0xB3E DUP2 DUP4 ADD PUSH2 0xA1A JUMP JUMPDEST SWAP1 DUP4 ADD MSTORE PUSH2 0x180 PUSH2 0xB50 DUP2 DUP4 ADD PUSH2 0xA06 JUMP JUMPDEST SWAP1 DUP4 ADD MSTORE PUSH2 0x1A0 PUSH2 0xB62 DUP2 DUP4 ADD PUSH2 0xA06 JUMP JUMPDEST SWAP1 DUP4 ADD MSTORE PUSH2 0xB74 PUSH2 0x1C0 DUP1 SWAP3 ADD PUSH2 0xA06 JUMP JUMPDEST SWAP1 DUP3 ADD MSTORE SWAP1 JUMP JUMPDEST ISZERO PUSH2 0xB82 JUMPI JUMP JUMPDEST PUSH1 0x40 MLOAD PUSH3 0x461BCD PUSH1 0xE5 SHL DUP2 MSTORE PUSH1 0x20 PUSH1 0x4 DUP3 ADD MSTORE PUSH1 0x16 PUSH1 0x24 DUP3 ADD MSTORE PUSH22 0x18551BDAD95B881D1C985B9CD9995C8819985A5B1959 PUSH1 0x52 SHL PUSH1 0x44 DUP3 ADD MSTORE PUSH1 0x64 SWAP1 REVERT JUMPDEST PUSH1 0x1 DUP1 PUSH1 0xA0 SHL SUB DUP1 PUSH1 0x0 SWAP3 AND DUP3 MSTORE DUP2 PUSH1 0x20 MSTORE PUSH1 0x40 DUP3 KECCAK256 SLOAD AND DUP1 ISZERO PUSH2 0xC4D JUMPI PUSH1 0x20 PUSH1 0x24 SWAP2 PUSH1 0x40 MLOAD SWAP3 DUP4 DUP1 SWAP3 PUSH4 0x70A08231 PUSH1 0xE0 SHL DUP3 MSTORE ADDRESS PUSH1 0x4 DUP4 ADD MSTORE GAS STATICCALL SWAP2 DUP3 ISZERO PUSH2 0xC41 JUMPI DUP1 SWAP3 PUSH2 0xC0E JUMPI POP POP SWAP1 JUMP JUMPDEST SWAP1 SWAP2 POP PUSH1 0x20 DUP3 RETURNDATASIZE DUP3 GT PUSH2 0xC39 JUMPI JUMPDEST DUP2 PUSH2 0xC29 PUSH1 0x20 SWAP4 DUP4 PUSH2 0x9B6 JUMP JUMPDEST DUP2 ADD SUB SLT PUSH2 0xC36 JUMPI POP MLOAD SWAP1 JUMP JUMPDEST DUP1 REVERT JUMPDEST RETURNDATASIZE SWAP2 POP PUSH2 0xC1C JUMP JUMPDEST PUSH1 0x40 MLOAD SWAP1 RETURNDATASIZE SWAP1 DUP3 RETURNDATACOPY RETURNDATASIZE SWAP1 REVERT JUMPDEST POP SWAP1 JUMP INVALID LOG2 PUSH5 0x6970667358 0x22 SLT KECCAK256 0x25 0xFC CALLCODE 0xB8 MLOAD SSTORE 0xAD PUSH17 0x320F819A3ACE39BA0D0CE689B65AA79F6A 0xE0 SELFDESTRUCT 0xF7 TIMESTAMP PREVRANDAO RETURNDATACOPY 0xE9 PUSH5 0x736F6C6343 STOP ADDMOD EQ STOP CALLER "},"methodIdentifiers":{"aTokens(address)":"3e108ad9","aavePool()":"a03e4bc3","addressesProvider()":"c72c4d10","deposit(address,uint256)":"47e7ef24","getAPY(address)":"c4f9870b","getATokenAddress(address)":"711cc005","getTotalBalance(address)":"d3d38193","withdraw(address,uint256)":"f3fef3a3"}}}}}