{"contracts/Strategies/CurveStrategy.sol":{"CurveStrategy":{"abi":[{"inputs":[],"stateMutability":"nonpayable","type":"constructor"},{"inputs":[{"internalType":"address","name":"token","type":"address"},{"internalType":"address","name":"curvePool","type":"address"},{"internalType":"address","name":"curveLPToken","type":"address"},{"internalType":"int128","name":"index","type":"int128"}],"name":"addSupportedPool","outputs":[],"stateMutability":"nonpayable","type":"function"},{"inputs":[{"internalType":"address","name":"token","type":"address"},{"internalType":"uint256","name":"amount","type":"uint256"}],"name":"deposit","outputs":[],"stateMutability":"nonpayable","type":"function"},{"inputs":[{"internalType":"address","name":"token","type":"address"}],"name":"getAPY","outputs":[{"internalType":"uint256","name":"","type":"uint256"}],"stateMutability":"view","type":"function"},{"inputs":[{"internalType":"address","name":"token","type":"address"}],"name":"getATokenAddress","outputs":[{"internalType":"address","name":"","type":"address"}],"stateMutability":"view","type":"function"},{"inputs":[{"internalType":"address","name":"token","type":"address"}],"name":"getTotalBalance","outputs":[{"internalType":"uint256","name":"","type":"uint256"}],"stateMutability":"view","type":"function"},{"inputs":[],"name":"owner","outputs":[{"internalType":"address","name":"","type":"address"}],"stateMutability":"view","type":"function"},{"inputs":[{"internalType":"address","name":"","type":"address"}],"name":"tokenToAssetIndex","outputs":[{"internalType":"int128","name":"","type":"int128"}],"stateMutability":"view","type":"function"},{"inputs":[{"internalType":"address","name":"","type":"address"}],"name":"tokenToCurveLPToken","outputs":[{"internalType":"address","name":"","type":"address"}],"stateMutability":"view","type":"function"},{"inputs":[{"internalType":"address","name":"","type":"address"}],"name":"tokenToCurvePool","outputs":[{"internalType":"address","name":"","type":"address"}],"stateMutability":"view","type":"function"},{"inputs":[{"internalType":"address","name":"token","type":"address"},{"internalType":"uint256","name":"amount","type":"uint256"}],"name":"withdraw","outputs":[],"stateMutability":"nonpayable","type":"function"}],"evm":{"bytecode":{"linkReferences":{},"object":"6080806040523461002857600080546001600160a01b031916331790556109b2908161002e8239f35b600080fdfe6080604081815260048036101561001557600080fd5b600092833560e01c90816347e7ef241461057c57508063711cc005146102c3578063899cfa29146105415780638da5cb5b14610519578063c4f9870b146104ec578063d0458f68146104b1578063d3d3819314610421578063eaa3f24414610302578063ec717f9a146102c35763f3fef3a31461009157600080fd5b346101fb57816003193601126101fb576100a961072d565b9160243560018060a01b038094169283865260209460018652808488205416906002875284882054166003875284882054600f0b90821515806102ba575b1561028257876024918751928380926370a0823160e01b825230898301525afa908115610278579085918a91610242575b50106101ff57908791813b156101fb5782916064839288519485938492630d2680e960e11b84528a8a85015260248401528160448401525af180156101f1579087949392916101d4575b50845163a9059cbb60e01b815233928101928352602083019390935291948592918390036040019183915af19081156101cb575061019e578280f35b816101bd92903d106101c4575b6101b581836107b9565b8101906107db565b5038808280f35b503d6101ab565b513d85823e3d90fd5b6101e09192945061078f565b6101ed5784918638610162565b8580fd5b85513d84823e3d90fd5b8280fd5b845162461bcd60e51b8152808401889052601760248201527f496e73756666696369656e74204c502062616c616e63650000000000000000006044820152606490fd5b809250898092503d8311610271575b61025b81836107b9565b8101031261026c5784905138610118565b600080fd5b503d610251565b86513d8b823e3d90fd5b855162461bcd60e51b81528085018990526012602482015271125b9d985b1a590810dd5c9d99481c1bdbdb60721b6044820152606490fd5b508015156100e7565b5050346102fe5760203660031901126102fe576020916001600160a01b03908290826102ed61072d565b168152600285522054169051908152f35b5080fd5b5090346101fb5760803660031901126101fb5761031d61072d565b6024356001600160a01b03818116929183900361026c576044359181831680930361026c576064359586600f0b870361041d578288541633036103e95784156103b7575016855260016020528285206bffffffffffffffffffffffff60a01b928382541617905560026020528285209182541617905560036020528220906001600160801b0319825416906001600160801b031617905580f35b606490602087519162461bcd60e51b8352820152600c60248201526b125b9d985b1a59081c1bdbdb60a21b6044820152fd5b606490602087519162461bcd60e51b8352820152600e60248201526d139bdd08185d5d1a1bdc9a5e995960921b6044820152fd5b8780fd5b509190346102fe57602092836003193601126101fb57836001600160a01b0361044861072d565b169160248451809481936370a0823160e01b835230908301525afa9283156104a65792610477575b5051908152f35b9091508281813d831161049f575b61048f81836107b9565b8101031261026c57519038610470565b503d610485565b8251903d90823e3d90fd5b5050346102fe5760203660031901126102fe576020916001600160a01b03908290826104db61072d565b168152600185522054169051908152f35b5050346102fe5760203660031901126102fe5760209061051261050d61072d565b6107f3565b9051908152f35b5050346102fe57816003193601126102fe57905490516001600160a01b039091168152602090f35b5050346102fe5760203660031901126102fe5760209181906001600160a01b0361056961072d565b168152600384522054600f0b9051908152f35b849391503461072957816003193601126107295761059861072d565b6024359182156106e8575060018060a01b0380911691828652806106066001936020928391868352888b205416966105d1881515610743565b885163095ea7b360e01b81526001600160a01b038916818c01908152602081019390935293849283918d918391604090910190565b03925af180156106de576106c1575b5084519181830183811067ffffffffffffffff8211176106ae5786528252833b156106aa5794918693918551968794634e7d6a3160e11b8652850186905b84821061069157505050505081836044928160248401525af1908115610688575061067c575080f35b6106859061078f565b80f35b513d84823e3d90fd5b835181528a975089965092820192908401908201610653565b8680fd5b634e487b7160e01b895260418852602489fd5b6106d790823d84116101c4576101b581836107b9565b5087610615565b86513d8a823e3d90fd5b62461bcd60e51b8152602085820181905260248201527f416d6f756e74206d7573742062652067726561746572207468616e207a65726f6044820152606490fd5b8380fd5b600435906001600160a01b038216820361026c57565b1561074a57565b60405162461bcd60e51b815260206004820152601c60248201527f4e6f20437572766520706f6f6c20666f72207468697320746f6b656e000000006044820152606490fd5b67ffffffffffffffff81116107a357604052565b634e487b7160e01b600052604160045260246000fd5b90601f8019910116810190811067ffffffffffffffff8211176107a357604052565b9081602091031261026c5751801515810361026c5790565b6001600160a01b0390811660008181526001602090815260408083205490941693919290610822851515610743565b8251630176f71760e71b8152918183600481895afa92831561097257859361093e575b50906044918552600381528084862054600f0b9685519384809263cc2b27d760e01b8252670de0b6b3a76400009a8b600484015260248301525afa93841561093557508493610905575b505081156108fe57838102908082048514901517156108ea570490670de0b6b3a763ffff1982019182116108d65761016d918281029281840414901517156108d657500490565b634e487b7160e01b81526011600452602490fd5b634e487b7160e01b83526011600452602483fd5b5050905090565b9080929350813d831161092e575b61091d81836107b9565b810103126101fb575190388061088f565b503d610913565b513d86823e3d90fd5b9092508181813d831161096b575b61095681836107b9565b810103126109675751916044610845565b8480fd5b503d61094c565b84513d87823e3d90fdfea2646970667358221220bab3a6cb93dfc7943c6d898617d593341fd19e447d58bd4238e432d4eed365cd64736f6c63430008140033","opcodes":"PUSH1 0x80 DUP1 PUSH1 0x40 MSTORE CALLVALUE PUSH2 0x28 JUMPI PUSH1 0x0 DUP1 SLOAD PUSH1 0x1 PUSH1 0x1 PUSH1 0xA0 SHL SUB NOT AND CALLER OR SWAP1 SSTORE PUSH2 0x9B2 SWAP1 DUP2 PUSH2 0x2E DUP3 CODECOPY RETURN JUMPDEST PUSH1 0x0 DUP1 REVERT INVALID PUSH1 0x80 PUSH1 0x40 DUP2 DUP2 MSTORE PUSH1 0x4 DUP1 CALLDATASIZE LT ISZERO PUSH2 0x15 JUMPI PUSH1 0x0 DUP1 REVERT JUMPDEST PUSH1 0x0 SWAP3 DUP4 CALLDATALOAD PUSH1 0xE0 SHR SWAP1 DUP2 PUSH4 0x47E7EF24 EQ PUSH2 0x57C JUMPI POP DUP1 PUSH4 0x711CC005 EQ PUSH2 0x2C3 JUMPI DUP1 PUSH4 0x899CFA29 EQ PUSH2 0x541 JUMPI DUP1 PUSH4 0x8DA5CB5B EQ PUSH2 0x519 JUMPI DUP1 PUSH4 0xC4F9870B EQ PUSH2 0x4EC JUMPI DUP1 PUSH4 0xD0458F68 EQ PUSH2 0x4B1 JUMPI DUP1 PUSH4 0xD3D38193 EQ PUSH2 0x421 JUMPI DUP1 PUSH4 0xEAA3F244 EQ PUSH2 0x302 JUMPI DUP1 PUSH4 0xEC717F9A EQ PUSH2 0x2C3 JUMPI PUSH4 0xF3FEF3A3 EQ PUSH2 0x91 JUMPI PUSH1 0x0 DUP1 REVERT JUMPDEST CALLVALUE PUSH2 0x1FB JUMPI DUP2 PUSH1 0x3 NOT CALLDATASIZE ADD SLT PUSH2 0x1FB JUMPI PUSH2 0xA9 PUSH2 0x72D JUMP JUMPDEST SWAP2 PUSH1 0x24 CALLDATALOAD PUSH1 0x1 DUP1 PUSH1 0xA0 SHL SUB DUP1 SWAP5 AND SWAP3 DUP4 DUP7 MSTORE PUSH1 0x20 SWAP5 PUSH1 0x1 DUP7 MSTORE DUP1 DUP5 DUP9 KECCAK256 SLOAD AND SWAP1 PUSH1 0x2 DUP8 MSTORE DUP5 DUP9 KECCAK256 SLOAD AND PUSH1 0x3 DUP8 MSTORE DUP5 DUP9 KECCAK256 SLOAD PUSH1 0xF SIGNEXTEND SWAP1 DUP3 ISZERO ISZERO DUP1 PUSH2 0x2BA JUMPI JUMPDEST ISZERO PUSH2 0x282 JUMPI DUP8 PUSH1 0x24 SWAP2 DUP8 MLOAD SWAP3 DUP4 DUP1 SWAP3 PUSH4 0x70A08231 PUSH1 0xE0 SHL DUP3 MSTORE ADDRESS DUP10 DUP4 ADD MSTORE GAS STATICCALL SWAP1 DUP2 ISZERO PUSH2 0x278 JUMPI SWAP1 DUP6 SWAP2 DUP11 SWAP2 PUSH2 0x242 JUMPI JUMPDEST POP LT PUSH2 0x1FF JUMPI SWAP1 DUP8 SWAP2 DUP2 EXTCODESIZE ISZERO PUSH2 0x1FB JUMPI DUP3 SWAP2 PUSH1 0x64 DUP4 SWAP3 DUP9 MLOAD SWAP5 DUP6 SWAP4 DUP5 SWAP3 PUSH4 0xD2680E9 PUSH1 0xE1 SHL DUP5 MSTORE DUP11 DUP11 DUP6 ADD MSTORE PUSH1 0x24 DUP5 ADD MSTORE DUP2 PUSH1 0x44 DUP5 ADD MSTORE GAS CALL DUP1 ISZERO PUSH2 0x1F1 JUMPI SWAP1 DUP8 SWAP5 SWAP4 SWAP3 SWAP2 PUSH2 0x1D4 JUMPI JUMPDEST POP DUP5 MLOAD PUSH4 0xA9059CBB PUSH1 0xE0 SHL DUP2 MSTORE CALLER SWAP3 DUP2 ADD SWAP3 DUP4 MSTORE PUSH1 0x20 DUP4 ADD SWAP4 SWAP1 SWAP4 MSTORE SWAP2 SWAP5 DUP6 SWAP3 SWAP2 DUP4 SWAP1 SUB PUSH1 0x40 ADD SWAP2 DUP4 SWAP2 GAS CALL SWAP1 DUP2 ISZERO PUSH2 0x1CB JUMPI POP PUSH2 0x19E JUMPI DUP3 DUP1 RETURN JUMPDEST DUP2 PUSH2 0x1BD SWAP3 SWAP1 RETURNDATASIZE LT PUSH2 0x1C4 JUMPI JUMPDEST PUSH2 0x1B5 DUP2 DUP4 PUSH2 0x7B9 JUMP JUMPDEST DUP2 ADD SWAP1 PUSH2 0x7DB JUMP JUMPDEST POP CODESIZE DUP1 DUP3 DUP1 RETURN JUMPDEST POP RETURNDATASIZE PUSH2 0x1AB JUMP JUMPDEST MLOAD RETURNDATASIZE DUP6 DUP3 RETURNDATACOPY RETURNDATASIZE SWAP1 REVERT JUMPDEST PUSH2 0x1E0 SWAP2 SWAP3 SWAP5 POP PUSH2 0x78F JUMP JUMPDEST PUSH2 0x1ED JUMPI DUP5 SWAP2 DUP7 CODESIZE PUSH2 0x162 JUMP JUMPDEST DUP6 DUP1 REVERT JUMPDEST DUP6 MLOAD RETURNDATASIZE DUP5 DUP3 RETURNDATACOPY RETURNDATASIZE SWAP1 REVERT JUMPDEST DUP3 DUP1 REVERT JUMPDEST DUP5 MLOAD PUSH3 0x461BCD PUSH1 0xE5 SHL DUP2 MSTORE DUP1 DUP5 ADD DUP9 SWAP1 MSTORE PUSH1 0x17 PUSH1 0x24 DUP3 ADD MSTORE PUSH32 0x496E73756666696369656E74204C502062616C616E6365000000000000000000 PUSH1 0x44 DUP3 ADD MSTORE PUSH1 0x64 SWAP1 REVERT JUMPDEST DUP1 SWAP3 POP DUP10 DUP1 SWAP3 POP RETURNDATASIZE DUP4 GT PUSH2 0x271 JUMPI JUMPDEST PUSH2 0x25B DUP2 DUP4 PUSH2 0x7B9 JUMP JUMPDEST DUP2 ADD SUB SLT PUSH2 0x26C JUMPI DUP5 SWAP1 MLOAD CODESIZE PUSH2 0x118 JUMP JUMPDEST PUSH1 0x0 DUP1 REVERT JUMPDEST POP RETURNDATASIZE PUSH2 0x251 JUMP JUMPDEST DUP7 MLOAD RETURNDATASIZE DUP12 DUP3 RETURNDATACOPY RETURNDATASIZE SWAP1 REVERT JUMPDEST DUP6 MLOAD PUSH3 0x461BCD PUSH1 0xE5 SHL DUP2 MSTORE DUP1 DUP6 ADD DUP10 SWAP1 MSTORE PUSH1 0x12 PUSH1 0x24 DUP3 ADD MSTORE PUSH18 0x125B9D985B1A590810DD5C9D99481C1BDBDB PUSH1 0x72 SHL PUSH1 0x44 DUP3 ADD MSTORE PUSH1 0x64 SWAP1 REVERT JUMPDEST POP DUP1 ISZERO ISZERO PUSH2 0xE7 JUMP JUMPDEST POP POP CALLVALUE PUSH2 0x2FE JUMPI PUSH1 0x20 CALLDATASIZE PUSH1 0x3 NOT ADD SLT PUSH2 0x2FE JUMPI PUSH1 0x20 SWAP2 PUSH1 0x1 PUSH1 0x1 PUSH1 0xA0 SHL SUB SWAP1 DUP3 SWAP1 DUP3 PUSH2 0x2ED PUSH2 0x72D JUMP JUMPDEST AND DUP2 MSTORE PUSH1 0x2 DUP6 MSTORE KECCAK256 SLOAD AND SWAP1 MLOAD SWAP1 DUP2 MSTORE RETURN JUMPDEST POP DUP1 REVERT JUMPDEST POP SWAP1 CALLVALUE PUSH2 0x1FB JUMPI PUSH1 0x80 CALLDATASIZE PUSH1 0x3 NOT ADD SLT PUSH2 0x1FB JUMPI PUSH2 0x31D PUSH2 0x72D JUMP JUMPDEST PUSH1 0x24 CALLDATALOAD PUSH1 0x1 PUSH1 0x1 PUSH1 0xA0 SHL SUB DUP2 DUP2 AND SWAP3 SWAP2 DUP4 SWAP1 SUB PUSH2 0x26C JUMPI PUSH1 0x44 CALLDATALOAD SWAP2 DUP2 DUP4 AND DUP1 SWAP4 SUB PUSH2 0x26C JUMPI PUSH1 0x64 CALLDATALOAD SWAP6 DUP7 PUSH1 0xF SIGNEXTEND DUP8 SUB PUSH2 0x41D JUMPI DUP3 DUP9 SLOAD AND CALLER SUB PUSH2 0x3E9 JUMPI DUP5 ISZERO PUSH2 0x3B7 JUMPI POP AND DUP6 MSTORE PUSH1 0x1 PUSH1 0x20 MSTORE DUP3 DUP6 KECCAK256 PUSH12 0xFFFFFFFFFFFFFFFFFFFFFFFF PUSH1 0xA0 SHL SWAP3 DUP4 DUP3 SLOAD AND OR SWAP1 SSTORE PUSH1 0x2 PUSH1 0x20 MSTORE DUP3 DUP6 KECCAK256 SWAP2 DUP3 SLOAD AND OR SWAP1 SSTORE PUSH1 0x3 PUSH1 0x20 MSTORE DUP3 KECCAK256 SWAP1 PUSH1 0x1 PUSH1 0x1 PUSH1 0x80 SHL SUB NOT DUP3 SLOAD AND SWAP1 PUSH1 0x1 PUSH1 0x1 PUSH1 0x80 SHL SUB AND OR SWAP1 SSTORE DUP1 RETURN JUMPDEST PUSH1 0x64 SWAP1 PUSH1 0x20 DUP8 MLOAD SWAP2 PUSH3 0x461BCD PUSH1 0xE5 SHL DUP4 MSTORE DUP3 ADD MSTORE PUSH1 0xC PUSH1 0x24 DUP3 ADD MSTORE PUSH12 0x125B9D985B1A59081C1BDBDB PUSH1 0xA2 SHL PUSH1 0x44 DUP3 ADD MSTORE REVERT JUMPDEST PUSH1 0x64 SWAP1 PUSH1 0x20 DUP8 MLOAD SWAP2 PUSH3 0x461BCD PUSH1 0xE5 SHL DUP4 MSTORE DUP3 ADD MSTORE PUSH1 0xE PUSH1 0x24 DUP3 ADD MSTORE PUSH14 0x139BDD08185D5D1A1BDC9A5E9959 PUSH1 0x92 SHL PUSH1 0x44 DUP3 ADD MSTORE REVERT JUMPDEST DUP8 DUP1 REVERT JUMPDEST POP SWAP2 SWAP1 CALLVALUE PUSH2 0x2FE JUMPI PUSH1 0x20 SWAP3 DUP4 PUSH1 0x3 NOT CALLDATASIZE ADD SLT PUSH2 0x1FB JUMPI DUP4 PUSH1 0x1 PUSH1 0x1 PUSH1 0xA0 SHL SUB PUSH2 0x448 PUSH2 0x72D JUMP JUMPDEST AND SWAP2 PUSH1 0x24 DUP5 MLOAD DUP1 SWAP5 DUP2 SWAP4 PUSH4 0x70A08231 PUSH1 0xE0 SHL DUP4 MSTORE ADDRESS SWAP1 DUP4 ADD MSTORE GAS STATICCALL SWAP3 DUP4 ISZERO PUSH2 0x4A6 JUMPI SWAP3 PUSH2 0x477 JUMPI JUMPDEST POP MLOAD SWAP1 DUP2 MSTORE RETURN JUMPDEST SWAP1 SWAP2 POP DUP3 DUP2 DUP2 RETURNDATASIZE DUP4 GT PUSH2 0x49F JUMPI JUMPDEST PUSH2 0x48F DUP2 DUP4 PUSH2 0x7B9 JUMP JUMPDEST DUP2 ADD SUB SLT PUSH2 0x26C JUMPI MLOAD SWAP1 CODESIZE PUSH2 0x470 JUMP JUMPDEST POP RETURNDATASIZE PUSH2 0x485 JUMP JUMPDEST DUP3 MLOAD SWAP1 RETURNDATASIZE SWAP1 DUP3 RETURNDATACOPY RETURNDATASIZE SWAP1 REVERT JUMPDEST POP POP CALLVALUE PUSH2 0x2FE JUMPI PUSH1 0x20 CALLDATASIZE PUSH1 0x3 NOT ADD SLT PUSH2 0x2FE JUMPI PUSH1 0x20 SWAP2 PUSH1 0x1 PUSH1 0x1 PUSH1 0xA0 SHL SUB SWAP1 DUP3 SWAP1 DUP3 PUSH2 0x4DB PUSH2 0x72D JUMP JUMPDEST AND DUP2 MSTORE PUSH1 0x1 DUP6 MSTORE KECCAK256 SLOAD AND SWAP1 MLOAD SWAP1 DUP2 MSTORE RETURN JUMPDEST POP POP CALLVALUE PUSH2 0x2FE JUMPI PUSH1 0x20 CALLDATASIZE PUSH1 0x3 NOT ADD SLT PUSH2 0x2FE JUMPI PUSH1 0x20 SWAP1 PUSH2 0x512 PUSH2 0x50D PUSH2 0x72D JUMP JUMPDEST PUSH2 0x7F3 JUMP JUMPDEST SWAP1 MLOAD SWAP1 DUP2 MSTORE RETURN JUMPDEST POP POP CALLVALUE PUSH2 0x2FE JUMPI DUP2 PUSH1 0x3 NOT CALLDATASIZE ADD SLT PUSH2 0x2FE JUMPI SWAP1 SLOAD SWAP1 MLOAD PUSH1 0x1 PUSH1 0x1 PUSH1 0xA0 SHL SUB SWAP1 SWAP2 AND DUP2 MSTORE PUSH1 0x20 SWAP1 RETURN JUMPDEST POP POP CALLVALUE PUSH2 0x2FE JUMPI PUSH1 0x20 CALLDATASIZE PUSH1 0x3 NOT ADD SLT PUSH2 0x2FE JUMPI PUSH1 0x20 SWAP2 DUP2 SWAP1 PUSH1 0x1 PUSH1 0x1 PUSH1 0xA0 SHL SUB PUSH2 0x569 PUSH2 0x72D JUMP JUMPDEST AND DUP2 MSTORE PUSH1 0x3 DUP5 MSTORE KECCAK256 SLOAD PUSH1 0xF SIGNEXTEND SWAP1 MLOAD SWAP1 DUP2 MSTORE RETURN JUMPDEST DUP5 SWAP4 SWAP2 POP CALLVALUE PUSH2 0x729 JUMPI DUP2 PUSH1 0x3 NOT CALLDATASIZE ADD SLT PUSH2 0x729 JUMPI PUSH2 0x598 PUSH2 0x72D JUMP JUMPDEST PUSH1 0x24 CALLDATALOAD SWAP2 DUP3 ISZERO PUSH2 0x6E8 JUMPI POP PUSH1 0x1 DUP1 PUSH1 0xA0 SHL SUB DUP1 SWAP2 AND SWAP2 DUP3 DUP7 MSTORE DUP1 PUSH2 0x606 PUSH1 0x1 SWAP4 PUSH1 0x20 SWAP3 DUP4 SWAP2 DUP7 DUP4 MSTORE DUP9 DUP12 KECCAK256 SLOAD AND SWAP7 PUSH2 0x5D1 DUP9 ISZERO ISZERO PUSH2 0x743 JUMP JUMPDEST DUP9 MLOAD PUSH4 0x95EA7B3 PUSH1 0xE0 SHL DUP2 MSTORE PUSH1 0x1 PUSH1 0x1 PUSH1 0xA0 SHL SUB DUP10 AND DUP2 DUP13 ADD SWAP1 DUP2 MSTORE PUSH1 0x20 DUP2 ADD SWAP4 SWAP1 SWAP4 MSTORE SWAP4 DUP5 SWAP3 DUP4 SWAP2 DUP14 SWAP2 DUP4 SWAP2 PUSH1 0x40 SWAP1 SWAP2 ADD SWAP1 JUMP JUMPDEST SUB SWAP3 GAS CALL DUP1 ISZERO PUSH2 0x6DE JUMPI PUSH2 0x6C1 JUMPI JUMPDEST POP DUP5 MLOAD SWAP2 DUP2 DUP4 ADD DUP4 DUP2 LT PUSH8 0xFFFFFFFFFFFFFFFF DUP3 GT OR PUSH2 0x6AE JUMPI DUP7 MSTORE DUP3 MSTORE DUP4 EXTCODESIZE ISZERO PUSH2 0x6AA JUMPI SWAP5 SWAP2 DUP7 SWAP4 SWAP2 DUP6 MLOAD SWAP7 DUP8 SWAP5 PUSH4 0x4E7D6A31 PUSH1 0xE1 SHL DUP7 MSTORE DUP6 ADD DUP7 SWAP1 JUMPDEST DUP5 DUP3 LT PUSH2 0x691 JUMPI POP POP POP POP POP DUP2 DUP4 PUSH1 0x44 SWAP3 DUP2 PUSH1 0x24 DUP5 ADD MSTORE GAS CALL SWAP1 DUP2 ISZERO PUSH2 0x688 JUMPI POP PUSH2 0x67C JUMPI POP DUP1 RETURN JUMPDEST PUSH2 0x685 SWAP1 PUSH2 0x78F JUMP JUMPDEST DUP1 RETURN JUMPDEST MLOAD RETURNDATASIZE DUP5 DUP3 RETURNDATACOPY RETURNDATASIZE SWAP1 REVERT JUMPDEST DUP4 MLOAD DUP2 MSTORE DUP11 SWAP8 POP DUP10 SWAP7 POP SWAP3 DUP3 ADD SWAP3 SWAP1 DUP5 ADD SWAP1 DUP3 ADD PUSH2 0x653 JUMP JUMPDEST DUP7 DUP1 REVERT JUMPDEST PUSH4 0x4E487B71 PUSH1 0xE0 SHL DUP10 MSTORE PUSH1 0x41 DUP9 MSTORE PUSH1 0x24 DUP10 REVERT JUMPDEST PUSH2 0x6D7 SWAP1 DUP3 RETURNDATASIZE DUP5 GT PUSH2 0x1C4 JUMPI PUSH2 0x1B5 DUP2 DUP4 PUSH2 0x7B9 JUMP JUMPDEST POP DUP8 PUSH2 0x615 JUMP JUMPDEST DUP7 MLOAD RETURNDATASIZE DUP11 DUP3 RETURNDATACOPY RETURNDATASIZE SWAP1 REVERT JUMPDEST PUSH3 0x461BCD PUSH1 0xE5 SHL DUP2 MSTORE PUSH1 0x20 DUP6 DUP3 ADD DUP2 SWAP1 MSTORE PUSH1 0x24 DUP3 ADD MSTORE PUSH32 0x416D6F756E74206D7573742062652067726561746572207468616E207A65726F PUSH1 0x44 DUP3 ADD MSTORE PUSH1 0x64 SWAP1 REVERT JUMPDEST DUP4 DUP1 REVERT JUMPDEST PUSH1 0x4 CALLDATALOAD SWAP1 PUSH1 0x1 PUSH1 0x1 PUSH1 0xA0 SHL SUB DUP3 AND DUP3 SUB PUSH2 0x26C JUMPI JUMP JUMPDEST ISZERO PUSH2 0x74A JUMPI JUMP JUMPDEST PUSH1 0x40 MLOAD PUSH3 0x461BCD PUSH1 0xE5 SHL DUP2 MSTORE PUSH1 0x20 PUSH1 0x4 DUP3 ADD MSTORE PUSH1 0x1C PUSH1 0x24 DUP3 ADD MSTORE PUSH32 0x4E6F20437572766520706F6F6C20666F72207468697320746F6B656E00000000 PUSH1 0x44 DUP3 ADD MSTORE PUSH1 0x64 SWAP1 REVERT JUMPDEST PUSH8 0xFFFFFFFFFFFFFFFF DUP2 GT PUSH2 0x7A3 JUMPI PUSH1 0x40 MSTORE JUMP JUMPDEST PUSH4 0x4E487B71 PUSH1 0xE0 SHL PUSH1 0x0 MSTORE PUSH1 0x41 PUSH1 0x4 MSTORE PUSH1 0x24 PUSH1 0x0 REVERT JUMPDEST SWAP1 PUSH1 0x1F DUP1 NOT SWAP2 ADD AND DUP2 ADD SWAP1 DUP2 LT PUSH8 0xFFFFFFFFFFFFFFFF DUP3 GT OR PUSH2 0x7A3 JUMPI PUSH1 0x40 MSTORE JUMP JUMPDEST SWAP1 DUP2 PUSH1 0x20 SWAP2 SUB SLT PUSH2 0x26C JUMPI MLOAD DUP1 ISZERO ISZERO DUP2 SUB PUSH2 0x26C JUMPI SWAP1 JUMP JUMPDEST PUSH1 0x1 PUSH1 0x1 PUSH1 0xA0 SHL SUB SWAP1 DUP2 AND PUSH1 0x0 DUP2 DUP2 MSTORE PUSH1 0x1 PUSH1 0x20 SWAP1 DUP2 MSTORE PUSH1 0x40 DUP1 DUP4 KECCAK256 SLOAD SWAP1 SWAP5 AND SWAP4 SWAP2 SWAP3 SWAP1 PUSH2 0x822 DUP6 ISZERO ISZERO PUSH2 0x743 JUMP JUMPDEST DUP3 MLOAD PUSH4 0x176F717 PUSH1 0xE7 SHL DUP2 MSTORE SWAP2 DUP2 DUP4 PUSH1 0x4 DUP2 DUP10 GAS STATICCALL SWAP3 DUP4 ISZERO PUSH2 0x972 JUMPI DUP6 SWAP4 PUSH2 0x93E JUMPI JUMPDEST POP SWAP1 PUSH1 0x44 SWAP2 DUP6 MSTORE PUSH1 0x3 DUP2 MSTORE DUP1 DUP5 DUP7 KECCAK256 SLOAD PUSH1 0xF SIGNEXTEND SWAP7 DUP6 MLOAD SWAP4 DUP5 DUP1 SWAP3 PUSH4 0xCC2B27D7 PUSH1 0xE0 SHL DUP3 MSTORE PUSH8 0xDE0B6B3A7640000 SWAP11 DUP12 PUSH1 0x4 DUP5 ADD MSTORE PUSH1 0x24 DUP4 ADD MSTORE GAS STATICCALL SWAP4 DUP5 ISZERO PUSH2 0x935 JUMPI POP DUP5 SWAP4 PUSH2 0x905 JUMPI JUMPDEST POP POP DUP2 ISZERO PUSH2 0x8FE JUMPI DUP4 DUP2 MUL SWAP1 DUP1 DUP3 DIV DUP6 EQ SWAP1 ISZERO OR ISZERO PUSH2 0x8EA JUMPI DIV SWAP1 PUSH8 0xDE0B6B3A763FFFF NOT DUP3 ADD SWAP2 DUP3 GT PUSH2 0x8D6 JUMPI PUSH2 0x16D SWAP2 DUP3 DUP2 MUL SWAP3 DUP2 DUP5 DIV EQ SWAP1 ISZERO OR ISZERO PUSH2 0x8D6 JUMPI POP DIV SWAP1 JUMP JUMPDEST PUSH4 0x4E487B71 PUSH1 0xE0 SHL DUP2 MSTORE PUSH1 0x11 PUSH1 0x4 MSTORE PUSH1 0x24 SWAP1 REVERT JUMPDEST PUSH4 0x4E487B71 PUSH1 0xE0 SHL DUP4 MSTORE PUSH1 0x11 PUSH1 0x4 MSTORE PUSH1 0x24 DUP4 REVERT JUMPDEST POP POP SWAP1 POP SWAP1 JUMP JUMPDEST SWAP1 DUP1 SWAP3 SWAP4 POP DUP2 RETURNDATASIZE DUP4 GT PUSH2 0x92E JUMPI JUMPDEST PUSH2 0x91D DUP2 DUP4 PUSH2 0x7B9 JUMP JUMPDEST DUP2 ADD SUB SLT PUSH2 0x1FB JUMPI MLOAD SWAP1 CODESIZE DUP1 PUSH2 0x88F JUMP JUMPDEST POP RETURNDATASIZE PUSH2 0x913 JUMP JUMPDEST MLOAD RETURNDATASIZE DUP7 DUP3 RETURNDATACOPY RETURNDATASIZE SWAP1 REVERT JUMPDEST SWAP1 SWAP3 POP DUP2 DUP2 DUP2 RETURNDATASIZE DUP4 GT PUSH2 0x96B JUMPI JUMPDEST PUSH2 0x956 DUP2 DUP4 PUSH2 0x7B9 JUMP JUMPDEST DUP2 ADD SUB SLT PUSH2 0x967 JUMPI MLOAD SWAP2 PUSH1 0x44 PUSH2 0x845 JUMP JUMPDEST DUP5 DUP1 REVERT JUMPDEST POP RETURNDATASIZE PUSH2 0x94C JUMP JUMPDEST DUP5 MLOAD RETURNDATASIZE DUP8 DUP3 RETURNDATACOPY RETURNDATASIZE SWAP1 REVERT INVALID LOG2 PUSH5 0x6970667358 0x22 SLT KECCAK256 0xBA 0xB3 0xA6 0xCB SWAP4 0xDF 0xC7 SWAP5 EXTCODECOPY PUSH14 0x898617D593341FD19E447D58BD42 CODESIZE 0xE4 ORIGIN 0xD4 0xEE 0xD3 PUSH6 0xCD64736F6C63 NUMBER STOP ADDMOD EQ STOP CALLER "},"methodIdentifiers":{"addSupportedPool(address,address,address,int128)":"eaa3f244","deposit(address,uint256)":"47e7ef24","getAPY(address)":"c4f9870b","getATokenAddress(address)":"711cc005","getTotalBalance(address)":"d3d38193","owner()":"8da5cb5b","tokenToAssetIndex(address)":"899cfa29","tokenToCurveLPToken(address)":"ec717f9a","tokenToCurvePool(address)":"d0458f68","withdraw(address,uint256)":"f3fef3a3"}}}}}