{
  "_format": "hh-sol-artifact-1",
  "contractName": "StrategyManagerFactory",
  "sourceName": "contracts/Strategies/StrategyManagerFactory.sol",
  "abi": [
    {
      "inputs": [],
      "stateMutability": "nonpayable",
      "type": "constructor"
    },
    {
      "anonymous": false,
      "inputs": [
        {
          "indexed": true,
          "internalType": "address",
          "name": "vip",
          "type": "address"
        },
        {
          "indexed": false,
          "internalType": "address",
          "name": "strategyManager",
          "type": "address"
        }
      ],
      "name": "StrategyManagerDeployed",
      "type": "event"
    },
    {
      "inputs": [
        {
          "internalType": "address",
          "name": "_strategyFactory",
          "type": "address"
        },
        {
          "internalType": "address",
          "name": "_vipUser",
          "type": "address"
        },
        {
          "internalType": "uint256",
          "name": "_feeRate",
          "type": "uint256"
        }
      ],
      "name": "deployStrategyManager",
      "outputs": [
        {
          "internalType": "address",
          "name": "",
          "type": "address"
        }
      ],
      "stateMutability": "nonpayable",
      "type": "function"
    },
    {
      "inputs": [
        {
          "internalType": "address",
          "name": "_vipUser",
          "type": "address"
        }
      ],
      "name": "getVIPStrategyManager",
      "outputs": [
        {
          "internalType": "address",
          "name": "",
          "type": "address"
        }
      ],
      "stateMutability": "view",
      "type": "function"
    },
    {
      "inputs": [],
      "name": "owner",
      "outputs": [
        {
          "internalType": "address",
          "name": "",
          "type": "address"
        }
      ],
      "stateMutability": "view",
      "type": "function"
    },
    {
      "inputs": [
        {
          "internalType": "address",
          "name": "",
          "type": "address"
        }
      ],
      "name": "vipStrategyManager",
      "outputs": [
        {
          "internalType": "address",
          "name": "",
          "type": "address"
        }
      ],
      "stateMutability": "view",
      "type": "function"
    }
  ],
  "bytecode": "0x6080806040523461002857600080546001600160a01b03191633179055610bcd908161002e8239f35b600080fdfe60806040818152600436101561001457600080fd5b600091823560e01c90816302343d3014610227575080632c4ac8e0146101ed578063769768a41461007857638da5cb5b1461004e57600080fd5b34610074578160031936011261007457905490516001600160a01b039091168152602090f35b5080fd5b5090346101ea5760603660031901126101ea57610093610263565b916024356001600160a01b03818116918290036101e6578084541633036101b6578184526020946001865281848620541661017f57835190610919908183019183831067ffffffffffffffff84111761016b579184849260609461027f853916815285898201526044358782015203019085f0801561015e5790839116938281526001865220836bffffffffffffffffffffffff60a01b8254161790557f6c1cd0084719b5b43ce061e437c35a7e711992299b11850ddc3fb25615822535848351858152a251908152f35b50505051903d90823e3d90fd5b634e487b7160e01b88526041600452602488fd5b835162461bcd60e51b815260048101879052601060248201526f105b1c9958591e4819195c1b1bde595960821b6044820152606490fd5b825162461bcd60e51b81526020600482015260096024820152682737ba1037bbb732b960b91b6044820152606490fd5b8380fd5b80fd5b5034610074576020366003190112610074576020916001600160a01b0390829082610216610263565b168152600185522054169051908152f35b9190503461025f57602036600319011261025f576020926001600160a01b03919082610251610263565b168152600185522054168152f35b8280fd5b600435906001600160a01b038216820361027957565b600080fdfe6080346100ed57601f61091938819003918201601f19168301916001600160401b038311848410176100f2578084926060946040528339810103126100ed5761004781610108565b90604061005660208301610108565b9101519033156100d45760008054336001600160a01b0319808316821784556040519690946001600160a01b03949093859391908416907f8be0079c531659141344cd1fd0a4f28419497f9722a3daafe3b4186f6b6457e09080a316836004541617600455169060015416176001556002556107fc908161011d8239f35b604051631e4fbdf760e01b815260006004820152602490fd5b600080fd5b634e487b7160e01b600052604160045260246000fd5b51906001600160a01b03821682036100ed5756fe6080604052600436101561001257600080fd5b60003560e01c8063715018a6146105c05780638da5cb5b14610597578063978bbdb9146105795780639ef3571014610550578063d83c69a014610453578063e6d508ea14610130578063eac4715e146101075763f2fde38b1461007457600080fd5b346101025760203660031901126101025761008d610619565b610095610660565b6001600160a01b039081169081156100e957600054826bffffffffffffffffffffffff60a01b821617600055167f8be0079c531659141344cd1fd0a4f28419497f9722a3daafe3b4186f6b6457e0600080a3005b604051631e4fbdf760e01b815260006004820152602490fd5b600080fd5b34610102576000366003190112610102576001546040516001600160a01b039091168152602090f35b3461010257606036600319011261010257610149610619565b67ffffffffffffffff90602480358381116101025761016c90369060040161062f565b9190936044359081116101025761018790369060040161062f565b93909184840361041b576000805b8682106103e157606491500361039d5750336000526003602052604060002080546000825580610376575b5060005b84811061026b5750505060405191806040840160408552526060830194906000905b8082106102415750505081840360208301528284526001600160fb1b03831161010257816020917fd4002324d21846d33b761514fb8bfafe2c20d6ebbd07048d7e870836e89350149460051b809184880137339501030190a2005b90919586359060018060a01b038216809203610102576020816001938293520197019201906101e6565b6004546102c691906020906001600160a01b031661029261028d848a8d6107a2565b6107b2565b6040516321294ccb60e01b81526001600160a01b038089166004830152909116602482015293849190829081906044820190565b03915afa91821561036a57610336926102e79160009161033b575b506106dc565b6102fe6102f861028d83898c6107a2565b8461071b565b6103098188876107a2565b356001600160a01b0361032061028d848a8d6107a2565b166000526001840160205260406000205561077d565b6101c4565b61035d915060203d602011610363575b610355818361068c565b8101906106c4565b8a6102e1565b503d61034b565b6040513d6000823e3d90fd5b816000526020600020908101905b81811061039157506101c0565b60008155600101610384565b606490601b6040519162461bcd60e51b8352602060048401528201527f416c6c6f636174696f6e73206d7573742073756d20746f2031303000000000006044820152fd5b6103ec8288876107a2565b35810180911161040657610400909161077d565b90610195565b82634e487b7160e01b60005260116004526000fd5b60649060116040519162461bcd60e51b835260206004840152820152704d69736d6174636865642061727261797360781b6044820152fd5b346101025760603660031901126101025761046c610619565b6001600160a01b036024358181169283820361010257600480546040516321294ccb60e01b81526001600160a01b03938416928101929092529183166024820152604480359460209492938592859290918391165afa91821561036a576001926104dd9160009161053357506106dc565b33600052600383526104f46040600020918261071b565b84600052018152816040600020556040519283528201527f387c32f2ad33ea5dc4e645053fe55d55c37f37d2c5d5ecab2778d370be3ea21e60403392a2005b61054a9150853d871161036357610355818361068c565b876102e1565b34610102576000366003190112610102576004546040516001600160a01b039091168152602090f35b34610102576000366003190112610102576020600254604051908152f35b34610102576000366003190112610102576000546040516001600160a01b039091168152602090f35b34610102576000366003190112610102576105d9610660565b600080546001600160a01b0319811682556001600160a01b03167f8be0079c531659141344cd1fd0a4f28419497f9722a3daafe3b4186f6b6457e08280a3005b600435906001600160a01b038216820361010257565b9181601f840112156101025782359167ffffffffffffffff8311610102576020808501948460051b01011161010257565b6000546001600160a01b0316330361067457565b60405163118cdaa760e01b8152336004820152602490fd5b90601f8019910116810190811067ffffffffffffffff8211176106ae57604052565b634e487b7160e01b600052604160045260246000fd5b90816020910312610102575180151581036101025790565b156106e357565b60405162461bcd60e51b815260206004820152601060248201526f496e76616c696420737472617465677960801b6044820152606490fd5b805490680100000000000000008210156106ae5760018201808255821015610767576000526020600020019060018060a01b03166bffffffffffffffffffffffff60a01b825416179055565b634e487b7160e01b600052603260045260246000fd5b600019811461078c5760010190565b634e487b7160e01b600052601160045260246000fd5b91908110156107675760051b0190565b356001600160a01b0381168103610102579056fea2646970667358221220f7aeb0172e7a838816aab5ff791f56e6325c3058db97661cbe7f73dcd41e99fd64736f6c63430008140033a2646970667358221220155fd9a53a7ef4af9564dde158188427c51cbfcb445e6e75869d4ce62a61355f64736f6c63430008140033",
  "linkReferences": {},
  "deployedLinkReferences": {}
}