{
  "_format": "hh-sol-artifact-1",
  "contractName": "StrategyFactory",
  "sourceName": "contracts/Strategies/StrategyFactory.sol",
  "abi": [
    {
      "anonymous": false,
      "inputs": [
        {
          "indexed": true,
          "internalType": "address",
          "name": "token",
          "type": "address"
        },
        {
          "indexed": true,
          "internalType": "address",
          "name": "strategy",
          "type": "address"
        }
      ],
      "name": "StrategyAdded",
      "type": "event"
    },
    {
      "anonymous": false,
      "inputs": [
        {
          "indexed": true,
          "internalType": "address",
          "name": "token",
          "type": "address"
        },
        {
          "indexed": true,
          "internalType": "address",
          "name": "strategy",
          "type": "address"
        }
      ],
      "name": "StrategyRemoved",
      "type": "event"
    },
    {
      "inputs": [
        {
          "internalType": "address",
          "name": "_token",
          "type": "address"
        },
        {
          "internalType": "address",
          "name": "_strategy",
          "type": "address"
        }
      ],
      "name": "addStrategy",
      "outputs": [],
      "stateMutability": "nonpayable",
      "type": "function"
    },
    {
      "inputs": [
        {
          "internalType": "address",
          "name": "_token",
          "type": "address"
        }
      ],
      "name": "getBestStrategy",
      "outputs": [
        {
          "internalType": "address",
          "name": "",
          "type": "address"
        }
      ],
      "stateMutability": "view",
      "type": "function"
    },
    {
      "inputs": [
        {
          "internalType": "address",
          "name": "",
          "type": "address"
        }
      ],
      "name": "isSupportedToken",
      "outputs": [
        {
          "internalType": "bool",
          "name": "",
          "type": "bool"
        }
      ],
      "stateMutability": "view",
      "type": "function"
    },
    {
      "inputs": [
        {
          "internalType": "address",
          "name": "_token",
          "type": "address"
        },
        {
          "internalType": "address",
          "name": "_strategy",
          "type": "address"
        }
      ],
      "name": "isValidStrategy",
      "outputs": [
        {
          "internalType": "bool",
          "name": "",
          "type": "bool"
        }
      ],
      "stateMutability": "view",
      "type": "function"
    },
    {
      "inputs": [
        {
          "internalType": "address",
          "name": "_token",
          "type": "address"
        },
        {
          "internalType": "address",
          "name": "_strategy",
          "type": "address"
        }
      ],
      "name": "removeStrategy",
      "outputs": [],
      "stateMutability": "nonpayable",
      "type": "function"
    },
    {
      "inputs": [
        {
          "internalType": "address",
          "name": "",
          "type": "address"
        },
        {
          "internalType": "uint256",
          "name": "",
          "type": "uint256"
        }
      ],
      "name": "tokenStrategies",
      "outputs": [
        {
          "internalType": "address",
          "name": "strategy",
          "type": "address"
        },
        {
          "internalType": "bool",
          "name": "isActive",
          "type": "bool"
        }
      ],
      "stateMutability": "view",
      "type": "function"
    }
  ],
  "bytecode": "0x60808060405234610016576107c1908161001c8239f35b600080fdfe60406080815260048036101561001457600080fd5b600091823560e01c80631560468e1461039d578063180669431461036d57806321294ccb14610336578063240028e8146102f85780638e67d7b3146101655763a9afd13e1461006257600080fd5b34610161576020908160031936011261015d576100809291926103fe565b84936001600160a01b03918216938592909190835b8689528883528589208054821015610152576100b282849261042f565b505460ff8160a01c166100d0575b50506100cb9061045d565b610095565b16865163c4f9870b60e01b815288868201528481602481855afa908115610148578b91610117575b50868111610109575b8391506100c0565b90985094506100cb38610101565b90508481813d8311610141575b61012e81836104b4565b8101031261013d5751386100f8565b8a80fd5b503d610124565b88513d8d823e3d90fd5b838984895191168152f35b8380fd5b8280fd5b8382346102f457806003193601126102f45761017f6103fe565b90610188610419565b6001600160a01b03929083169190831690845b82865260208681528683812080548410156102e957876101bc85899361042f565b505416146101d45750506101cf9061045d565b61019b565b92918495965061020c9060ff929585528486526101f38185872061042f565b508360a01b19815416905586855284865283852061042f565b505460a01c169281519361021f85610482565b601085526f14dd1c985d1959de481c995b5bdd995960821b828601528251918083019363c3b5563560e01b855260248401528551606491818386015286975b8289106102d0575050859650908361029893926084938885838501015215156044830152601f8019910116810103908101845201826104b4565b51906a636f6e736f6c652e6c6f675afa507f64a0e13af5f4bc5a68b1b79d9ff6e775f93e814ee8b0c97d620520190d04bae28380a380f35b888101820151868a0160840152978101978b975061025e565b505050505050505080f35b5080fd5b8382346102f45760203660031901126102f45760209160ff9082906001600160a01b036103236103fe565b1681526001855220541690519015158152f35b8382346102f457806003193601126102f4576020906103646103566103fe565b61035e610419565b906106f7565b90519015158152f35b8382346102f45736600319011261039a576103976103896103fe565b610391610419565b906104d6565b80f35b80fd5b50823461039a578160031936011261039a576103b76103fe565b6001600160a01b0390811682526020829052828220805491926024359283101561039a575060ff916103e89161042f565b50548351928116835260a01c1615156020820152f35b600435906001600160a01b038216820361041457565b600080fd5b602435906001600160a01b038216820361041457565b80548210156104475760005260206000200190600090565b634e487b7160e01b600052603260045260246000fd5b600019811461046c5760010190565b634e487b7160e01b600052601160045260246000fd5b6040810190811067ffffffffffffffff82111761049e57604052565b634e487b7160e01b600052604160045260246000fd5b90601f8019910116810190811067ffffffffffffffff82111761049e57604052565b6001600160a01b03918216919082156106b25760005b828216806000526020906000825260409086868360002080548710156105f857866105169161042f565b5054161461052f5750505061052a9061045d565b6104ec565b92919593509350816000526000855260ff61054d828660002061042f565b505460a01c16156105aa57835162461bcd60e51b815260048101869052602560248201527f537472617465677920616c72656164792065786973747320616e642069732061604482015264637469766560d81b6064820152608490fd5b909260006105bf93958582525260002061042f565b50805460ff60a01b1916600160a01b1790557f5f6921933580ca0adbbb669ff049927ba73230114570507fc8e10f0758f1d804600080a3565b5095945050505050169081600052600060205260406000206040519161061d83610482565b84835260208301916001835280546801000000000000000081101561049e5761064b9160018201815561042f565b93909361069c5751835492516001600160a81b031990931691161790151560a01b60ff60a01b161790557f5f6921933580ca0adbbb669ff049927ba73230114570507fc8e10f0758f1d804600080a3565b634e487b7160e01b600052600060045260246000fd5b60405162461bcd60e51b815260206004820152601860248201527f496e76616c6964207374726174656779206164647265737300000000000000006044820152606490fd5b9060005b60018060a01b03808416806000526020916000835260408060002091825486101561077e578061072c87809561042f565b505416908716149283610759575b50505090506107515761074c9061045d565b6106fb565b505050600190565b61076f935060ff9460009182525260002061042f565b505460a01c168082388061073a565b505050505050505060009056fea2646970667358221220d8b3b82fab49bad3742197bebfda172d262dc1f58fad6ac2146c89a85ea5f34664736f6c63430008140033",
  "linkReferences": {},
  "deployedLinkReferences": {}
}