{
  "_format": "hh-sol-artifact-1",
  "contractName": "MockStrategy",
  "sourceName": "contracts/mocks/MockStrategy.sol",
  "abi": [
    {
      "inputs": [
        {
          "internalType": "address",
          "name": "",
          "type": "address"
        }
      ],
      "name": "balances",
      "outputs": [
        {
          "internalType": "uint256",
          "name": "",
          "type": "uint256"
        }
      ],
      "stateMutability": "view",
      "type": "function"
    },
    {
      "inputs": [
        {
          "internalType": "address",
          "name": "token",
          "type": "address"
        },
        {
          "internalType": "uint256",
          "name": "amount",
          "type": "uint256"
        }
      ],
      "name": "deposit",
      "outputs": [],
      "stateMutability": "nonpayable",
      "type": "function"
    },
    {
      "inputs": [
        {
          "internalType": "address",
          "name": "token",
          "type": "address"
        }
      ],
      "name": "getAPY",
      "outputs": [
        {
          "internalType": "uint256",
          "name": "",
          "type": "uint256"
        }
      ],
      "stateMutability": "view",
      "type": "function"
    },
    {
      "inputs": [
        {
          "internalType": "address",
          "name": "token",
          "type": "address"
        }
      ],
      "name": "getATokenAddress",
      "outputs": [
        {
          "internalType": "address",
          "name": "",
          "type": "address"
        }
      ],
      "stateMutability": "view",
      "type": "function"
    },
    {
      "inputs": [
        {
          "internalType": "address",
          "name": "token",
          "type": "address"
        }
      ],
      "name": "getTotalBalance",
      "outputs": [
        {
          "internalType": "uint256",
          "name": "",
          "type": "uint256"
        }
      ],
      "stateMutability": "view",
      "type": "function"
    },
    {
      "inputs": [
        {
          "internalType": "address",
          "name": "token",
          "type": "address"
        },
        {
          "internalType": "uint256",
          "name": "amount",
          "type": "uint256"
        }
      ],
      "name": "withdraw",
      "outputs": [],
      "stateMutability": "nonpayable",
      "type": "function"
    }
  ],
  "bytecode": "0x6080806040523461001657610382908161001c8239f35b600080fdfe608060408181526004908136101561001657600080fd5b600092833560e01c90816327e235e3146102ae5750806347e7ef24146101fa578063711cc005146101d4578063c4f9870b146101ae578063d3d38193146101735763f3fef3a31461006657600080fd5b3461016f578060031936011261016f5761007e6102e1565b6001600160a01b0316808452602084815282852054909391929160243591821161013757838652858552828620805490838203918211610124579160449187949355878551968794859363a9059cbb60e01b8552339085015260248401525af190811561011b57506100ee578280f35b8161010d92903d10610114575b61010581836102fc565b810190610334565b5038808280f35b503d6100fb565b513d85823e3d90fd5b634e487b7160e01b885260118352602488fd5b825162461bcd60e51b815290810185905260126024820152714e6f7420656e6f7567682062616c616e636560701b6044820152606490fd5b8280fd5b8382346101aa5760203660031901126101aa5760209181906001600160a01b0361019b6102e1565b16815280845220549051908152f35b5080fd5b8382346101aa5760203660031901126101aa576020906101cc6102e1565b505160018152f35b8382346101aa5760203660031901126101aa57906020916101f36102e1565b5051908152f35b50903461016f578160031936011261016f576102146102e1565b82516323b872dd60e01b8152338382015230602482810191909152356044820181905293916001600160a01b03169060208160648189865af180156102a457610286575b50845283602052832090815492830180931161027357505580f35b634e487b7160e01b845260119052602483fd5b61029d9060203d81116101145761010581836102fc565b5038610258565b83513d88823e3d90fd5b9250503461016f57602036600319011261016f576020926001600160a01b036102d56102e1565b16815280845220548152f35b600435906001600160a01b03821682036102f757565b600080fd5b90601f8019910116810190811067ffffffffffffffff82111761031e57604052565b634e487b7160e01b600052604160045260246000fd5b908160209103126102f7575180151581036102f7579056fea2646970667358221220e7bfb05d523c88a3e51f90fdfdc04252547de574035c0910e1e9259fea52cfa264736f6c63430008140033",
  "linkReferences": {},
  "deployedLinkReferences": {}
}