{
  "_format": "hh-sol-artifact-1",
  "contractName": "AaveStrategy",
  "sourceName": "contracts/Strategies/AaveStrategy.sol",
  "abi": [
    {
      "inputs": [
        {
          "internalType": "address",
          "name": "_addressesProvider",
          "type": "address"
        }
      ],
      "stateMutability": "nonpayable",
      "type": "constructor"
    },
    {
      "anonymous": false,
      "inputs": [
        {
          "indexed": true,
          "internalType": "address",
          "name": "user",
          "type": "address"
        },
        {
          "indexed": false,
          "internalType": "address",
          "name": "token",
          "type": "address"
        },
        {
          "indexed": false,
          "internalType": "uint256",
          "name": "amount",
          "type": "uint256"
        }
      ],
      "name": "Deposited",
      "type": "event"
    },
    {
      "anonymous": false,
      "inputs": [
        {
          "indexed": true,
          "internalType": "address",
          "name": "user",
          "type": "address"
        },
        {
          "indexed": false,
          "internalType": "address",
          "name": "token",
          "type": "address"
        },
        {
          "indexed": false,
          "internalType": "uint256",
          "name": "amount",
          "type": "uint256"
        }
      ],
      "name": "Withdrawn",
      "type": "event"
    },
    {
      "inputs": [
        {
          "internalType": "address",
          "name": "",
          "type": "address"
        }
      ],
      "name": "aTokens",
      "outputs": [
        {
          "internalType": "address",
          "name": "",
          "type": "address"
        }
      ],
      "stateMutability": "view",
      "type": "function"
    },
    {
      "inputs": [],
      "name": "aavePool",
      "outputs": [
        {
          "internalType": "contract IPool",
          "name": "",
          "type": "address"
        }
      ],
      "stateMutability": "view",
      "type": "function"
    },
    {
      "inputs": [],
      "name": "addressesProvider",
      "outputs": [
        {
          "internalType": "contract IPoolAddressesProvider",
          "name": "",
          "type": "address"
        }
      ],
      "stateMutability": "view",
      "type": "function"
    },
    {
      "inputs": [
        {
          "internalType": "address",
          "name": "token",
          "type": "address"
        },
        {
          "internalType": "uint256",
          "name": "amount",
          "type": "uint256"
        }
      ],
      "name": "deposit",
      "outputs": [],
      "stateMutability": "nonpayable",
      "type": "function"
    },
    {
      "inputs": [
        {
          "internalType": "address",
          "name": "token",
          "type": "address"
        }
      ],
      "name": "getAPY",
      "outputs": [
        {
          "internalType": "uint256",
          "name": "",
          "type": "uint256"
        }
      ],
      "stateMutability": "view",
      "type": "function"
    },
    {
      "inputs": [
        {
          "internalType": "address",
          "name": "token",
          "type": "address"
        }
      ],
      "name": "getATokenAddress",
      "outputs": [
        {
          "internalType": "address",
          "name": "",
          "type": "address"
        }
      ],
      "stateMutability": "view",
      "type": "function"
    },
    {
      "inputs": [
        {
          "internalType": "address",
          "name": "token",
          "type": "address"
        }
      ],
      "name": "getTotalBalance",
      "outputs": [
        {
          "internalType": "uint256",
          "name": "",
          "type": "uint256"
        }
      ],
      "stateMutability": "view",
      "type": "function"
    },
    {
      "inputs": [
        {
          "internalType": "address",
          "name": "token",
          "type": "address"
        },
        {
          "internalType": "uint256",
          "name": "amount",
          "type": "uint256"
        }
      ],
      "name": "withdraw",
      "outputs": [],
      "stateMutability": "nonpayable",
      "type": "function"
    }
  ],
  "bytecode": "0x60c0806040523461011557610dfa803803809161001c828561011a565b83396001600160a01b039182916100369190810190610153565b1680156100dd576020816004926080526040519283809263026b1d5f60e01b82525afa9081156100d1576000916100a3575b501660a052604051610c879081610173823960805181610393015260a0518181816101470152818161040a015281816104ad01526105a00152f35b6100c4915060203d81116100ca575b6100bc818361011a565b810190610153565b38610068565b503d6100b2565b6040513d6000823e3d90fd5b60405162461bcd60e51b815260206004820152601060248201526f24b73b30b634b210383937bb34b232b960811b6044820152606490fd5b600080fd5b601f909101601f19168101906001600160401b0382119082101761013d57604052565b634e487b7160e01b600052604160045260246000fd5b9081602091031261011557516001600160a01b0381168103610115579056fe6080604081815260048036101561001557600080fd5b600092833560e01c9081633e108ad91461092d5750806347e7ef2414610516578063711cc005146104dc578063a03e4bc314610498578063c4f9870b146103c2578063c72c4d101461037e578063d3d381931461034d5763f3fef3a31461007b57600080fd5b34610349578160031936011261034957610093610964565b91602435916001600160a01b038085166100ae81151561097a565b808752602091878352808589205416801561030c5785516323b872dd60e01b815233868201908152306020820152604081018990529091859183919082908d90829060600103925af19081156103025790610110918a916102e5575b50610b7b565b8561011a88610bc0565b106102a3578288916064875180948193631a4ca37b60e21b8352878a8401528b60248401523060448401527f0000000000000000000000000000000000000000000000000000000000000000165af180156102995790839161026b575b50845163a9059cbb60e01b815233858201908152602081018890529092839182908b90829060400103925af1908115610261578791610234575b50156101fc575050516001600160a01b039092168252602082015233907fd1c19fbcd4551a5edfb66d43d2e337c04837afda3482b42bdf569a8fccdae5fb9080604081015b0390a280f35b606492519162461bcd60e51b83528201526015602482015274151bdad95b881d1c985b9cd9995c8819985a5b1959605a1b6044820152fd5b6102549150823d841161025a575b61024c81836109b6565b8101906109ee565b386101b1565b503d610242565b84513d89823e3d90fd5b813d8311610292575b61027e81836109b6565b8101031261028d578138610177565b600080fd5b503d610274565b85513d8a823e3d90fd5b5050606492519162461bcd60e51b8352820152601b60248201527f496e73756666696369656e742061546f6b656e2062616c616e636500000000006044820152fd5b6102fc9150853d871161025a5761024c81836109b6565b3861010a565b86513d8b823e3d90fd5b5050925162461bcd60e51b8152918201526016602482015275496e76616c69642061546f6b656e206164647265737360501b604482015260649150fd5b8280fd5b50503461037a57602036600319011261037a5760209061037361036e610964565b610bc0565b9051908152f35b5080fd5b50503461037a578160031936011261037a57517f00000000000000000000000000000000000000000000000000000000000000006001600160a01b03168152602090f35b5034610349576020366003190112610349576103dc610964565b82516335ea6a7560e01b81526001600160a01b03918216928101929092526101e091908290829060249082907f0000000000000000000000000000000000000000000000000000000000000000165afa91821561048b5791633b9aca009184936020969261045e575b50506001600160801b0392839101511604169051908152f35b61047d9250803d10610484575b61047581836109b6565b810190610a2e565b3880610445565b503d61046b565b50505051903d90823e3d90fd5b50503461037a578160031936011261037a57517f00000000000000000000000000000000000000000000000000000000000000006001600160a01b03168152602090f35b50503461037a57602036600319011261037a576020916001600160a01b0390829082610506610964565b1681528085522054169051908152f35b503461034957816003193601126103495761052f610964565b91602480359283156108ec576001600160a01b0385811661055181151561097a565b84516323b872dd60e01b815233848201908152306020828101919091526040820189905295919086908290819060600103818d875af1908115610734578a916108cf575b5015610898578890837f0000000000000000000000000000000000000000000000000000000000000000168751636eb1769f60e11b8152308782015281838201528781604481885afa908115610810578491610867575b508981106107c1575b508383528287528488842054161561073e575b803b15610349578290608489518095819363617ba03760e01b8352888b8401528d878401523060448401528160648401525af1801561073457610706575b5050875286835283872054845163a9059cbb60e01b815233938101938452602084018790529284928492169082908a90829060400103925af19182156106fc577f8752a472e571a816aea92eec8dae9baf628e840f4929fbcc2d155e6233ff68a794926101f694926106c09289926106df575b5050610b7b565b516001600160a01b039094168452602084015233929081906040820190565b6106f59250803d1061025a5761024c81836109b6565b38806106b9565b83513d88823e3d90fd5b67ffffffffffffffff829a939a1161072357508552968284610646565b634e487b7160e01b83526041855282fd5b87513d8c823e3d90fd5b87516335ea6a7560e01b81528681018590526101e09081818581865afa9182156107b75791610100918893879261079a575b5050015116848452838852888420906bffffffffffffffffffffffff60a01b825416179055610608565b6107b09250803d106104845761047581836109b6565b3880610770565b8a513d87823e3d90fd5b61081a575b875163095ea7b360e01b815286810182905260001983820152878160448187895af1801561081057156105f55761080990883d8a1161025a5761024c81836109b6565b50386105f5565b89513d86823e3d90fd5b875163095ea7b360e01b815281878201528383820152878160448187895af180156108105761084a575b506107c6565b61086090883d8a1161025a5761024c81836109b6565b5038610844565b90508781813d8311610891575b61087e81836109b6565b8101031261088d5751386105ec565b8380fd5b503d610874565b8360136064928789519362461bcd60e51b855284015282015272151c985b9cd9995c919c9bdb4819985a5b1959606a1b6044820152fd5b6108e69150863d881161025a5761024c81836109b6565b38610595565b601d606492602085519362461bcd60e51b85528401528201527f416d6f756e74206d7573742062652067726561746572207468616e20300000006044820152fd5b84908434610349576020366003190112610349576020926001600160a01b03919082610957610964565b1681528085522054168152f35b600435906001600160a01b038216820361028d57565b1561098157565b60405162461bcd60e51b815260206004820152600d60248201526c24b73b30b634b2103a37b5b2b760991b6044820152606490fd5b90601f8019910116810190811067ffffffffffffffff8211176109d857604052565b634e487b7160e01b600052604160045260246000fd5b9081602091031261028d5751801515810361028d5790565b51906001600160801b038216820361028d57565b51906001600160a01b038216820361028d57565b6101e09181900382811261028d576040519283019067ffffffffffffffff90848310828411176109d85760201361028d576102008401908111828210176109d857604052815181528252610a8460208201610a06565b6020830152610a9560408201610a06565b6040830152610aa660608201610a06565b6060830152610ab760808201610a06565b6080830152610ac860a08201610a06565b60a083015260c081015164ffffffffff8116810361028d5760c083015260e081015161ffff8116810361028d5760e0830152610100610b08818301610a1a565b90830152610120610b1a818301610a1a565b90830152610140610b2c818301610a1a565b90830152610160610b3e818301610a1a565b90830152610180610b50818301610a06565b908301526101a0610b62818301610a06565b90830152610b746101c0809201610a06565b9082015290565b15610b8257565b60405162461bcd60e51b815260206004820152601660248201527518551bdad95b881d1c985b9cd9995c8819985a5b195960521b6044820152606490fd5b60018060a01b0380600092168252816020526040822054168015610c4d576020602491604051928380926370a0823160e01b82523060048301525afa918215610c41578092610c0e57505090565b9091506020823d8211610c39575b81610c29602093836109b6565b81010312610c3657505190565b80fd5b3d9150610c1c565b604051903d90823e3d90fd5b509056fea264697066735822122025fcf2b85155ad70320f819a3ace39ba0d0ce689b65aa79f6ae0fff742443ee964736f6c63430008140033",
  "linkReferences": {},
  "deployedLinkReferences": {}
}