{
  "_format": "hh-sol-artifact-1",
  "contractName": "FeeManager",
  "sourceName": "contracts/core/FeeManager.sol",
  "abi": [
    {
      "inputs": [
        {
          "internalType": "address",
          "name": "_feeReceiver",
          "type": "address"
        }
      ],
      "stateMutability": "nonpayable",
      "type": "constructor"
    },
    {
      "anonymous": false,
      "inputs": [
        {
          "indexed": false,
          "internalType": "uint256",
          "name": "newFee",
          "type": "uint256"
        }
      ],
      "name": "ManagementFeeUpdated",
      "type": "event"
    },
    {
      "anonymous": false,
      "inputs": [
        {
          "indexed": false,
          "internalType": "uint256",
          "name": "newFee",
          "type": "uint256"
        }
      ],
      "name": "WithdrawalFeeUpdated",
      "type": "event"
    },
    {
      "inputs": [
        {
          "internalType": "address",
          "name": "token",
          "type": "address"
        },
        {
          "internalType": "uint256",
          "name": "amount",
          "type": "uint256"
        }
      ],
      "name": "chargeManagementFee",
      "outputs": [],
      "stateMutability": "nonpayable",
      "type": "function"
    },
    {
      "inputs": [
        {
          "internalType": "address",
          "name": "token",
          "type": "address"
        },
        {
          "internalType": "uint256",
          "name": "amount",
          "type": "uint256"
        }
      ],
      "name": "chargeWithdrawalFee",
      "outputs": [],
      "stateMutability": "nonpayable",
      "type": "function"
    },
    {
      "inputs": [],
      "name": "feeReceiver",
      "outputs": [
        {
          "internalType": "address",
          "name": "",
          "type": "address"
        }
      ],
      "stateMutability": "view",
      "type": "function"
    },
    {
      "inputs": [],
      "name": "managementFee",
      "outputs": [
        {
          "internalType": "uint256",
          "name": "",
          "type": "uint256"
        }
      ],
      "stateMutability": "view",
      "type": "function"
    },
    {
      "inputs": [],
      "name": "owner",
      "outputs": [
        {
          "internalType": "address",
          "name": "",
          "type": "address"
        }
      ],
      "stateMutability": "view",
      "type": "function"
    },
    {
      "inputs": [
        {
          "internalType": "uint256",
          "name": "_fee",
          "type": "uint256"
        }
      ],
      "name": "setManagementFee",
      "outputs": [],
      "stateMutability": "nonpayable",
      "type": "function"
    },
    {
      "inputs": [
        {
          "internalType": "uint256",
          "name": "_fee",
          "type": "uint256"
        }
      ],
      "name": "setWithdrawalFee",
      "outputs": [],
      "stateMutability": "nonpayable",
      "type": "function"
    },
    {
      "inputs": [],
      "name": "withdrawalFee",
      "outputs": [
        {
          "internalType": "uint256",
          "name": "",
          "type": "uint256"
        }
      ],
      "stateMutability": "view",
      "type": "function"
    }
  ],
  "bytecode": "0x60803461007a57601f6104d838819003918201601f19168301916001600160401b0383118484101761007f5780849260209460405283398101031261007a57516001600160a01b0381169081900361007a5760018060a01b031933816000541617600055600154161760015560405161044290816100968239f35b600080fd5b634e487b7160e01b600052604160045260246000fdfe604060808152600436101561001357600080fd5b600090813560e01c8063044eaffd1461028b5780638bc7e8c41461026d5780638da5cb5b14610246578063a6f7f5d614610228578063ac1e5025146101c0578063b3f0067414610198578063c266e2d2146100e25763fe56e2321461007757600080fd5b346100de5760203660031901126100de5760207f2147e2bc8c39e67f74b1a9e08896ea1485442096765942206af1f4bc8bcde91791600435906100c460018060a01b0386541633146102dd565b6100d2612710831115610319565b8160025551908152a180f35b5080fd5b50346100de5761014f9060206101096127106100fd366102b2565b60039391935490610354565b049061011682151561037d565b600154845163a9059cbb60e01b81526001600160a01b039182166004820152602481019390935291948592839188919083906044820190565b0393165af190811561018f5750610164575080f35b6101849060203d8111610188575b61017c81836103bc565b8101906103f4565b5080f35b503d610172565b513d84823e3d90fd5b50346100de57816003193601126100de5760015490516001600160a01b039091168152602090f35b50346100de5760203660031901126100de5760207fe94edcc114da5287ecb30ee8aacf12e6c16b11b8583d7f9e477ab1616e33d53d916004359061020e60018060a01b0386541633146102dd565b61021c612710831115610319565b8160035551908152a180f35b50346100de57816003193601126100de576020906002549051908152f35b50346100de57816003193601126100de57905490516001600160a01b039091168152602090f35b50346100de57816003193601126100de576020906003549051908152f35b50346100de5761014f9060206101096127106102a6366102b2565b60029391935490610354565b60409060031901126102d8576004356001600160a01b03811681036102d8579060243590565b600080fd5b156102e457565b60405162461bcd60e51b815260206004820152600d60248201526c2737ba103a34329037bbb732b960991b6044820152606490fd5b1561032057565b60405162461bcd60e51b815260206004820152600c60248201526b08ccaca40e8dede40d0d2ced60a31b6044820152606490fd5b8181029291811591840414171561036757565b634e487b7160e01b600052601160045260246000fd5b1561038457565b60405162461bcd60e51b815260206004820152601060248201526f4e6f2066656520746f2063686172676560801b6044820152606490fd5b90601f8019910116810190811067ffffffffffffffff8211176103de57604052565b634e487b7160e01b600052604160045260246000fd5b908160209103126102d8575180151581036102d8579056fea2646970667358221220a7d9361726234c97c5c12b07d07dfdac3dfffcb9013ca222aedde7719e32f2c064736f6c63430008140033",
  "linkReferences": {},
  "deployedLinkReferences": {}
}