{
  "_format": "hh-sol-artifact-1",
  "contractName": "CurveStrategy",
  "sourceName": "contracts/Strategies/CurveStrategy.sol",
  "abi": [
    {
      "inputs": [],
      "stateMutability": "nonpayable",
      "type": "constructor"
    },
    {
      "inputs": [
        {
          "internalType": "address",
          "name": "token",
          "type": "address"
        },
        {
          "internalType": "address",
          "name": "curvePool",
          "type": "address"
        },
        {
          "internalType": "address",
          "name": "curveLPToken",
          "type": "address"
        },
        {
          "internalType": "int128",
          "name": "index",
          "type": "int128"
        }
      ],
      "name": "addSupportedPool",
      "outputs": [],
      "stateMutability": "nonpayable",
      "type": "function"
    },
    {
      "inputs": [
        {
          "internalType": "address",
          "name": "token",
          "type": "address"
        },
        {
          "internalType": "uint256",
          "name": "amount",
          "type": "uint256"
        }
      ],
      "name": "deposit",
      "outputs": [],
      "stateMutability": "nonpayable",
      "type": "function"
    },
    {
      "inputs": [
        {
          "internalType": "address",
          "name": "token",
          "type": "address"
        }
      ],
      "name": "getAPY",
      "outputs": [
        {
          "internalType": "uint256",
          "name": "",
          "type": "uint256"
        }
      ],
      "stateMutability": "view",
      "type": "function"
    },
    {
      "inputs": [
        {
          "internalType": "address",
          "name": "token",
          "type": "address"
        }
      ],
      "name": "getATokenAddress",
      "outputs": [
        {
          "internalType": "address",
          "name": "",
          "type": "address"
        }
      ],
      "stateMutability": "view",
      "type": "function"
    },
    {
      "inputs": [
        {
          "internalType": "address",
          "name": "token",
          "type": "address"
        }
      ],
      "name": "getTotalBalance",
      "outputs": [
        {
          "internalType": "uint256",
          "name": "",
          "type": "uint256"
        }
      ],
      "stateMutability": "view",
      "type": "function"
    },
    {
      "inputs": [],
      "name": "owner",
      "outputs": [
        {
          "internalType": "address",
          "name": "",
          "type": "address"
        }
      ],
      "stateMutability": "view",
      "type": "function"
    },
    {
      "inputs": [
        {
          "internalType": "address",
          "name": "",
          "type": "address"
        }
      ],
      "name": "tokenToAssetIndex",
      "outputs": [
        {
          "internalType": "int128",
          "name": "",
          "type": "int128"
        }
      ],
      "stateMutability": "view",
      "type": "function"
    },
    {
      "inputs": [
        {
          "internalType": "address",
          "name": "",
          "type": "address"
        }
      ],
      "name": "tokenToCurveLPToken",
      "outputs": [
        {
          "internalType": "address",
          "name": "",
          "type": "address"
        }
      ],
      "stateMutability": "view",
      "type": "function"
    },
    {
      "inputs": [
        {
          "internalType": "address",
          "name": "",
          "type": "address"
        }
      ],
      "name": "tokenToCurvePool",
      "outputs": [
        {
          "internalType": "address",
          "name": "",
          "type": "address"
        }
      ],
      "stateMutability": "view",
      "type": "function"
    },
    {
      "inputs": [
        {
          "internalType": "address",
          "name": "token",
          "type": "address"
        },
        {
          "internalType": "uint256",
          "name": "amount",
          "type": "uint256"
        }
      ],
      "name": "withdraw",
      "outputs": [],
      "stateMutability": "nonpayable",
      "type": "function"
    }
  ],
  "bytecode": "0x6080806040523461002857600080546001600160a01b031916331790556109b2908161002e8239f35b600080fdfe6080604081815260048036101561001557600080fd5b600092833560e01c90816347e7ef241461057c57508063711cc005146102c3578063899cfa29146105415780638da5cb5b14610519578063c4f9870b146104ec578063d0458f68146104b1578063d3d3819314610421578063eaa3f24414610302578063ec717f9a146102c35763f3fef3a31461009157600080fd5b346101fb57816003193601126101fb576100a961072d565b9160243560018060a01b038094169283865260209460018652808488205416906002875284882054166003875284882054600f0b90821515806102ba575b1561028257876024918751928380926370a0823160e01b825230898301525afa908115610278579085918a91610242575b50106101ff57908791813b156101fb5782916064839288519485938492630d2680e960e11b84528a8a85015260248401528160448401525af180156101f1579087949392916101d4575b50845163a9059cbb60e01b815233928101928352602083019390935291948592918390036040019183915af19081156101cb575061019e578280f35b816101bd92903d106101c4575b6101b581836107b9565b8101906107db565b5038808280f35b503d6101ab565b513d85823e3d90fd5b6101e09192945061078f565b6101ed5784918638610162565b8580fd5b85513d84823e3d90fd5b8280fd5b845162461bcd60e51b8152808401889052601760248201527f496e73756666696369656e74204c502062616c616e63650000000000000000006044820152606490fd5b809250898092503d8311610271575b61025b81836107b9565b8101031261026c5784905138610118565b600080fd5b503d610251565b86513d8b823e3d90fd5b855162461bcd60e51b81528085018990526012602482015271125b9d985b1a590810dd5c9d99481c1bdbdb60721b6044820152606490fd5b508015156100e7565b5050346102fe5760203660031901126102fe576020916001600160a01b03908290826102ed61072d565b168152600285522054169051908152f35b5080fd5b5090346101fb5760803660031901126101fb5761031d61072d565b6024356001600160a01b03818116929183900361026c576044359181831680930361026c576064359586600f0b870361041d578288541633036103e95784156103b7575016855260016020528285206bffffffffffffffffffffffff60a01b928382541617905560026020528285209182541617905560036020528220906001600160801b0319825416906001600160801b031617905580f35b606490602087519162461bcd60e51b8352820152600c60248201526b125b9d985b1a59081c1bdbdb60a21b6044820152fd5b606490602087519162461bcd60e51b8352820152600e60248201526d139bdd08185d5d1a1bdc9a5e995960921b6044820152fd5b8780fd5b509190346102fe57602092836003193601126101fb57836001600160a01b0361044861072d565b169160248451809481936370a0823160e01b835230908301525afa9283156104a65792610477575b5051908152f35b9091508281813d831161049f575b61048f81836107b9565b8101031261026c57519038610470565b503d610485565b8251903d90823e3d90fd5b5050346102fe5760203660031901126102fe576020916001600160a01b03908290826104db61072d565b168152600185522054169051908152f35b5050346102fe5760203660031901126102fe5760209061051261050d61072d565b6107f3565b9051908152f35b5050346102fe57816003193601126102fe57905490516001600160a01b039091168152602090f35b5050346102fe5760203660031901126102fe5760209181906001600160a01b0361056961072d565b168152600384522054600f0b9051908152f35b849391503461072957816003193601126107295761059861072d565b6024359182156106e8575060018060a01b0380911691828652806106066001936020928391868352888b205416966105d1881515610743565b885163095ea7b360e01b81526001600160a01b038916818c01908152602081019390935293849283918d918391604090910190565b03925af180156106de576106c1575b5084519181830183811067ffffffffffffffff8211176106ae5786528252833b156106aa5794918693918551968794634e7d6a3160e11b8652850186905b84821061069157505050505081836044928160248401525af1908115610688575061067c575080f35b6106859061078f565b80f35b513d84823e3d90fd5b835181528a975089965092820192908401908201610653565b8680fd5b634e487b7160e01b895260418852602489fd5b6106d790823d84116101c4576101b581836107b9565b5087610615565b86513d8a823e3d90fd5b62461bcd60e51b8152602085820181905260248201527f416d6f756e74206d7573742062652067726561746572207468616e207a65726f6044820152606490fd5b8380fd5b600435906001600160a01b038216820361026c57565b1561074a57565b60405162461bcd60e51b815260206004820152601c60248201527f4e6f20437572766520706f6f6c20666f72207468697320746f6b656e000000006044820152606490fd5b67ffffffffffffffff81116107a357604052565b634e487b7160e01b600052604160045260246000fd5b90601f8019910116810190811067ffffffffffffffff8211176107a357604052565b9081602091031261026c5751801515810361026c5790565b6001600160a01b0390811660008181526001602090815260408083205490941693919290610822851515610743565b8251630176f71760e71b8152918183600481895afa92831561097257859361093e575b50906044918552600381528084862054600f0b9685519384809263cc2b27d760e01b8252670de0b6b3a76400009a8b600484015260248301525afa93841561093557508493610905575b505081156108fe57838102908082048514901517156108ea570490670de0b6b3a763ffff1982019182116108d65761016d918281029281840414901517156108d657500490565b634e487b7160e01b81526011600452602490fd5b634e487b7160e01b83526011600452602483fd5b5050905090565b9080929350813d831161092e575b61091d81836107b9565b810103126101fb575190388061088f565b503d610913565b513d86823e3d90fd5b9092508181813d831161096b575b61095681836107b9565b810103126109675751916044610845565b8480fd5b503d61094c565b84513d87823e3d90fdfea2646970667358221220bab3a6cb93dfc7943c6d898617d593341fd19e447d58bd4238e432d4eed365cd64736f6c63430008140033",
  "linkReferences": {},
  "deployedLinkReferences": {}
}