{
  "_format": "hh-sol-artifact-1",
  "contractName": "YieldAggregatorV1",
  "sourceName": "contracts/core/YieldAggregatorV1.sol",
  "abi": [
    {
      "inputs": [
        {
          "internalType": "address",
          "name": "_timelock",
          "type": "address"
        },
        {
          "internalType": "address",
          "name": "_strategyFactory",
          "type": "address"
        },
        {
          "internalType": "address",
          "name": "_feeManager",
          "type": "address"
        }
      ],
      "stateMutability": "nonpayable",
      "type": "constructor"
    },
    {
      "anonymous": false,
      "inputs": [
        {
          "indexed": true,
          "internalType": "address",
          "name": "user",
          "type": "address"
        },
        {
          "indexed": true,
          "internalType": "address",
          "name": "token",
          "type": "address"
        },
        {
          "indexed": false,
          "internalType": "uint256",
          "name": "amount",
          "type": "uint256"
        }
      ],
      "name": "Deposited",
      "type": "event"
    },
    {
      "anonymous": false,
      "inputs": [
        {
          "indexed": true,
          "internalType": "address",
          "name": "token",
          "type": "address"
        },
        {
          "indexed": true,
          "internalType": "address",
          "name": "strategy",
          "type": "address"
        }
      ],
      "name": "StrategyUpdated",
      "type": "event"
    },
    {
      "anonymous": false,
      "inputs": [
        {
          "indexed": true,
          "internalType": "address",
          "name": "user",
          "type": "address"
        },
        {
          "indexed": true,
          "internalType": "address",
          "name": "token",
          "type": "address"
        },
        {
          "indexed": false,
          "internalType": "uint256",
          "name": "amount",
          "type": "uint256"
        }
      ],
      "name": "Withdrawn",
      "type": "event"
    },
    {
      "inputs": [
        {
          "internalType": "address",
          "name": "",
          "type": "address"
        },
        {
          "internalType": "address",
          "name": "",
          "type": "address"
        }
      ],
      "name": "balances",
      "outputs": [
        {
          "internalType": "uint256",
          "name": "",
          "type": "uint256"
        }
      ],
      "stateMutability": "view",
      "type": "function"
    },
    {
      "inputs": [
        {
          "internalType": "address",
          "name": "token",
          "type": "address"
        },
        {
          "internalType": "uint256",
          "name": "amount",
          "type": "uint256"
        }
      ],
      "name": "deposit",
      "outputs": [],
      "stateMutability": "payable",
      "type": "function"
    },
    {
      "inputs": [],
      "name": "feeManager",
      "outputs": [
        {
          "internalType": "contract FeeManager",
          "name": "",
          "type": "address"
        }
      ],
      "stateMutability": "view",
      "type": "function"
    },
    {
      "inputs": [
        {
          "internalType": "address",
          "name": "",
          "type": "address"
        }
      ],
      "name": "isSupportedToken",
      "outputs": [
        {
          "internalType": "bool",
          "name": "",
          "type": "bool"
        }
      ],
      "stateMutability": "view",
      "type": "function"
    },
    {
      "inputs": [],
      "name": "owner",
      "outputs": [
        {
          "internalType": "address",
          "name": "",
          "type": "address"
        }
      ],
      "stateMutability": "view",
      "type": "function"
    },
    {
      "inputs": [],
      "name": "strategyFactory",
      "outputs": [
        {
          "internalType": "contract StrategyFactory",
          "name": "",
          "type": "address"
        }
      ],
      "stateMutability": "view",
      "type": "function"
    },
    {
      "inputs": [],
      "name": "timelock",
      "outputs": [
        {
          "internalType": "address",
          "name": "",
          "type": "address"
        }
      ],
      "stateMutability": "view",
      "type": "function"
    },
    {
      "inputs": [
        {
          "internalType": "address",
          "name": "token",
          "type": "address"
        },
        {
          "internalType": "uint256",
          "name": "amount",
          "type": "uint256"
        }
      ],
      "name": "withdraw",
      "outputs": [],
      "stateMutability": "payable",
      "type": "function"
    }
  ],
  "bytecode": "0x6080346100ab57601f6109b838819003918201601f19168301916001600160401b038311848410176100b0578084926060946040528339810103126100ab57610047816100c6565b906100606040610059602084016100c6565b92016100c6565b60018060a01b0319923384600054161760005560018060a01b03928380921685600154161760015516836002541617600255169060035416176003556040516108dd90816100db8239f35b600080fd5b634e487b7160e01b600052604160045260246000fd5b51906001600160a01b03821682036100ab5756fe60806040908082526004918236101561001757600080fd5b600091823560e01c908163240028e81461078f5750806347e7ef24146104605780638da5cb5b146104395780639ef3571014610411578063c23f001f146103b9578063d0fb020314610391578063d33219b4146103695763f3fef3a31461007d57600080fd5b80600319360112610365576100906107ca565b33835260208481528284206001600160a01b03808416600081815292845291859020549194602435949092851161032b578160025416848760248b875194859384926354d7e89f60e11b84528301525afa9081156102cb57908391899161030e575b501691610100831515610863565b835163711cc00560e01b8152898101889052908582602481875afa91821561030457610165928b8b89948b9482946102d5575b5089516323b872dd60e01b81523393810193845230602085015260408401959095529395869485939091849160600190565b0393165af180156102cb576102ae575b50813b156102aa57825163f3fef3a360e01b81526001600160a01b03909116818901908152602081018690529091879183919082908490829060400103925af1801561028857908691610292575b5050805163a9059cbb60e01b81523387820190815260208101859052839082908190604001038189895af180156102885761025b575b503385528582528085208460005282528060002080549084820391821161024857555191825233917fd1c19fbcd4551a5edfb66d43d2e337c04837afda3482b42bdf569a8fccdae5fb9190a380f35b634e487b7160e01b875260118852602487fd5b61027a90833d8511610281575b610272818361080a565b81019061082c565b50386101f9565b503d610268565b82513d88823e3d90fd5b61029b906107e0565b6102a65784386101c3565b8480fd5b8680fd5b6102c490853d871161028157610272818361080a565b5038610175565b84513d8a823e3d90fd5b6102f6919450863d88116102fd575b6102ee818361080a565b810190610844565b9238610133565b503d6102e4565b85513d8b823e3d90fd5b6103259150863d88116102fd576102ee818361080a565b386100f2565b825162461bcd60e51b81528089018590526014602482015273496e73756666696369656e742062616c616e636560601b6044820152606490fd5b5080fd5b503461036557816003193601126103655760015490516001600160a01b039091168152602090f35b503461036557816003193601126103655760035490516001600160a01b039091168152602090f35b50903461040e578160031936011261040e576103d36107ca565b6001600160a01b039360243585811693919084900361040957602095859316825285522090600052825280600020549051908152f35b600080fd5b80fd5b503461036557816003193601126103655760025490516001600160a01b039091168152602090f35b5034610365578160031936011261036557905490516001600160a01b039091168152602090f35b50828160031936011261078b576104756107ca565b6024359081156107485783516323b872dd60e01b81523381850190815230602082810191909152604082018590526001600160a01b038481169691949193909285908290819060600103818c8b5af180156106c85761072b575b503388528284528688208689528452868820805490868201809211610718579060249291558483600254168951938480926354d7e89f60e11b82528b898301525afa9182156106c85789926106f9575b50610566858785851694610534861515610863565b8b5163095ea7b360e01b81526001600160a01b0390911688820190815260208101929092529283918291604090910190565b03818d8c5af180156106ef576106d2575b5088823b1561040e5788516311f9fbc960e21b81526001600160a01b039092168583019081526020810188905282908190604001038183865af180156106c8576106b0575b506024929184899289519586809263711cc00560e01b82528b888301525afa9384156106a65792826106209995928795899594610687575b50865163a9059cbb60e01b815233938101938452602084019590955293998a9485939091849160400190565b0393165af194851561067d577f8752a472e571a816aea92eec8dae9baf628e840f4929fbcc2d155e6233ff68a7939495610660575b50519283523392a380f35b61067690833d851161028157610272818361080a565b5086610655565b81513d88823e3d90fd5b61069f919450863d88116102fd576102ee818361080a565b928c6105f4565b88513d84823e3d90fd5b9184986106bf602495946107e0565b985091926105bc565b88513d8b823e3d90fd5b6106e890863d881161028157610272818361080a565b5089610577565b89513d8c823e3d90fd5b610711919250853d87116102fd576102ee818361080a565b908961051f565b634e487b7160e01b8a526011855260248afd5b61074190853d871161028157610272818361080a565b50886104cf565b835162461bcd60e51b8152602081850152601d60248201527f416d6f756e74206d7573742062652067726561746572207468616e20300000006044820152606490fd5b8280fd5b9190503461078b57602036600319011261078b5760209260ff91906001600160a01b036107ba6107ca565b1681526005855220541615158152f35b600435906001600160a01b038216820361040957565b67ffffffffffffffff81116107f457604052565b634e487b7160e01b600052604160045260246000fd5b90601f8019910116810190811067ffffffffffffffff8211176107f457604052565b90816020910312610409575180151581036104095790565b9081602091031261040957516001600160a01b03811681036104095790565b1561086a57565b60405162461bcd60e51b81526020600482015260156024820152744e6f20737472617465677920617661696c61626c6560581b6044820152606490fdfea2646970667358221220266d1eac614a3501531c462ec0155d399c63817289b9123ca0726ade4e7ec86864736f6c63430008140033",
  "linkReferences": {},
  "deployedLinkReferences": {}
}